:100000008AC00000A4C00000A2C00000A0C0000080
:100010009EC000009CC000009AC0000098C0000074
:100020008AC5000094C0000092C0000090C000008B
:100030008EC000008CC000008AC0000088C0000094
:1000400086C0000084C0000082C0000080C00000A4
:1000500036C500007CC000007AC0000078C00000F7
:1000600076C0000074C0000072C0000070C00000C4
:100070006EC000006CC000006AC000002E06320690
:100080007F069B06A206B206C206F806030706070D
:100090000A070E0707634236B79BD8A71A39685676
:1000A00018AEBAAB558C1D3CB7CC5763BD6DEDFD9A
:1000B000753EF6177231BF000000803F0800000057
:1000C000BE922449123EABAAAA2ABECDCCCC4C3E4D
:1000D00000000080BEABAAAAAA3E00000000BF003C
:1000E0000000803F0000000000084178D3BB438738
:1000F000D1133D190E3CC3BD4282AD2B3E68EC824C
:1001000076BED98FE1A93E4C80EFFFBE01C4FF7FD0
:100110003F000000000011241FBECFEFD8E0DEBF7B
:10012000CDBF13E0A0E0B1E0EEE2FEE102C0059039
:100130000D92A03BB107D9F725E0A0EBB3E001C0D9
:100140001D92AE30B207E1F7A7D60C94150F58CF29
:10015000CF93DF931F92CDB7DEB79FB79983F89403
:100160009981823040F4E82FF0E0EC59FF4F609520
:100170008081682360839FBF0F90DF91CF910895A6
:10018000FC01908195FFFDCF668380E00895FC011E
:1001900090819923ECF7868108954F925F926F9238
:1001A0007F928F929F92AF92BF92CF92DF92EF9207
:1001B000FF920F931F93CF93DF93EC016A017B01B2
:1001C00028013901689412F87694679457944794FB
:1001D0001694D1F7888181FD0EC048015901072E80
:1001E00073E1B694A794979487947A95D1F7702D7C
:1001F000D301C20115C0D901C801689413F8B6959E
:10020000A795979587951694D1F748015901072E20
:1002100074E1B694A794979487947A95D1F7702D4A
:100220008C159D05AE05BF0578F1C814D904EA0404
:10023000FB0460F1888181FF10C0A7019601220FA5
:10024000331F441F551FC301B2010E94560EDA012D
:10025000C9010197A109B10913C0C901B801689486
:1002600013F896958795779567951694D1F7A7011A
:1002700096010E94560EDA01C9010197A109B10940
:100280009D838C8381E003C080E001C080E0DF912A
:10029000CF911F910F91FF90EF90DF90CF90BF9083
:1002A000AF909F908F907F906F905F904F90089548
:1002B0000F931F93CF93DF93EC018B01803C91054B
:1002C00019F462E080E044DF8A818F738A83F80149
:1002D0002681358184819A81482F4370440F997F0C
:1002E000942B9A8399818470880F880F9B7F892B28
:1002F00089838A818F7C832B8A839A81977F822F3F
:10030000880F880F880F892B8A83408151816281F1
:10031000738100E412E42FE030E0CE013EDF9981EA
:1003200098609983998190619983DF91CF911F9112
:100330000F910895FB0122813381AC01421B530BC5
:100340009A0122F444275527421B530B628573857B
:1003500077231CF4719561957109A1E06417750705
:100360000CF0A0E0AA23A1F061E0A289B389AB2B35
:1003700009F460E0662361F0332344F49A012F3FCF
:1003800057E0350710F02FEF37E0386033872287CA
:10039000268137818217930710F4978386832085FF
:1003A00031852817390710F491878087089504C094
:1003B00061507109810991096115710581059105E6
:1003C000B9F708950F931F93CF93DF93EB016881E3
:1003D000662339F08C012196C801D2DE6991611142
:1003E000FBCFDF91CF911F910F910895442361F0CE
:1003F000A62FB72FE82FF92F80E02D913D91219363
:1004000031938F5F4813F9CF80E00895662359F048
:10041000FC01615070E06F5F7F4F860F971F119254
:10042000E817F907E1F7089541E065EE72E08CE026
:1004300095E0DCDF64E686E194E0E8DF64E682EBE9
:1004400093E0E4CF089514BEE0E6F0E088E1808315
:1004500086E480830895569A5E980895549A559834
:100460000895CF93882341F0C82F63E876E080E0B9
:1004700090E09DDFC150C9F7CF9108955E9A63E87F
:1004800076E080E090E093CF08955E9808951F9302
:10049000CF93DF935C9867EA70E080E090E087DFBD
:1004A0005C9A6BE171E480E090E081DF5C986BE046
:1004B0007BE882E090E07BDF5C9A4D9916C0C0E05B
:1004C000D1E010E066E372E880E090E070DFCF5F9B
:1004D00089B185FB882780F98D1741F08D2FCB31AD
:1004E00008F0812F8111EECF01C0C0E081E0CB3157
:1004F00009F080E0DF91CF911F9108951F93CF9372
:10050000DF934D9B2FC0C0E0D1E010E06AE371E0C3
:1005100088EC90E057DF6AE371E080EC90E052DF16
:100520005C986BE27CE28AE090E041DF4D9B10C07A
:1005300066E471E088EC90E045DF66E471E080EC11
:1005400090E040DF5C9861E472E48FE090E02FDFA0
:10055000CF5F4D9B08C08D2FCB3108F0812F8111CB
:10056000D5CF01C0C0E081E0CB3109F080E0DF9160
:10057000CF911F9108956F927F928F929F92AF9229
:10058000BF92CF92DF92EF92FF920F931F93CF9380
:10059000DF93CDB7DEB70DB71EB7462F50E0440F3F
:1005A000551F2DB73EB7241B350B0FB6F8943EBF31
:1005B0000FBE2DBFADB7BEB71196E4E6F0E0908157
:1005C0009E7F908397E890937A00662349F13D01DE
:1005D000812C912C540130E00F2EFCE7CF2ED12C32
:1005E000F02D8064EAE7F0E00F2EF8E7EF2EF12C13
:1005F000F02DD6018C93908190649083908196FD2C
:10060000FDCFD7014D915C91D3014D935D933D0199
:10061000840E951EA11CB11C3F5F6313EACF03C07B
:10062000812C912C5401262F30E040E050E0C50190
:10063000B4010E94560EC9010FB6F8941EBF0FBE3A
:100640000DBFDF91CF911F910F91FF90EF90DF9041
:10065000CF90BF90AF909F908F907F906F900895B4
:10066000EF92FF920F931F93CF93DF9300D01F92CF
:10067000CDB7DEB71A8219821B820F2EFFE9EF2E4B
:10068000F4E0FF2EF02D0AE010E0F70131978081B1
:100690008983F70180818A83CE0101960E947E0EB4
:1006A000F801EE0FFF1FE45FFA4F91838083F3E0C0
:1006B000EF0EF11C0F5F1F4F0031110531F70F9046
:1006C0000F900F90DF91CF911F910F91FF90EF90BE
:1006D00008950F931F93CF93DF93EC0188858823B0
:1006E00009F463C010E000E060E88CE894E08EDE7E
:1006F000109287048C819D81AE81BF818093830499
:1007000090938404A0938504B093860410927F0490
:100710001092800410928104109282046881798181
:1007200080EC90E04FDE7894E0ECF0E0818180682E
:1007300081831EC080917F0490918004A0918104E8
:10074000B09182040196A11DB11D80937F04909306
:100750008004A0938104B093820481E082DE6A81E8
:100760007B818CE894E00E94B60E01E0892BF9F4BD
:1007700040917F04509180046091810470918204C3
:100780008091830490918404A0918504B0918604A3
:10079000481759076A077B0768F28EE162DE1F5F20
:1007A0008885181708F4A0CF03C000E001C000E05E
:1007B000E0ECF0E081818F7781836CE874E088EC75
:1007C00090E000DE802FDF91CF911F910F9108956F
:1007D0002F923F924F925F926F927F928F929F9251
:1007E000AF92BF92CF92DF92EF92FF920F931F933F
:1007F000CF93DF93CDB7DEB763970FB6F894DEBF24
:100800000FBECDBF9F878E873F832E831A821982AA
:10081000FE01339683E0DF011D928A95E9F7E62E0B
:10082000F12CF7013197FB8BEA8BE970FF27F98BED
:10083000E88B10E00F2EF0E3CF2ED12CF02D8E811F
:100840009F81092E000CAA0BBB0B88879987AA876A
:10085000BB875D874C87312E47C0688579858A853F
:100860009B85DBD62B013C01B801012E000C880BC7
:10087000990BD3D69B01AC01C301B20131D74B0117
:100880005C01D7016D917C9180E090E0C4D6A50118
:100890009401BDD6882344F4EC85FD8501900020A9
:1008A000E9F73197D182C08201501109B1F64E812A
:1008B0005F81BE016F5F7F4FF701808191810E9450
:1008C000D00EBE016F5F7F4F8C859D850E94A40E68
:1008D00065E0CE0101969ADD3394832D90E028895E
:1008E0003989281739075CF0E32CF12CEE0CFF1C3A
:1008F0008E859F85E80EF91E03E010E0AECF2C84B4
:100900003D84EA88FB8890E1E922FF24AAE0EA1608
:10091000F10454F54FC0F10101900020E9F731973F
:10092000B182A0824E815F81BE016F5F7F4FF40173
:10093000808191810E94D00EBE016F5F7F4FC10107
:100940000E94A40EF10101900020E9F73197D182B5
:10095000C08265E0CE01019659DD1F5F812F90E0D6
:10096000E816F90684F426C00F2EFAE09F2EF02D2B
:100970000F2EF0E3AF2EB12CF02D0F2EFCE2CF2E78
:10098000D12CF02D192D812E912C880C991C2E859F
:100990003F85820E931ED4016D917C9180E090E0A2
:1009A0003AD69B01AC01C301B20196D618160CF0E1
:1009B000B9CFB1CF80E063960FB6F894DEBF0FBE1B
:1009C000CDBFDF91CF911F910F91FF90EF90DF90FE
:1009D000CF90BF90AF909F908F907F906F905F90DF
:1009E0004F903F902F9008951F93CF93DF93C4E1D2
:1009F000D3E010E0CE016DDE81110CC01F5F29969F
:100A00001E30C1F782E993E064DE811105C028DE63
:100A100080E003C080E001C080E2DF91CF911F91B0
:100A2000089587EE92E055DE811103C080EF92E0D9
:100A300050DE80E00895CF92DF92EF92FF920F9305
:100A40001F93CF936C017B0189EF92E042DE81110D
:100A50001DC082E093E03DDE81111AC01E141F0408
:100A6000CCF4C0E086010C0F111DF801608180EC10
:100A700090E086DBF801608188EC90E081DBCF5F5D
:100A80008C2F90E08E159F056CF304C081E00FC0A1
:100A900081E00DC068E180EC90E072DB69E180EC00
:100AA00090E06EDB6AE180EC90E06ADB80E0CF9161
:100AB0001F910F91FF90EF90DF90CF9008951F92BC
:100AC0000F920FB60F9211242F933F934F935F9382
:100AD0006F937F938F939F93AF93BF93CF93DF9346
:100AE000EF93FF93C0918704D0E0C457DB4F80ECB5
:100AF00090E04DDB8883809187048F5F809387042B
:100B000010927F041092800410928104109282044B
:100B1000FF91EF91DF91CF91BF91AF919F918F9115
:100B20007F916F915F914F913F912F910F900FBEE9
:100B30000F901F9018951F920F920FB60F921124CD
:100B40002F923F924F925F926F927F928F929F92DD
:100B5000AF92BF92CF92DF92EF92FF920F931F93CB
:100B60002F933F934F935F936F937F938F939F93B5
:100B7000AF93BF93EF93FF93CF93DF93CDB7DEB7E0
:100B80002A97DEBFCDBF0FB6F894A895809160007C
:100B9000886180936000109260000FBE8091000118
:100BA000909101010196909301018093000161EA07
:100BB00072E088EC90E006DC60910001605D88ECFA
:100BC00090E0DEDA61EA72E088EC90E0FBDB809195
:100BD000000190910101892B09F431C110920101AA
:100BE0001092000181E080937A040F2EFBE02F2EFB
:100BF000F02D0F2EFAE04F2EF02D0F2EF9E03F2EA4
:100C0000F02D0F2EF3E05F2EF02D4E0128E0820E26
:100C1000911C5E0183E0A80EB11C0F2EFCE2EF2EAA
:100C2000F5E0FF2EF02D0EE115E00F2EF0E1CF2EB6
:100C3000F5E0DF2EF02D0F2EFEE06F2EF5E07F2E7B
:100C4000F02DE0918B048E2F90E08C30910508F010
:100C5000EBC0FC01E25CFF4F0C94780E81E08093C6
:100C60008A04E4C00BDC632D8EE185DC90930D05D6
:100C700080930C050ADC20910C0530910D058091C4
:100C80007B0490917C04A0917D04B0917E04820F3E
:100C9000931FA11DB11D80937B0490937C04A093AE
:100CA0007D04B0937E0480910C0590910D056CE05D
:100CB00075E040DB80910C0590910D05F301918367
:100CC000808380918804909189040196909389048F
:100CD00080938804F8019183808380819181883595
:100CE000924040F0109289041092880482E0809330
:100CF0008A049CC010928A0410927A0497C0F8016A
:100D00002081318140E050E060917B0470917C044F
:100D100080917D0490917E04C9D7F60131832083B0
:100D200010927B0410927C0410927D0410927E0439
:100D300050928A047BC0F8011182108284E0809373
:100D40008A0474C0A4DB813049F4F7018081918169
:100D500081609183808340928A0468C085E080939B
:100D60008A0464C041DE882349F0F70180819181C3
:100D700082609183808340928A0458C086E0809389
:100D80008A0454C02AE030E046E154E061E08CE09F
:100D900095E01EDD44E650E062EB73E086E194E00E
:100DA000A4D39093B1038093B0031F821E82F401F9
:100DB000252D11922A95E9F71A821982F501252D20
:100DC00011922A95E9F7442DBE016A5F7F4FF2D751
:100DD000BE016A5F7F4FCE010196C1D7BE016F5F32
:100DE0007F4F88EC90E0EEDA87E080938A041EC0A3
:100DF0006091B0037091B10382EB93E01CDE88E058
:100E000080938A0413C030928A0410C00ADE409294
:100E10008A040CC073DB20928A0408C005DB1092A0
:100E20008A0410927A0402C020928A0480918A0473
:100E300080938B0480917A04813009F402CFA895C5
:100E400081E090E000DB2A960FB6F894DEBF0FBE7B
:100E5000CDBFDF91CF91FF91EF91BF91AF919F9166
:100E60008F917F916F915F914F913F912F911F9142
:100E70000F91FF90EF90DF90CF90BF90AF909F9039
:100E80008F907F906F905F904F903F902F900F903A
:100E90000FBE0F901F901895F894B8D3E4E6F0E0D9
:100EA00080818E7F808387E880937A0062E071E0A2
:100EB00080EC90E0FDD962E080E04AD962E071E028
:100EC00088EC90E0F5D960E180E042D96BE07BE806
:100ED00082E090E06CDAC2DA6BE07BE882E090E0DE
:100EE00066DAB9DA0BDBA0DA82E090E0ACDA83B73D
:100EF000817F846083BF789483B7816083BF85B727
:100F0000806685BF8F7D85BF889583B78E7F83BFC1
:100F1000F3CFEF92FF920F931F93CF93DF93EC01E8
:100F20008E81833029F0843031F40AE010E005C06E
:100F30000CE010E002C000E010E04F8158856985A8
:100F40007A858B859C85FBD10296080F191F8889AD
:100F50008823A1F04F89588D698D7A8D8B8D9C8D5A
:100F6000EED17C014D8D5E8D6F8D78A189A19AA106
:100F7000E6D18E0D9F1D0496080F191F8DA19EA10D
:100F8000892B21F489A59AA5892B51F04DA15EA149
:100F90006FA178A589A59AA5D2D10296080F191F2D
:100FA0008BA59CA5892B21F48FA598A9892B51F09D
:100FB0004BA55CA56DA57EA58FA598A9C0D102966D
:100FC000080F191FC801DF91CF911F910F91FF905A
:100FD000EF900895AF92BF92CF92DF92EF92FF927F
:100FE0000F931F93CF93DF9300D0CDB7DEB76C0183
:100FF0005B018A019A838983CA018BDF7C0103D15B
:10100000A816B9060CF49FC060E1CE0101960AD182
:10101000B70189819A81D1D029813A81820F931FAA
:101020009A838983F8018681843051F46BE973E0F7
:10103000CE01019620D164E0CE010196F3D009C023
:1010400060EA73E0CE01019616D163E0CE0101960D
:10105000E9D0F12CF801878580FBF1F881E09089D7
:10106000911101C080E080FBF2F8F2FE0DC0F801A2
:1010700084A18370880F880F880F9F2D977EF92E8B
:10108000F82A83A180FBF5F8F80185A196A1892BA8
:1010900021F481A592A5892B11F06894F7F8F80145
:1010A00083A594A5892B21F487A590A9892B11F0FC
:1010B0006894F6F86F2DCE010196B4D0F8016585DD
:1010C0007685CE010196B8D0F8012781308541851B
:1010D000528563857485CE010196F2D0F80180892E
:1010E000882399F02789308D418D528D638D748DC1
:1010F000CE010196E5D0F801258D368D478D50A1A2
:1011000061A172A1CE010196DBD0EF2CFF2054F437
:10111000F80125A136A147A150A561A572A5CE0170
:101120000196CED0E6FE0AC0F80123A534A545A558
:1011300056A567A570A9CE010196C2D089819A8172
:101140008C199D0902C08EEF9FEF0F900F90DF91D9
:10115000CF911F910F91FF90EF90DF90CF90BF90B4
:10116000AF9008950F931F93CF93DF9300D0CDB727
:10117000DEB79A838983623071059CF08C01642FFD
:101180006295607FCE0101964DD060E070E089816C
:101190009A8113D029813A81820F931F801B910B72
:1011A00002C08EEF9FEF0F900F90DF91CF911F91B4
:1011B0000F9108954EE0D6CF0895DC01E0E0F0E015
:1011C0009B012F773078332334F421503109206884
:1011D0003F6F2F5F3F4FAB01772314F441585F4FB0
:1011E000BA01660F672F661F770B1616170624F4D1
:1011F000319620682D93E4CFDC01AE0FBF1F2C93F6
:10120000CF01019608959C012F5F3F4F2038310593
:1012100014F4029608952115304414F403960895A9
:1012200004960895FC01A081B1816C938081918125
:101230000196918380830895FC01A081B181CB0147
:10124000772314F481509F4F9C93A081B181CD01ED
:10125000019691838083707877232CF46150710913
:101260007F6F6F5F7F4F11966C93808191810196A4
:10127000918380830895EF92FF920F931F93CF93F2
:10128000DF938C017B01EB0109900020E9F72197A6
:10129000C61BD70BBE01D0DFAE01B701F8018081BC
:1012A000918149D5F80180819181C80FD91FD183DF
:1012B000C083DF91CF911F910F91FF90EF90089520
:1012C000EF92FF920F931F93CF93DF9300D000D044
:1012D00000D0CDB7DEB77C0129833A834B835C8392
:1012E0006D837E830B811C81101611068CF4B8016E
:1012F000A3DF6D817E81A801F701808191811BD5DB
:10130000F70180819181080F191F118300830AC0A2
:1013100069817A816115710511F0ADDF03C060E06C
:1013200070E08ADF26960FB6F894DEBF0FBECDBF01
:10133000DF91CF911F910F91FF90EF900895CF9380
:10134000DF9300D000D000D0CDB7DEB749835A83F9
:101350006B837C838D839E83A981BA81109749F02A
:10136000FD0101900020E9F73197CF018A1B9B0B0B
:1013700002C08B819C8126960FB6F894DEBF0FBE0B
:10138000CDBFDF91CF910895EF92FF920F931F93FE
:10139000CF93DF9300D000D000D0CDB7DEB77C0173
:1013A000F42FE52F862F972F422F532F6F2F7E2F4D
:1013B000C6DF0296800F911F1E141F040CF40296C4
:1013C00026960FB6F894DEBF0FBECDBFDF91CF914A
:1013D0001F910F91FF90EF9008952F923F924F929F
:1013E0005F926F927F928F929F92AF92BF92CF92B5
:1013F000DF92EF92FF920F931F93CF93DF93CDB7BE
:10140000DEB72A970FB6F894DEBF0FBECDBF2C0112
:101410001B01498739010A87282D8B82392D9C822F
:101420004A2DAD825B2DBE826C2DCF827D2DD8865C
:10143000C9A0DAA09A8389838601C301A5DF8C0144
:10144000E2DE28163906B4F160E3898580FB63F992
:10145000862D8370880F697F682B8A8580FB60F9F1
:10146000CE010196DFDEB80189819A81A6DE29814D
:101470003A81820F931F9A8389832B813C814D810E
:101480005E816F817885CE0101961ADF16141704EC
:1014900024F4B701CE010196CFDEA6016F8D78A1AD
:1014A00089819A8148D489819A818C0D9D1D8419E6
:1014B000950902C08EEF9FEF2A960FB6F894DEBF13
:1014C0000FBECDBFDF91CF911F910F91FF90EF9095
:1014D000DF90CF90BF90AF909F908F907F906F9054
:1014E0005F904F903F902F9008952F923F924F9290
:1014F0005F926F927F928F929F92AF92BF92CF92A4
:10150000DF92EF92FF920F931F93CF93DF93CDB7AC
:10151000DEB7E7970FB6F894DEBF0FBECDBFF82E4B
:10152000E92E1B012A0181E3E9E0F1E0DE011196D9
:1015300001900D928A95E1F71DAA1CAA1FAA1EAA66
:10154000EF2DF92FDF010D900020E9F711978D01A4
:101550000E1B1F0B87EA93E09987888784E190E050
:101560009F878E8781E0888B83EA92E09FA38EA37A
:101570009DA78CA784E08F83AE014F5F5F4FB201C0
:10158000C10128DD3C018AEA93E09BAB8AABB20142
:10159000661977091F930F93EF92FF928AA89BA871
:1015A000ACA8BDA8CEA8DFA8E12CF12C00E020E07B
:1015B00030E040E0C101860D971D0FDF680E791EF7
:1015C000B20166197709C101860D971DF3DD0F90F1
:1015D0000F900F900F90860D971DE7960FB6F89419
:1015E000DEBF0FBECDBFDF91CF911F910F91FF9056
:1015F000EF90DF90CF90BF90AF909F908F907F90B3
:101600006F905F904F903F902F900895089540D035
:1016100008F481E00895E89409C097FB3EF49095A2
:101620008095709561957F4F8F4F9F4F9923A9F0BB
:10163000F92F96E9BB279395F6958795779567954A
:10164000B795F111F8CFFAF4BB0F11F460FF1BC08E
:101650006F5F7F4F8F4F9F4F16C0882311F096E921
:1016600011C0772321F09EE8872F762F05C06623CF
:1016700071F096E8862F70E060E02AF09A95660F88
:10168000771F881FDAF7880F9695879597F9089541
:10169000990F0008550FAA0BE0E8FEEF1616170683
:1016A000E807F907C0F012161306E407F50798F0EB
:1016B000621B730B840B950B39F40A2661F0232B04
:1016C000242B252B21F408950A2609F4A140A69580
:1016D0008FEF811D811D0895DBDF08F48FEF0895E2
:1016E000FA01EE0FFF1F30962105310599F16115C2
:1016F000710561F48038BFE39B0749F16894903825
:10170000810561F08038BFEF9B0741F0992342F5D6
:10171000FF3FE1053105210511F1E8940894E795B3
:10172000D901AA2329F4AB2FBE2FF85FD0F310C044
:10173000FF5F70F4A695E0F7F73950F019F0FF3A23
:1017400038F49F779F930CD00F9007FC9058089522
:101750003EF049C060E070E080E89FE308954FE705
:101760009F775F934F933F932F93D0D02F913F91CB
:101770004F915F913ED105C019F40EF02EC07DC08F
:1017800032C061D0C8F39638C0F707F80F92E894DA
:101790002BE33AEA48EB5FE73AD10F920F920F92B0
:1017A0004DB75EB70F92F2D0E4E9F0E01FD04F9151
:1017B0005F91EF91FF91E595EE1FFF1F49F0FE57F6
:1017C000E0684427EE0F441FFA95E1F74195550B69
:1017D00064D00F9007FE58C0089597F99F6780E87E
:1017E00070E060E008959FEF80EC0895DF93CF9361
:1017F0001F930F93FF92EF92DF927B018C0168940D
:1018000005C0DA2EEF0101D1FE01E894A5912591E2
:10181000359145915591AEF3EF0160D1FE019701ED
:10182000A801DA9479F7DF90EF90FF900F911F9164
:10183000CF91DF91089557FD9058440F551F59F0EF
:101840005F3F71F04795880F97FB991F61F09F3FAD
:1018500079F087950895121613061406551FF2CFD6
:101860004695F1DF08C0161617061806991FF1CF26
:1018700086957105610508940895E894BB2766274D
:101880007727CB0197F908959B01AC0160E070E0E8
:1018900080E89FE376C1A1CFDCC1D5DFE8F39923CF
:1018A000D9F3940F511DBBF39150504094F059F06F
:1018B000882332F0660F771F881F91505040C1F780
:1018C0009E3F510544F7880F911D9695879597F98E
:1018D00008955F3FACF0983E9CF0BB2786957795C6
:1018E0006795B79508F4B1609395C1F7BB0F58F7AA
:1018F00011F460FFE8CF6F5F7F4F8F4F9F4FE3CFB3
:10190000BDCF0EF0A6C16FCF689467CF9CDFC8F340
:101910009923D1F3C6F3DF93CF931F930F93FF92D5
:10192000C92FDD2788232AF02197660F771F881F8C
:10193000DAF720E030E040E85FEB9FE3883920F001
:10194000803E30F021968F77B8D0ECEBF0E003C00A
:10195000B4D0E9EEF0E04ADF8B01BE01EC01FB2ED2
:101960006F5771097595771F880B990B56DE28E123
:1019700032E741E35FE349D0AF2D9801AE01FF901C
:101980000F911F91CF91DF91A9D07FC1FA01DC01A6
:10199000AA0FBB1F9B01AC01BF5728F42227332796
:1019A000442750781FC0B75188F4AB2F00244695C8
:1019B00037952795011CA395D2F3002069F0220FDB
:1019C000331F441FB395DAF30DD076C06130710533
:1019D000A0E88A07B94630F49B01AC016627772757
:1019E00088279078309621F0208331834283538377
:1019F00008950BD04AC13BD128F040D118F095236F
:101A000009F0EBCEF0CE112439CF15DFA0F3959F6E
:101A1000D1F3950F50E0551F629FF001729FBB27D5
:101A2000F00DB11D639FAA27F00DB11DAA1F649F81
:101A30006627B00DA11D661F829F2227B00DA11D34
:101A4000621F739FB00DA11D621F839FA00D611DBA
:101A5000221F749F3327A00D611D231F849F600DDB
:101A6000211D822F762F6A2F11249F5750408AF014
:101A7000E1F088234AF0EE0FFF1FBB1F661F771FA0
:101A8000881F91505040A9F79E3F510570F0A5CE98
:101A9000F5CE5F3FECF3983EDCF38695779567953E
:101AA000B795F795E7959F5FC1F7FE2B880F911DBE
:101AB0009695879597F908955058BB27AA270ED079
:101AC000E4C0D5D030F0DAD020F031F49F3F11F4EB
:101AD0001EF489CE0EF4E095E7FB7FCEE92FABDE56
:101AE00080F3BA17620773078407950718F071F43B
:101AF0009EF5C3CE0EF4E0950B2EBA2FA02D0B0150
:101B0000B90190010C01CA01A0011124FF27591B42
:101B100099F0593F50F4503E68F11A16F040A22F48
:101B2000232F342F4427585FF3CF469537952795B9
:101B3000A795F0405395C9F77EF41F16BA0B620BB8
:101B4000730B840BBAF09150A1F0FF0FBB1F661FFF
:101B5000771F881FC2F70EC0BA0F621F731F841F42
:101B600048F4879577956795B795F7959E3F08F068
:101B7000B3CF9395880F08F09927EE0F9795879527
:101B800008950CD082C07AD040F071D030F021F4AA
:101B90005F3F19F022CE511171CE25CE4CDE98F365
:101BA0009923C9F35523B1F3951B550BBB27AA27DE
:101BB00062177307840738F09F5F5F4F220F331F50
:101BC000441FAA1FA9F333D00E2E3AF0E0E830D01C
:101BD00091505040E695001CCAF729D0FE2F27D01F
:101BE000660F771F881FBB1F261737074807AB07ED
:101BF000B0E809F0BB0B802DBF01FF2793585F4F62
:101C00002AF09E3F510568F0E8CD38CE5F3FECF3F7
:101C1000983EDCF3869577956795B795F7959F5F26
:101C2000C9F7880F911D9695879597F90895E1E07A
:101C3000660F771F881FBB1F621773078407BA07D9
:101C400020F0621B730B840BBA0BEE1F88F7E09534
:101C500008959F3F31F0915020F4879577956795CF
:101C6000B795880F911D9695879597F9089500244B
:101C70000A941616170618060906089500240A94F1
:101C800012161306140605060895092E0394000C77
:101C900011F4882352F0BB0F40F4BF2B11F460FF06
:101CA00004C06F5F7F4F8F4F9F4F0895A1E21A2EA0
:101CB000AA1BBB1BFD010DC0AA1FBB1FEE1FFF1FF0
:101CC000A217B307E407F50720F0A21BB30BE40B40
:101CD000F50B661F771F881F991F1A9469F7609587
:101CE0007095809590959B01AC01BD01CF01089541
:101CF000EE0FFF1F0590F491E02D0994FC01882759
:101D00009927E89421912032E9F3293010F02E3000
:101D1000C8F32B3239F02D3231F4689403C054D01B
:101D2000820F911D219120532A30C8F31EF4909503
:101D300081959F4F0895FB01DC0102C001900D9237
:101D400041505040D8F70895FB01DC010D90002070
:101D5000E9F7119701900D920020E1F70895FB013A
:101D6000DC0101900D920020E1F70895FB015191F3
:101D70005523A9F0BF01DC014D9145174111E1F751
:101D800059F4CD010190002049F04D9140154111C9
:101D9000C9F3FB014111EFCF81E090E00197089575
:101DA0004532510518F4423008F004C0FB0110829E
:101DB000CB010895BB274A3031F4992322F4BDE2C8
:101DC000909581959F4F09C07AE0979F902D879FAE
:101DD000802D910D11240895BB27FB015527AA27BB
:101DE000880F991FAA1FA41710F0A41B83955051A8
:101DF000B9F7A05DAA3308F0A95DA193009779F720
:101E0000B111B1931192CB0100C0DC01FC01672F2D
:101E100071917723E1F7329704C07C916D937083C1
:0E1E20006291AE17BF07C8F30895F894FFCF84
:101E2E000100C01200000300004D51544300000495
:101E3E000000000000003C0001004D51545700000E
:101E4E000000000000000000000000000000000084
:101E5E000000000000000000000041542B51504FC4
:101E6E0057443D310D0041542B51504F57443D3096
:101E7E000D0041542B5149434C4F53450D004154D5
:101E8E002B514944454143540D0041542B51495364
:101E9E005441540D00434F4E4E454354204F4B0D6D
:101EAE000A0041542B514953454E440D003E20002B
:101EBE001A0053454E44204F4B0D0041542B514EAA
:101ECE005354415455530D00514E53544154555390
:101EDE003A20300D0A0041542B51494647434E5487
:101EEE003D300D0041542B5149435347503D312C49
:101EFE002261706E312E6C696C6C6562616B6B2E3B
:101F0E00636F6D222C22222C22220D0041542B5164
:101F1E00494D55583D300D0041542B51494D4F44BC
:101F2E00453D300D0041542B5149444E5349503DCF
:101F3E00300D0041542B51495245474150500D0030
:101F4E0049502053544152540D0A0041542B5149CB
:101F5E004143540D00495020475052534143540DB4
:101F6E000A0041542B51494C4F4349500D0031301A
:101F7E002E31302E302E31330D0A0049502053545D
:101F8E00415455530D0A0041542B51494F50454E63
:101F9E003D22544350222C2231302E31382E302EF9
:101FAE003339222C313838330D0041542B514953DB
:101FBE005256433D310D0041542B514C54530D009C
:101FCE00220D0A0041542B43495053544152543D63
:101FDE000054435000222C220031302E31382E3046
:101FEE002E333900313838330041542B4353545477
:101FFE003D0061706E312E6C696C6C6562616B6B4D
:10200E002E636F6D00000052017D011E0000000165
:10201E005E017D01C8000000016A0175011E00000D
:10202E00001B82018D011E00000001900192011E15
:10203E00000000019B01A8011E0000001BB6017DDF
:10204E00011E00000001C4017D011E00000001EC14
:10205E00017D011E00000001F8017D011E0000003F
:10206E000105027D011E0000000113027D011E000C
:10207E000000016A0120021E000000012B027D01FA
:10208E00C80000001B6A0135021E0000000142025A
:10209E004E021E0000001B6A015B021E00000001C2
:1020AE0067027D01C8000000018A027D011E00004A
:1020BE0000019702A0021E000000014D5154540071
:1020CE004D5149736470004C45004C452F30000053
:00000001FF
