S01800004E425F494F545F4D45474133323450412E737265638E
S113000049C0000064C0000062C0000060C000007D
S11300105EC000005CC000005AC0000058C0000070
S113002039C6000054C0000052C0000050C0000097
S11300304EC000004CC000004AC0000048C0000090
S113004046C0000044C0000042C0000040C00000A0
S1130050E5C500003CC000003AC0000038C0000004
S113006036C0000034C0000032C0000030C00000C0
S11300702EC000002CC000002AC00000D506D906FE
S11300804E076A077A079807E207E607EA07EE07CA
S1130090F307B50811241FBECFEFD8E0DEBFCDBFF4
S11300A014E0A0E0B1E0E6E4FEE102C005900D92A8
S11300B0AC35B107D9F725E0ACE5B4E001C01D9239
S11300C0A238B207E1F70E94F3080C94210F98CFED
S11300D081E08093B800E9EBF0E080818C7F80833D
S11300E00895CF93DF93ECEBF0E024EAA9EBB0E0C2
S11300F0CBEBD0E040EA34E8208390819923ECF7FD
S11301009C91987F9830B9F54883308390819923E6
S1130110ECF79C91987F983179F78093BB0084E841
S11301208093BC00ECEBF0E080818823ECF78091B5
S1130130B900887F883209F56093BB0084E8809316
S1130140BC00ECEBF0E080818823ECF78091B900EF
S1130150887F8832A1F484E98093BC00ECEBF0E062
S1130160808184FDFDCF8BED95E00197F1F700C010
S1130170000081E005C080E003C080E001C080E0B1
S1130180DF91CF910895CF93DF93ECEBF0E024EA75
S1130190A9EBB0E0CBEBD0E040EA34E820839081D7
S11301A09923ECF79C91987F983009F04DC04883CF
S11301B0308390819923ECF79C91987F983171F763
S11301C08093BB0084E88093BC00ECEBF0E080817A
S11301D08823ECF78091B900887F8832B9F584EAE6
S11301E08093BC00ECEBF0E080818823ECF78091F5
S11301F0B900887F803161F581EA8093BB0084E88F
S11302008093BC00ECEBF0E080818823ECF78091D4
S1130210B900887F8034F1F484E88093BC00ECEB6F
S1130220F0E080818823ECF78091B900887F8835DD
S113023099F48091BB0094E99093BC00ECEBF0E05E
S1130240908194FDFDCF09C080E007C080E005C027
S113025080E003C080E001C080E0DF91CF91089589
S1130260CF93DF931F92CDB7DEB79FB79983F894EE
S11302709981823040F4E82FF0E0EC59FF4F60950B
S11302808081682360839FBF0F90DF91CF91089591
S1130290FC01908195FFFDCF668380E00895FC0109
S11302A090819923ECF7868108954F925F926F9223
S11302B07F928F929F92AF92BF92CF92DF92EF92F2
S11302C0FF920F931F93CF93DF93EC016A017B019D
S11302D028013901689412F87694679457944794E6
S11302E01694D1F7888181FD0EC048015901072E6B
S11302F073E1B694A794979487947A95D1F7702D67
S1130300D301C20115C0D901C801689413F8B69588
S1130310A795979587951694D1F748015901072E0B
S113032074E1B694A794979487947A95D1F7702D35
S11303308C159D05AE05BF0578F1C814D904EA04EF
S1130340FB0460F1888181FF10C0A7019601220F90
S1130350331F441F551FC301B2010E94530EDA011B
S1130360C9010197A109B10913C0C901B801689471
S113037013F896958795779567951694D1F7A70105
S113038096010E94530EDA01C9010197A109B1092E
S11303909D838C8381E003C080E001C080E0DF9115
S11303A0CF911F910F91FF90EF90DF90CF90BF906E
S11303B0AF909F908F907F906F905F904F90089533
S11303C00F931F93CF93DF93EC018B01803C910536
S11303D019F462E080E044DF8A818F738A83F80134
S11303E02681358184819A81482F4370440F997FF7
S11303F0942B9A8399818470880F880F9B7F892B13
S113040089838A818F7C832B8A839A81977F822F29
S1130410880F880F880F892B8A83408151816281DC
S1130420738100E412E42FE030E0CE013EDF9981D5
S113043098609983998190619983DF91CF911F91FD
S11304400F910895FB0122813381AC01421B530BB0
S11304509A01DA0122F4AA27BB27A41BB50B428513
S1130460538555231CF451954195510961E04A1770
S11304705B070CF060E0662351F041E06289738908
S1130480672B09F440E0442311F033872287268147
S113049037818217930710F49783868320853185EB
S11304A02817390710F491878087089504C0615094
S11304B07109810991096115710581059105B9F7E2
S11304C008950F931F93CF93DF93EB016881662305
S11304D039F08C012196C801DBDE69916111FBCFF3
S11304E0DF91CF911F910F910895442361F0A62FBE
S11304F0B72FE82FF92F80E02D913D91219331936F
S11305008F5F4813F9CF80E00895662359F0FC010A
S1130510615070E06F5F7F4F860F971F1192E8174D
S1130520F907E1F7089564E68BE595E0EEDF64E60C
S113053080E694E0EADF41E167E373E080E695E07A
S1130540D4CF089514BEE0E6F0E088E1808380E62D
S113055080830895099A11980895549A5598089596
S1130560399A389A3E9A419A409A469A0895CF9376
S1130570882341F0C82F63E876E080E090E096DFBE
S1130580C150C9F7CF910895119A66E375E080E0F0
S113059090E08CCF0895119808951F93CF93DF9323
S11305A05C986BE171E480E090E080DF5C9A6BE042
S11305B07BE882E090E07ADF5C984D9916C0C0E059
S11305C0D1E010E066E372E880E090E06FDFCF5F97
S11305D089B185FB882780F98D1741F08D2FCB31A8
S11305E008F0812F8111EECF01C0C0E081E0CB3152
S11305F009F080E0DF91CF911F910895FF920F934E
S11306001F93CF93DF93C0E001E0F12CD02F1F2D77
S11306105C985C9A80E5ABDF5C984D9B14C0802F9E
S1130620CC3008F08F2D882371F06BE07BE882E0FA
S113063090E03CDFCF5F4D9B06C08D2FCC3008F09F
S1130640812F8111F2CFCB3119F380E0DF91CF916B
S11306501F910F91FF9008951F93CF93DF934D9BAC
S11306602DC0C0E0D1E010E06AE371E088EC90E0D6
S113067028DF6AE371E080EC90E023DF6BE27CE248
S11306808AE090E013DF4D9B0FC066E471E088ECD4
S113069090E017DF66E471E080EC90E012DF61E443
S11306A072E48FE090E002DFCF5F4D9B08C08D2F96
S11306B0CB3108F0812F8111D7CF01C0C0E081E098
S11306C0CB3109F080E0DF91CF911F910895CF9253
S11306D0DF92FF920F931F93CF93DF93CDB7DEB7D3
S11306E027970FB6F894DEBF0FBECDBF1A821982CA
S11306F093E890937A006894FF24F4F80CE710E0F0
S1130700EAE7F0E00F2EF8E7CF2ED12CF02D806C25
S11307101CC0D8018C93908190649083908196FD45
S1130720FDCFD6016D917C91460F571F215089F75B
S113073029813A815695479556954795420F531FFF
S11307405A834983FA94FF2021F024E040E050E0EA
S1130750E0CF89819A8196958795969587959A8316
S1130760898329813A81A8EBBEE30E947B0EDC01D8
S1130770CB01905EAF4FBF4F880F991FAA1FBB1FBD
S1130780880F991FAA1FBB1FCD01BB2797FDB095EA
S1130790AB2F9A8389831C821B82FE01359683E0EA
S11307A0DF011D928A95E9F765E0CE010396ADDE7F
S11307B089819A814AE0BE016D5F7F4F0E94E60EF7
S11307C06DEC72E088EC90E07CDEBE016D5F7F4FE3
S11307D088EC90E076DE6DEC72E088EC90E071DEFF
S11307E089819A8127960FB6F894DEBF0FBECDBFDC
S11307F0DF91CF911F910F91FF90DF90CF900895DB
S1130800EF92FF920F931F93CF93DF9300D01F9229
S1130810CDB7DEB71A8219821B820F2EFEEEEF2EA1
S1130820F4E0FF2EF02D0AE010E0F701319780810B
S11308308983F70180818A83CE0101960E948A0E02
S1130840F801EE0FFF1FE05AFA4F91838083F3E023
S1130850EF0EF11C0F5F1F4F0031110531F70F90A0
S11308600F900F90DF91CF911F910F91FF90EF9018
S113087008950F931F93CF93DF93EC01888588230A
S113088009F477C010E000E060E88BED94E03DDE11
S11308901092D3048C819D81AE81BF818093CF045B
S11308A09093D004A093D104B093D2041092CB04BB
S11308B01092CC041092CD041092CE0468817981F8
S11308C080EC90E0FEDD7894E0ECF0E081818068DB
S11308D081834091CB045091CC046091CD047091FC
S11308E0CE048091CF049091D004A091D104B09112
S11308F0D204481759076A077B0798F581E037DE69
S11309006A817B818BED94E00E94C20E892B99F55C
S11309108091CB049091CC04A091CD04B091CE04ED
S11309200196A11DB11D8093CB049093CC04A09398
S1130930CD04B093CE044091CB045091CC0460918B
S1130940CD047091CE048091CF049091D004A091F5
S1130950D104B091D204481759076A077B0770F293
S113096001E08EE104DE1F5F8885181708F48CCF40
S113097003C000E001C000E081E0F9DDE0ECF0E05C
S113098081818F7781836BED74E088EC90E099DD51
S1130990802FDF91CF911F910F910895EF92FF92D5
S11309A00F931F93CF93DF937C018B0160E88BED52
S11309B094E0ABDD1092D3041016110674F4C0E079
S11309C0F701EC0FF11D608180EC90E061DCCF5FFA
S11309D08C2F90E0801791079CF360E080EC90E00E
S11309E057DC7894C0ECD0E08981806889838EE1FB
S11309F0BEDD89818F7789836BED74E088EC90E0AC
S1130A0060DD80E0DF91CF911F910F91FF90EF9017
S1130A1008957F928F929F92AF92BF92CF92DF926E
S1130A20EF92FF920F931F93CF93DF9300D000D0E8
S1130A301F92CDB7DEB76C011A821982FE0133967C
S1130A4093E0DF011D929A95E9F7E62EF12CB1E0CF
S1130A50EB1AF1085AF149015A0100E010E0712C37
S1130A60E72DF0E0EE0FFF1FEC0DFD1DA401BE010C
S1130A706F5F7F4F808191810E94DC0EC801880FD7
S1130A80991F880F991F800F911FBE016F5F7F4FC1
S1130A908A0D9B1D0E94BB0E65E0CE01019635DDDB
S1130AA07394072D10E0E016F106D4F680E00F9061
S1130AB00F900F900F900F90DF91CF911F910F9196
S1130AC0FF90EF90DF90CF90BF90AF909F908F906A
S1130AD07F9008958AE394E0CCDE91E0813009F0C0
S1130AE090E0892F089581E394E0C3DE80E00895C7
S1130AF0AF92BF92CF92DF92EF92FF920F931F9328
S1130B00CF93DF93F12CEE24E3946894DD24D2F8A0
S1130B1009EE13E0C12C0F2EF3E0BF2EF02D6894E4
S1130B20AA24A1F8823061F128F4882349F08130A5
S1130B30B9F0F8CF833059F1843009F443C0F2CFCF
S1130B40CFE8D3E0CE0195DE29960C171D07D1F727
S1130B5088E294E08EDE811124C052DE8E2DE2CF35
S1130B608BEF93E086DE8823F1F0C80182DE8823D0
S1130B70E9F082EF93E07DDE8823D9F08A2DD2CF8D
S1130B808DE094E076DE8823B9F08E2DCBCF86E11C
S1130B9094E06FDE813099F08FE194E06ADE8D2D70
S1130BA0C1CF8E2DBFCFFC2C8B2DBCCFFC2C8B2D1D
S1130BB0B9CFFC2C8B2DB6CFFC2C8D2DB3CFFE2CB6
S1130BC08D2DB0CF8F2DDF91CF911F910F91FF907D
S1130BD0EF90DF90CF90BF90AF9008950F931F9345
S1130BE0CF93DF93EC018B0184E793E042DEB801FD
S1130BF0CE01D4DE8DE793E03CDE86E893E039DE77
S1130C0089E593E036DE80E0DF91CF911F910F916B
S1130C10089582E693E02DDE80E008951F920F92FE
S1130C200FB60F9211242F933F934F935F936F93BB
S1130C307F938F939F93AF93BF93CF93DF93EF9360
S1130C40FF93C091D304D0E0C552DB4F80EC90E019
S1130C5026DB88838091D3048F5F8093D304109222
S1130C60CB041092CC041092CD041092CE04FF91C8
S1130C70EF91DF91CF91BF91AF919F918F917F9130
S1130C806F915F914F913F912F910F900FBE0F90F5
S1130C901F9018951F920F920FB60F9211242F9246
S1130CA03F924F925F926F927F928F929F92AF92F8
S1130CB0BF92CF92DF92EF92FF920F931F932F93E5
S1130CC03F934F935F936F937F938F939F93AF93D0
S1130CD0BF93EF93FF93CF93DF93CDB7DEB72997FD
S1130CE0DEBFCDBF0FB6F894A895809160008861EF
S1130CF080936000109260000FBE8091000190917B
S1130D000101019690930101809300016DEC72E062
S1130D1088EC90E0D6DB60910001605D88EC90E0A7
S1130D20B7DA6DEC72E088EC90E0CBDB80910001E7
S1130D3090910101892B09F429C2109201011092AA
S1130D40000181E08093C6040F2EFBE02F2EF02DCE
S1130D5000E615E0CC24CA94D12C0F2EF3E05F2ECC
S1130D60F02D4E0123E0820E911C0F2EF9E03F2E50
S1130D70F02D412C0F2EFAE7EF2EF12CF02D0F2E33
S1130D80FCE7AF2EB12CF02D0F2EF8E76F2E712C4F
S1130D90F02DE091D7048E2F90E08C30910508F06F
S1130DA0EAC1FC01E25CFF4FA0C781E08093D60456
S1130DB0E4C1E4E6F0E080818E7F8083F7018081E6
S1130DC080688083E1DB80E082DCF80191838083AA
S1130DD08EE5F5018083F701808180648083F701CB
S1130DE0808186FDFCCFF3016081718180E090E019
S1130DF069D69B01AC0166E676E686E894E4CED536
S1130E0020E030E04AE754E4EBD630D6F8017787A7
S1130E106687F70180818F778083E4E6F0E0808144
S1130E2081608083B8DBF801208131818091C7041F
S1130E309091C804A091C904B091CA04820F931F71
S1130E40A11DB11D8093C7049093C804A093C90445
S1130E50B093CA0480819181B801F4DAF8018081E9
S1130E609181938382838091D4049091D5040196D7
S1130E709093D5048093D404938B828B8639910507
S1130E8040F01092D5041092D40482E08093D604EA
S1130E9074C11092D6041092C6046FC1F80122895D
S1130EA0338940E050E06091C7047091C804809198
S1130EB0C9049091CA04F7D6F801358324831092AB
S1130EC0C7041092C8041092C9041092CA04509224
S1130ED0D60453C162DB813049F4F80180A191A1A9
S1130EE0816091A380A33092D60447C184E08093AB
S1130EF0D60443C1EFDD813049F4F80180A191A10A
S1130F00806291A380A33092D60437C1ECDD80E0E7
S1130F10EFDD882349F0F80180A191A1826091A3BB
S1130F2080A33092D60429C185E08093D60425C1DC
S1130F30F2E0F0935C0440925D0482E0942D880F0B
S1130F40991F2AE030E04BE555E061E0805A9A4F62
S1130F5060DD4AE068ED74E080915C0490915D048A
S1130F6035D728ED34E044E650E060E674E08BE5E4
S1130F7095E073D490935F0480935E0480915C0445
S1130F8090915D04039714F081E0B2DD60915E04FA
S1130F9070915F0480E694E021DE652D88ED94E095
S1130FA0B4DA80915C0490915D04019690935D04A1
S1130FB080935C04853091050CF4C1CF86E0809366
S1130FC0D604DBC087E08093D604D7C028E0209302
S1130FD0D604D3C01EDE3092D604CFC03DDB8AE0F7
S1130FE08093D604CAC0F801138A128A8091C5047A
S1130FF09601281B3109203131052CF480A191A1DF
S1131000886091A380A38091C404F601E81BF109D0
S1131010709734F4F80180A191A1806191A380A319
S113102046986091C4048091C50490E05AD8809198
S1131030C4048F5F8093C4048091C5048F5F809340
S1131040C504F80160A171A18091C50490E049D85C
S11310508091C5048F5F8093C504F8016481758114
S11310608091C50490E03DD88091C5048F5F809342
S1131070C504F801848195818091C504692F90E0AD
S113108030D88091C5048F5F8093C504F8016681D0
S113109077818091C50490E024D88091C5048F5F46
S11310A08093C504F801868197818091C504692FD6
S11310B090E017D88091C5048F5F8093C504F80130
S11310C0608571858091C50490E00BD88091C5043A
S11310D08F5F8093C504F801808591858091C50454
S11310E0692F90E00E9471008091C5048F5F809306
S11310F0C504469A1A821982F401252D11922A9563
S1131100E9F765E0CE01019600DA198618861F8298
S11311101E828091C50490E0069735D88987809116
S1131120C50490E005972FD888872885898590E0A5
S1131130922B9F838E838E819F814AE0BE016F5FD5
S11311407F4F44D66DEC72E088EC90E0BAD9BE01D2
S11311506F5F7F4F88EC90E0B4D96DEC72E088EC5F
S113116090E0AFD92092D60408C0DDD91092D604FD
S11311701092C60402C02092D6048091D6048093B3
S1131180D7048091C604813009F403CEA89581E088
S113119090E0D8D929960FB6F894DEBF0FBECDBF24
S11311A0DF91CF91FF91EF91BF91AF919F918F917B
S11311B07F916F915F914F913F912F911F910F916B
S11311C0FF90EF90DF90CF90BF90AF909F908F9063
S11311D07F906F905F904F903F902F900F900FBE35
S11311E00F901F901895F894C4E6D0E088818D661E
S11311F0888362E071E080EC90E0E2D888818D7FA2
S1131200888362E071E088EC90E0DAD888818F7E90
S1131210888360E488EC90E03BD861E488EC90E05B
S113122037D898D983E880937A009AD90E946800C5
S11312306BE171E480E090E039D98FD96BE171E41E
S113124080E090E033D94D9B06C006DA813009F482
S1131250D5D94D99FACF67D982E090E073D983B795
S1131260817F846083BF789483B7816083BF85B7AF
S1131270806685BF8F7D85BF889583B78E7F83BF4A
S1131280F3CFEF92FF920F931F93CF93DF93EC0171
S11312908E81833029F0843031F40AE010E005C0F7
S11312A00CE010E002C000E010E04F815885698531
S11312B07A858B859C85FBD10296080F191F888936
S11312C08823A1F04F89588D698D7A8D8B8D9C8DE3
S11312D0EED17C014D8D5E8D6F8D78A189A19AA18F
S11312E0E6D18E0D9F1D0496080F191F8DA19EA196
S11312F0892B21F489A59AA5892B51F04DA15EA1D2
S11313006FA178A589A59AA5D2D10296080F191FB5
S11313108BA59CA5892B21F48FA598A9892B51F025
S11313204BA55CA56DA57EA58FA598A9C0D10296F5
S1131330080F191FC801DF91CF911F910F91FF90E2
S1131340EF900895AF92BF92CF92DF92EF92FF9207
S11313500F931F93CF93DF9300D0CDB7DEB76C010B
S11313605B018A019A838983CA018BDF7C0103D1E3
S1131370A816B9060CF49FC060E1CE0101960AD10B
S1131380B70189819A81D1D029813A81820F931F33
S11313909A838983F8018681843051F46CE474E083
S11313A0CE01019620D164E0CE010196F3D009C0AC
S11313B061E574E0CE01019616D163E0CE01019699
S11313C0E9D0F12CF801878580FBF1F881E0908960
S11313D0911101C080E080FBF2F8F2FE0DC0F8012B
S11313E084A18370880F880F880F9F2D977EF92E14
S11313F0F82A83A180FBF5F8F80185A196A1892B31
S113140021F481A592A5892B11F06894F7F8F801CD
S113141083A594A5892B21F487A590A9892B11F084
S11314206894F6F86F2DCE010196B4D0F801658565
S11314307685CE010196B8D0F801278130854185A3
S1131440528563857485CE010196F2D0F8018089B6
S1131450882399F02789308D418D528D638D748D49
S1131460CE010196E5D0F801258D368D478D50A12A
S113147061A172A1CE010196DBD0EF2CFF2054F4C0
S1131480F80125A136A147A150A561A572A5CE01F9
S11314900196CED0E6FE0AC0F80123A534A545A5E1
S11314A056A567A570A9CE010196C2D089819A81FB
S11314B08C199D0902C08EEF9FEF0F900F90DF9162
S11314C0CF911F910F91FF90EF90DF90CF90BF903D
S11314D0AF9008950F931F93CF93DF9300D0CDB7B0
S11314E0DEB79A838983623071059CF08C01642F86
S11314F06295607FCE0101964DD060E070E08981F5
S11315009A8113D029813A81820F931F801B910BFA
S113151002C08EEF9FEF0F900F90DF91CF911F913C
S11315200F9108954EE0D6CF0895DC01E0E0F0E09D
S11315309B012F773078332334F42150310920680C
S11315403F6F2F5F3F4FAB01772314F441585F4F38
S1131550BA01660F672F661F770B1616170624F459
S1131560319620682D93E4CFDC01AE0FBF1F2C937E
S1131570CF01019608959C012F5F3F4F203831051C
S113158014F4029608952115304414F40396089532
S113159004960895FC01A081B1816C9380819181AE
S11315A00196918380830895FC01A081B181CB01D0
S11315B0772314F481509F4F9C93A081B181CD0176
S11315C0019691838083707877232CF4615071099C
S11315D07F6F6F5F7F4F11966C938081918101962D
S11315E0918380830895EF92FF920F931F93CF937B
S11315F0DF938C017B01EB0109900020E9F721972F
S1131600C61BD70BBE01D0DFAE01B701F801808144
S113161091819DD3F80180819181C80FD91FD18315
S1131620C083DF91CF911F910F91FF90EF900895A8
S1131630EF92FF920F931F93CF93DF9300D000D0CC
S113164000D0CDB7DEB77C0129833A834B835C831A
S11316506D837E830B811C81101611068CF4B801F6
S1131660A3DF6D817E81A801F701808191816FD311
S1131670F70180819181080F191F118300830AC02B
S113168069817A816115710511F0ADDF03C060E0F5
S113169070E08ADF26960FB6F894DEBF0FBECDBF8A
S11316A0DF91CF911F910F91FF90EF900895CF9309
S11316B0DF9300D000D000D0CDB7DEB749835A8382
S11316C06B837C838D839E83A981BA81109749F0B3
S11316D0FD0101900020E9F73197CF018A1B9B0B94
S11316E002C08B819C8126960FB6F894DEBF0FBE94
S11316F0CDBFDF91CF910895EF92FF920F931F9387
S1131700CF93DF9300D000D000D0CDB7DEB77C01FB
S1131710F42FE52F862F972F422F532F6F2F7E2FD5
S1131720C6DF0296800F911F1E141F040CF402964C
S113173026960FB6F894DEBF0FBECDBFDF91CF91D2
S11317401F910F91FF90EF9008952F923F924F9227
S11317505F926F927F928F929F92AF92BF92CF923D
S1131760DF92EF92FF920F931F93CF93DF93CDB746
S1131770DEB72A970FB6F894DEBF0FBECDBF2C019B
S11317801B01498739010A87282D8B82392D9C82B8
S11317904A2DAD825B2DBE826C2DCF827D2DD886E5
S11317A0C9A0DAA09A8389838601C301A5DF8C01CD
S11317B0E2DE28163906B4F160E3898580FB63F91B
S11317C0862D8370880F697F682B8A8580FB60F97A
S11317D0CE010196DFDEB80189819A81A6DE2981D6
S11317E03A81820F931F9A8389832B813C814D8197
S11317F05E816F817885CE0101961ADF1614170475
S113180024F4B701CE010196CFDEA6016F8D78A135
S113181089819A819CD289819A818C0D9D1D84191C
S1131820950902C08EEF9FEF2A960FB6F894DEBF9B
S11318300FBECDBFDF91CF911F910F91FF90EF901D
S1131840DF90CF90BF90AF909F908F907F906F90DC
S11318505F904F903F902F9008952F923F924F9218
S11318605F926F927F928F929F92AF92BF92CF922C
S1131870DF92EF92FF920F931F93CF93DF93CDB735
S1131880DEB7ED970FB6F894DEBF0FBECDBFB82E0E
S1131890A92E1B012A01790181E3E9E0F1E0DE01CF
S11318A0119601900D928A95E1F71DAA1CAA1FAA10
S11318B01EAAEB2DF92FDF010D900020E9F71197F7
S11318C08D010E1B1F0B88E594E09987888784E1BE
S11318D090E09F878E8781E0888B8FEC92E09FA3B6
S11318E08EA39DA78CA784E08F83AE014F5F5F4FCB
S11318F0B201C10127DD3C018CE495E499AF88AFC6
S11319008FE290E09BAF8AAF1DAE1CAE6E0188E300
S1131910C80ED11CB701C60123D2DBAACAAAB201E0
S1131920661977091F930F93AF92BF928AA89BA859
S1131930ACA8BDA8CEA8DFA8E12CF12C00E020E0E3
S113194030E040E0C101860D971DFFDE680E791E70
S1131950B20166197709C101860D971DE3DD0F9069
S11319600F900F900F90860D971DED960FB6F8947B
S1131970DEBF0FBECDBFDF91CF911F910F91FF90BE
S1131980EF90DF90CF90BF90AF909F908F907F901B
S11319906F905F904F903F902F9008950CD0E6C0C9
S11319A0DED040F0D5D030F021F45F3F19F0C7C04D
S11319B0511110C1CAC0EBD098F39923C9F3552330
S11319C0B1F3951B550BBB27AA276217730784072E
S11319D038F09F5F5F4F220F331F441FAA1FA9F3E4
S11319E033D00E2E3AF0E0E830D091505040E695D6
S11319F0001CCAF729D0FE2F27D0660F771F881F37
S1131A00BB1F261737074807AB07B0E809F0BB0B25
S1131A10802DBF01FF2793585F4F2AF09E3F510549
S1131A2068F08DC0D7C05F3FECF3983EDCF3869539
S1131A3077956795B795F7959F5FC9F7880F911DBF
S1131A409695879597F90895E1E0660F771F881FAB
S1131A50BB1F621773078407BA0720F0621B730B5E
S1131A60840BBA0BEE1F88F7E095089598D088F0A0
S1131A709F5790F0B92F9927B751A0F0D1F0660F76
S1131A80771F881F991F1AF0BA95C9F712C0B13091
S1131A9081F09FD0B1E008959CC0672F782F8827EC
S1131AA0B85F39F0B93FCCF3869577956795B395D0
S1131AB0D9F73EF490958095709561957F4F8F4F3F
S1131AC09F4F0895E89409C097FB3EF49095809544
S1131AD0709561957F4F8F4F9F4F9923A9F0F92FF0
S1131AE096E9BB279395F695879577956795B7956E
S1131AF0F111F8CFFAF4BB0F11F460FF1BC06F5F54
S1131B007F4F8F4F9F4F16C0882311F096E911C065
S1131B10772321F09EE8872F762F05C0662371F086
S1131B2096E8862F70E060E02AF09A95660F771F9A
S1131B30881FDAF7880F9695879597F9089597F98E
S1131B409F6780E870E060E008959FEF80EC08955F
S1131B5000240A9416161706180609060895002488
S1131B600A9412161306140605060895092E039402
S1131B70000C11F4882352F0BB0F40F4BF2B11F476
S1131B8060FF04C06F5F7F4F8F4F9F4F089557FDD5
S1131B909058440F551F59F05F3F71F04795880FD7
S1131BA097FB991F61F09F3F79F08795089512166E
S1131BB013061406551FF2CF4695F1DF08C016161A
S1131BC017061806991FF1CF8695710561050894CB
S1131BD00895E894BB2766277727CB0197F90895E2
S1131BE00BD0C4CFB5DF28F0BADF18F0952309F085
S1131BF0A6CFABCF1124EECFCADFA0F3959FD1F3CC
S1131C00950F50E0551F629FF001729FBB27F00DA6
S1131C10B11D639FAA27F00DB11DAA1F649F6627FB
S1131C20B00DA11D661F829F2227B00DA11D621F4A
S1131C30739FB00DA11D621F839FA00D611D221F04
S1131C40749F3327A00D611D231F849F600D211DE8
S1131C50822F762F6A2F11249F5750408AF0E1F08B
S1131C6088234AF0EE0FFF1FBB1F661F771F881FD4
S1131C7091505040A9F79E3F510570F060CFAACF14
S1131C805F3FECF3983EDCF3869577956795B795BF
S1131C90F795E7959F5FC1F7FE2B880F911D9695E9
S1131CA0879597F90895A1E21A2EAA1BBB1BFD0183
S1131CB00DC0AA1FBB1FEE1FFF1FA217B307E40727
S1131CC0F50720F0A21BB30BE40BF50B661F771F7F
S1131CD0881F991F1A9469F760957095809590955F
S1131CE09B01AC01BD01CF010895EE0FFF1F0590CC
S1131CF0F491E02D0994A29FB001B39FC001A39F6A
S1131D00700D811D1124911DB29F700D811D112430
S1131D10911D0895FC0188279927E8942191203288
S1131D20E9F3293010F02E30C8F32B3239F02D327C
S1131D3031F4689403C054D0820F911D2191205333
S1131D402A30C8F31EF4909581959F4F0895FB01A6
S1131D50DC0102C001900D9241505040D8F7089523
S1131D60FB01DC010D900020E9F7119701900D9221
S1131D700020E1F70895FB01DC0101900D920020A1
S1131D80E1F70895FB0151915523A9F0BF01DC014E
S1131D904D9145174111E1F759F4CD01019000200F
S1131DA049F04D9140154111C9F3FB014111EFCFA9
S1131DB081E090E0019708954532510518F44230CE
S1131DC008F004C0FB011082CB010895BB274A3000
S1131DD031F4992322F4BDE2909581959F4F09C077
S1131DE07AE0979F902D879F802D910D112408955F
S1131DF0BB27FB015527AA27880F991FAA1FA417E1
S1131E0010F0A41B83955051B9F7A05DAA3308F0D4
S1131E10A95DA193009779F7B111B1931192CB0108
S1131E2000C0DC01FC01672F71917723E1F7329741
S1131E3004C07C916D9370836291AE17BF07C8F3A1
S1091E400895F894FFCFA1
S1131E460100C01200000300004D51544300000479
S1131E560000000000003C0001004D5154570000F2
S1131E660000000000000000000000000000000068
S1131E760000000000000000000041542B51504FA8
S1131E8657443D310D0041542B51504F57443D307A
S1131E960D0041542B5149434C4F53450D004154B9
S1131EA62B514944454143540D0041542B51495348
S1131EB65441540D0053544154453A20434F4E4E19
S1131EC6454354204F4B0D0A0041542B5149534569
S1131ED64E440D003E20001A0053454E44204F4BFD
S1131EE60D0041542B51495341434B0D0041542B92
S1131EF651494647434E543D300D0041542B5149F8
S1131F06435347503D312C227075626C6963222C11
S1131F1622222C22220D0041542B51494D55583D65
S1131F26300D0041542B51494D4F44453D300D0071
S1131F3641542B5149444E5349503D300D004154B0
S1131F462B51495245474150500D00535441544575
S1131F563A2049502053544152540D0A0041542BFF
S1131F6651494143540D0053544154453A20495074
S1131F7620475052534143540D0A0041542B5149B2
S1131F864C4F4349500D0053544154453A2049504F
S1131F9620494E495449414C0D0A00535441544575
S1131FA63A204950205354415455530D0A00535472
S1131FB64154453A20495020434C4F53450D0A009D
S1131FC6414C524541445920434F4E4E45435400DB
S1131FD641542B51494F50454E3D22544350222CD7
S1131FE62238352E3131392E38332E313934222CDC
S1131FF6313838330D0041542B5149535256433D21
S1132006310D0041542B514C54530D00220D0A003E
S113201641542B43474154543F0D0041542B514ED8
S11320265354415455530D00514E53544154555332
S11320363A20300D0A0041542B43474D520D0041BE
S1132046542B43495053544152543D005443500079
S1132056222C220038352E3131392E38332E31399F
S11320663400313838330041542B435354543D0023
S11320767075626C696300000000000000FFFF00D9
S11320860000000000000000000000000000000046
S1132096000000000000000000520184011E000040
S11320A600015E0184011E000000016A0175011E23
S11320B600000001890194011E00000001970199A6
S11320C6011E00000001A20184011E00000001ADF2
S11320D60184011E00000001BB0184011E000000F2
S11320E601D70184011E00000001E30184011E00E2
S11320F6000001F00184011E00000001FE018401BC
S11321061E000000016A010B021E000000011D02F0
S11321168401D0070000016A0127021E00000001A5
S11321263B0200001E0000001B6A0147021E00005D
S113213600016A015B021E000000016A016E021EB4
S1132146000000016A0180021E000000016A017598
S1132156011E0000000190027C01D007000001B6B8
S11321660284011E00000001C302CC021E0000000E
S113217601D0028401D007000001DB02E8021E0040
S113218600001BF60284011E000000014D51545448
S10F2196004D5149736470004C4500007A
S9030000FC
