:1000000049C0000063C0000061C000005FC0000084
:100010005DC000005BC0000059C0000057C0000078
:1000200038C4000053C0000051C000004FC00000A1
:100030004DC000004BC0000049C0000047C0000098
:1000400045C0000043C0000041C000003FC00000A8
:10005000E4C300003BC0000039C0000037C000000E
:1000600035C0000033C0000031C000002FC00000C8
:100070002DC000002BC0000029C00000C004C40433
:100080001A0535053A053E0542058C058F05920592
:1000900096059A0511241FBECFEFD8E0DEBFCDBF75
:1000A00014E0A0E0B1E0EEE6F7E102C005900D92A9
:1000B000A631B107D9F725E0A6E1B4E001C01D9251
:1000C000AA33B207E1F767D50C94B50B99CFCF935C
:1000D000DF931F92CDB7DEB79FB79983F8949981CC
:1000E000823040F4E82FF0E0EC59FF4F60958081BA
:1000F000682360839FBF0F90DF91CF910895FC012B
:10010000908195FFFDCF668380E00895FC0190818A
:100110009923ECF7868108954F925F926F927F92B8
:100120008F929F92AF92BF92CF92DF92EF92FF9207
:100130000F931F93CF93DF93EC016A017B0128019A
:100140003901689412F876946794579447941694FA
:10015000D1F7888181FD0EC048015901072E73E156
:10016000B694A794979487947A95D1F7702DD3017C
:10017000C20115C0D901C801689413F8B695A795B6
:10018000979587951694D1F748015901072E74E188
:10019000B694A794979487947A95D1F7702D8C157F
:1001A0009D05AE05BF0578F1C814D904EA04FB0427
:1001B00060F1888181FF10C0A7019601220F331FD3
:1001C000441F551FC301B2010E941B0BDA01C90174
:1001D0000197A109B10913C0C901B801689413F8C6
:1001E00096958795779567951694D1F7A70196010F
:1001F0000E941B0BDA01C9010197A109B1099D8376
:100200008C8381E003C080E001C080E0DF91CF916A
:100210001F910F91FF90EF90DF90CF90BF90AF9024
:100220009F908F907F906F905F904F9008950F9365
:100230001F93CF93DF93EC018B01803C910519F460
:1002400062E080E044DF8A818F738A83F80126812F
:10025000358184819A81482F4370440F997F942B74
:100260009A8399818470880F880F9B7F892B89835B
:100270008A818F7C832B8A839A81977F822F880F34
:10028000880F880F892B8A83408151816281738115
:1002900000E412E42FE030E0CE013EDF9981986067
:1002A0009983998190619983DF91CF911F910F91EB
:1002B0000895FB0122813381AC01421B530B9A014B
:1002C000DA0122F4AA27BB27A41BB50B428553856C
:1002D00055231CF451954195510961E04A175B077C
:1002E0000CF060E0662351F041E062897389672B6E
:1002F00009F440E0442311F03387228726813781B7
:100300008217930710F497838683208531852817F9
:10031000390710F491878087089504C061507109EE
:10032000810991096115710581059105B9F7089554
:100330000F931F93CF93DF93EB016881662339F00E
:100340008C012196C801DBDE69916111FBCFDF9141
:10035000CF911F910F910895442361F0A62FB72FDD
:10036000E82FF92F80E02D913D91219331938F5FFC
:100370004813F9CF80E00895662359F0FC016150DD
:1003800070E06F5F7F4F860F971F1192E817F90794
:10039000E1F7089564E683E195E0EEDF64E68AE143
:1003A00094E0EADF41E169E373E088E195E0D4CFCE
:1003B000089514BEE0E6F0E088E1808386E480835F
:1003C0000895569A5E980895549A55980895CF9333
:1003D000882341F0C82F63E876E080E090E09DDF5D
:1003E000C150C9F7CF9108955E9A63E876E080E046
:1003F00090E093CF08955E9808951F93CF93DF9375
:100400005C9867EA70E080E090E087DF5C9A6BE1DF
:1004100071E480E090E081DF5C986BE07BE882E053
:1004200090E07BDF5C9A4D9916C0C0E0D1E010E00F
:1004300066E372E880E090E070DFCF5F89B185FB12
:10044000882780F98D1741F08D2FCB3108F0812F4F
:100450008111EECF01C0C0E081E0CB3109F080E036
:10046000DF91CF911F9108951F93CF93DF934D9B01
:100470002FC0C0E0D1E010E06AE371E088EC90E0CA
:1004800057DF6AE371E080EC90E052DF5C986BE24A
:100490007CE28AE090E041DF4D9B10C066E471E0B1
:1004A00088EC90E045DF66E471E080EC90E040DFAE
:1004B0005C9861E472E48FE090E02FDFCF5F4D9BAA
:1004C00008C08D2FCB3108F0812F8111D5CF01C00D
:1004D000C0E081E0CB3109F080E0DF91CF911F9146
:1004E00008956F927F928F929F92AF92BF92CF9218
:1004F000DF92EF92FF920F931F93CF93DF93CDB7CD
:10050000DEB70DB71EB7462F50E0440F551F2DB76D
:100510003EB7241B350B0FB6F8943EBF0FBE2DBF60
:10052000ADB7BEB71196E4E6F0E090819E7F908370
:1005300097E890937A00662349F13D01812C912C34
:10054000540130E00F2EFCE7CF2ED12CF02D80642B
:10055000EAE7F0E00F2EF8E7EF2EF12CF02DD601B0
:100560008C93908190649083908196FDFDCFD7010C
:100570004D915C91D3014D935D933D01840E951E89
:10058000A11CB11C3F5F6313EACF03C0812C912CE7
:100590005401262F30E040E050E0C501B4010E9434
:1005A0001B0BC9010FB6F8941EBF0FBE0DBFDF9124
:1005B000CF911F910F91FF90EF90DF90CF90BF9060
:1005C000AF909F908F907F906F9008950F931F939F
:1005D000CF93DF93EC018885882309F463C010E092
:1005E00000E060E883E994E0C7DE10928B048C8120
:1005F0009D81AE81BF818093870490938804A093EE
:100600008904B0938A041092830410928404109297
:100610008504109286046881798180EC90E088DE00
:100620007894E0ECF0E08181806881831EC0809145
:10063000830490918404A0918504B091860401966E
:10064000A11DB11D8093830490938404A09385041D
:10065000B093860481E0BBDE6A817B8183E994E00C
:100660000E945E0B01E0892BF9F4409183045091C4
:100670008404609185047091860480918704909130
:100680008804A0918904B0918A04481759076A0721
:100690007B0768F28EE19BDE1F5F8885181708F4E0
:1006A000A0CF03C000E001C000E0E0ECF0E08181F9
:1006B0008F77818363E974E088EC90E039DE802FE6
:1006C000DF91CF911F910F9108957F928F929F920A
:1006D000AF92BF92CF92DF92EF92FF920F931F9350
:1006E000CF93DF9300D000D01F92CDB7DEB76C015F
:1006F0001A821982FE01339693E0DF011D929A95CA
:10070000E9F7E62EF12CB1E0EB1AF1084AF14901C4
:100710005A0100E010E0712CE72DF0E0EE0FFF1F12
:10072000EC0DFD1DA401BE016F5F7F4F80819181A3
:10073000DFD7C801880F991F880F991F800F911F5D
:10074000BE016F5F7F4F8A0D9B1DB1D765E0CE0163
:10075000019612DE7394072D10E0E016F106E4F620
:1007600080E00F900F900F900F900F90DF91CF913E
:100770001F910F91FF90EF90DF90CF90BF90AF90BF
:100780009F908F907F9008950F931F93CF93DF9347
:10079000C1E9D3E006E014E0CE0118DF2996C017C6
:1007A000D107D1F780E0DF91CF911F910F9108958C
:1007B0008BE593E00BDF811103C084E693E006DF55
:1007C00080E00895EF92FF920F931F93CF937C01E7
:1007D0008B018DE693E0FADE86E793E0F7DE1016F4
:1007E000110674F4C0E0F701EC0FF11D608180EC9C
:1007F00090E085DCCF5F8C2F90E0801791079CF311
:100800008FE793E0E3DE88E893E0E0DE80E0CF91DD
:100810001F910F91FF90EF9008951F920F920FB6C6
:100820000F9211242F933F934F935F936F937F9376
:100830008F939F93AF93BF93CF93DF93EF93FF93E8
:10084000C0918B04D0E0CD56DB4F80EC90E05EDCB5
:10085000888380918B048F5F80938B041092830434
:10086000109284041092850410928604FF91EF91F7
:10087000DF91CF91BF91AF919F918F917F916F91B8
:100880005F914F913F912F910F900FBE0F901F904E
:1008900018951F920F920FB60F9211249F92AF924C
:1008A000BF92CF92DF92EF92FF920F931F932F93FD
:1008B0003F934F935F936F937F938F939F93AF93E8
:1008C000BF93CF93DF93EF93FF930FB6F894A89560
:1008D00080916000886180936000109260000FBE7C
:1008E0008091000190910101019690930101809304
:1008F000000161EB71E088EC90E01ADD609100018D
:10090000605D88EC90E0FBDB61EB71E088EC90E0EF
:100910000FDD8091000190910101892B09F41BC129
:10092000109201011092000181E080937E040F2E4D
:10093000FBE0FF2EF02D1AE009E06894AA24A3F84A
:100940000F2EF7E0BF2EF02D0F2EF6E0CF2EF02D5C
:100950000F2EF5E0DF2EF02DC8E1D5E06894EE24EF
:10096000E2F86894992491F8E0918F048E2F90E03A
:100970008C30910508F0E4C0FC01E25CFF4F7DC6BD
:1009800081E080938E04DEC02FDD602F80E0A9DD42
:100990009983888361E08EE1A4DDBC0180E090E072
:1009A00059D59B01AC0166E676E686E894E4BED4B0
:1009B00020E030E04AE754E4DBD520D57F876E871E
:1009C0001ADD2881398180917F0490918004A09163
:1009D0008104B0918204820F931FA11DB11D8093E9
:1009E0007F0490938004A0938104B0938204888153
:1009F0009981BE015EDC888199819B838A83809185
:100A00008C0490918D04019690938D0480938C04B6
:100A10009B8B8A8B8A899B890A9738F010928D0468
:100A200010928C0490928E048DC010928E041092BD
:100A30007E0488C02A893B8940E050E060917F04B1
:100A4000709180048091810490918204F4D53D835B
:100A50002C8310927F0410928004109281041092D3
:100A6000820483E080938E046DC01B8A1A8AE09210
:100A70008E0468C0C2DCD0928E0464C085DEC09251
:100A80008E0460C0109217041092160480E090E06B
:100A9000880F991F2AE030E043E155E061E0885E6D
:100AA0009A4F13DE412F60E974E080911604909113
:100AB000170428D620E934E044E650E06AE174E007
:100AC00083E195E091D39093190480931804809169
:100AD000160490911704181619061CF48DEF93E074
:100AE00075DD60911804709119048AE194E06ADE62
:100AF00063E080E994E040DC809116049091170453
:100B000001969093170480931604883091050CF495
:100B1000BFCFB0928E0416C0A0928E0413C0009373
:100B20008E0410C045DE10938E040CC09DDCF09244
:100B30008E0408C02FDC10928E0410927E0402C036
:100B4000F0928E0480918E0480938F0480917E04B5
:100B5000813009F409CFA89581E090E02ADCFF916B
:100B6000EF91DF91CF91BF91AF919F918F917F9145
:100B70006F915F914F913F912F911F910F91FF9036
:100B8000EF90DF90CF90BF90AF909F900F900FBEEF
:100B90000F901F901895F894C8D3E4E6F0E0808198
:100BA0008E7F808387E880937A0062E071E080EC3A
:100BB00090E03DDB62E080E08ADA62E071E088ECA0
:100BC00090E035DB60E180E082DA6BE07BE882E098
:100BD00090E0A3DBF9DB6BE07BE882E090E09DDB5B
:100BE000F0DB42DCD7DB82E090E0E3DB83B7817FA0
:100BF000846083BF789483B7816083BF85B7806644
:100C000085BF8F7D85BF889583B78E7F83BFF3CFE8
:100C1000EF92FF920F931F93CF93DF93EC018E819E
:100C2000833029F0843031F40AE010E005C00CE094
:100C300010E002C000E010E04F81588569857A8598
:100C40008B859C85FBD10296080F191F8889882304
:100C5000A1F04F89588D698D7A8D8B8D9C8DEED149
:100C60007C014D8D5E8D6F8D78A189A19AA1E6D111
:100C70008E0D9F1D0496080F191F8DA19EA1892B13
:100C800021F489A59AA5892B51F04DA15EA16FA1F0
:100C900078A589A59AA5D2D10296080F191F8BA510
:100CA0009CA5892B21F48FA598A9892B51F04BA5E0
:100CB0005CA56DA57EA58FA598A9C0D10296080F49
:100CC000191FC801DF91CF911F910F91FF90EF90F5
:100CD0000895AF92BF92CF92DF92EF92FF920F935F
:100CE0001F93CF93DF9300D0CDB7DEB76C015B01CC
:100CF0008A019A838983CA018BDF7C0103D1A816FC
:100D0000B9060CF49FC060E1CE0101960AD1B7018B
:100D100089819A81D1D029813A81820F931F9A8348
:100D20008983F8018681843051F466E074E0CE0155
:100D3000019620D164E0CE010196F3D009C06BE0AA
:100D400074E0CE01019616D163E0CE010196E9D0A0
:100D5000F12CF801878580FBF1F881E090899111F1
:100D600001C080E080FBF2F8F2FE0DC0F80184A122
:100D70008370880F880F880F9F2D977EF92EF82A91
:100D800083A180FBF5F8F80185A196A1892B21F4B8
:100D900081A592A5892B11F06894F7F8F80183A535
:100DA00094A5892B21F487A590A9892B11F068942B
:100DB000F6F86F2DCE010196B4D0F80165857685E1
:100DC000CE010196B8D0F801278130854185528542
:100DD00063857485CE010196F2D0F801808988235D
:100DE00099F02789308D418D528D638D748DCE01A0
:100DF0000196E5D0F801258D368D478D50A161A172
:100E000072A1CE010196DBD0EF2CFF2054F4F80143
:100E100025A136A147A150A561A572A5CE010196D5
:100E2000CED0E6FE0AC0F80123A534A545A556A5F7
:100E300067A570A9CE010196C2D089819A818C19CB
:100E40009D0902C08EEF9FEF0F900F90DF91CF9121
:100E50001F910F91FF90EF90DF90CF90BF90AF90D8
:100E600008950F931F93CF93DF9300D0CDB7DEB7D4
:100E70009A838983623071059CF08C01642F62959E
:100E8000607FCE0101964DD060E070E089819A814B
:100E900013D029813A81820F931F801B910B02C0CE
:100EA0008EEF9FEF0F900F90DF91CF911F910F91D9
:100EB00008954EE0D6CF0895DC01E0E0F0E09B011C
:100EC0002F773078332334F42150310920683F6F75
:100ED0002F5F3F4FAB01772314F441585F4FBA01A6
:100EE000660F672F661F770B1616170624F43196C8
:100EF00020682D93E4CFDC01AE0FBF1F2C93CF01F0
:100F0000019608959C012F5F3F4F2038310514F45E
:100F1000029608952115304414F40396089504961A
:100F20000895FC01A081B1816C938081918101962B
:100F3000918380830895FC01A081B181CB01772347
:100F400014F481509F4F9C93A081B181CD010196F3
:100F500091838083707877232CF4615071097F6FBF
:100F60006F5F7F4F11966C93808191810196918381
:100F700080830895EF92FF920F931F93CF93DF9397
:100F80008C017B01EB0109900020E9F72197C61B3A
:100F9000D70BBE01D0DFAE01B701F801808191818E
:100FA00072D3F80180819181C80FD91FD183C0838A
:100FB000DF91CF911F910F91FF90EF900895EF92E5
:100FC000FF920F931F93CF93DF9300D000D000D0F8
:100FD000CDB7DEB77C0129833A834B835C836D8375
:100FE0007E830B811C81101611068CF4B801A3DFDF
:100FF0006D817E81A801F7018081918144D3F70141
:1010000080819181080F191F118300830AC06981B3
:101010007A816115710511F0ADDF03C060E070E009
:101020008ADF26960FB6F894DEBF0FBECDBFDF91E4
:10103000CF911F910F91FF90EF900895CF93DF9381
:1010400000D000D000D0CDB7DEB749835A836B8380
:101050007C838D839E83A981BA81109749F0FD011D
:1010600001900020E9F73197CF018A1B9B0B02C04A
:101070008B819C8126960FB6F894DEBF0FBECDBF44
:10108000DF91CF910895EF92FF920F931F93CF932B
:10109000DF9300D000D000D0CDB7DEB77C01F42FB5
:1010A000E52F862F972F422F532F6F2F7E2FC6DFCE
:1010B0000296800F911F1E141F040CF402962696B0
:1010C0000FB6F894DEBF0FBECDBFDF91CF911F9159
:1010D0000F91FF90EF9008952F923F924F925F9261
:1010E0006F927F928F929F92AF92BF92CF92DF9238
:1010F000EF92FF920F931F93CF93DF93CDB7DEB79D
:101100002A970FB6F894DEBF0FBECDBF2C011B018E
:10111000498739010A87282D8B82392D9C824A2DD7
:10112000AD825B2DBE826C2DCF827D2DD886C9A06D
:10113000DAA09A8389838601C301A5DF8C01E2DEF0
:1011400028163906B4F160E3898580FB63F9862DA2
:101150008370880F697F682B8A8580FB60F9CE01D8
:101160000196DFDEB80189819A81A6DE29813A8164
:10117000820F931F9A8389832B813C814D815E81ED
:101180006F817885CE0101961ADF1614170424F4B6
:10119000B701CE010196CFDEA6016F8D78A18981BE
:1011A0009A8171D289819A818C0D9D1D841995092E
:1011B00002C08EEF9FEF2A960FB6F894DEBF0FBEE7
:1011C000CDBFDF91CF911F910F91FF90EF90DF90F6
:1011D000CF90BF90AF909F908F907F906F905F90D7
:1011E0004F903F902F9008952F923F924F925F9291
:1011F0006F927F928F929F92AF92BF92CF92DF9227
:10120000EF92FF920F931F93CF93DF93CDB7DEB78B
:10121000ED970FB6F894DEBF0FBECDBFB82EA92E46
:101220001B012A01790181E3E9E0F1E0DE01119679
:1012300001900D928A95E1F71DAA1CAA1FAA1EAA69
:10124000EB2DF92FDF010D900020E9F711978D01AB
:101250000E1B1F0B82E194E09987888784E190E060
:101260009F878E8781E0888B83EB91E09FA38EA37D
:101270009DA78CA784E08F83AE014F5F5F4FB201C3
:10128000C10127DD3C018CE495E499AF88AF8FE282
:1012900090E09BAF8AAF1DAE1CAE6E0188E3C80E16
:1012A000D11CB701C601F8D1DBAACAAAB2016619DE
:1012B00077091F930F93AF92BF928AA89BA8ACA8FF
:1012C000BDA8CEA8DFA8E12CF12C00E020E030E0A2
:1012D00040E0C101860D971DFFDE680E791EB20148
:1012E00066197709C101860D971DE3DD0F900F90F8
:1012F0000F900F90860D971DED960FB6F894DEBFF8
:101300000FBECDBFDF91CF911F910F91FF90EF9056
:10131000DF90CF90BF90AF909F908F907F906F9015
:101320005F904F903F902F90089508950CD0E6C0A5
:10133000DED040F0D5D030F021F45F3F19F0C7C0C7
:10134000511110C1CAC0EBD098F39923C9F35523AA
:10135000B1F3951B550BBB27AA27621773078407A8
:1013600038F09F5F5F4F220F331F441FAA1FA9F35E
:1013700033D00E2E3AF0E0E830D091505040E69550
:10138000001CCAF729D0FE2F27D0660F771F881FB1
:10139000BB1F261737074807AB07B0E809F0BB0BA0
:1013A000802DBF01FF2793585F4F2AF09E3F5105C4
:1013B00068F08DC0D7C05F3FECF3983EDCF38695B4
:1013C00077956795B795F7959F5FC9F7880F911D3A
:1013D0009695879597F90895E1E0660F771F881F26
:1013E000BB1F621773078407BA0720F0621B730BD9
:1013F000840BBA0BEE1F88F7E095089598D088F01B
:101400009F5790F0B92F9927B751A0F0D1F0660FF0
:10141000771F881F991F1AF0BA95C9F712C0B1300B
:1014200081F09FD0B1E008959CC0672F782F882766
:10143000B85F39F0B93FCCF3869577956795B3954A
:10144000D9F73EF490958095709561957F4F8F4FB9
:101450009F4F0895E89409C097FB3EF490958095BE
:10146000709561957F4F8F4F9F4F9923A9F0F92F6A
:1014700096E9BB279395F695879577956795B795E8
:10148000F111F8CFFAF4BB0F11F460FF1BC06F5FCE
:101490007F4F8F4F9F4F16C0882311F096E911C0E0
:1014A000772321F09EE8872F762F05C0662371F001
:1014B00096E8862F70E060E02AF09A95660F771F15
:1014C000881FDAF7880F9695879597F9089597F909
:1014D0009F6780E870E060E008959FEF80EC0895DA
:1014E00000240A9416161706180609060895002403
:1014F0000A9412161306140605060895092E03947D
:10150000000C11F4882352F0BB0F40F4BF2B11F4F0
:1015100060FF04C06F5F7F4F8F4F9F4F089557FD4F
:101520009058440F551F59F05F3F71F04795880F51
:1015300097FB991F61F09F3F79F0879508951216E8
:1015400013061406551FF2CF4695F1DF08C0161694
:1015500017061806991FF1CF869571056105089445
:101560000895E894BB2766277727CB0197F908955C
:101570000BD0C4CFB5DF28F0BADF18F0952309F0FF
:10158000A6CFABCF1124EECFCADFA0F3959FD1F346
:10159000950F50E0551F629FF001729FBB27F00D21
:1015A000B11D639FAA27F00DB11DAA1F649F662776
:1015B000B00DA11D661F829F2227B00DA11D621FC5
:1015C000739FB00DA11D621F839FA00D611D221F7F
:1015D000749F3327A00D611D231F849F600D211D63
:1015E000822F762F6A2F11249F5750408AF0E1F006
:1015F00088234AF0EE0FFF1FBB1F661F771F881F4F
:1016000091505040A9F79E3F510570F060CFAACF8E
:101610005F3FECF3983EDCF3869577956795B79539
:10162000F795E7959F5FC1F7FE2B880F911D969563
:10163000879597F90895A1E21A2EAA1BBB1BFD01FD
:101640000DC0AA1FBB1FEE1FFF1FA217B307E407A1
:10165000F50720F0A21BB30BE40BF50B661F771FF9
:10166000881F991F1A9469F76095709580959095D9
:101670009B01AC01BD01CF010895EE0FFF1F059046
:10168000F491E02D0994FB01DC0102C001900D9260
:1016900041505040D8F70895FB01DC010D90002027
:1016A000E9F7119701900D920020E1F70895FB01F1
:1016B000DC0101900D920020E1F70895FB015191AA
:1016C0005523A9F0BF01DC014D9145174111E1F708
:1016D00059F4CD010190002049F04D914015411180
:1016E000C9F3FB014111EFCF81E090E0019708952C
:1016F0004532510518F4423008F004C0FB01108255
:10170000CB010895BB274A3031F4992322F4BDE27E
:10171000909581959F4F01C0BB27FB015527AA27B4
:10172000880F991FAA1FA41710F0A41B839550516E
:10173000B9F7A05DAA3308F0A95DA193009779F7E6
:10174000B111B1931192CB0100C0DC01FC01672FF4
:1017500071917723E1F7329704C07C916D93708388
:0E1760006291AE17BF07C8F30895F894FFCF4B
:10176E000100C01200000300004D5154430000045C
:10177E000000000000003C0001004D5154570000D5
:10178E00000000000000000000000000000000004B
:10179E000000000000000000000041542B51504F8B
:1017AE0057443D310D0041542B51504F57443D305D
:1017BE000D0041542B514953454E443D0D004154AB
:1017CE002B5149535441540D0053544154453A2022
:1017DE00434F4E4E454354204F4B0D0A0041542B60
:1017EE00514953454E443D33330D003E2000415484
:1017FE002B51495341434B0D0041542B514E5354E1
:10180E00415455530D00514E5354415455533A20A3
:10181E00300D0A0041542B51494647434E543D303A
:10182E000D0041542B5149435347503D312C2261F9
:10183E00706E312E6C696C6C6562616B6B2E636FB2
:10184E006D222C22222C22220D0041542B51494D67
:10185E0055583D300D0041542B51494D4F44453D97
:10186E00310D0041542B5149544346473D332C33DF
:10187E002C3531322C300D0041542B5149444E53EE
:10188E0049503D300D0041542B514952454741506E
:10189E00500D0053544154453A2049502053544161
:1018AE0052540D0A0041542B51494143540D0053DB
:1018BE00544154453A2049502047505253414354C5
:1018CE000D0A0041542B51494C4F4349500D0031E4
:1018DE00302E31302E302E31330D0A0053544154F8
:1018EE00453A204950205354415455530D0A004156
:1018FE00542B51494F50454E3D22544350222C22D9
:10190E0031302E31382E302E3339222C31383833B7
:10191E000D0041542B5149434C4F53450D0041543A
:10192E002B514944454143540D0041542B514953C9
:10193E00454E440D001A0053454E44204F4B0D00AA
:10194E002B51495341434B3A20300041542B5149BE
:10195E004D4F44453D300D0041542B434950535497
:10196E004152543D0054435000222C220031302E5F
:10197E0031382E302E333900313838330041542B64
:10198E00435354543D0061706E312E6C696C6C651E
:10199E0062616B6B2E636F6D00000000000000FF34
:1019AE00FF0000000000000000000000000000002A
:1019BE000000000000000000000000B20278011ECE
:1019CE0000000001BE0278011E000000015E0169E8
:1019DE00011E00000001CA028B011E00000001D58D
:1019EE0002D7021E000000018E01E0021E00000060
:1019FE00019901A6011E0000001BB40178011E0012
:101A0E00000001C20178011E00000001EA01780108
:101A1E001E00000001EB0278011E000000011802FA
:101A2E0078011E00000001260278011E0000000150
:101A3E005E0133021E0000000145027801D007004E
:101A4E0000015E014F021E0000000163026F021EC4
:101A5E000000001B5E017C021E000000018F027060
:101A6E0001D0070000014D515454004D514973648B
:061A7E0070004C45000061
:00000001FF
