:1000000048C100006CC100006AC1000068C1000066
:1000100066C1000064C1000062C1000060C1000050
:100020005EC100005CC100000C94961758C100002E
:1000300056C1000054C1000052C100009BC4000022
:10004000D1C4000007C500003DC5000073C5000015
:10005000A9C50000DFC5000015C600004BC60000A2
:100060003EC100003CC100003AC1000038C10000A0
:1000700036C1000034C1000032C1000030C10000B0
:100080002EC100002CC100002AC1000028C10000C0
:1000900026C1000024C1000022C1000087C2000068
:1000A000C2C20000FDC2000038C3000018C1000039
:1000B00016C1000014C1000012C100000C94E20837
:1000C0000C941A090C9452090C948A090C94C209D4
:1000D0000C94FA090C94320A0C946A0A0C94A20A41
:1000E0000C94DA0AFCC00000FAC00000F8C000005E
:1000F000F6C00000F4C00000F2C00000F0C0000034
:10010000EEC00000ECC00000EAC00000E8C0000043
:10011000E6C00000E4C00000E2C0000053C10000DF
:100120008EC10000C9C1000004C20000D8C0000098
:10013000D6C0000017C600004DC6000083C60000F0
:10014000B9C60000EFC6000025C700005BC700006D
:1001500091C70000C7C70000FDC70000C0C0000075
:10016000BEC00000BCC00000BAC00000B8C00000A3
:10017000B6C00000B4C00000B2C00000B0C00000B3
:10018000AEC00000ACC00000AAC00000A8C00000C3
:10019000A6C00000A4C00000A2C00000A0C00000D3
:1001A0009EC000009CC000009AC0000098C00000E3
:1001B0000C94120B0C944A0B0C94820B0C94BA0BFB
:1001C0000C94F20B0C942A0C0C94620C0C949A0C68
:1001D0000C94D20C0C940A0D82C0000080C0000068
:1001E0007EC000007CC000007AC0000078C0000023
:1001F00076C0000074C0000072C00000E017E41771
:1002000030184E1855185A1870187A187D18821818
:1002100007634236B79BD8A71A39685618AEBAABEF
:10022000558C1D3CB7CC5763BD6DEDFD753EF61783
:100230007231BF000000803F08000000BE922449D8
:10024000123EABAAAA2ABECDCCCC4C3E0000008008
:10025000BEABAAAAAA3E00000000BF000000803F7B
:100260000000000000084178D3BB4387D1133D193B
:100270000E3CC3BD4282AD2B3E68EC8276BED98F68
:10028000E1A93E4C80EFFFBE01C4FF7F3F000000AC
:10029000000011241FBECFEFCDBFDFE3DEBF00E0C3
:1002A0000CBF18BE19BE1ABE1BBE11E2A0E0B0E220
:1002B000EEEBFDE300E00BBF02C007900D92A43E01
:1002C000B107D9F71BBE24E2A4EEB1E201C01D9232
:1002D000AD34B207E1F70E94B5180C94DD1E90CE44
:1002E000CF93DF931F92CDB7DEB78FB78983F89492
:1002F00089810F90DF91CF910895811522E09207B7
:1003000059F48091E52191E0980F9093E5218111B6
:1003100012C062E081E00DC08034924061F48091AF
:10032000E42191E0980F9093E421811104C062E0F0
:1003300082E00C943F100895811522E0920751F459
:100340008091E52181508093E521811111C062E007
:1003500081E00CC08034924059F48091E4218150B6
:100360008093E421811104C062E082E00C94551076
:1003700008951F93CF93DF93EC01B2DF182FCE01C6
:10038000BCDF8881816088831FBF8091BE238F3F3F
:1003900009F4FFCFA5DF9091BE239F5F9093BE230A
:1003A0008FBFDF91CF911F910895CF93DF931F925D
:1003B000CDB7DEB78FB78983F89489810F90DF912D
:1003C000CF9108951F920F920FB60F92112408B685
:1003D0000F9218BE09B60F9219BE0BB60F921BBE34
:1003E0002F933F934F935F936F937F938F939F933D
:1003F000AF93BF93EF93FF93409124025091250256
:10040000E091C523F091C62361E080E092E0199568
:10041000FF91EF91BF91AF919F918F917F916F91DC
:100420005F914F913F912F910F900BBE0F9009BE9E
:100430000F9008BE0F900FBE0F901F9018951F923F
:100440000F920FB60F92112408B60F9218BE09B67C
:100450000F9219BE0BB60F921BBE2F933F934F9373
:100460005F936F937F938F939F93AF93BF93EF931C
:10047000FF9340912C0250912D02E091C523F09101
:10048000C62362E080E092E01995FF91EF91BF9161
:10049000AF919F918F917F916F915F914F913F911C
:1004A0002F910F900BBE0F9009BE0F9008BE0F90BA
:1004B0000FBE0F901F9018951F920F920FB60F92BC
:1004C000112408B60F9218BE09B60F9219BE0BB6CA
:1004D0000F921BBE2F933F934F935F936F937F9326
:1004E0008F939F93AF93BF93EF93FF934091340209
:1004F00050913502E091C523F091C62364E080E07D
:1005000092E01995FF91EF91BF91AF919F918F91DB
:100510007F916F915F914F913F912F910F900BBE03
:100520000F9009BE0F9008BE0F900FBE0F901F9046
:1005300018951F920F920FB60F92112408B60F92C2
:1005400018BE09B60F9219BE0BB60F921BBE2F93A1
:100550003F934F935F936F937F938F939F93AF934B
:10056000BF93EF93FF9340913C0250913D02E09185
:10057000C523F091C62368E080E092E01995FF91D1
:10058000EF91BF91AF919F918F917F916F915F910B
:100590004F913F912F910F900BBE0F9009BE0F907E
:1005A00008BE0F900FBE0F901F9018951F920F92CC
:1005B0000FB60F92112408B60F9218BE09B60F920B
:1005C00019BE0BB60F921BBE2F933F934F935F93B1
:1005D0006F937F938F939F93AF93BF93EF93FF930B
:1005E0004091640250916502E091C323F091C423CD
:1005F00061E080E492E01995FF91EF91BF91AF9196
:100600009F918F917F916F915F914F913F912F912A
:100610000F900BBE0F9009BE0F9008BE0F900FBE3B
:100620000F901F9018951F920F920FB60F921124E2
:1006300008B60F9218BE09B60F9219BE0BB60F92EC
:100640001BBE2F933F934F935F936F937F938F9333
:100650009F93AF93BF93EF93FF9340916C025091A0
:100660006D02E091C323F091C42362E080E492E044
:100670001995FF91EF91BF91AF919F918F917F91CC
:100680006F915F914F913F912F910F900BBE0F9003
:1006900009BE0F9008BE0F900FBE0F901F901895C7
:1006A0001F920F920FB60F92112408B60F9218BE28
:1006B00009B60F9219BE0BB60F921BBE2F933F9334
:1006C0004F935F936F937F938F939F93AF93BF935A
:1006D000EF93FF934091740250917502E091C32310
:1006E000F091C42364E080E492E01995FF91EF91CA
:1006F000BF91AF919F918F917F916F915F914F913A
:100700003F912F910F900BBE0F9009BE0F9008BE26
:100710000F900FBE0F901F9018951F920F920FB65B
:100720000F92112408B60F9218BE09B60F9219BE87
:100730000BB60F921BBE2F933F934F935F936F9314
:100740007F938F939F93AF93BF93EF93FF934091CA
:100750007C0250917D02E091C323F091C42368E0B4
:1007600080E492E01995FF91EF91BF91AF919F9135
:100770008F917F916F915F914F913F912F910F904A
:100780000BBE0F9009BE0F9008BE0F900FBE0F90CA
:100790001F901895DF92EF92FF920F931F93CF93C4
:1007A000DF937C018B01E11482E0F80651F461E2F1
:1007B00070E082E00E94B410C82FD0E060E270E0E8
:1007C0000EC0E0E4EE16E2E0FE06C1F565E270E080
:1007D00082E00E94B410C82FD0E064E270E082E0B2
:1007E0000E94B410DC2FCC27C82BDFDDD82EC70128
:1007F00084DDF701808192E09083C487D587F8017A
:1008000025813681F701208F318FF8019281F70120
:100810009283F8019481F7019483F8019381F701A1
:100820009383F8019181F70191838170F8019081A0
:10083000892BF7018083C7017FDDDFBEDF91CF9178
:100840001F910F91FF90EF90DF900895FF920F930B
:100850001F93CF93DF93EC018B01A7DDF82ECE0120
:100860004CDD8881807CF8018083888D998D85831B
:1008700096838A8182838C8184838B81838389811F
:100880008183CE0159DDFFBEDF91CF911F910F9182
:10089000FF900895CF92DF92EF92FF920F931F93F4
:1008A000CF93DF936C01F62E8A01862F8370962FEB
:1008B00021F49695969582E001C080E090FF8F5FCD
:1008C000E601A09698E0899FC00DD11D11246DDD31
:1008D000E82EC60112DDF8018081888382818A8337
:1008E00081818983F0FE02C083818E83C60124DD6D
:1008F000EFBEDF91CF911F910F91FF90EF90DF90AE
:10090000CF900895CF92DF92EF92FF920F931F93B3
:10091000CF93DF936C01F62E8A01862F8370962F7A
:1009200021F49695969582E001C080E090FF8F5F5C
:10093000E601A09698E0899FC00DD11D112435DDF8
:10094000E82EC601DADC8881F80180838A818283FF
:1009500089818183F0FE02C08E818383C601ECDC35
:10096000EFBEDF91CF911F910F91FF90EF90DF903D
:10097000CF9008951F920F920FB60F92112408B6D0
:100980000F9218BE09B60F9219BE0BB60F921BBE7E
:100990002F933F934F935F936F937F938F939F9387
:1009A000AF93BF93EF93FF93E0913222F091332204
:1009B000309709F01995FF91EF91BF91AF919F91F9
:1009C0008F917F916F915F914F913F912F910F90F8
:1009D0000BBE0F9009BE0F9008BE0F900FBE0F9078
:1009E0001F9018951F920F920FB60F92112408B600
:1009F0000F9218BE09B60F9219BE0BB60F921BBE0E
:100A00002F933F934F935F936F937F938F939F9316
:100A1000AF93BF93EF93FF93E0913022F091312297
:100A2000309709F01995FF91EF91BF91AF919F9188
:100A30008F917F916F915F914F913F912F910F9087
:100A40000BBE0F9009BE0F9008BE0F900FBE0F9007
:100A50001F9018951F920F920FB60F92112408B68F
:100A60000F9218BE09B60F9219BE0BB60F921BBE9D
:100A70002F933F934F935F936F937F938F939F93A6
:100A8000AF93BF93EF93FF93E0912E22F0912F222B
:100A9000309709F01995FF91EF91BF91AF919F9118
:100AA0008F917F916F915F914F913F912F910F9017
:100AB0000BBE0F9009BE0F9008BE0F900FBE0F9097
:100AC0001F9018951F920F920FB60F92112408B61F
:100AD0000F9218BE09B60F9219BE0BB60F921BBE2D
:100AE0002F933F934F935F936F937F938F939F9336
:100AF000AF93BF93EF93FF93E0912C22F0912D22BF
:100B0000309709F01995FF91EF91BF91AF919F91A7
:100B10008F917F916F915F914F913F912F910F90A6
:100B20000BBE0F9009BE0F9008BE0F900FBE0F9026
:100B30001F9018951F920F920FB60F92112408B6AE
:100B40000F9218BE09B60F9219BE0BB60F921BBEBC
:100B50002F933F934F935F936F937F938F939F93C5
:100B6000AF93BF93EF93FF93E0912A22F0912B2252
:100B7000309709F01995FF91EF91BF91AF919F9137
:100B80008F917F916F915F914F913F912F910F9036
:100B90000BBE0F9009BE0F9008BE0F900FBE0F90B6
:100BA0001F9018951F920F920FB60F92112408B63E
:100BB0000F9218BE09B60F9219BE0BB60F921BBE4C
:100BC0002F933F934F935F936F937F938F939F9355
:100BD000AF93BF93EF93FF93E0912822F0912922E6
:100BE000309709F01995FF91EF91BF91AF919F91C7
:100BF0008F917F916F915F914F913F912F910F90C6
:100C00000BBE0F9009BE0F9008BE0F900FBE0F9045
:100C10001F9018951F920F920FB60F92112408B6CD
:100C20000F9218BE09B60F9219BE0BB60F921BBEDB
:100C30002F933F934F935F936F937F938F939F93E4
:100C4000AF93BF93EF93FF93E0912622F091272279
:100C5000309709F01995FF91EF91BF91AF919F9156
:100C60008F917F916F915F914F913F912F910F9055
:100C70000BBE0F9009BE0F9008BE0F900FBE0F90D5
:100C80001F9018951F920F920FB60F92112408B65D
:100C90000F9218BE09B60F9219BE0BB60F921BBE6B
:100CA0002F933F934F935F936F937F938F939F9374
:100CB000AF93BF93EF93FF93E0912422F09125220D
:100CC000309709F01995FF91EF91BF91AF919F91E6
:100CD0008F917F916F915F914F913F912F910F90E5
:100CE0000BBE0F9009BE0F9008BE0F900FBE0F9065
:100CF0001F9018951F920F920FB60F92112408B6ED
:100D00000F9218BE09B60F9219BE0BB60F921BBEFA
:100D10002F933F934F935F936F937F938F939F9303
:100D2000AF93BF93EF93FF93E0912222F0912322A0
:100D3000309709F01995FF91EF91BF91AF919F9175
:100D40008F917F916F915F914F913F912F910F9074
:100D50000BBE0F9009BE0F9008BE0F900FBE0F90F4
:100D60001F9018951F920F920FB60F92112408B67C
:100D70000F9218BE09B60F9219BE0BB60F921BBE8A
:100D80002F933F934F935F936F937F938F939F9393
:100D9000AF93BF93EF93FF93E0912022F091212234
:100DA000309709F01995FF91EF91BF91AF919F9105
:100DB0008F917F916F915F914F913F912F910F9004
:100DC0000BBE0F9009BE0F9008BE0F900FBE0F9084
:100DD0001F9018951F920F920FB60F92112408B60C
:100DE0000F9218BE09B60F9219BE0BB60F921BBE1A
:100DF0002F933F934F935F936F937F938F939F9323
:100E0000AF93BF93EF93FF93E0911E22F0911F22C7
:100E1000309709F01995FF91EF91BF91AF919F9194
:100E20008F917F916F915F914F913F912F910F9093
:100E30000BBE0F9009BE0F9008BE0F900FBE0F9013
:100E40001F9018951F920F920FB60F92112408B69B
:100E50000F9218BE09B60F9219BE0BB60F921BBEA9
:100E60002F933F934F935F936F937F938F939F93B2
:100E7000AF93BF93EF93FF93E0911C22F0911D225B
:100E8000309709F01995FF91EF91BF91AF919F9124
:100E90008F917F916F915F914F913F912F910F9023
:100EA0000BBE0F9009BE0F9008BE0F900FBE0F90A3
:100EB0001F9018951F920F920FB60F92112408B62B
:100EC0000F9218BE09B60F9219BE0BB60F921BBE39
:100ED0002F933F934F935F936F937F938F939F9342
:100EE000AF93BF93EF93FF93E0911A22F0911B22EF
:100EF000309709F01995FF91EF91BF91AF919F91B4
:100F00008F917F916F915F914F913F912F910F90B2
:100F10000BBE0F9009BE0F9008BE0F900FBE0F9032
:100F20001F9018951F920F920FB60F92112408B6BA
:100F30000F9218BE09B60F9219BE0BB60F921BBEC8
:100F40002F933F934F935F936F937F938F939F93D1
:100F5000AF93BF93EF93FF93E0911822F091192282
:100F6000309709F01995FF91EF91BF91AF919F9143
:100F70008F917F916F915F914F913F912F910F9042
:100F80000BBE0F9009BE0F9008BE0F900FBE0F90C2
:100F90001F9018951F920F920FB60F92112408B64A
:100FA0000F9218BE09B60F9219BE0BB60F921BBE58
:100FB0002F933F934F935F936F937F938F939F9361
:100FC000AF93BF93EF93FF93E0911622F091172216
:100FD000309709F01995FF91EF91BF91AF919F91D3
:100FE0008F917F916F915F914F913F912F910F90D2
:100FF0000BBE0F9009BE0F9008BE0F900FBE0F9052
:101000001F9018951F920F920FB60F92112408B6D9
:101010000F9218BE09B60F9219BE0BB60F921BBEE7
:101020002F933F934F935F936F937F938F939F93F0
:10103000AF93BF93EF93FF93E0911422F0911522A9
:10104000309709F01995FF91EF91BF91AF919F9162
:101050008F917F916F915F914F913F912F910F9061
:101060000BBE0F9009BE0F9008BE0F900FBE0F90E1
:101070001F9018951F920F920FB60F92112408B669
:101080000F9218BE09B60F9219BE0BB60F921BBE77
:101090002F933F934F935F936F937F938F939F9380
:1010A000AF93BF93EF93FF93E0911222F09113223D
:1010B000309709F01995FF91EF91BF91AF919F91F2
:1010C0008F917F916F915F914F913F912F910F90F1
:1010D0000BBE0F9009BE0F9008BE0F900FBE0F9071
:1010E0001F9018951F920F920FB60F92112408B6F9
:1010F0000F9218BE09B60F9219BE0BB60F921BBE07
:101100002F933F934F935F936F937F938F939F930F
:10111000AF93BF93EF93FF93E0911022F0911122D0
:10112000309709F01995FF91EF91BF91AF919F9181
:101130008F917F916F915F914F913F912F910F9080
:101140000BBE0F9009BE0F9008BE0F900FBE0F9000
:101150001F9018951F920F920FB60F92112408B688
:101160000F9218BE09B60F9219BE0BB60F921BBE96
:101170002F933F934F935F936F937F938F939F939F
:10118000AF93BF93EF93FF93E0910E22F0910F2264
:10119000309709F01995FF91EF91BF91AF919F9111
:1011A0008F917F916F915F914F913F912F910F9010
:1011B0000BBE0F9009BE0F9008BE0F900FBE0F9090
:1011C0001F9018951F920F920FB60F92112408B618
:1011D0000F9218BE09B60F9219BE0BB60F921BBE26
:1011E0002F933F934F935F936F937F938F939F932F
:1011F000AF93BF93EF93FF93E0910C22F0910D22F8
:10120000309709F01995FF91EF91BF91AF919F91A0
:101210008F917F916F915F914F913F912F910F909F
:101220000BBE0F9009BE0F9008BE0F900FBE0F901F
:101230001F9018951F920F920FB60F92112408B6A7
:101240000F9218BE09B60F9219BE0BB60F921BBEB5
:101250002F933F934F935F936F937F938F939F93BE
:10126000AF93BF93EF93FF93E0910A22F0910B228B
:10127000309709F01995FF91EF91BF91AF919F9130
:101280008F917F916F915F914F913F912F910F902F
:101290000BBE0F9009BE0F9008BE0F900FBE0F90AF
:1012A0001F9018951F920F920FB60F92112408B637
:1012B0000F9218BE09B60F9219BE0BB60F921BBE45
:1012C0002F933F934F935F936F937F938F939F934E
:1012D000AF93BF93EF93FF93E0910822F09109221F
:1012E000309709F01995FF91EF91BF91AF919F91C0
:1012F0008F917F916F915F914F913F912F910F90BF
:101300000BBE0F9009BE0F9008BE0F900FBE0F903E
:101310001F9018951F920F920FB60F92112408B6C6
:101320000F9218BE09B60F9219BE0BB60F921BBED4
:101330002F933F934F935F936F937F938F939F93DD
:10134000AF93BF93EF93FF93E0910622F0910722B2
:10135000309709F01995FF91EF91BF91AF919F914F
:101360008F917F916F915F914F913F912F910F904E
:101370000BBE0F9009BE0F9008BE0F900FBE0F90CE
:101380001F9018951F920F920FB60F92112408B656
:101390000F9218BE09B60F9219BE0BB60F921BBE64
:1013A0002F933F934F935F936F937F938F939F936D
:1013B000AF93BF93EF93FF93E0910422F091052246
:1013C000309709F01995FF91EF91BF91AF919F91DF
:1013D0008F917F916F915F914F913F912F910F90DE
:1013E0000BBE0F9009BE0F9008BE0F900FBE0F905E
:1013F0001F9018951F920F920FB60F92112408B6E6
:101400000F9218BE09B60F9219BE0BB60F921BBEF3
:101410002F933F934F935F936F937F938F939F93FC
:10142000AF93BF93EF93FF93E0910222F0910322D9
:10143000309709F01995FF91EF91BF91AF919F916E
:101440008F917F916F915F914F913F912F910F906D
:101450000BBE0F9009BE0F9008BE0F900FBE0F90ED
:101460001F9018951F920F920FB60F92112408B675
:101470000F9218BE09B60F9219BE0BB60F921BBE83
:101480002F933F934F935F936F937F938F939F938C
:10149000AF93BF93EF93FF93E0910022F09101226D
:1014A000309709F01995FF91EF91BF91AF919F91FE
:1014B0008F917F916F915F914F913F912F910F90FD
:1014C0000BBE0F9009BE0F9008BE0F900FBE0F907D
:1014D0001F9018951F920F920FB60F92112408B605
:1014E0000F9218BE09B60F9219BE0BB60F921BBE13
:1014F0002F933F934F935F936F937F938F939F931C
:10150000AF93BF93EF93FF93E091FE21F091FF2102
:10151000309709F01995FF91EF91BF91AF919F918D
:101520008F917F916F915F914F913F912F910F908C
:101530000BBE0F9009BE0F9008BE0F900FBE0F900C
:101540001F9018951F920F920FB60F92112408B694
:101550000F9218BE09B60F9219BE0BB60F921BBEA2
:101560002F933F934F935F936F937F938F939F93AB
:10157000AF93BF93EF93FF93E091FC21F091FD2196
:10158000309709F01995FF91EF91BF91AF919F911D
:101590008F917F916F915F914F913F912F910F901C
:1015A0000BBE0F9009BE0F9008BE0F900FBE0F909C
:1015B0001F9018951F920F920FB60F92112408B624
:1015C0000F9218BE09B60F9219BE0BB60F921BBE32
:1015D0002F933F934F935F936F937F938F939F933B
:1015E000AF93BF93EF93FF93E091FA21F091FB212A
:1015F000309709F01995FF91EF91BF91AF919F91AD
:101600008F917F916F915F914F913F912F910F90AB
:101610000BBE0F9009BE0F9008BE0F900FBE0F902B
:101620001F9018951F920F920FB60F92112408B6B3
:101630000F9218BE09B60F9219BE0BB60F921BBEC1
:101640002F933F934F935F936F937F938F939F93CA
:10165000AF93BF93EF93FF93E091F821F091F921BD
:10166000309709F01995FF91EF91BF91AF919F913C
:101670008F917F916F915F914F913F912F910F903B
:101680000BBE0F9009BE0F9008BE0F900FBE0F90BB
:101690001F9018951F920F920FB60F92112408B643
:1016A0000F9218BE09B60F9219BE0BB60F921BBE51
:1016B0002F933F934F935F936F937F938F939F935A
:1016C000AF93BF93EF93FF93E091F621F091F72151
:1016D000309709F01995FF91EF91BF91AF919F91CC
:1016E0008F917F916F915F914F913F912F910F90CB
:1016F0000BBE0F9009BE0F9008BE0F900FBE0F904B
:101700001F9018951F920F920FB60F92112408B6D2
:101710000F9218BE09B60F9219BE0BB60F921BBEE0
:101720002F933F934F935F936F937F938F939F93E9
:10173000AF93BF93EF93FF93E091F421F091F521E4
:10174000309709F01995FF91EF91BF91AF919F915B
:101750008F917F916F915F914F913F912F910F905A
:101760000BBE0F9009BE0F9008BE0F900FBE0F90DA
:101770001F9018951F920F920FB60F92112408B662
:101780000F9218BE09B60F9219BE0BB60F921BBE70
:101790002F933F934F935F936F937F938F939F9379
:1017A000AF93BF93EF93FF93E091F221F091F32178
:1017B000309709F01995FF91EF91BF91AF919F91EB
:1017C0008F917F916F915F914F913F912F910F90EA
:1017D0000BBE0F9009BE0F9008BE0F900FBE0F906A
:1017E0001F9018951F920F920FB60F92112408B6F2
:1017F0000F9218BE09B60F9219BE0BB60F921BBE00
:101800002F933F934F935F936F937F938F939F9308
:10181000AF93BF93EF93FF93E091F021F091F1210B
:10182000309709F01995FF91EF91BF91AF919F917A
:101830008F917F916F915F914F913F912F910F9079
:101840000BBE0F9009BE0F9008BE0F900FBE0F90F9
:101850001F9018951F920F920FB60F92112408B681
:101860000F9218BE09B60F9219BE0BB60F921BBE8F
:101870002F933F934F935F936F937F938F939F9398
:10188000AF93BF93EF93FF93E091EE21F091EF219F
:10189000309709F01995FF91EF91BF91AF919F910A
:1018A0008F917F916F915F914F913F912F910F9009
:1018B0000BBE0F9009BE0F9008BE0F900FBE0F9089
:1018C0001F9018951F920F920FB60F92112408B611
:1018D0000F9218BE09B60F9219BE0BB60F921BBE1F
:1018E0002F933F934F935F936F937F938F939F9328
:1018F000AF93BF93EF93FF93E091EC21F091ED2133
:10190000309709F01995FF91EF91BF91AF919F9199
:101910008F917F916F915F914F913F912F910F9098
:101920000BBE0F9009BE0F9008BE0F900FBE0F9018
:101930001F9018951F920F920FB60F92112408B6A0
:101940000F9218BE09B60F9219BE0BB60F921BBEAE
:101950002F933F934F935F936F937F938F939F93B7
:10196000AF93BF93EF93FF93E091EA21F091EB21C6
:10197000309709F01995FF91EF91BF91AF919F9129
:101980008F917F916F915F914F913F912F910F9028
:101990000BBE0F9009BE0F9008BE0F900FBE0F90A8
:1019A0001F9018951F920F920FB60F92112408B630
:1019B0000F9218BE09B60F9219BE0BB60F921BBE3E
:1019C0002F933F934F935F936F937F938F939F9347
:1019D000AF93BF93EF93FF93E091E821F091E9215A
:1019E000309709F01995FF91EF91BF91AF919F91B9
:1019F0008F917F916F915F914F913F912F910F90B8
:101A00000BBE0F9009BE0F9008BE0F900FBE0F9037
:101A10001F9018951F920F920FB60F92112408B6BF
:101A20000F9218BE09B60F9219BE0BB60F921BBECD
:101A30002F933F934F935F936F937F938F939F93D6
:101A4000AF93BF93EF93FF93E091E621F091E721ED
:101A5000309709F01995FF91EF91BF91AF919F9148
:101A60008F917F916F915F914F913F912F910F9047
:101A70000BBE0F9009BE0F9008BE0F900FBE0F90C7
:101A80001F901895EF92FF920F931F93CF93DF93C0
:101A9000EC018E81833029F0843031F40AE010E0CB
:101AA00005C00CE010E002C000E010E04F81588556
:101AB00069857A858B859C8508D20296080F191F47
:101AC00088898823A1F04F89588D698D7A8D8B8DF7
:101AD0009C8DFBD17C014D8D5E8D6F8D78A189A190
:101AE0009AA1F3D18E0D9F1D0496080F191F8DA189
:101AF0009EA1892B21F489A59AA5892B51F04DA18E
:101B00005EA16FA178A589A59AA5DFD10296080FDD
:101B1000191F8BA59CA5892B21F48FA598A9892B2A
:101B200051F04BA55CA56DA57EA58FA598A9CDD13B
:101B30000296080F191FC801DF91CF911F910F91D5
:101B4000FF90EF900895AF92BF92CF92DF92EF9205
:101B5000FF920F931F93CF93DF931F921F92CDB7E6
:101B6000DEB76C015B018A0189839A83CA018ADF2F
:101B70007C0100D1A816B9060CF49BC060E1CE012F
:101B8000019607D1B70189819A81CDD029813A8107
:101B9000820F931F89839A83F8018681843039F4F8
:101BA00060E670E2CE0101961ED164E006C065E6F3
:101BB00070E2CE01019617D163E0CE010196E9D023
:101BC000F12CF801878580FBF1F881E09089911173
:101BD00001C080E080FBF2F8F2FE0DC0F80184A1A4
:101BE0008370880F880F880F9F2D977EF92EF82A13
:101BF00083A180FBF5F8F80185A196A1892B21F43A
:101C000081A592A5892B11F06894F7F8F80183A5B6
:101C100094A5892B21F487A590A9892B11F06894AC
:101C2000F6F86F2DCE010196B4D0F8016585768562
:101C3000CE010196B8D0F8012781308541855285C3
:101C400063857485CE010196F4D0F80180898823DC
:101C500099F02789308D418D528D638D748DCE0121
:101C60000196E7D0F801258D368D478D50A161A1F1
:101C700072A1CE010196DDD0F7FE0AC0F80125A1C0
:101C800036A147A150A561A572A5CE010196D1D07C
:101C9000F6FE0AC0F80123A534A545A556A567A5FB
:101CA00070A9CE010196C5D089819A818C199D09B0
:101CB00002C08EEF9FEF0F900F90DF91CF911F9199
:101CC0000F91FF90EF90DF90CF90BF90AF9008956D
:101CD0000F931F93CF93DF931F921F92CDB7DEB761
:101CE00089839A83623071059CF0642F8C01629520
:101CF000607FCE0101964DD060E070E089819A81CD
:101D000012D029813A81820F931F801B910B02C050
:101D10008EEF9FEF0F900F90DF91CF911F910F915A
:101D200008954EE0D5CF0F931F93CF93DF939B0180
:101D3000EC01E0E0F0E000E810E0C901B8010E9429
:101D40003D1D982F37FF02C021583F4F220F232FF0
:101D5000221F330B1216130614F4982F9068319635
:101D60009993121613064CF3CF01DF91CF911F9177
:101D70000F9108959C012F5F3F4F2038310514F4D7
:101D8000029608952115304414F40396089504969C
:101D90000895FC01A081B1816C93808191810196AD
:101DA000808391830895CF93DF93FC01CB01A081C1
:101DB000B1819B0177FF02C021503F4F3C93C0810E
:101DC000D1819E012F5F3F4F2083318360E071E01E
:101DD0000E943D1D8983808191810196808391833A
:101DE000DF91CF910895EF92FF920F931F93CF93BE
:101DF000DF938C017B01EB0109900020E9F721972B
:101E0000C61BD70BBE01CFDFAE01B701F801808141
:101E100091810E946A1EF80180819181C80FD91FAB
:101E2000C083D183DF91CF911F910F91FF90EF90ED
:101E30000895EF92FF920F931F93CF93DF9300D0FB
:101E400000D0CDB7DEB729833A834B835C836D83A3
:101E50007E83EB80FC801E141F04E4F48C01B70128
:101E6000A2DF6D817E81A701F801808191810E94AE
:101E70006A1EF80180819181E80EF91EE082F182EC
:101E80002696CDBFDEBFDF91CF911F910F91FF90BE
:101E9000EF90089569817A816115710551F0269658
:101EA000CDBFDEBFDF91CF911F910F91FF90EF90DB
:101EB0009ACF60E070E02696CDBFDEBFDF91CF9174
:101EC0001F910F91FF90EF906ECFCF93DF9300D0D3
:101ED00000D0CDB7DEB749835A836B837C838D8373
:101EE0009E83A981BA81109749F0FD0101900020DD
:101EF000E9F73197CF018A1B9B0B02C08B819C8134
:101F00002696CDBFDEBFDF91CF910895EF92FF926D
:101F10000F931F93CF93DF9300D000D0CDB7DEB7E0
:101F20007C01F42FE52FCB01A9016F2F7E2FCDDF90
:101F30000296800F911F1E141F040CF40296269621
:101F4000CDBFDEBFDF91CF911F910F91FF90EF903A
:101F500008952F923F924F925F926F927F928F924D
:101F60009F92AF92BF92CF92DF92EF92FF920F9328
:101F70001F93CF93DF93CDB7DEB72A97CDBFDEBFD8
:101F80002C011B01498739010A87282D8B82392DA5
:101F90009C824A2DAD825B2DBE826C2DCF827D2D21
:101FA000D886CAA0DBA089839A838601C301AEDFED
:101FB0008C01E0DE28163906BCF160E3898580FBE0
:101FC00063F9862D8370880F697F682B8A8580FB73
:101FD00060F9CE010196DDDEB80189819A81A3DE28
:101FE00029813A81820F931F89839A832B813C81B7
:101FF0004D815E816F817885CE0101961ADF1614BE
:10200000170424F4B701CE010196CDDEA60168A124
:1020100079A189819A810E946A1E89819A818C0D99
:102020009D1D8419950902C08EEF9FEF2A96CDBFA2
:10203000DEBFDF91CF911F910F91FF90EF90DF9066
:10204000CF90BF90AF909F908F907F906F905F9058
:102050004F903F902F9008958FEF80937000809362
:10206000710080937200809373008093740080935A
:1020700075008093760081E0809343000895CF93AC
:10208000DF931F92CDB7DEB79FB79983F8949981FC
:10209000E82FF0E0E059FF4F60958081682360836E
:1020A0009FBF0F90DF91CF910895CF93DF931F9241
:1020B000CDB7DEB79FB79983F8949981E82FF0E008
:1020C000E059FF4F8081682B60839FBF0F90DF91A5
:1020D000CF910895CF93DF93FC01DC0180E090E085
:1020E000262F30E0E901082E02C0D595C7950A9445
:1020F000E2F7C0FF03C050965C935097019611968B
:102100008830910579F740FF07C041FF02C0658321
:1021100001C06683618301C06283DF91CF9108951E
:1021200043E050E068E080EC97E0D4DF40E058E125
:1021300064E080EC97E0CEDF43E050E068E080E8C8
:1021400096E0C8DF40E050E064E080E896E0C2DF5F
:1021500043E050E068E080E496E0BCDF40E050E01F
:1021600064E080E496E0B6CF4091CA01E62FF72FF5
:102170008093CA0184914093CA010895009709F49D
:10218000EFC0803C910511F460E105C0803424E08B
:10219000920719F468E080E0E2C0811524E092071C
:1021A00011F464E0F8CF803821E0920711F462E086
:1021B000F2CF811521E0920711F461E0ECCF803875
:1021C00023E0920711F461E017C0803923E0920701
:1021D00011F461E018C0811522E0920711F462E069
:1021E0000BC0803422E0920711F462E00CC081152C
:1021F00023E0920719F464E081E0B1C0803223E06B
:10220000920719F464E082E0AAC0811528E09207E1
:1022100011F461E08FC0811529E0920711F461E0AB
:1022200090C081152AE0920711F461E091C08115F8
:102230002BE0920711F461E091C0803428E092070E
:1022400011F462E077C0803429E0920711F462E073
:1022500078C080342AE0920711F462E079C08034BB
:102260002BE0920711F462E079C0803928E09207F0
:1022700011F464E05FC0803929E0920711F464E052
:1022800060C080392AE0920711F464E061C08039AF
:102290002BE0920711F464E061C0803C28E09207D3
:1022A00011F468E047C0803C29E0920711F468E02F
:1022B00048C0803C2AE0920711F468E049C0803CA5
:1022C0002BE0920711F468E049C0803A28E09207B9
:1022D00011F460E12FC0803A29E0920711F460E127
:1022E00030C0803A2AE0920711F460E131C0803AB0
:1022F0002BE0920711F460E131C0803B28E09207A7
:1023000011F460E217C0803B29E0920711F460E20B
:1023100018C0803B2AE0920711F460E219C0803BAC
:102320002BE0920711F460E219C0803824E0920794
:1023300019F460E483E013C0803924E0920719F4B3
:1023400060E484E00CC0803A24E0920719F460E471
:1023500085E005C0803B944019F460E486E08FCEB0
:102360000895FC01218125FFFCCF608380E090E08F
:1023700008958F929F92AF92BF92CF92DF92EF9289
:10238000FF920F931F93CF93DF93EC016A017B01C0
:10239000480159018C81B901A80182FF11C033E0C5
:1023A00076956795579547953A95D1F7D501C4012C
:1023B000E6E1B695A79597958795EA95D1F710C070
:1023C00094E076956795579547959A95D1F7D901F9
:1023D000C80127E1B695A795979587952A95D1F7D6
:1023E0004C155D056E057F0508F498C0C816D90622
:1023F000EA06FB0608F492C08C8182FD04C0CC0C76
:10240000DD1CEE1CFF1CC501B401A70196010E9452
:10241000501D19EF8FEF90E0A0E0B0E028173907CA
:102420004A075B0758F0880F991FAA1FBB1F1D3F63
:102430000CF481601F5F173089F749C017FF47C050
:10244000D701C601F3E0880F991FAA1FBB1FFA9599
:10245000D1F7881A990AAA0ABB0A812F012E000C0B
:10246000990B1E3FDCF42DEF3FEFA901481B590BE0
:1024700004C0880C991CAA1CBB1C4A95D2F7D70132
:10248000C601B695A79597958795BC01CD01680DB6
:10249000791D8A1D9B1DA701960116C00396A701F1
:1024A000960104C0220F331F441F551F8A95D2F78F
:1024B000DA01C901B695A79597958795BC01CD011D
:1024C000680D791D8A1D9B1D0E94501D1DC083E053
:1024D000810FA701960104C0220F331F441F551F0F
:1024E0008A95D2F7DA01C901B695A7959795879590
:1024F000BC01CD01680D791D8A1D9B1D0E94501DD8
:102500002150310941095109932F9F70812F8295E4
:10251000807F892B8F832E8381E001C080E0DF9153
:10252000CF911F910F91FF90EF90DF90CF90BF90D0
:10253000AF909F908F9008950F931F93CF93DF9349
:10254000EC018B011BDE8D818F738D83F8019581EA
:102550008481982B8681811188E0892B8D83F801F5
:10256000408151816281738100E814E82EE130E0FE
:10257000CE01FFDE9C8198609C839C8190619C834E
:10258000DF91CF911F910F91089504C0615071099F
:10259000810991096115710581059105B9F70895C2
:1025A0002F923F924F925F926F927F928F929F9263
:1025B000AF92BF92CF92DF92EF92FF920F931F9351
:1025C000CF93DF93CDB7DEB7E797CDBFDEBFF82E51
:1025D000E92E1B012A0181E3EFE2F0E2DE01119610
:1025E00001900D928A95E1F71CAA1DAA1EAA1FAAA6
:1025F000EF2DF92FDF010D900020E9F711978D01E4
:102600000E1B1F0B8CE690E28887998784E190E08F
:102610008E879F8781E0888B88EC90E28EA39FA3B2
:102620008CA79DA784E08F83AE014F5F5F4FB201FF
:10263000C10189DA3C0180E790E28AAB9BABB20131
:10264000661977091F930F93EF92FF928AA89BA8B0
:10265000ACA8BDA8CEA8DFA8E12CF12C00E020E0BA
:1026600030E040E0C101860D971D73DC680E791ED5
:10267000B20166197709C101860D971D52DB0F90D3
:102680000F900F900F90860D971DE796CDBFDEBF80
:10269000DF91CF911F910F91FF90EF90DF90CF903E
:1026A000BF90AF909F908F907F906F905F904F9072
:1026B0003F902F9008950F931F93CF93DF938C013A
:1026C000EB016991662319F0C8014BDEFACFDF9167
:1026D000CF911F910F9108950F931F9328EE33E030
:1026E000629F8001639F100D729F100D112420E0E6
:1026F00030E0FC01618167FD0AC00115110521056B
:10270000310529F00150110921093109F2CF012BBE
:10271000022B032B19F421E0FA012083FC018081B4
:102720001F910F9108958F929F92AF92BF92CF9277
:10273000DF92EF92FF921F93CF93DF931F92CDB75B
:10274000DEB77C016B015A01198210E08981811189
:102750000FC0143668F44501810E911CAE014F5F25
:102760005F4FB601C701B8DFF40180831F5FEECF72
:102770000F90DF91CF911F91FF90EF90DF90CF905E
:10278000BF90AF909F908F9008952F923F924F925D
:102790005F926F927F928F929F92AF92BF92CF92F1
:1027A000DF92EF92FF920F931F93CF93DF93EC0191
:1027B0008091C407877F8093C407209769F1F0E870
:1027C000AF2EA4E8BA2EBEE1CB2ED12CE12CF12CF9
:1027D00000E010E09E0140E050E060E070E080E04A
:1027E00090E00E947B1DE6E0AE2EB12CC12C0E9431
:1027F000CE1D29513C4F4F4F5F4F6F4F7F4F8F4F33
:102800009F4F47D620E030E04AE754E463D5CFD568
:10281000B901CA01BADE05C061E070E080E090E075
:10282000B4DE8091C40788608093C407209761F16B
:1028300020E8A22E34E8B32E4EE1C42ED12CE12C98
:10284000F12C00E010E09E0140E050E060E070E01C
:1028500080E090E00E947B1DE6E0AE2EB12CC12C02
:102860000E94CE1D29513C4F4F4F5F4F6F4F7F4FFE
:102870008F4F9F4F0ED620E030E04AE754E42AD530
:1028800096D5B901CA0104C061E070E080E090E033
:10289000DF91CF911F910F91FF90EF90DF90CF903C
:1028A000BF90AF909F908F907F906F905F904F9070
:1028B0003F902F906ACE0F931F93CF93DF931F9279
:1028C000CDB7DEB78C0164E080E0D9DB00930A0469
:1028D00010930B0410920804109209048091C023F5
:1028E0008F3F09F4FFCF8FB78983F8949981809146
:1028F000C0238F5F8093C0239FBF809102048160BB
:102900008093020487E0809300040F90DF91CF91C1
:102910001F910F9108950F931F93CF93DF931F92F1
:10292000CDB7DEB7482F0DB71EB78DB79EB722E0E3
:10293000429F8019910911248DBF9EBFEDB7FEB74C
:10294000319660E070E0CB0120E02417F1F03FB752
:102950003983F89459813091000234603093000239
:102960005FBF30910602532F517030FFFACF509362
:102970000602A0912402B0912502A193B1936A0F9F
:102980007B1F811D911D2F5FE0CF30E040E050E0C4
:102990000E94501DC9010DBF1EBF0F90DF91CF9146
:1029A0001F910F910895FB0120853185AC01421BD9
:1029B000530B9A0157FF04C044275527421B530B62
:1029C0006681778177FF03C07195619571096417FE
:1029D00075078CF462897389672B69F037FF09C02A
:1029E0004F3F27E0520714F49A0102C02FEF37E05F
:1029F000386026833783228133818217930710F44E
:102A000082839383248135812817390710F48483C6
:102A100095830895FB01DC0190E0941731F021913A
:102A200031912D933D939F5FF8CF0895E0E8F6E054
:102A300080818064808380818F7780830895CF93A5
:102A4000809184068F7B809384066EE471E080E041
:102A500090E09BDD8091840680648093840666E329
:102A600072E880E090E091DD809184068F7B809316
:102A700084066BEA71E184E090E087DD66ED78E042
:102A800082E090E082DD80918406806480938406F9
:102A9000C0E08091880687FD09C0CB3138F461EA37
:102AA00076E881E090E071DDCF5FF3CF81E0CB315C
:102AB00009F080E0CF910895CF93DF93C0E8D6E08E
:102AC0008C818F7B8C8366E176E185E090E05DDD33
:102AD0008C8180648C8366E176E185E090E055DD51
:102AE0008C818F7B8C83888580E0DF91CF910895E6
:102AF000282FFC018E2F821B861710F41192FACF1B
:102B000008952F923F924F925F926F927F928F9291
:102B10009F92AF92BF92CF92DF92EF92FF920F936C
:102B20001F93CF93DF93CDB7DEB72997CDBFDEBF1D
:102B30006C017A01590119821A82FE01339683E0F1
:102B4000DF011D928A95E9F7160186010C5E1F4F81
:102B5000C901330FAA0BBB0B8E839F83A887B9874C
:102B600083E0882E912C8114910431F1B401092C59
:102B7000000C880B990B52D42B013C016E817F8194
:102B8000888599854BD4A30192014AD52B013C013C
:102B9000D1016D917C9180E090E03ED4A30192013F
:102BA00095D387FF05C064E870E2C7010E94731ED9
:102BB000B1E08B1A9108D7CFA501BE016F5F7F4F9F
:102BC000F101819191911F010E94981EBE016F5FDA
:102BD0007F4FC7010E94731E68E770E2C7010E9421
:102BE000731E65E0CE01019683DF0215130509F01F
:102BF000B7CFF2E2CF0ED11CB5010B2C000C880B25
:102C0000990B0CD42B013C014801D8016D917C91AA
:102C100080E090E001D49B01AC01C301B201FCD47F
:102C200018162CF464E870E2C7010E94731E0E5F50
:102C30001F4FA501BE016F5F7F4FF401808191811D
:102C40000E94981EBE016F5F7F4FC7010E94731ED6
:102C500068E770E2C7010E94731E65E0CE0101962D
:102C600047DFC016D10681F62996CDBFDEBFDF91C2
:102C7000CF911F910F91FF90EF90DF90CF90BF9079
:102C8000AF909F908F907F906F905F904F903F900C
:102C90002F90089541E16DE070E28BE294E2BADE9C
:102CA00060E886E393E224DF60E086E392E220CFEF
:102CB000EF92FF920F931F93CF93DF9300D0CDB786
:102CC000DEB719821A821B823AEDE32E33E2F32E2D
:102CD0000AE010E0F701319780818983F701808154
:102CE0008A83CE010196D9D7F801EE0FFF1FE55D6B
:102CF000FB4D80839183F3E0EF0EF11C0F5F1F4FBC
:102D00000031110539F72396CDBFDEBFDF91CF919A
:102D10001F910F91FF90EF900895AF92BF92CF92C5
:102D2000DF92FF920F931F93CF93DF936C015B01B0
:102D3000F22ED0E0C0E0042F10E0DF15E9F064E6E9
:102D400087EC93E2D5DEB60180EA98E0B4DC47EC8C
:102D500053E2B80180EA98E0E6DCB50187EC93E243
:102D6000CDD7892B41F461EA76E881E090E00DDC73
:102D7000DF5FC1E0E2CFC0E067EC73E280EA9AE097
:102D80009ADC8C2FDF91CF911F910F91FF90DF90F4
:102D9000CF90BF90AF9008952BE14CEB6AE770E2C3
:102DA00086E890E2BADF81117FC029E04CEB68E64B
:102DB00071E283E990E2B1DF811176C029E04CEB4A
:102DC00068E671E281EA90E2A8DF81116DC029E036
:102DD0004CEB68E671E289EC90E29FDF811164C000
:102DE00029E04CEB68E671E285ED90E296DF811117
:102DF0005BC029E04CEB68E671E282EE90E28DDF89
:102E0000811152C029E04CEB68E671E280EF90E25C
:102E100084DF811149C029E04CEB6DEF70E286E060
:102E200091E27BDF811140C029E040E461E171E281
:102E300087E191E272DF811137C029E04CEB61E25A
:102E400071E284E291E269DF81112EC029E04CEB4E
:102E500061E070E086E091E260DF811125C029E049
:102E600040E468E671E280E391E257DF81111CC023
:102E700029E04CEB68E671E283E591E24EDF8111D7
:102E800013C029E04CEB60E671E286E091E245DF99
:102E900081110AC029E04CEB6BE671E282E791E216
:102EA0003CDF811103C004DF80E0089580E20895D3
:102EB00029E04CEB68E671E28BE791E22EDF8111AD
:102EC00007C029E040E468E671E287E891E225DF87
:102ED00080E00895EF92FF920F931F93CF93DF93BB
:102EE0008C017B0129E04CEB63E971E285E991E219
:102EF00014DF811113C0E801CE01801B910B8E15E8
:102F00009F052CF4699180EA9AE02BDAF5CF29E04D
:102F10004CEB60E070E080EA91E2FFDE80E0DF9160
:102F2000CF911F910F91FF90EF9008951F920F92F4
:102F30000FB60F92112408B60F9218BE09B60F9261
:102F400019BE0AB60F921ABE0BB60F921BBECF92D5
:102F5000DF92EF92FF920F931F932F933F934F9324
:102F60005F936F937F938F939F93AF93BF93CF9311
:102F7000DF93EF93FF93F89481E08093B62382E38D
:102F800090E003DCC9E0D8E017E006E085E0F82E29
:102F900094E0E92E23E0D22E32E0C32E8091B623B6
:102FA000813009F0BCC08091BC2390E08A3091054B
:102FB00008F0AEC0FC018827E250FF4F8F4F92C54A
:102FC00081E08093BB23A6C089E0A5DC80933524F3
:102FD0009093362481E09FDC8093372490933824AB
:102FE00081E099DC8093392490933A242091352410
:102FF000309136248091B7239091B823A091B923C2
:10300000B091BA23820F931FA11DB11D8093B723E6
:103010009093B823A093B923B093BA238091352419
:10302000909136246BE274E2BEDC8091352490915D
:103030003624809333249093342480913D249091BE
:103040003E24019680933D2490933E2480913D241C
:1030500090913E24039708F456C0C092BB235AC0F7
:1030600020913D2430913E2440E050E06091B72310
:103070007091B8238091B9239091BA2311D52093F0
:103080002B2430932C241092B7231092B823109243
:10309000B9231092BA23D092BB233CC010923D2496
:1030A00010923E24E092BB2335C0C9DC75DEF0925D
:1030B000BB2330C02AE030E046E353E261E18BE21B
:1030C00094E21FDD40E051E066E372E286E393E2C2
:1030D00067DA80933422909335220093BB231AC081
:1030E000609134227091352286E392E2F3DE1093F0
:1030F000BB2310C0D093BB230DC0DADEDDDCC09350
:10310000BB2308C0C7DD1092BB231092B62302C0B8
:10311000C093BB238091BB238093BC233FCF1092ED
:103120000804109209047894FF91EF91DF91CF91F8
:10313000BF91AF919F918F917F916F915F914F91CF
:103140003F912F911F910F91FF90EF90DF90CF90C3
:103150000F900BBE0F900ABE0F9009BE0F9008BED5
:103160000F900FBE0F901F901895CF93DF93CDB7A0
:10317000DEB72F97CDBFDEBFF8940E94901087E096
:103180008093A2000E942C108091C00788608093D9
:10319000C0078091C40788608093C407BE016F5F39
:1031A0007F4F80E092E00E942604AE01445F5F4FB3
:1031B00061E080E092E00E948204AE01485F5F4FD0
:1031C00062E080E092E00E9482049A818B818F7895
:1031D00080618B83892F817E8A831C8282E08D832C
:1031E00081E08C871D86188688E08987BE016F5F25
:1031F0007F4F80E092E00E94CA03AE01445F5F4FC0
:1032000061E080E092E00E944A04AE01485F5F4FB7
:1032100062E080E092E00E944A0480E092E00E9436
:10322000B90166E070E280EA9AE086D966E070E271
:1032300080EA98E081D964E083E00E943F1064E076
:1032400085E00E943F10F2DB66E176E185E090E0E8
:103250009CD98091880687FD2FDC1CDD8091700051
:103260008B7F809370001092BD231092BE2310922A
:10327000BF231092C0231092C12381E08093C22308
:1032800081E090E018DB7894F894ADEBB3E2E0E0F5
:103290008D91811102C0EF5FFBCFEE23A1F38091EE
:1032A0004800F0E0E150F04E817F9081892B8093BF
:1032B0004800809148008160809348007894889508
:1032C000809148008E7F80934800DECF20D108F4A3
:1032D00081E008950CD066C15ED140F055D130F048
:1032E00021F45F3F19F037C1511190C13AC16BD140
:1032F00098F39923C9F35523B1F3951B550BBB27BD
:10330000AA2762177307840738F09F5F5F4F220F69
:10331000331F441FAA1FA9F333D00E2E3AF0E0E862
:1033200030D091505040E695001CCAF729D0FE2FAE
:1033300027D0660F771F881FBB1F26173707480740
:10334000AB07B0E809F0BB0B802DBF01FF279358F6
:103350005F4F2AF09E3F510568F0FDC057C15F3FA7
:10336000ECF3983EDCF3869577956795B795F795DE
:103370009F5FC9F7880F911D9695879597F90895D6
:10338000E1E0660F771F881FBB1F62177307840772
:10339000BA0720F0621B730B840BBA0BEE1F88F781
:1033A000E0950895BEE304D008F490E80895BFE3E3
:1033B00022273327A9010FD158F19F5740F1B917A0
:1033C00038F1BFE3B91B9927B8503AF4660F771F5D
:1033D000881F991FB395D2F316C0B8504AF0232F17
:1033E000342F452F562F672F782F8827B850BAF7DC
:1033F000B85F49F0869577956795579547953795C6
:103400002795BA95B9F70EF4AFD0889408958894AB
:1034100060E070E0CB010895E89409C097FB3EF4AA
:1034200090958095709561957F4F8F4F9F4F992311
:10343000A9F0F92F96E9BB279395F695879577958F
:103440006795B795F111F8CFFAF4BB0F11F460FF4F
:103450001BC06F5F7F4F8F4F9F4F16C0882311F0A7
:1034600096E911C0772321F09EE8872F762F05C0BB
:10347000662371F096E8862F70E060E02AF09A9556
:10348000660F771F881FDAF7880F9695879597F94B
:103490000895E894F92F96EBFF2381F01216130696
:1034A0001406440B9395F6958795779567955795F0
:1034B0004040FF23B9F71BC099270895882351F492
:1034C0009850D2F7872B762F652F542F432F322F0A
:1034D00020E0B1F3121613061406440B88233AF0C9
:1034E0009A95440F551F661F771F881FCAF75523EB
:1034F0004AF4440F551F11F460FF04C06F5F7F4F03
:103500008F4F9F4F880F9695879597F90895990F3C
:103510000008550FAA0BE0E8FEEF16161706E8079D
:10352000F907C0F012161306E407F50798F0621BBE
:10353000730B840B950B39F40A2661F0232B242B93
:10354000252B21F408950A2609F4A140A6958FEFB2
:10355000811D811D089597F99F6780E870E060E004
:1035600008959FEF80EC08959095809570956095F3
:1035700050954095309521953F4F4F4F5F4F6F4F7E
:103580007F4F8F4F9F4F089500240A9416161706F9
:1035900018060906089500240A9412161306140644
:1035A00005060895092E0394000C11F4882352F0A7
:1035B000BB0F40F4BF2B11F460FF04C06F5F7F4F5F
:1035C0008F4F9F4F089557FD9058440F551F59F046
:1035D0005F3F71F04795880F97FB991F61F09F3F00
:1035E00079F087950895121613061406551FF2CF29
:1035F0004695F1DF08C0161617061806991FF1CF79
:1036000086957105610508940895E894BB2766279F
:103610007727CB0197F908957ADF08F48FEF0895A3
:10362000FA01EE0FFF1F30962105310599F1611562
:10363000710561F48038BFE39B0749F168949038C5
:10364000810561F08038BFEF9B0741F0992342F577
:10365000FF3FE1053105210511F1E8940894E79554
:10366000D901AA2329F4AB2FBE2FF85FD0F310C0E5
:10367000FF5F70F4A695E0F7F73950F019F0FF3AC4
:1036800038F49F779F930CD00F9007FC90580895C3
:103690003EF067CF60E070E080E89FE308954FE779
:1036A0009F775F934F933F932F939ED02F913F919E
:1036B0004F915F910CD105C019F40EF04CCFA5CFFE
:1036C00050CF89DFC8F39638C0F707F80F92E89417
:1036D0002BE33AEA48EB5FE708D10F920F920F9283
:1036E0004DB75EB70F92C0D0E0E1F2E016D04F9137
:1036F0005F91EF91FF91E595EE1FFF1F49F0FE5797
:10370000E0684427EE0F441FFA95E1F74195550B09
:1037100032D00F9007FE26C00895DF93CF931F93FA
:103720000F93FF92EF92DF927B018C01689405C0AA
:10373000DA2EEF01D8D0FE01E894A59125913591BC
:1037400045915591AEF3EF0137D1FE019701A801E4
:10375000DA9479F7DF90EF90FF900F911F91CF915E
:10376000DF9108959B01AC0160E070E080E89FE389
:10377000B1CDF1CE74C12FDFE8F39923D9F3940FC3
:10378000511DBBF39150504094F059F0882332F012
:10379000660F771F881F91505040C1F79E3F51051B
:1037A00044F7880F911D9695879597F908955F3F87
:1037B000ACF0983E9CF0BB27869577956795B795BA
:1037C00008F4B1609395C1F7BB0F58F711F460FF8F
:1037D000E8CF6F5F7F4F8F4F9F4FE3CF17CF0EF034
:1037E0003EC1BFCE6894B7CEF6DEC8F39923D1F3BD
:1037F000C6F3DF93CF931F930F93FF92C92FDD275B
:1038000088232AF02197660F771F881FDAF720E0B8
:1038100030E040E85FEB9FE3883920F0803E30F0F5
:1038200021968F77B8D0E8E3F2E003C0B4D0E5E6A4
:10383000F2E073DF8B01BE01EC01FB2E6F577109C3
:103840007595771F880B990BE9DD28E132E741E395
:103850005FE349D0AF2D9801AE01FF900F911F910A
:10386000CF91DF91A9D09ECEFA01DC01AA0FBB1F38
:103870009B01AC01BF5728F42227332744275078F7
:103880001FC0B75188F4AB2F002446953795279574
:10389000011CA395D2F3002069F0220F331F441FAF
:1038A000B395DAF30DD076C061307105A0E88A07D0
:1038B000B94630F49B01AC016627772788279078BA
:1038C000309621F0208331834283538308950BD0B7
:1038D00069CE5ADE28F05FDE18F0952309F03BCE62
:1038E00040CE112493CE6FDEA0F3959FD1F3950FB8
:1038F00050E0551F629FF001729FBB27F00DB11D74
:10390000639FAA27F00DB11DAA1F649F6627B00D03
:10391000A11D661F829F2227B00DA11D621F739FEC
:10392000B00DA11D621F839FA00D611D221F749FFA
:103930003327A00D611D231F849F600D211D822F41
:10394000762F6A2F11249F5750408AF0E1F0882388
:103950004AF0EE0FFF1FBB1F661F771F881F915095
:103960005040A9F79E3F510570F0F5CD4FCE5F3F17
:10397000ECF3983EDCF3869577956795B795F795C8
:10398000E7959F5FC1F7FE2B880F911D9695879550
:1039900097F908955058BB27AA270ED003CEF4DD1F
:1039A00030F0F9DD20F031F49F3F11F41EF4D9CD51
:1039B0000EF4E095E7FBCFCDE92F05DE80F3BA17D3
:1039C000620773078407950718F071F49EF51DCE02
:1039D0000EF4E0950B2EBA2FA02D0B01B90190012A
:1039E0000C01CA01A0011124FF27591B99F0593F6E
:1039F00050F4503E68F11A16F040A22F232F342FB6
:103A00004427585FF3CF469537952795A795F04003
:103A10005395C9F77EF41F16BA0B620B730B840B18
:103A2000BAF09150A1F0FF0FBB1F661F771F881FD0
:103A3000C2F70EC0BA0F621F731F841F48F4879528
:103A400077956795B795F7959E3F08F0B3CF939517
:103A5000880F08F09927EE0F9795879508959F3F57
:103A600031F0915020F4879577956795B795880F39
:103A7000911D9695879597F9089597FB072E16F453
:103A8000009406D077FD08D0E5D007FC05D03EF4C1
:103A9000909581959F4F0895709561957F4F0895FA
:103AA000A1E21A2EAA1BBB1BFD010DC0AA1FBB1F42
:103AB000EE1FFF1FA217B307E407F50720F0A21BB4
:103AC000B30BE40BF50B661F771F881F991F1A9421
:103AD00069F760957095809590959B01AC01BD014B
:103AE000CF010895EE0FFF1F881F8BBF0790F6913F
:103AF000E02D1BBE1994DF93CF931F930F939A9DD4
:103B0000F02D219FF00D8B9DF00D8A9DE02DF10D84
:103B1000039FF00D029FE00DF11D4E9DE00DF11D84
:103B20005E9DF00D4F9DF00D7F936F93BF92AF920E
:103B30005F934F93D501A2D08B01AC01D7019ED0EA
:103B4000EB01E80FF91FD6011FD02F913F91D6014D
:103B500095D0C60FD71FE81FF91FAF91BF9114D0A2
:103B60002F913F918BD0C60FD71FE81FF91FD601A9
:103B700085D0E60FF71F9801BE01CF0111240F91E8
:103B80001F91CF91DF91089579D0460F571FC81F1D
:103B9000D91F08F431960895689401C0E8948F9273
:103BA0009F92CF93DF9305D0DF91CF919F908F901D
:103BB000089588249924F401E401B0E49F93AA278E
:103BC0009A158B049C04ED05FE05CF05D007A107CF
:103BD00098F4AD2FDC2FCF2FFE2FE92D982C892EB6
:103BE000982F872F762F652F542F432F322F222780
:103BF000B85031F7BF9127C01B2EBF91BB27220FB2
:103C0000331F441F551F661F771F881F991F881C6D
:103C1000991CEE1FFF1FCC1FDD1FAA1FBB1F8A149C
:103C20009B04EC05FD05CE05DF05A007B10748F0B4
:103C30008A189B08EC09FD09CE09DF09A00BB10B1E
:103C400021601A94E1F62EF49401AF01BE01CD017A
:103C5000000C0895AA1BBB1B51E107C0AA1FBB1F84
:103C6000A617B70710F0A61BB70B881F991F5A9508
:103C7000A9F780959095BC01CD010895A29FB00150
:103C8000B39FC001A39F700D811D1124911DB29F90
:103C9000700D811D1124911D0895FC01882799271D
:103CA000E89421912032E9F3293010F02E30C8F346
:103CB0002B3239F02D3231F4689403C04DD0820F8D
:103CC000911D219120532A30C8F31EF490958195BF
:103CD0009F4F0895FB01DC0102C001900D924150FD
:103CE0005040D8F70895FB01DC010D900020E9F762
:103CF000119701900D920020E1F70895FB01519179
:103D00005523A9F0BF01DC014D9145174111E1F7A1
:103D100059F4CD010190002049F04D914015411119
:103D2000C9F3FB014111EFCF81E090E001970895C5
:103D30004532510518F4423008F004C0FB011082EE
:103D4000CB010895BB274A3031F4992322F4BDE218
:103D5000909581959F4F09C07AE0979F902D879FFE
:103D6000802D910D11240895BB27FB015527AA270B
:103D7000880F991FAA1FA41710F0A41B83955051F8
:103D8000B9F7A05DAA3308F0A95DA193009779F770
:103D9000B111B1931192CB0100C0DC01FC01672F7E
:103DA00071917723E1F7329704C07C916D93708312
:0E3DB0006291AE17BF07C8F30895F894FFCFD5
:103DBE00000E060C0400004B00000300010000FF83
:103DCE00FF000000000000000000000000000000E6
:103DDE000000000000000000000000000000004D88
:103DEE005154430000040000000000003C0001009C
:103DFE004D5154570000000000000000000000006C
:103E0E0000000000000000000000000000000000A4
:103E1E004D515454004D5149736470004D39350065
:103E2E006E622F696E7430002C00514E5354415403
:103E3E0055533A20300041542B514E535441545552
:103E4E00530D0041542B51494647434E543D300DBE
:103E5E000041542B5149435347503D312C22617040
:103E6E006E312E6C696C6C6562616B6B2E636F6D5F
:103E7E00222C22222C22220D0041542B51494D5529
:103E8E00583D300D0041542B51494D4F44453D3066
:103E9E000D0041542B5149444E5349503D300D00B5
:103EAE0041542B51495245474150500D0049502025
:103EBE0053544152540041542B5149535441540DC3
:103ECE000051494143540041542B51494143540D33
:103EDE000031300041542B51494C4F4349500D0095
:103EEE0041542B51494F50454E3D22544350222CA4
:103EFE002231302E31382E302E3339222C313838B3
:103F0E00330D0041542B5149535256433D310D0050
:103F1E00434F4E4E454354204F4B00514C54533A51
:103F2E00200041542B514C54530D0041542B5149F8
:103F3E00434C4F53450D0041542B51494445414389
:103F4E00540D003E0041542B514953454E440D0033
:103F5E001A0041542B43495053544152543D00547E
:103F6E00435000222C220031302E31382E302E3389
:103F7E003900313838330041542B435354543D00EB
:103F8E0061706E312E6C696C6C6562616B6B2E6349
:043F9E006F6D000043
:00000001FF
