S014000055534152545F53494D3930302E73726563A0
S1130000FDC000001FC100001DC100001BC1000095
S113001019C1000017C1000015C1000013C1000080
S113002011C100000FC100000DC100000BC1000090
S113003009C1000007C1000005C1000003C10000A0
S113004001C10000FFC00000FDC00000FBC00000B3
S1130050F9C00000F7C00000F5C00000F3C00000C4
S1130060F1C00000EFC00000EDC00000EBC00000D4
S1130070E9C00000E7C00000E5C00000E3C00000E4
S1130080E1C00000DFC00000DDC00000DBC00000F4
S1130090D9C00000D7C00000D5C00000D3C0000004
S11300A0D1C00000CFC00000CDC00000CBC0000014
S11300B0C9C00000C7C00000C5C00000C3C0000024
S11300C0C1C00000BFC00000BDC00000BBC0000034
S11300D0B9C00000B7C00000B5C00000B3C0000044
S11300E0B1C00000AFC00000ADC00000ABC0000054
S11300F0A9C00000A7C00000A5C00000A3C0000064
S1130100A1C000009FC000009DC000009BC0000073
S113011099C0000097C0000095C0000093C0000083
S113012091C000008FC000008DC000008BC0000093
S113013089C0000087C0000085C0000083C00000A3
S113014081C000007FC000007DC000007BC00000B3
S113015079C0000077C0000075C0000073C00000C3
S113016071C000006FC000006DC000006BC00000D3
S113017069C0000067C0000065C0000063C00000E3
S113018061C000005FC000005DC000005BC00000F3
S113019059C0000057C0000055C0000053C0000003
S11301A051C000004FC000004DC000004BC0000013
S11301B049C0000047C0000045C0000043C0000023
S11301C041C000003FC000003DC000003BC0000033
S11301D039C0000037C0000035C0000033C0000043
S11301E031C000002FC000002DC000002BC0000053
S11301F029C0000027C0000025C0000011241FBE34
S1130200CFEFCDBFDFE3DEBF00E00CBF18BE19BEE9
S11302101ABE1BBE10E2A0E0B0E2EAE8F8E000E09B
S11302200BBF02C007900D92AE30B107D9F71BBEC9
S113023020E2AEE0B0E201C01D92AE30B207E1F7B9
S1130240E4D221C3DDCE8FEF8093700080937100E0
S11302508093720080937300809374008093750080
S1130260809376000895CF93DF931F92CDB7DEB7C6
S11302709FB79983F8949981E82FF0E0E059FF4FF4
S113028060958081682360839FBF0F90DF91CF9139
S11302900895CF93DF93FC0120E030E0C62FD0E037
S11302A0DE01022E02C0B595A7950A94E2F7A0FDDF
S11302B0508B2F5F3F4F31962830310589F740FF2F
S11302C00AC041FF03C0FC01658302C0FC016683D0
S11302D0FC01618302C0FC016283DF91CF91089528
S11302E043E050E068E080EC97E0D3DF40E058E181
S11302F064E080EC97E0CDDF43E050E068E080E824
S113030096E0C7DF40E050E064E080E896E0C1DFBB
S113031043E050E068E080E496E0BBDF40E050E07A
S113032064E080E496E0B5CF08954F925F926F92B7
S11303307F928F929F92AF92BF92EF92FF920F9310
S11303401F93CF937C014A015B0128013901FC0111
S1130350848182FF16C0D901C801689412F8B69549
S1130360A795979587951694D1F7B901A801032EFF
S113037036E176956795579547953A95D1F7302D9F
S113038015C0D901C801689413F8B695A795979537
S113039087951694D1F7B901A801032E37E1769514
S11303A06795579547953A95D1F7302D8815990556
S11303B0AA05BB0508F4A2C084169506A606B706CE
S11303C008F49EC0F701848182FD04C0880C991C46
S11303D0AA1CBB1CC301B201A501940132D22F3F58
S11303E031054105510508F48DC08FEF90E0A0E080
S11303F0B0E0C9EF05C0281739074A075B0758F072
S1130400880F991FAA1FBB1FCD3F0CF48160CF5FDB
S1130410C73089F74DC0CC230CF04AC0D501C401C4
S1130420880F991FAA1FBB1F880F991FAA1FBB1FE4
S1130430880F991FAA1FBB1F481A590A6A0A7B0A08
S1130440CE3FECF48DEF9FEF8C1B9109C7FD939584
S113045004C0440C551C661C771C8A95D2F7D50140
S1130460C401B695A79597958795BC01CD01640DF8
S1130470751D861D971DA5019401E3D135C083E048
S11304808C0FA501940104C0220F331F441F551F74
S11304908A95D2F7DA01C901B695A79597958795FC
S11304A0BC01CD01640D751D861D971DCAD11CC0EC
S11304B083E08C0FA501940104C0220F331F441F55
S11304C0551F8A95D2F7DA01C901B695A795979574
S11304D08795BC01CD01640D751D861D971DB1D195
S11304E02150310941095109832F8F70C295C07F72
S11304F0C82BF701C783268381E018C080E016C0AB
S113050080E014C0D501C401880F991FAA1FBB1F26
S1130510880F991FAA1FBB1F880F991FAA1FBB1FF3
S1130520481A590A6A0A7B0AC9EF8CCFCF911F91E6
S11305300F91FF90EF90BF90AF909F908F907F901E
S11305406F905F904F9008950F931F93CF93DF9315
S1130550EC018B01009709F436C1803C910521F42C
S113056060E180E080DE2FC1C03484E0D80721F44C
S113057068E080E078DE27C1C115E4E0DE0721F4FD
S113058064E080E070DE1FC1C038F1E0DF0721F4D1
S113059062E080E068DE17C1C11581E0D80721F46C
S11305A061E080E060DE0FC1C038E3E0DE0721F4E3
S11305B061E081E058DE07C1C039F3E0DF0721F4D0
S11305C061E082E050DEFFC0C11582E0D80721F46B
S11305D062E081E048DEF7C0C034E2E0DE0721F4E7
S11305E062E082E040DEEFC0C115F3E0DF0721F4F2
S11305F064E081E038DEE7C0C03283E0D80721F44C
S113060064E082E030DEDFC0C115E8E0DE0721F4FB
S113061061E083E028DED7C0C115F9E0DF0721F4EB
S113062061E084E020DECFC0C1158AE0D80721F460
S113063061E085E018DEC7C0C115EBE0DE0721F4F8
S113064061E086E010DEBFC0C034F8E0DF0721F4CB
S113065062E083E008DEB7C0C03489E0D80721F443
S113066062E084E000DEAFC0C034EAE0DE0721F4DB
S113067062E085E0F8DDA7C0C034FBE0DF0721F4C9
S113068062E086E0F0DD9FC0C03988E0D80721F43D
S113069064E083E0E8DD97C0C039E9E0DE0721F4D7
S11306A064E084E0E0DD8FC0C039FAE0DF0721F4C4
S11306B064E085E0D8DD87C0C0398BE0D80721F439
S11306C064E086E0D0DD7FC0C03CE8E0DE0721F4D2
S11306D068E083E0C8DD77C0C03CF9E0DF0721F4BF
S11306E068E084E0C0DD6FC0C03C8AE0D80721F434
S11306F068E085E0B8DD67C0C03CEBE0DE0721F4CC
S113070068E086E0B0DD5FC0C03AF8E0DF0721F4BE
S113071060E183E0A8DD57C0C03A89E0D80721F43E
S113072060E184E0A0DD4FC0C03AEAE0DE0721F4D6
S113073060E185E098DD47C0C03AFBE0DF0721F4C3
S113074060E186E090DD3FC0C03B88E0D80721F43B
S113075060E283E088DD37C0C03BE9E0DE0721F4D6
S113076060E284E080DD2FC0C03BFAE0DF0721F4C3
S113077060E285E078DD27C0C03B8BE0D80721F438
S113078060E286E070DD1FC0C038E4E0DE0721F4DB
S113079060E483E068DD17C0C039F4E0DF0721F4CA
S11307A060E484E060DD0FC0C03A84E0D80721F43F
S11307B060E485E058DD07C0C03BE4E0DE0719F4DF
S11307C060E486E050DD8D818F738D83F80195811F
S11307D08481892B9681911198E0892B8D83F8016E
S11307E0408151816281738100E814E82EE130E098
S11307F0CE019BDD9C8198609C839C8190619C834D
S1130800DF91CF911F910F910895CF93DF931F92A2
S1130810CDB7DEB784E0898363DD15DDE0ECF7E076
S113082080818860808384818860848367E070E24B
S113083080EA9AE089DE60E070E280EA98E084DE93
S1130840FFCFA1E21A2EAA1BBB1BFD010DC0AA1FDC
S1130850BB1FEE1FFF1FA217B307E407F50720F025
S1130860A21BB30BE40BF50B661F771F881F991FA0
S11308701A9469F760957095809590959B01AC01E9
S10D0880BD01CF010895F894FFCFE5
S111088A004B0000030001004B0000030001BE
S9030000FC
