S014000055534152545F53494D3930302E73726563A0
S1130000FDC0000021C100001FC100001DC100008F
S11300101BC1000019C1000017C1000015C1000078
S113002013C1000011C100000C9418190DC1000087
S11300300BC1000009C1000007C1000093C4000007
S1130040C9C40000FFC4000035C500006BC5000032
S1130050A1C50000D7C500000DC6000043C60000BE
S1130060F3C00000F1C00000EFC00000EDC00000CC
S1130070EBC00000E9C00000E7C00000E5C00000DC
S1130080E3C00000E1C00000DFC00000DDC00000EC
S1130090DBC00000D9C00000D7C0000036C2000099
S11300A071C20000ACC20000E7C20000CDC0000075
S11300B0CBC00000C9C00000C7C000000C94DA081F
S11300C00C9412090C944A090C9482090C94BA09F0
S11300D00C94F2090C942A0A0C94620A0C949A0A5D
S11300E00C94D20AB1C00000AFC00000ADC0000043
S11300F0ABC00000A9C00000A7C00000A5C000005C
S1130100A3C00000A1C000009FC000009DC000006B
S11301109BC0000099C0000097C0000002C100000D
S11301203DC1000078C10000B3C100008DC00000D3
S11301308BC000000FC6000045C600007BC600004F
S1130140B1C60000E7C600001DC7000053C7000089
S113015089C70000BFC70000F5C7000075C00000D4
S113016073C0000071C000006FC000006DC00000CB
S11301706BC0000069C0000067C0000065C00000DB
S113018063C0000061C000005FC000005DC00000EB
S11301905BC0000059C0000057C0000055C00000FB
S11301A053C0000051C000004FC000004DC000000B
S11301B00C940A0B0C94420B0C947A0B0C94B20B17
S11301C00C94EA0B0C94220C0C945A0C0C94920C84
S11301D00C94CA0C0C94020D37C0000035C000000A
S11301E033C0000031C000002FC000002DC000004B
S11301F02BC0000029C0000027C0000011241FBE2E
S1130200CFEFCDBFDFE3DEBF00E00CBF18BE19BEE9
S11302101ABE1BBE11E2A0E0B0E2EAE6FFE300E092
S11302200BBF02C007900D92A03AB107D9F71BBECD
S113023022E2A0EAB1E201C01D92AD37B207E1F7B4
S11302400E94BD190C94B31FDBCE811522E09207E6
S113025069F48091A12191E0980F9093A1218111DB
S113026014C062E081E00C942C1008958034924014
S113027061F48091A02191E0980F9093A0218111C5
S113028004C062E082E00C942C100895811522E0F1
S1130290920761F48091A12181508093A121811161
S11302A013C062E081E00C944210089580349240BF
S11302B059F48091A02181508093A021811104C020
S11302C062E082E00C9442100895EF92FF921F9333
S11302D0CF93DF931F921F92CDB7DEB77C018FB708
S11302E08983F8941981C701B0DFF70180818160A7
S11302F080831FBF809162228F3F09F4FFCF8FB7A5
S11303008A83F8949A81E1E6F2E281818F5F8183A6
S11303109FBF0F900F90DF91CF911F91FF90EF90AF
S113032008951F920F920FB60F92112408B60F92E0
S113033018BE09B60F9219BE0BB60F921BBE2F93AF
S11303403F934F935F936F937F938F939F93AF9359
S1130350BF93EF93FF934091240250912502E091C3
S11303606922F0916A2261E080E092E01995FF91A0
S1130370EF91BF91AF919F918F917F916F915F9119
S11303804F913F912F910F900BBE0F9009BE0F908C
S113039008BE0F900FBE0F901F9018951F920F92DA
S11303A00FB60F92112408B60F9218BE09B60F9219
S11303B019BE0BB60F921BBE2F933F934F935F93BF
S11303C06F937F938F939F93AF93BF93EF93FF9319
S11303D040912C0250912D02E0916922F0916A2201
S11303E062E080E092E01995FF91EF91BF91AF91A7
S11303F09F918F917F916F915F914F913F912F9139
S11304000F900BBE0F9009BE0F9008BE0F900FBE49
S11304100F901F9018951F920F920FB60F921124F0
S113042008B60F9218BE09B60F9219BE0BB60F92FA
S11304301BBE2F933F934F935F936F937F938F9341
S11304409F93AF93BF93EF93FF93409134025091E6
S11304503502E0916922F0916A2264E080E092E042
S11304601995FF91EF91BF91AF919F918F917F91DA
S11304706F915F914F913F912F910F900BBE0F9011
S113048009BE0F9008BE0F900FBE0F901F901895D5
S11304901F920F920FB60F92112408B60F9218BE36
S11304A009B60F9219BE0BB60F921BBE2F933F9342
S11304B04F935F936F937F938F939F93AF93BF9368
S11304C0EF93FF9340913C0250913D02E0916922E9
S11304D0F0916A2268E080E092E01995FF91EF9133
S11304E0BF91AF919F918F917F916F915F914F9148
S11304F03F912F910F900BBE0F9009BE0F9008BE35
S11305000F900FBE0F901F9018951F920F920FB669
S11305100F92112408B60F9218BE09B60F9219BE95
S11305200BB60F921BBE2F933F934F935F936F9322
S11305307F938F939F93AF93BF93EF93FF934091D8
S1130540640250916502E0916722F091682261E0B3
S113055080E492E01995FF91EF91BF91AF919F9143
S11305608F917F916F915F914F913F912F910F9058
S11305700BBE0F9009BE0F9008BE0F900FBE0F90D8
S11305801F9018951F920F920FB60F92112408B660
S11305900F9218BE09B60F9219BE0BB60F921BBE6E
S11305A02F933F934F935F936F937F938F939F9377
S11305B0AF93BF93EF93FF9340916C0250916D0200
S11305C0E0916722F091682262E080E492E019955C
S11305D0FF91EF91BF91AF919F918F917F916F9117
S11305E05F914F913F912F910F900BBE0F9009BED9
S11305F00F9008BE0F900FBE0F901F9018951F927A
S11306000F920FB60F92112408B60F9218BE09B6B6
S11306100F9219BE0BB60F921BBE2F933F934F93AD
S11306205F936F937F938F939F93AF93BF93EF9356
S1130630FF934091740250917502E0916722F0910A
S1130640682264E080E492E01995FF91EF91BF91F4
S1130650AF919F918F917F916F915F914F913F9156
S11306602F910F900BBE0F9009BE0F9008BE0F90F4
S11306700FBE0F901F9018951F920F920FB60F92F6
S1130680112408B60F9218BE09B60F9219BE0BB604
S11306900F921BBE2F933F934F935F936F937F9360
S11306A08F939F93AF93BF93EF93FF9340917C02FB
S11306B050917D02E0916722F091682268E080E425
S11306C092E01995FF91EF91BF91AF919F918F9116
S11306D07F916F915F914F913F912F910F900BBE3E
S11306E00F9009BE0F9008BE0F900FBE0F901F9081
S11306F01895BF92CF92DF92EF92FF920F931F93C0
S1130700CF93DF931F92CDB7DEB78C017B018115A8
S113071022E0920781F461E270E082E00E94A3107B
S1130720C82ED12C60E270E082E00E94A310DC2C81
S1130730CC24C82A12C080349240D1F565E270E01E
S113074082E00E94A310C82ED12C64E270E082E003
S11307500E94A310DC2CCC24C82A8FB78983F89478
S1130760B980C80172DDF801808192E09083C4866B
S1130770D586F70125813681F801208F318FF70165
S11307809281F8019283F7019481F8019483F7012F
S11307909381F8019383F7019181F801918381702A
S11307A0F7019081892BF8018083C8016FDDBFBEFA
S11307B00F90DF91CF911F910F91FF90EF90DF90F9
S11307C0CF90BF900895DF92EF92FF920F931F9303
S11307D0CF93DF931F92CDB7DEB78C017B018FB728
S11307E08983F894D980C80130DDF8018081807C48
S11307F0F7018083F801808D918DF70185839683BD
S1130800F8018281F7018283F8018481F7018483EE
S1130810F8018381F7018383F8018181F7018183E2
S1130820C80134DDDFBE0F90DF91CF911F910F918E
S1130830FF90EF90DF900895AF92BF92CF92DF9236
S1130840EF92FF920F931F93CF93DF931F92CDB735
S1130850DEB76C01B62E7A01862F837029F4962FA9
S11308609695969582E002C0962F80E090FF8F5F68
S11308708601005E1F4F98E0899F000D111D112411
S11308808FB78983F894A980C601DFDCF7018081E2
S1130890F8018083F7018281F8018283F701818165
S11308A0F8018183B0FE04C0F7018381F8018683D7
S11308B0C601ECDCAFBE0F90DF91CF911F910F9179
S11308C0FF90EF90DF90CF90BF90AF900895AF92DC
S11308D0BF92CF92DF92EF92FF920F931F93CF9329
S11308E0DF931F92CDB7DEB76C01B62E7A01862F47
S11308F0837029F4962F9695969582E002C0962FE0
S113090080E090FF8F5F8601005E1F4F98E0899F13
S1130910000D111D11248FB78983F894A980C60195
S113092094DCF8018081F7018083F8018281F7016A
S11309308283F8018181F7018183B0FE04C0F8014C
S11309408681F7018383C601A1DCAFBE0F90DF91DE
S1130950CF911F910F91FF90EF90DF90CF90BF90B8
S1130960AF9008951F920F920FB60F92112408B6FC
S11309700F9218BE09B60F9219BE0BB60F921BBE8A
S11309802F933F934F935F936F937F938F939F9393
S1130990AF93BF93EF93FF93E091EE21F091EF219A
S11309A0309709F01995FF91EF91BF91AF919F9105
S11309B08F917F916F915F914F913F912F910F9004
S11309C00BBE0F9009BE0F9008BE0F900FBE0F9084
S11309D01F9018951F920F920FB60F92112408B60C
S11309E00F9218BE09B60F9219BE0BB60F921BBE1A
S11309F02F933F934F935F936F937F938F939F9323
S1130A00AF93BF93EF93FF93E091EC21F091ED212D
S1130A10309709F01995FF91EF91BF91AF919F9194
S1130A208F917F916F915F914F913F912F910F9093
S1130A300BBE0F9009BE0F9008BE0F900FBE0F9013
S1130A401F9018951F920F920FB60F92112408B69B
S1130A500F9218BE09B60F9219BE0BB60F921BBEA9
S1130A602F933F934F935F936F937F938F939F93B2
S1130A70AF93BF93EF93FF93E091EA21F091EB21C1
S1130A80309709F01995FF91EF91BF91AF919F9124
S1130A908F917F916F915F914F913F912F910F9023
S1130AA00BBE0F9009BE0F9008BE0F900FBE0F90A3
S1130AB01F9018951F920F920FB60F92112408B62B
S1130AC00F9218BE09B60F9219BE0BB60F921BBE39
S1130AD02F933F934F935F936F937F938F939F9342
S1130AE0AF93BF93EF93FF93E091E821F091E92155
S1130AF0309709F01995FF91EF91BF91AF919F91B4
S1130B008F917F916F915F914F913F912F910F90B2
S1130B100BBE0F9009BE0F9008BE0F900FBE0F9032
S1130B201F9018951F920F920FB60F92112408B6BA
S1130B300F9218BE09B60F9219BE0BB60F921BBEC8
S1130B402F933F934F935F936F937F938F939F93D1
S1130B50AF93BF93EF93FF93E091E621F091E721E8
S1130B60309709F01995FF91EF91BF91AF919F9143
S1130B708F917F916F915F914F913F912F910F9042
S1130B800BBE0F9009BE0F9008BE0F900FBE0F90C2
S1130B901F9018951F920F920FB60F92112408B64A
S1130BA00F9218BE09B60F9219BE0BB60F921BBE58
S1130BB02F933F934F935F936F937F938F939F9361
S1130BC0AF93BF93EF93FF93E091E421F091E5217C
S1130BD0309709F01995FF91EF91BF91AF919F91D3
S1130BE08F917F916F915F914F913F912F910F90D2
S1130BF00BBE0F9009BE0F9008BE0F900FBE0F9052
S1130C001F9018951F920F920FB60F92112408B6D9
S1130C100F9218BE09B60F9219BE0BB60F921BBEE7
S1130C202F933F934F935F936F937F938F939F93F0
S1130C30AF93BF93EF93FF93E091E221F091E3210F
S1130C40309709F01995FF91EF91BF91AF919F9162
S1130C508F917F916F915F914F913F912F910F9061
S1130C600BBE0F9009BE0F9008BE0F900FBE0F90E1
S1130C701F9018951F920F920FB60F92112408B669
S1130C800F9218BE09B60F9219BE0BB60F921BBE77
S1130C902F933F934F935F936F937F938F939F9380
S1130CA0AF93BF93EF93FF93E091E021F091E121A3
S1130CB0309709F01995FF91EF91BF91AF919F91F2
S1130CC08F917F916F915F914F913F912F910F90F1
S1130CD00BBE0F9009BE0F9008BE0F900FBE0F9071
S1130CE01F9018951F920F920FB60F92112408B6F9
S1130CF00F9218BE09B60F9219BE0BB60F921BBE07
S1130D002F933F934F935F936F937F938F939F930F
S1130D10AF93BF93EF93FF93E091DE21F091DF2136
S1130D20309709F01995FF91EF91BF91AF919F9181
S1130D308F917F916F915F914F913F912F910F9080
S1130D400BBE0F9009BE0F9008BE0F900FBE0F9000
S1130D501F9018951F920F920FB60F92112408B688
S1130D600F9218BE09B60F9219BE0BB60F921BBE96
S1130D702F933F934F935F936F937F938F939F939F
S1130D80AF93BF93EF93FF93E091DC21F091DD21CA
S1130D90309709F01995FF91EF91BF91AF919F9111
S1130DA08F917F916F915F914F913F912F910F9010
S1130DB00BBE0F9009BE0F9008BE0F900FBE0F9090
S1130DC01F9018951F920F920FB60F92112408B618
S1130DD00F9218BE09B60F9219BE0BB60F921BBE26
S1130DE02F933F934F935F936F937F938F939F932F
S1130DF0AF93BF93EF93FF93E091DA21F091DB215E
S1130E00309709F01995FF91EF91BF91AF919F91A0
S1130E108F917F916F915F914F913F912F910F909F
S1130E200BBE0F9009BE0F9008BE0F900FBE0F901F
S1130E301F9018951F920F920FB60F92112408B6A7
S1130E400F9218BE09B60F9219BE0BB60F921BBEB5
S1130E502F933F934F935F936F937F938F939F93BE
S1130E60AF93BF93EF93FF93E091D821F091D921F1
S1130E70309709F01995FF91EF91BF91AF919F9130
S1130E808F917F916F915F914F913F912F910F902F
S1130E900BBE0F9009BE0F9008BE0F900FBE0F90AF
S1130EA01F9018951F920F920FB60F92112408B637
S1130EB00F9218BE09B60F9219BE0BB60F921BBE45
S1130EC02F933F934F935F936F937F938F939F934E
S1130ED0AF93BF93EF93FF93E091D621F091D72185
S1130EE0309709F01995FF91EF91BF91AF919F91C0
S1130EF08F917F916F915F914F913F912F910F90BF
S1130F000BBE0F9009BE0F9008BE0F900FBE0F903E
S1130F101F9018951F920F920FB60F92112408B6C6
S1130F200F9218BE09B60F9219BE0BB60F921BBED4
S1130F302F933F934F935F936F937F938F939F93DD
S1130F40AF93BF93EF93FF93E091D421F091D52118
S1130F50309709F01995FF91EF91BF91AF919F914F
S1130F608F917F916F915F914F913F912F910F904E
S1130F700BBE0F9009BE0F9008BE0F900FBE0F90CE
S1130F801F9018951F920F920FB60F92112408B656
S1130F900F9218BE09B60F9219BE0BB60F921BBE64
S1130FA02F933F934F935F936F937F938F939F936D
S1130FB0AF93BF93EF93FF93E091D221F091D321AC
S1130FC0309709F01995FF91EF91BF91AF919F91DF
S1130FD08F917F916F915F914F913F912F910F90DE
S1130FE00BBE0F9009BE0F9008BE0F900FBE0F905E
S1130FF01F9018951F920F920FB60F92112408B6E6
S11310000F9218BE09B60F9219BE0BB60F921BBEF3
S11310102F933F934F935F936F937F938F939F93FC
S1131020AF93BF93EF93FF93E091D021F091D1213F
S1131030309709F01995FF91EF91BF91AF919F916E
S11310408F917F916F915F914F913F912F910F906D
S11310500BBE0F9009BE0F9008BE0F900FBE0F90ED
S11310601F9018951F920F920FB60F92112408B675
S11310700F9218BE09B60F9219BE0BB60F921BBE83
S11310802F933F934F935F936F937F938F939F938C
S1131090AF93BF93EF93FF93E091CE21F091CF21D3
S11310A0309709F01995FF91EF91BF91AF919F91FE
S11310B08F917F916F915F914F913F912F910F90FD
S11310C00BBE0F9009BE0F9008BE0F900FBE0F907D
S11310D01F9018951F920F920FB60F92112408B605
S11310E00F9218BE09B60F9219BE0BB60F921BBE13
S11310F02F933F934F935F936F937F938F939F931C
S1131100AF93BF93EF93FF93E091CC21F091CD2166
S1131110309709F01995FF91EF91BF91AF919F918D
S11311208F917F916F915F914F913F912F910F908C
S11311300BBE0F9009BE0F9008BE0F900FBE0F900C
S11311401F9018951F920F920FB60F92112408B694
S11311500F9218BE09B60F9219BE0BB60F921BBEA2
S11311602F933F934F935F936F937F938F939F93AB
S1131170AF93BF93EF93FF93E091CA21F091CB21FA
S1131180309709F01995FF91EF91BF91AF919F911D
S11311908F917F916F915F914F913F912F910F901C
S11311A00BBE0F9009BE0F9008BE0F900FBE0F909C
S11311B01F9018951F920F920FB60F92112408B624
S11311C00F9218BE09B60F9219BE0BB60F921BBE32
S11311D02F933F934F935F936F937F938F939F933B
S11311E0AF93BF93EF93FF93E091C821F091C9218E
S11311F0309709F01995FF91EF91BF91AF919F91AD
S11312008F917F916F915F914F913F912F910F90AB
S11312100BBE0F9009BE0F9008BE0F900FBE0F902B
S11312201F9018951F920F920FB60F92112408B6B3
S11312300F9218BE09B60F9219BE0BB60F921BBEC1
S11312402F933F934F935F936F937F938F939F93CA
S1131250AF93BF93EF93FF93E091C621F091C72121
S1131260309709F01995FF91EF91BF91AF919F913C
S11312708F917F916F915F914F913F912F910F903B
S11312800BBE0F9009BE0F9008BE0F900FBE0F90BB
S11312901F9018951F920F920FB60F92112408B643
S11312A00F9218BE09B60F9219BE0BB60F921BBE51
S11312B02F933F934F935F936F937F938F939F935A
S11312C0AF93BF93EF93FF93E091C421F091C521B5
S11312D0309709F01995FF91EF91BF91AF919F91CC
S11312E08F917F916F915F914F913F912F910F90CB
S11312F00BBE0F9009BE0F9008BE0F900FBE0F904B
S11313001F9018951F920F920FB60F92112408B6D2
S11313100F9218BE09B60F9219BE0BB60F921BBEE0
S11313202F933F934F935F936F937F938F939F93E9
S1131330AF93BF93EF93FF93E091C221F091C32148
S1131340309709F01995FF91EF91BF91AF919F915B
S11313508F917F916F915F914F913F912F910F905A
S11313600BBE0F9009BE0F9008BE0F900FBE0F90DA
S11313701F9018951F920F920FB60F92112408B662
S11313800F9218BE09B60F9219BE0BB60F921BBE70
S11313902F933F934F935F936F937F938F939F9379
S11313A0AF93BF93EF93FF93E091C021F091C121DC
S11313B0309709F01995FF91EF91BF91AF919F91EB
S11313C08F917F916F915F914F913F912F910F90EA
S11313D00BBE0F9009BE0F9008BE0F900FBE0F906A
S11313E01F9018951F920F920FB60F92112408B6F2
S11313F00F9218BE09B60F9219BE0BB60F921BBE00
S11314002F933F934F935F936F937F938F939F9308
S1131410AF93BF93EF93FF93E091BE21F091BF216F
S1131420309709F01995FF91EF91BF91AF919F917A
S11314308F917F916F915F914F913F912F910F9079
S11314400BBE0F9009BE0F9008BE0F900FBE0F90F9
S11314501F9018951F920F920FB60F92112408B681
S11314600F9218BE09B60F9219BE0BB60F921BBE8F
S11314702F933F934F935F936F937F938F939F9398
S1131480AF93BF93EF93FF93E091BC21F091BD2103
S1131490309709F01995FF91EF91BF91AF919F910A
S11314A08F917F916F915F914F913F912F910F9009
S11314B00BBE0F9009BE0F9008BE0F900FBE0F9089
S11314C01F9018951F920F920FB60F92112408B611
S11314D00F9218BE09B60F9219BE0BB60F921BBE1F
S11314E02F933F934F935F936F937F938F939F9328
S11314F0AF93BF93EF93FF93E091BA21F091BB2197
S1131500309709F01995FF91EF91BF91AF919F9199
S11315108F917F916F915F914F913F912F910F9098
S11315200BBE0F9009BE0F9008BE0F900FBE0F9018
S11315301F9018951F920F920FB60F92112408B6A0
S11315400F9218BE09B60F9219BE0BB60F921BBEAE
S11315502F933F934F935F936F937F938F939F93B7
S1131560AF93BF93EF93FF93E091B821F091B9212A
S1131570309709F01995FF91EF91BF91AF919F9129
S11315808F917F916F915F914F913F912F910F9028
S11315900BBE0F9009BE0F9008BE0F900FBE0F90A8
S11315A01F9018951F920F920FB60F92112408B630
S11315B00F9218BE09B60F9219BE0BB60F921BBE3E
S11315C02F933F934F935F936F937F938F939F9347
S11315D0AF93BF93EF93FF93E091B621F091B721BE
S11315E0309709F01995FF91EF91BF91AF919F91B9
S11315F08F917F916F915F914F913F912F910F90B8
S11316000BBE0F9009BE0F9008BE0F900FBE0F9037
S11316101F9018951F920F920FB60F92112408B6BF
S11316200F9218BE09B60F9219BE0BB60F921BBECD
S11316302F933F934F935F936F937F938F939F93D6
S1131640AF93BF93EF93FF93E091B421F091B52151
S1131650309709F01995FF91EF91BF91AF919F9148
S11316608F917F916F915F914F913F912F910F9047
S11316700BBE0F9009BE0F9008BE0F900FBE0F90C7
S11316801F9018951F920F920FB60F92112408B64F
S11316900F9218BE09B60F9219BE0BB60F921BBE5D
S11316A02F933F934F935F936F937F938F939F9366
S11316B0AF93BF93EF93FF93E091B221F091B321E5
S11316C0309709F01995FF91EF91BF91AF919F91D8
S11316D08F917F916F915F914F913F912F910F90D7
S11316E00BBE0F9009BE0F9008BE0F900FBE0F9057
S11316F01F9018951F920F920FB60F92112408B6DF
S11317000F9218BE09B60F9219BE0BB60F921BBEEC
S11317102F933F934F935F936F937F938F939F93F5
S1131720AF93BF93EF93FF93E091B021F091B12178
S1131730309709F01995FF91EF91BF91AF919F9167
S11317408F917F916F915F914F913F912F910F9066
S11317500BBE0F9009BE0F9008BE0F900FBE0F90E6
S11317601F9018951F920F920FB60F92112408B66E
S11317700F9218BE09B60F9219BE0BB60F921BBE7C
S11317802F933F934F935F936F937F938F939F9385
S1131790AF93BF93EF93FF93E091AE21F091AF210C
S11317A0309709F01995FF91EF91BF91AF919F91F7
S11317B08F917F916F915F914F913F912F910F90F6
S11317C00BBE0F9009BE0F9008BE0F900FBE0F9076
S11317D01F9018951F920F920FB60F92112408B6FE
S11317E00F9218BE09B60F9219BE0BB60F921BBE0C
S11317F02F933F934F935F936F937F938F939F9315
S1131800AF93BF93EF93FF93E091AC21F091AD219F
S1131810309709F01995FF91EF91BF91AF919F9186
S11318208F917F916F915F914F913F912F910F9085
S11318300BBE0F9009BE0F9008BE0F900FBE0F9005
S11318401F9018951F920F920FB60F92112408B68D
S11318500F9218BE09B60F9219BE0BB60F921BBE9B
S11318602F933F934F935F936F937F938F939F93A4
S1131870AF93BF93EF93FF93E091AA21F091AB2133
S1131880309709F01995FF91EF91BF91AF919F9116
S11318908F917F916F915F914F913F912F910F9015
S11318A00BBE0F9009BE0F9008BE0F900FBE0F9095
S11318B01F9018951F920F920FB60F92112408B61D
S11318C00F9218BE09B60F9219BE0BB60F921BBE2B
S11318D02F933F934F935F936F937F938F939F9334
S11318E0AF93BF93EF93FF93E091A821F091A921C7
S11318F0309709F01995FF91EF91BF91AF919F91A6
S11319008F917F916F915F914F913F912F910F90A4
S11319100BBE0F9009BE0F9008BE0F900FBE0F9024
S11319201F9018951F920F920FB60F92112408B6AC
S11319300F9218BE09B60F9219BE0BB60F921BBEBA
S11319402F933F934F935F936F937F938F939F93C3
S1131950AF93BF93EF93FF93E091A621F091A7215A
S1131960309709F01995FF91EF91BF91AF919F9135
S11319708F917F916F915F914F913F912F910F9034
S11319800BBE0F9009BE0F9008BE0F900FBE0F90B4
S11319901F9018951F920F920FB60F92112408B63C
S11319A00F9218BE09B60F9219BE0BB60F921BBE4A
S11319B02F933F934F935F936F937F938F939F9353
S11319C0AF93BF93EF93FF93E091A421F091A521EE
S11319D0309709F01995FF91EF91BF91AF919F91C5
S11319E08F917F916F915F914F913F912F910F90C4
S11319F00BBE0F9009BE0F9008BE0F900FBE0F9044
S1131A001F9018951F920F920FB60F92112408B6CB
S1131A100F9218BE09B60F9219BE0BB60F921BBED9
S1131A202F933F934F935F936F937F938F939F93E2
S1131A30AF93BF93EF93FF93E091A221F091A32181
S1131A40309709F01995FF91EF91BF91AF919F9154
S1131A508F917F916F915F914F913F912F910F9053
S1131A600BBE0F9009BE0F9008BE0F900FBE0F90D3
S1131A701F901895EF92FF920F931F93CF93DF93CC
S1131A80EC018E81833029F0843031F40AE010E0D7
S1131A9005C00CE010E002C000E010E04F81588562
S1131AA069857A858B859C85FBD10296080F191F61
S1131AB088898823A1F04F89588D698D7A8D8B8D03
S1131AC09C8DEED17C014D8D5E8D6F8D78A189A1A9
S1131AD09AA1E6D18E0D9F1D0496080F191F8DA1A2
S1131AE09EA1892B21F489A59AA5892B51F04DA19A
S1131AF05EA16FA178A589A59AA5D2D10296080FF7
S1131B00191F8BA59CA5892B21F48FA598A9892B36
S1131B1051F04BA55CA56DA57EA58FA598A9C0D154
S1131B200296080F191FC801DF91CF911F910F91E1
S1131B30FF90EF900895AF92BF92CF92DF92EF9211
S1131B40FF920F931F93CF93DF931F921F92CDB7F2
S1131B50DEB76C015B018A0189839A83CA018ADF3B
S1131B607C0104D1A816B9060CF49FC060E1CE0133
S1131B7001960BD1B70189819A81D2D029813A810A
S1131B80820F931F89839A83F8018681843051F4EC
S1131B9063E470E2CE01019621D164E0CE010196A6
S1131BA0F4D009C068E470E2CE01019617D163E075
S1131BB0CE010196EAD0F12CF801878580FBF1F87B
S1131BC081E09089911101C080E080FBF2F8F2FE7F
S1131BD00DC0F80184A18370880F880F880F9F2D92
S1131BE0977EF92EF82A83A180FBF5F8F80185A1E8
S1131BF096A1892B21F481A592A5892B11F06894D3
S1131C00F7F8F80183A594A5892B21F487A590A959
S1131C10892B11F06894F6F86F2DCE010196B5D09A
S1131C20F80165857685CE010196B9D0F801278142
S1131C3030854185528563857485CE010196F4D043
S1131C40F8018089882399F02789308D418D528D40
S1131C50638D748DCE010196E7D0F801258D368D04
S1131C60478D50A161A172A1CE010196DDD0EF2C68
S1131C70FF2054F4F80125A136A147A150A561A580
S1131C8072A5CE010196D0D0E6FE0AC0F80123A5C4
S1131C9034A545A556A567A570A9CE010196C4D063
S1131CA089819A818C199D0902C08EEF9FEF0F9054
S1131CB00F90DF91CF911F910F91FF90EF90DF90E4
S1131CC0CF90BF90AF9008950F931F93CF93DF935E
S1131CD01F921F92CDB7DEB789839A836230710554
S1131CE09CF08C01642F6295607FCE0101964DD0EB
S1131CF060E070E089819A8113D029813A81820F52
S1131D00931F801B910B02C08EEF9FEF0F900F90DB
S1131D10DF91CF911F910F9108954EE0D5CF089593
S1131D20DC01E0E0F0E09B012F773078332334F4DA
S1131D302150310920683F6F2F5F3F4FAB0177235C
S1131D4014F441585F4FBA01660F672F661F770B73
S1131D501616170624F4319620682D93E4CFDC017F
S1131D60AE0FBF1F2C93CF01019608959C012F5FE6
S1131D703F4F2038310514F402960895211530445C
S1131D8014F40396089504960895FC01A081B1818A
S1131D906C93808191810196808391830895FC01E5
S1131DA0A081B181CB01772314F481509F4F9C9380
S1131DB0A081B181CD0101968083918370787723CE
S1131DC02CF4615071097F6F6F5F7F4F11966C9394
S1131DD0808191810196808391830895EF92FF928F
S1131DE00F931F93CF93DF938C017B01EB01099039
S1131DF00020E9F72197C61BD70BBE01D0DFAE0147
S1131E00B701F801808191810E94961CF8018081BC
S1131E109181C80FD91FC083D183DF91CF911F91C6
S1131E200F91FF90EF900895EF92FF920F931F93FD
S1131E30CF93DF9300D000D0CDB7DEB77C012983E8
S1131E403A834B835C836D837E830B811C811016E4
S1131E50110694F4B801A3DF6D817E81A801F70116
S1131E60808191810E94961CF70180819181080FE5
S1131E70191F008311830AC069817A816115710574
S1131E8011F0ACDF03C060E070E089DF2696CDBFBF
S1131E90DEBFDF91CF911F910F91FF90EF900895D6
S1131EA0CF93DF9300D000D0CDB7DEB749835A83F8
S1131EB06B837C838D839E83A981BA81109749F0BB
S1131EC0FD0101900020E9F73197CF018A1B9B0B9C
S1131ED002C08B819C812696CDBFDEBFDF91CF915E
S1131EE00895EF92FF920F931F93CF93DF9300D047
S1131EF000D0CDB7DEB77C01F42FE52F862F972FC6
S1131F00422F532F6F2F7E2FCBDF0296800F911F0E
S1131F101E141F040CF402962696CDBFDEBFDF917B
S1131F20CF911F910F91FF90EF9008952F923F92C0
S1131F304F925F926F927F928F929F92AF92BF92D5
S1131F40CF92DF92EF92FF920F931F93CF93DF9381
S1131F50CDB7DEB72A97CDBFDEBF2C011B01498761
S1131F6039010A87282D8B82392D9C824A2DAD8216
S1131F705B2DBE826C2DCF827D2DD886CAA0DBA0BE
S1131F8089839A838601C301ACDF8C01EFDE2816B6
S1131F903906BCF160E3898580FB63F9862D837083
S1131FA0880F697F682B8A8580FB60F9CE010196D2
S1131FB0ECDEB80189819A81B3DE29813A81820FEE
S1131FC0931F89839A832B813C814D815E816F812C
S1131FD07885CE01019628DF1614170424F4B7017E
S1131FE0CE010196DCDEA60168A179A189819A81DE
S1131FF00E94961C89819A818C0D9D1D84199509D6
S113200002C08EEF9FEF2A96CDBFDEBFDF91CF9146
S11320101F910F91FF90EF90DF90CF90BF90AF9002
S11320209F908F907F906F905F904F903F902F90F4
S113203008958FEF809370008093710080937200F5
S1132040809373008093740080937500809376006E
S113205081E0809343000895CF93DF931F92CDB71F
S1132060DEB79FB79983F8949981E82FF0E0E0599F
S1132070FF4F60958081682360839FBF0F90DF913D
S1132080CF910895CF93DF931F92CDB7DEB79FB75B
S11320909983F8949981E82FF0E0E059FF4F80810B
S11320A0682B60839FBF0F90DF91CF910895CF93EA
S11320B0DF93FC0120E030E0C62FD0E0DE01022EE9
S11320C002C0B595A7950A94E2F7A0FD508B2F5F47
S11320D03F4F31962830310589F740FF0AC041FF50
S11320E003C0FC01658302C0FC016683FC016183BB
S11320F002C0FC016283DF91CF91089543E050E078
S113210068E080EC97E0D3DF40E058E164E080ECE5
S113211097E0CDDF43E050E068E080E896E0C7DF79
S113212040E050E064E080E896E0C1DF43E050E046
S113213068E080E496E0BBDF40E050E064E080E4E7
S113214096E0B5CF08954091CA01E62FF72F80930A
S1132150CA0184914093CA010895FC01918195FFBD
S1132160FDCF608380E090E008954F925F926F927C
S11321707F928F929F92AF92BF92EF92FF920F93B2
S11321801F93CF937C014A015B0128013901FC01B3
S1132190848182FF16C0D901C801689412F8B695EB
S11321A0A795979587951694D1F7B901A801032EA1
S11321B036E176956795579547953A95D1F7302D41
S11321C015C0D901C801689413F8B695A7959795D9
S11321D087951694D1F7B901A801032E37E17695B6
S11321E06795579547953A95D1F7302D88159905F8
S11321F0AA05BB0508F4A6C084169506A606B7066C
S113220008F4A2C0F701848182FD04C0880C991CE3
S1132210AA1CBB1CC301B201A50194010E94B61BF8
S11322202F3F31054105510508F490C08FEF90E030
S1132230A0E0B0E0C9EF05C0281739074A075B07DB
S113224058F0880F991FAA1FBB1FCD3F0CF4816063
S1132250CF5FC73089F74FC0CC230CF04CC0D501F9
S1132260C401880F991FAA1FBB1F880F991FAA1F9B
S1132270BB1F880F991FAA1FBB1F481A590A6A0A55
S11322807B0ACE3FF4F48DEF9FEF8C1B9109C7FDC1
S1132290939504C0440C551C661C771C8A95D2F790
S11322A0D501C401B695A79597958795BC01CD0135
S11322B0640D751D861D971DA50194010E94B61B12
S11322C037C083E08C0FA501940104C0220F331F93
S11322D0441F551F8A95D2F7DA01C901B695A7950F
S11322E097958795BC01CD01640D751D861D971DBD
S11322F00E94B61B1DC083E08C0FA501940104C08D
S1132300220F331F441F551F8A95D2F7DA01C901E2
S1132310B695A79597958795BC01CD01640D751D5C
S1132320861D971D0E94B61B215031094109510990
S1132330832F8F70C295C07FC82BF701C783268374
S113234081E018C080E016C080E014C0D501C4014B
S1132350880F991FAA1FBB1F880F991FAA1FBB1F95
S1132360880F991FAA1FBB1F481A590A6A0A7B0AB9
S1132370C9EF89CFCF911F910F91FF90EF90BF903C
S1132380AF909F908F907F906F905F904F90089543
S11323900F931F93CF93DF93EC018B01009709F404
S11323A036C1803C910521F460E180E055DE2FC107
S11323B0C03484E0D80721F468E080E04DDE27C112
S11323C0C115E4E0DE0721F464E080E045DE1FC1CE
S11323D0C038F1E0DF0721F462E080E03DDE17C1A0
S11323E0C11581E0D80721F461E080E035DE0FC13A
S11323F0C038E3E0DE0721F461E081E02DDE07C1AF
S1132400C039F3E0DF0721F461E082E025DEFFC09C
S1132410C11582E0D80721F462E081E01DDEF7C037
S1132420C034E2E0DE0721F462E082E015DEEFC0B2
S1132430C115F3E0DF0721F464E081E00DDEE7C0BD
S1132440C03283E0D80721F464E082E005DEDFC017
S1132450C115E8E0DE0721F461E083E0FDDDD7C0CB
S1132460C115F9E0DF0721F461E084E0F5DDCFC0B8
S1132470C1158AE0D80721F461E085E0EDDDC7C02D
S1132480C115EBE0DE0721F461E086E0E5DDBFC0C5
S1132490C034F8E0DF0721F462E083E0DDDDB7C09B
S11324A0C03489E0D80721F462E084E0D5DDAFC010
S11324B0C034EAE0DE0721F462E085E0CDDDA7C0A8
S11324C0C034FBE0DF0721F462E086E0C5DD9FC095
S11324D0C03988E0D80721F464E083E0BDDD97C00B
S11324E0C039E9E0DE0721F464E084E0B5DD8FC0A3
S11324F0C039FAE0DF0721F464E085E0ADDD87C090
S1132500C0398BE0D80721F464E086E0A5DD7FC004
S1132510C03CE8E0DE0721F468E083E09DDD77C09D
S1132520C03CF9E0DF0721F468E084E095DD6FC08A
S1132530C03C8AE0D80721F468E085E08DDD67C0FF
S1132540C03CEBE0DE0721F468E086E085DD5FC097
S1132550C03AF8E0DF0721F460E183E07DDD57C095
S1132560C03A89E0D80721F460E184E075DD4FC00A
S1132570C03AEAE0DE0721F460E185E06DDD47C0A2
S1132580C03AFBE0DF0721F460E186E065DD3FC08F
S1132590C03B88E0D80721F460E283E05DDD37C00A
S11325A0C03BE9E0DE0721F460E284E055DD2FC0A2
S11325B0C03BFAE0DF0721F460E285E04DDD27C08F
S11325C0C03B8BE0D80721F460E286E045DD1FC004
S11325D0C038E4E0DE0721F460E483E03DDD17C0A9
S11325E0C039F4E0DF0721F460E484E035DD0FC096
S11325F0C03A84E0D80721F460E485E02DDD07C00B
S1132600C03BE4E0DE0719F460E486E025DD8D815B
S11326108F738D83F80195818481892B9681911123
S113262098E0892B8D83F801408151816281738107
S113263000E814E82EE130E0CE0197DD9C8198603B
S11326409C839C8190619C83DF91CF911F910F911A
S1132650089504C0615071098109910961157105DA
S113266081059105B9F708950F931F93CF93DF93D5
S1132670EB016881662339F08C012196C8016DDD78
S113268069916111FBCFDF91CF911F910F91089553
S1132690FC0188EE93E0689FA001699F500D789F2C
S11326A0500D112460E070E081818823CCF081E03A
S11326B0411551056105710509F480E0882381F015
S11326C04150510961097109918199234CF091E0BC
S11326D0411551056105710509F490E09111F0CFA0
S11326E0452B462B472B19F481E080935C22808193
S11326F00895AF92BF92CF92DF92EF92FF920F9321
S11327001F93CF93DF93E0ECF7E09481977F94835A
S1132710882309F44EC028EE33E0829FA001839FF2
S1132720500D1124952F990F990B6894AA24A7F89A
S11327300F2EF4E8BF2EF02D0F2EFEE1CF2EF02D3C
S1132740D12CE12CF12C00E010E0242F352F492F5F
S1132750592F692F792F892F0E94D81B0F2EF6E04D
S1132760AF2EF02DB12CC12C0E942B1C29513C4FB3
S11327704F4F5F4F6F4F7F4F8F4F9F4F44D720E096
S113278030E04AE754E49DD609D7022F132FD42F03
S1132790C52F622F712F8D2F9C2F5BDFE0ECF7E0AC
S11327A0848188608483602F712F8D2F9C2F51DF4B
S11327B00FC061E070E080E090E04BDFE0ECF7E018
S11327C084818860848361E070E080E090E041DF90
S11327D0DF91CF911F910F91FF90EF90DF90CF90F9
S11327E0BF90AF9008958F929F92BF92CF92DF9245
S11327F0EF92FF920F931F93CF93DF93CDB7DEB782
S1132800C456D109CDBFDEBF7C0110925C229091E9
S11328105C22911169C16B01BB24B39400E0802E4A
S1132820912CB601C70134DFA82FE1E0F0E0EC0FF2
S1132830FD1FE80DF91D8083FE01E80DF91D40819F
S1132840EBEFFFEFEC0FFD1FE80DF91D3081ECEF0E
S1132850FFEFEC0FFD1FE80DF91D21E09081943589
S113286009F020E0EDEFFFEFEC0FFD1FE80DF91D7F
S11328707081EEEFFFEFEC0FFD1FE80DF91D608195
S1132880EFEFFFEFEC0FFD1FE80DF91D508111E094
S1132890E7EFFFEFEC0FFD1FE80DF91D9081913577
S11328A009F010E0E8EFFFEFEC0FFD1FE80DF91D54
S11328B091E0E081EE3409F090E09123E9EFFFEF3D
S11328C0EC0FFD1FE80DF91D11E0E081E33509F07F
S11328D010E09123EAEFFFEFEC0FFD1FE80DF91D67
S11328E0B1E0E081E43509F0B0E0B92391E031349E
S11328F009F090E09B239223F1E0753509F0F0E0B4
S1132900E92FEF23F1E0633509F0F0E0FE23E1E085
S11329105A3309F0E0E0EF2351F091E0403209F03E
S113292090E0992321F080538A3008F4B82E81E096
S1132930333509F080E0282331E0A03209F030E09B
S1132940232331E0713409F030E0822F832391E0B6
S1132950643509F090E0982381E0553409F080E073
S1132960892309F49CC081E04A3309F080E088237C
S113297009F495C00F5F74C0B601C70189DEE1E0B8
S1132980F0E0EC0FFD1FE80DF91D80830F5F202F91
S113299030E0FE01E20FF31F7081E1E0F0E0EC0FA4
S11329A0FD1FE20FF31F6081EBEFFFEFEC0FFD1F44
S11329B0E20FF31F91E08081873409F090E081E019
S11329C0ECEFFFEFEC0FFD1FE20FF31F40814035EA
S11329D009F080E0892351E0643509F050E0982F34
S11329E0952341E0EDEFFFEFEC0FFD1FE20FF31F26
S11329F08081823509F040E0892F842391E0EEEF55
S1132A00FFEFEC0FFD1FE20FF31F4081433509F088
S1132A1090E09823EFEFFFEFEC0FFD1FE20FF31FA1
S1132A2081E02081213409F080E0892349F081E0AC
S1132A30733409F080E0882319F06894BB24B2F859
S1132A4081E07F3409F080E0882351F081E06B3429
S1132A5009F080E0882321F00F2EF9E0BF2EF02D3D
S1132A6080915C22802E912C91E0811190E081E094
S1132A70043608F080E0892369F081E0E1E0F0E0C9
S1132A80EC0FFD1FE80DF91D90819D3009F480E0E5
S1132A90811172CF1FEF100F81E02BDE01C0102FC8
S1132AA001E0010F90915C2281E0911180E0882384
S1132AB031F081E0043608F080E08111B0CE0023CB
S1132AC0A9F0CE0101967C01012F10E00F5F1F4F8A
S1132AD0080F191FF70161917F0180EA9AE03DDB3D
S1132AE00E151F05B9F702C0BB24B3948B2DCC5926
S1132AF0DF4FCDBFDEBFDF91CF911F910F91FF90CC
S1132B00EF90DF90CF90BF909F908F9008950F9398
S1132B101F93CF93DF931F92CDB7DEB78C0164E090
S1132B2080E09ADAE0E0F4E00287138710861186E9
S1132B30809164228F3F09F4FFCF8FB78983F89483
S1132B409981E1E6F2E283818F5F83839FBFE0E0B6
S1132B50F4E082818160828387E080830F90DF913B
S1132B60CF911F910F9108954F925F926F927F9230
S1132B708F929F92AF92BF92CF92DF92EF92FF9289
S1132B800F931F93CF93DF93CDB7DEB7CF5FD109F8
S1132B90CDBFDEBFF82EE92E81E3E2E1F0E2DE01F3
S1132BA0119601900D928A95E1F7C450DF4F188277
S1132BB01982CC5FD040C250DF4F18821982CE5F99
S1132BC0D040EF2DF92FDF010D900020E9F7119788
S1132BD08D010E1B1F0B8FE490E28887998784E197
S1132BE090E08E879F8781E0888B8DE591E28EA3AC
S1132BF09FA38CA79DA784E08F83AE014F5F5F4F97
S1132C0068EC70E0CE01C2960E949B0D3C0186E503
S1132C1090E2C650DF4F88839983CA5FD0400F2E5D
S1132C20F8EC4F2E512CF02DB201661977091F9341
S1132C300F93EF92FF92C650DF4F8880CA5FD04057
S1132C40C550DF4F9880CB5FD040C450DF4FA88081
S1132C50CC5FD040C350DF4FB880CD5FD040C2506E
S1132C60DF4FC880CE5FD040C150DF4FD880CF5FE8
S1132C70D040E12CF12C00E020E030E040E082E3A1
S1132C8090E08C0F9D1F860D971D50D9680E791EFC
S1132C90B2016619770982E390E08C0F9D1F860DBF
S1132CA0971D3BD8860D971D0F900F900F900F9096
S1132CB0181619067CF48E010E5C1F4F7801E80E7D
S1132CC0F91EF80161918F0180EA98E046DA0E1549
S1132CD01F05B9F76FEA70E280EA98E03EDA80E017
S1132CE090E0C150DF4FCDBFDEBFDF91CF911F9188
S1132CF00F91FF90EF90DF90CF90BF90AF909F9097
S1132D008F907F906F905F904F900895CF92DF9255
S1132D10EF92FF920F931F93CF93DF931F92CDB740
S1132D20DEB7282F0DB71EB790E0880F991F4DB757
S1132D305EB7481B590B4DBF5EBFADB7BEB711960A
S1132D402223F9F0C12CD12C760130E0E0E0F2E04E
S1132D5081E09FB79983F89449819081946090832E
S1132D604FBF968190FFFDCF868344A155A14D931B
S1132D705D93C40ED51EE11CF11C3F5F2313E9CF04
S1132D8003C0C12CD12C760130E040E050E0C701F3
S1132D90B601ECD4C9010DBF1EBF0F90DF91CF91D6
S1132DA01F910F91FF90EF90DF90CF9008950F93B4
S1132DB01F93CF93DF938B01A9DFEC01DF938F93F4
S1132DC08BE690E29F938F9380EF91E29F938F9392
S1132DD0EBD560EF71E280EA9AE046DCF80180818D
S1132DE091819E01281B390BC901B901992324F44F
S1132DF066277727621B730BF801248135813323FF
S1132E001CF431952195310941E00F900F900F90FA
S1132E100F900F900F90261737070CF040E04423D3
S1132E2061F021E0F80146855785452B09F420E03F
S1132E30222319F0F80184839583F801C083D18398
S1132E4080859185C817D90710F4C087D187F80108
S1132E50828593858C179D0710F4C287D387CE0192
S1132E60DF91CF911F910F910895FC01108211827F
S1132E701282138214821582168217828FEF9FEFBB
S1132E808087918712861386168617860895E0E850
S1132E90F6E080818064808380818F7780830895C9
S1132EA0CF93DF93C0E8D6E08C818F7B8C836EE474
S1132EB071E080E090E0CDDB8C8180648C8366E3FC
S1132EC072E880E090E0C5DB8C818F7B8C836BEAB9
S1132ED071E184E090E0BDDB66ED78E082E090E0B3
S1132EE0B8DB8C8180648C83DF91CF910895CF937C
S1132EF0DF93C0E8D6E08C818F7B8C8366E176E13A
S1132F0085E090E0A6DB8C8180648C8366E176E1C9
S1132F1085E090E09EDB8C818F7B8C83DF91CF9169
S1132F2008950F931F93CF938C016EE670E280EAAD
S1132F3098E09ADB6CEB72E080EA98E054DCC82FEE
S1132F4060E3680F80EA9AE008D966E176E185E0FB
S1132F5090E07FDBC111E9CF6BE770E280EA98E093
S1132F6083DB6CEB72E080EA98E03DDC69E870E2B8
S1132F7080EA98E079DB6CEB72E080EA98E033DC7D
S1132F8061EB70E280EA98E06FDB6CEB72E080EA60
S1132F9098E029DC6DEB70E280EA98E065DB6CEB8D
S1132FA072E080EA98E01FDC6AEC70E280EA98E064
S1132FB05BDB6CEB72E080EA98E015DC68ED70E2B4
S1132FC080EA98E051DB6CEB72E080EA98E00BDC7D
S1132FD065EE70E280EA98E047DB6CEB72E080EA31
S1132FE098E001DC60EF70E280EA98E03DDB60E4A9
S1132FF07CE980EA98E0F7DB6AEF70E280EA98E027
S113300033DB6CEB72E080EA98E0EDDB65EE70E2B6
S113301080EA98E029DB6CEB72E080EA98E0E3DB7D
S1133020C82F66E176E185E090E013DBC43071F7E8
S113303066E071E280EA98E017DB60E47CE980EA0C
S113304098E0D1DB69E271E280EA98E00DDB6CEB99
S113305072E080EA98E0C7DB65EE70E280EA98E00F
S113306003DB6CEB72E080EA98E0BDDBC82F66E11D
S113307076E185E090E0EDDAC93071F766E371E25C
S113308080EA98E0F1DA6CEB72E080EA98E0ABDB7E
S1133090C8016ADD61EA76E881E090E0DADA61E4A9
S11330A071E280EA98E0E0DA6CEB72E080EA98E0A2
S11330B09ADB63E471E280EA98E0D6DA6CEB72E0C2
S11330C080EA98E090DB6FE471E280EA98E0CCDA81
S11330D060E47CE980EA98E086DBCF911F910F9150
S11330E008950F931F93CF93DF93EC014AE067E5B4
S11330F072E28E819F8135D44AE062E572E288856E
S113310099852FD44AE06DE472E28A859B8529D49F
S11331104AE068E472E28C819D8123D4188219828A
S11331201A821B821C821D821E821F8218861986A7
S11331301A861B8681E18093472240E16FE372E2A5
S113314081E190E00ED486E08093462240E16CE376
S113315072E286E090E005D487E08093452240E166
S113316069E372E287E090E0FCD38DE0809344222F
S113317040E166E372E28DE090E0F3D38091432274
S11331808F5F8093432240E163E372E290E0E9D3EE
S11331901092422240E160E372E280E090E0E1D3E9
S11331A067E572E280EF91E2D5D3C0EFD1E2FE0190
S11331B001900020E9F731970CE210E000831183BD
S11331C062E572E2CE01BBD3FE0101900020E9F773
S11331D03197008311836DE472E2CE01B0D3FE0116
S11331E001900020E9F731970083118368E472E2CB
S11331F0CE01A5D36BE571E280EA9AE035DA688105
S1133200662349F0C1EFD1E280EA9AE00E94AD1052
S113321069916111F9CF80EF91E283DE6BE571E290
S113322080EA9AE021DADF91CF911F910F910895FE
S11332301F920F920FB60F92112408B60F9218BE68
S113324009B60F9219BE0AB60F921ABE0BB60F92A8
S11332501BBE2F933F934F935F936F937F938F93F3
S11332609F93AF93BF93CF93DF93EF93FF93F89420
S1133270809111208130C1F46BE672E289E097DD20
S113328040915D2250915E2260915F227091602294
S1133290480F591F611D711D40935D2250935E229A
S11332A060935F2270936022EBE6F2E22685378515
S11332B02F5F3F4F2687378780910D2090910E20F6
S11332C060910F20709110203DD262177307E0F4D3
S11332D0EF0140E050E060915D2270915E228091A8
S11332E05F229091602242D22E833F8310925D220E
S11332F010925E2210925F22109260221E861F8618
S113330084E08093112004C0809111208430A9F4BA
S1133310C7DDE0E8F6E080858823ECF7E0ECF7E031
S11333208481886084838BE692E2DBDE8BE692E222
S11333309CDDDDDD81E08093112010920804109261
S113334009047894FF91EF91DF91CF91BF91AF91F0
S11333509F918F917F916F915F914F913F912F91A9
S11333600F900BBE0F900ABE0F9009BE0F9008BEBF
S11333700F900FBE0F901F901895CF93DF93CDB78A
S1133380DEB72B97CDBFDEBFF8940E947E1087E096
S11333908093A2000E941910E0ECF7E0808188601D
S11333A08083848188608483BE016F5F7F4F80E067
S11333B092E00E94E303AE01485F5F4F61E080E06A
S11333C092E00E9467049A818B818F7880618B835D
S11333D0892F817E8A831C8282E08D8381E08887A5
S11333E01986BE016F5F7F4F80E092E00E947903EF
S11333F0AE01485F5F4F61E080E092E00E941C04F0
S113340080E092E00E94650166E070E280EA9AE062
S11334100E94C81166E070E280EA98E00E94C81138
S113342064E083E00E942C1064E085E00E942C108C
S11334302EDD80918806882334F459DDE0E8F6E037
S113344080858823ECF378948BE692E20EDDE0E746
S1133450F0E080818B7F8083E1E6F2E210821182CA
S113346012821382148281E0858380910F209091CF
S113347010204DDB41E652E228E430E0F894DA0112
S11334808C91811109C0A2E6B2E2E0E0EF5F8D9178
S11334908823E1F3E11102C07894F0CFD9018C9133
S11334A0F0E0E150F04E817F9081892B8C938C91D8
S11334B081608C9378948895F90180818E7F8083D4
S11334C0DDCF0CD005C1FDD040F0F4D030F021F4B4
S11334D05F3F19F0D6C051112FC1D9C00AD198F35A
S11334E09923C9F35523B1F3951B550BBB27AA2781
S11334F062177307840738F09F5F5F4F220F331FF3
S1133500441FAA1FA9F333D00E2E3AF0E0E830D0BE
S113351091505040E695001CCAF729D0FE2F27D0C1
S1133520660F771F881FBB1F261737074807AB078F
S1133530B0E809F0BB0B802DBF01FF2793585F4F04
S11335402AF09E3F510568F09CC0F6C05F3FECF343
S1133550983EDCF3869577956795B795F7959F5FC9
S1133560C9F7880F911D9695879597F90895E1E01D
S1133570660F771F881FBB1F621773078407BA077C
S113358020F0621B730B840BBA0BEE1F88F7E095D7
S11335900895BEE304D008F490E80895BFE3222719
S11335A03327A901AED058F19F5740F1B91738F12C
S11335B0BFE3B91B9927B8503AF4660F771F881FE9
S11335C0991FB395D2F316C0B8504AF0232F342F65
S11335D0452F562F672F782F8827B850BAF7B85F32
S11335E049F086957795679557954795379527952B
S11335F0BA95B9F70EF44ED088940895889460E093
S113360070E0CB010895E894F92F96EBFF2381F045
S1133610121613061406440B9395F6958795779521
S1133620679557954040FF23B9F71BC09927089524
S1133630882351F49850D2F7872B762F652F542F77
S1133640432F322F20E0B1F3121613061406440B55
S113365088233AF09A95440F551F661F771F881FD9
S1133660CAF755234AF4440F551F11F460FF04C0F0
S11336706F5F7F4F8F4F9F4F880F9695879597F970
S1133680089597F99F6780E870E060E008959FEFE0
S113369080EC08959095809570956095509540952F
S11336A0309521953F4F4F4F5F4F6F4F7F4F8F4F57
S11336B09F4F089500240A94161617061806090643
S11336C0089500240A941216130614060506089594
S11336D0092E0394000C11F4882352F0BB0F40F41C
S11336E0BF2B11F460FF04C06F5F7F4F8F4F9F4F5C
S11336F0089557FD9058440F551F59F05F3F71F0DE
S11337004795880F97FB991F61F09F3F79F0879544
S11337100895121613061406551FF2CF4695F1DFCD
S113372008C0161617061806991FF1CF869571055D
S1133730610508940895E894BB2766277727CB0191
S113374097F90895AA1BBB1B51E107C0AA1FBB1F11
S1133750A617B70710F0A61BB70B881F991F5A9519
S1133760A9F780959095BC01CD010895A1E21A2E88
S1133770AA1BBB1BFD010DC0AA1FBB1FEE1FFF1F11
S1133780A217B307E407F50720F0A21BB30BE40B61
S1133790F50B661F771F881F991F1A9469F76095A8
S11337A07095809590959B01AC01BD01CF01089562
S11337B0DF93CF931F930F939A9DF02D219FF00DCC
S11337C08B9DF00D8A9DE02DF10D039FF00D029F5E
S11337D0E00DF11D4E9DE00DF11D5E9DF00D4F9D20
S11337E0F00D7F936F93BF92AF925F934F93D50188
S11337F08ED08B01AC01D7018AD0EB01E80FF91F01
S1133800D6011FD02F913F91D60181D0C60FD71F6B
S1133810E81FF91FAF91BF9114D02F913F9177D03A
S1133820C60FD71FE81FF91FD60171D0E60FF71F87
S11338309801BE01CF0111240F911F91CF91DF9107
S1133840089565D0460F571FC81FD91F08F4319635
S11338500895689401C0E8948F929F92CF93DF9368
S113386005D0DF91CF919F908F900895882499245B
S1133870F401E401B0E49F93AA279A158B049C04F5
S1133880ED05FE05CF05D007A10798F4AD2FDC2F79
S1133890CF2FFE2FE92D982C892E982F872F762F46
S11338A0652F542F432F322F2227B85031F7BF9161
S11338B027C01B2EBF91BB27220F331F441F551F48
S11338C0661F771F881F991F881C991CEE1FFF1FF6
S11338D0CC1FDD1FAA1FBB1F8A149B04EC05FD052A
S11338E0CE05DF05A007B10748F08A189B08EC094C
S11338F0FD09CE09DF09A00BB10B21601A94E1F692
S11339002EF49401AF01BE01CD01000C0895A29FD5
S1133910B001B39FC001A39F700D811D1124911D9F
S1133920B29F700D811D1124911D0895FB01DC01CE
S113393002C001900D9241505040D8F70895FB0108
S1133940DC010D900020E9F7119701900D92002001
S1133950E1F70895FB01DC0101900D920020E1F7ED
S11339600895BB274A3031F4992322F4BDE290959F
S113397081959F4F01C0BB27FB015527AA27880FBC
S1133980991FAA1FA41710F0A41B83955051B9F7CF
S1133990A05DAA3308F0A95DA193009779F7B1114E
S11339A0B1931192CB0135C20F931F93CF93DF9341
S11339B0CDB7DEB72E97CDBFDEBF0E891F8986E057
S11339C08C8309831A838FEF9FE78D839E83AE01D7
S11339D0465E5F4F688D798DCE0101960DD0EF81E3
S11339E0F885E00FF11F10822E96CDBFDEBFDF9168
S11339F0CF911F910F9108952F923F924F925F9212
S1133A006F927F928F929F92AF92BF92CF92DF92EA
S1133A10EF92FF920F931F93CF93DF93CDB7DEB74F
S1133A202B97CDBFDEBF6C017B018A01FC0116829E
S1133A301782838181FFBFC1CE0101963C01F6014B
S1133A409381F70193FD859193FF81917F018823F1
S1133A5009F4ADC1853239F493FD859193FF8191C9
S1133A607F01853221F4B60190E0E3D1E8CF912CB7
S1133A70212C312CFFE1F315D8F08B3279F038F496
S1133A80803279F08332A1F4232D20611DC08D3260
S1133A9061F0803369F4232D216016C0832D826088
S1133AA0382EE32DE4603E2E2AC0F32DF8601DC0AD
S1133AB037FC2DC020ED280F2A3040F08E32B9F4A7
S1133AC036FC75C1232D2064322E19C036FE06C083
S1133AD08AE0989E200D1124922E11C0EAE02E9EB9
S1133AE0200D1124222EF32DF0623F2E08C08C36B7
S1133AF021F4832D8068382E02C0883641F4F70102
S1133B0093FD859193FF81917F018111B3CF982F0C
S1133B109F7D9554933028F40C5F1F4F9FE3998346
S1133B200DC0833631F0833771F0833509F055C009
S1133B3020C0F801808189830E5F1F4F88248394FD
S1133B40912C530112C02801F2E04F0E511CF801D0
S1133B50A080B18036FE03C0692D70E002C06FEF13
S1133B607FEFC5014BD14C018201F32DFF773F2E2E
S1133B7015C0280122E0420E511CF801A080B1803A
S1133B8036FE03C0692D70E002C06FEF7FEFC50100
S1133B902AD14C01F32DF0683F2E820133FC19C069
S1133BA0822D90E088169906A0F4B60180E290E098
S1133BB040D12A94F5CFF50137FC859137FE8191E8
S1133BC05F01B60190E035D121102A9421E0821AD8
S1133BD091088114910479F7E1C0843611F0893693
S1133BE039F5F80137FE07C06081718182819381C4
S1133BF00C5F1F4F08C060817181072E000C880B79
S1133C00990B0E5F1F4FF32DFF763F2E97FF09C0D0
S1133C1090958095709561957F4F8F4F9F4FF06879
S1133C203F2E2AE030E0A30140D1882E861844C0FC
S1133C30853731F4232D2F7EB22E2AE030E025C0C3
S1133C40932D997FB92E8F36C1F018F4883579F009
S1133C50AEC0803719F0883721F0A9C0E92FE061A0
S1133C60BE2EB4FE0DC0FB2DF460BF2E09C034FE81
S1133C700AC0292F2660B22E06C028E030E005C015
S1133C8020E130E002C020E132E0F801B7FE07C0D5
S1133C9060817181828193810C5F1F4F06C06081B6
S1133CA0718180E090E00E5F1F4FA301FED0882E4B
S1133CB08618FB2DFF773F2E36FE0DC0232D2E7F59
S1133CC0A22E891458F434FE0BC032FC09C0832D93
S1133CD08E7EA82E05C0B82CA32C03C0B82C01C01E
S1133CE0B92CA4FE0FC0FE01E80DF11D80818033C4
S1133CF021F49A2D997EA92E09C0A2FE06C0B39480
S1133D00B39404C08A2D867809F0B394A3FC10C040
S1133D10A0FE06C0B21480F4280C922C9B180DC08F
S1133D20B21458F4B60180E290E083D0B394F8CF93
S1133D30B21418F42B1802C0982C212CA4FE0FC026
S1133D40B60180E390E075D0A2FE16C0A1FC03C0CA
S1133D5088E790E002C088E590E0B6010CC08A2DA7
S1133D60867851F0A1FE02C08BE201C080E2A7FC7C
S1133D708DE2B60190E05DD0891430F4B60180E3A1
S1133D8090E057D09A94F8CF8A94F301E80DF11D8E
S1133D908081B60190E04DD08110F6CF222009F445
S1133DA04ECEB60180E290E044D02A94F7CFF601DB
S1133DB08681978102C08FEF9FEF2B96CDBFDEBF28
S1133DC0DF91CF911F910F91FF90EF90DF90CF90F3
S1133DD0BF90AF909F908F907F906F905F904F9027
S1133DE03F902F900895FC010590615070400110A0
S1133DF0D8F7809590958E0F9F1F0895FC01615010
S1133E00704001900110D8F7809590958E0F9F1FF8
S1133E100895DC01FC01672F71917723E1F7329754
S1133E2004C07C916D9370836291AE17BF07C8F391
S1133E3008950F931F93CF93DF93FB01238121FDFB
S1133E4003C08FEF9FEF2CC022FF16C0468157811D
S1133E50248135814217530744F4A081B1819D0127
S1133E602F5F3F4F208331838C93268137812F5FCF
S1133E703F4F2683378314C08B01EC01FB01008480
S1133E80F185E02D1995892BE1F6D80116968D91CF
S1133E909C911797019616968D939C931797CE0134
S1133EA0DF91CF911F910F910895FA01AA2728302D
S1133EB051F1203181F1E8946F936E7F6E5F7F4FF3
S1133EC08F4F9F4FAF4FB1E03ED0B4E03CD0670F6F
S1133ED0781F891F9A1FA11D680F791F8A1F911DC2
S1133EE0A11D6A0F711D811D911DA11D20D009F412
S1133EF068943F912AE0269F11243019305D319354
S1133F00DEF6CF010895462F4770405D4193B3E03C
S1133F100FD0C9F7F6CF462F4F70405D4A3318F0E3
S1133F20495D31FD4052419302D0A9F7EACFB4E094
S1133F30A6959795879577956795BA95C9F700974C
S1133F406105710508959B01AC010A2E06945795ED
S1133F50479537952795BA95C9F7620F731F841F44
S10D3F60951FA01D0895F894FFCFEB
S1133F6A000E060C0400004B00000300012C01059E
S1133F7A00014D5154430000040000000000003CBD
S1133F8A0001004D515457000000000000000000D9
S1133F9A0000000000000000000000000000000013
S1133FAA0000004D515454004D514973647000533C
S1133FBA494D39303000686F6D652F6761726465E9
S1133FCA6E2F666F756E7461696E002564004154C4
S1133FDA2B514E5354415455530D0041542B5149BE
S1133FEA4647434E543D300D0041542B51494353E7
S1133FFA47503D312C2261706E312E6C696C6C65B0
S113400A62616B6B2E636F6D222C22222C22220D8D
S113401A0041542B51494D55583D300D0041542B04
S113402A51494D4F44453D300D0041542B514944AB
S113403A4E5349503D300D0041542B514952454786
S113404A4150500D0041542B5149535441540D00D1
S113405A41542B51494143540D0041542B51494C6D
S113406A4F4349500D0041542B51494F50454E3D41
S113407A22544350222C2231302E31382E302E3302
S113408A39222C313838330D0041542B51495352BB
S113409A56433D310D0041542B514953454E440D6D
S11340AA001A0041542B5149434C4F53450D0041CA
S11340BA542B514944454143540D000D0A004154BF
S11340CA2B43495053544152543D00544350002207
S11340DA2C220031302E31382E302E33390031382B
S11340EA38330041542B435354543D0061706E31AC
S11340FA2E6C696C6C6562616B6B2E636F6D00006C
S9030000FC
