:10000000FDC0000021C100001FC100001DC1000093
:100010001BC1000019C1000017C1000015C100007C
:1000200013C1000011C100000C94AC090DC1000007
:100030000BC1000009C100000C94770905C1000044
:1000400003C1000001C10000FFC00000FDC00000AE
:10005000FBC00000F9C00000F7C00000F5C00000C0
:10006000F3C00000F1C00000EFC00000EDC00000D0
:10007000EBC00000E9C00000E7C00000E5C00000E0
:10008000E3C00000E1C00000DFC00000DDC00000F0
:10009000DBC00000D9C00000D7C0000032C20000A1
:1000A0006DC20000A8C20000E3C20000CDC0000085
:1000B000CBC00000C9C00000C7C00000C5C0000020
:1000C000C3C00000C1C00000BFC00000BDC0000030
:1000D000BBC00000B9C00000B7C00000B5C0000040
:1000E000B3C00000B1C00000AFC00000ADC0000050
:1000F000ABC00000A9C00000A7C00000A5C0000060
:10010000A3C00000A1C000009FC000009DC000006F
:100110009BC0000099C0000097C00000FEC0000016
:1001200039C1000074C10000AFC100008DC00000E3
:100130008BC0000089C0000087C0000085C000009F
:1001400083C0000081C000007FC000007DC00000AF
:100150007BC0000079C0000077C0000075C00000BF
:1001600073C0000071C000006FC000006DC00000CF
:100170006BC0000069C0000067C0000065C00000DF
:1001800063C0000061C000005FC000005DC00000EF
:100190005BC0000059C0000057C0000055C00000FF
:1001A00053C0000051C000004FC000004DC000000F
:1001B0004BC0000049C0000047C0000045C000001F
:1001C00043C0000041C000003FC000003DC000002F
:1001D0003BC0000039C0000037C0000035C000003F
:1001E00033C0000031C000002FC000002DC000004F
:1001F0002BC0000029C0000027C0000011241FBE32
:10020000CFEFCDBFDFE3DEBF00E00CBF18BE19BEED
:100210001ABE1BBE10E2A0E0B0E2EAEEFBE100E095
:100220000BBF02C007900D92A039B107D9F71BBED2
:1002300021E2A0E9B0E201C01D92A532B207E1F7C8
:100240000E943C0A0C94F30DDBCE811522E092074C
:1002500061F48091912091E0980F90939120811109
:1002600012C062E081E089C308958034924059F45D
:100270008091902091E0980F90939020811103C07D
:1002800062E082E07AC30895811522E0920759F472
:1002900080919120815080939120811111C062E062
:1002A00081E081C308958034924051F48091902080
:1002B000815080939020811103C062E082E073C37B
:1002C0000895EF92FF921F93CF93DF931F921F9297
:1002D000CDB7DEB77C018FB78983F8941981C70148
:1002E000B4DFF7018081816080831FBF809104218A
:1002F0008F3F09F4FFCF8FB78A83F8949A81E3E0A8
:10030000F1E281818F5F81839FBF0F900F90DF911A
:10031000CF911F91FF90EF9008951F920F920FB60B
:100320000F92112408B60F9218BE09B60F9219BE8B
:100330000BB60F921BBE2F933F934F935F936F9318
:100340007F938F939F93AF93BF93EF93FF934091CE
:10035000240250912502E0910B21F0910C2161E0E3
:1003600080E092E01995FF91EF91BF91AF919F913D
:100370008F917F916F915F914F913F912F910F904E
:100380000BBE0F9009BE0F9008BE0F900FBE0F90CE
:100390001F9018951F920F920FB60F92112408B656
:1003A0000F9218BE09B60F9219BE0BB60F921BBE64
:1003B0002F933F934F935F936F937F938F939F936D
:1003C000AF93BF93EF93FF9340912C0250912D0276
:1003D000E0910B21F0910C2162E080E092E0199510
:1003E000FF91EF91BF91AF919F918F917F916F910D
:1003F0005F914F913F912F910F900BBE0F9009BECF
:100400000F9008BE0F900FBE0F901F9018951F926F
:100410000F920FB60F92112408B60F9218BE09B6AC
:100420000F9219BE0BB60F921BBE2F933F934F93A3
:100430005F936F937F938F939F93AF93BF93EF934C
:10044000FF934091340250913502E0910B21F091DD
:100450000C2164E080E092E01995FF91EF91BF914B
:10046000AF919F918F917F916F915F914F913F914C
:100470002F910F900BBE0F9009BE0F9008BE0F90EA
:100480000FBE0F901F9018951F920F920FB60F92EC
:10049000112408B60F9218BE09B60F9219BE0BB6FA
:1004A0000F921BBE2F933F934F935F936F937F9356
:1004B0008F939F93AF93BF93EF93FF9340913C0231
:1004C00050913D02E0910B21F0910C2168E080E019
:1004D00092E01995FF91EF91BF91AF919F918F910C
:1004E0007F916F915F914F913F912F910F900BBE34
:1004F0000F9009BE0F9008BE0F900FBE0F901F9077
:1005000018951F920F920FB60F92112408B60F92F2
:1005100018BE09B60F9219BE0BB60F921BBE2F93D1
:100520003F934F935F936F937F938F939F93AF937B
:10053000BF93EF93FF934091640250916502E09165
:100540000921F0910A2161E080E492E01995FF9180
:10055000EF91BF91AF919F918F917F916F915F913B
:100560004F913F912F910F900BBE0F9009BE0F90AE
:1005700008BE0F900FBE0F901F9018951F920F92FC
:100580000FB60F92112408B60F9218BE09B60F923B
:1005900019BE0BB60F921BBE2F933F934F935F93E1
:1005A0006F937F938F939F93AF93BF93EF93FF933B
:1005B00040916C0250916D02E0910921F0910A2165
:1005C00062E080E492E01995FF91EF91BF91AF91C5
:1005D0009F918F917F916F915F914F913F912F915B
:1005E0000F900BBE0F9009BE0F9008BE0F900FBE6C
:1005F0000F901F9018951F920F920FB60F92112413
:1006000008B60F9218BE09B60F9219BE0BB60F921C
:100610001BBE2F933F934F935F936F937F938F9363
:100620009F93AF93BF93EF93FF93409174025091C8
:100630007502E0910921F0910A2164E080E492E0E2
:100640001995FF91EF91BF91AF919F918F917F91FC
:100650006F915F914F913F912F910F900BBE0F9033
:1006600009BE0F9008BE0F900FBE0F901F901895F7
:100670001F920F920FB60F92112408B60F9218BE58
:1006800009B60F9219BE0BB60F921BBE2F933F9364
:100690004F935F936F937F938F939F93AF93BF938A
:1006A000EF93FF9340917C0250917D02E0910921EC
:1006B000F0910A2168E080E492E01995FF91EF91B2
:1006C000BF91AF919F918F917F916F915F914F916A
:1006D0003F912F910F900BBE0F9009BE0F9008BE57
:1006E0000F900FBE0F901F901895BF92CF92DF9280
:1006F000EF92FF920F931F93CF93DF931F92CDB78B
:10070000DEB78C017B01811522E0920771F461E272
:1007100070E082E0A9D1C82ED12C60E270E082E0C6
:10072000A3D1DC2CCC24C82A10C080349240C1F55F
:1007300065E270E082E098D1C82ED12C64E270E0CE
:1007400082E092D1DC2CCC24C82A8FB78983F8941C
:10075000B980C8017ADDF801808192E09083C48677
:10076000D586F70125813681F801208F318FF70179
:100770009281F8019283F7019481F8019483F70143
:100780009381F8019383F7019181F801918381703E
:10079000F7019081892BF8018083C80175DDBFBE08
:1007A0000F90DF91CF911F910F91FF90EF90DF900D
:1007B000CF90BF900895DF92EF92FF920F931F9317
:1007C000CF93DF931F92CDB7DEB78C017B018FB73C
:1007D0008983F894D980C80138DDF8018081807C54
:1007E000F7018083F801808D918DF70185839683D1
:1007F000F8018281F7018283F8018481F701848303
:10080000F8018381F7018383F8018181F7018183F6
:10081000C8013ADDDFBE0F90DF91CF911F910F919C
:10082000FF90EF90DF900895AF92BF92CF92DF924A
:10083000EF92FF920F931F93CF93DF931F92CDB749
:10084000DEB76C01B62E7A01862F837029F4962FBD
:100850009695969582E002C0962F80E090FF8F5F7C
:100860008601005E1F4F98E0899F000D111D112425
:100870008FB78983F894A980C601E7DCF7018081EE
:10088000F8018083F7018281F8018283F701818179
:10089000F8018183B0FE04C0F7018381F8018683EB
:1008A000C601F2DCAFBE0F90DF91CF911F910F9187
:1008B000FF90EF90DF90CF90BF90AF900895AF92F0
:1008C000BF92CF92DF92EF92FF920F931F93CF933D
:1008D000DF931F92CDB7DEB76C01B62E7A01862F5B
:1008E000837029F4962F9695969582E002C0962FF4
:1008F00080E090FF8F5F8601005E1F4F98E0899F28
:10090000000D111D11248FB78983F894A980C601A9
:100910009CDCF8018081F7018083F8018281F70176
:100920008283F8018181F7018183B0FE04C0F80160
:100930008681F7018383C601A7DCAFBE0F90DF91EC
:10094000CF911F910F91FF90EF90DF90CF90BF90CC
:10095000AF9008958FEF8093700080937100809323
:10096000720080937300809374008093750080936D
:10097000760081E0809343000895CF93DF931F9228
:10098000CDB7DEB79FB79983F8949981E82FF0E04F
:10099000E059FF4F60958081682360839FBF0F906F
:1009A000DF91CF910895CF93DF931F92CDB7DEB73C
:1009B0009FB79983F8949981E82FF0E0E059FF4FB1
:1009C0008081682B60839FBF0F90DF91CF91089546
:1009D000CF93DF93FC0120E030E0C62FD0E0DE01B2
:1009E000022E02C0B595A7950A94E2F7A0FD508BA0
:1009F0002F5F3F4F31962830310589F740FF0AC0FD
:100A000041FF03C0FC01658302C0FC016683FC0159
:100A1000618302C0FC016283DF91CF91089543E0BE
:100A200050E068E080EC97E0D3DF40E058E164E01C
:100A300080EC97E0CDDF43E050E068E080E896E0AE
:100A4000C7DF40E050E064E080E896E0C1DF43E0CB
:100A500050E068E080E496E0BBDF40E050E064E016
:100A600080E496E0B5CF08954091CA01E62FF72FB4
:100A70008093CA0184914093CA010895FC01918139
:100A800095FFFDCF608380E090E008954F925F92E4
:100A90006F927F928F929F92AF92BF92EF92FF924E
:100AA0000F931F93CF937C014A015B012801390109
:100AB000FC01848182FF16C0D901C801689412F834
:100AC000B695A795979587951694D1F7B901A80182
:100AD000032E36E176956795579547953A95D1F768
:100AE000302D15C0D901C801689413F8B695A795A3
:100AF000979587951694D1F7B901A801032E37E190
:100B000076956795579547953A95D1F7302D881585
:100B10009905AA05BB0508F4A2C084169506A60689
:100B2000B70608F49EC0F701848182FD04C0880CDA
:100B3000991CAA1CBB1CC301B201A50194011DD5BF
:100B40002F3F31054105510508F48DC08FEF90E02E
:100B5000A0E0B0E0C9EF05C0281739074A075B07D6
:100B600058F0880F991FAA1FBB1FCD3F0CF481605E
:100B7000CF5FC73089F74DC0CC230CF04AC0D501F8
:100B8000C401880F991FAA1FBB1F880F991FAA1F96
:100B9000BB1F880F991FAA1FBB1F481A590A6A0A50
:100BA0007B0ACE3FECF48DEF9FEF8C1B9109C7FDC4
:100BB000939504C0440C551C661C771C8A95D2F78B
:100BC000D501C401B695A79597958795BC01CD0130
:100BD000640D751D861D971DA5019401CED435C0E9
:100BE00083E08C0FA501940104C0220F331F441F22
:100BF000551F8A95D2F7DA01C901B695A795979541
:100C00008795BC01CD01640D751D861D971DB5D45A
:100C10001CC083E08C0FA501940104C0220F331F78
:100C2000441F551F8A95D2F7DA01C901B695A795D9
:100C300097958795BC01CD01640D751D861D971D87
:100C40009CD42150310941095109832F8F70C295DD
:100C5000C07FC82BF701C783268381E018C080E0DE
:100C600016C080E014C0D501C401880F991FAA1FC7
:100C7000BB1F880F991FAA1FBB1F880F991FAA1F90
:100C8000BB1F481A590A6A0A7B0AC9EF8CCFCF9159
:100C90001F910F91FF90EF90BF90AF909F908F901A
:100CA0007F906F905F904F9008950F931F93CF9315
:100CB000DF93EC018B01009709F436C1803C91056C
:100CC00021F460E180E059DE2FC1C03484E0D80710
:100CD00021F468E080E051DE27C1C115E4E0DE07C1
:100CE00021F464E080E049DE1FC1C038F1E0DF0795
:100CF00021F462E080E041DE17C1C11581E0D80730
:100D000021F461E080E039DE0FC1C038E3E0DE07A6
:100D100021F461E081E031DE07C1C039F3E0DF0793
:100D200021F461E082E029DEFFC0C11582E0D8072E
:100D300021F462E081E021DEF7C0C034E2E0DE07AA
:100D400021F462E082E019DEEFC0C115F3E0DF07B5
:100D500021F464E081E011DEE7C0C03283E0D8070F
:100D600021F464E082E009DEDFC0C115E8E0DE07BF
:100D700021F461E083E001DED7C0C115F9E0DF07AF
:100D800021F461E084E0F9DDCFC0C1158AE0D80725
:100D900021F461E085E0F1DDC7C0C115EBE0DE07BD
:100DA00021F461E086E0E9DDBFC0C034F8E0DF0790
:100DB00021F462E083E0E1DDB7C0C03489E0D80708
:100DC00021F462E084E0D9DDAFC0C034EAE0DE07A0
:100DD00021F462E085E0D1DDA7C0C034FBE0DF078D
:100DE00021F462E086E0C9DD9FC0C03988E0D80701
:100DF00021F464E083E0C1DD97C0C039E9E0DE079B
:100E000021F464E084E0B9DD8FC0C039FAE0DF0787
:100E100021F464E085E0B1DD87C0C0398BE0D807FC
:100E200021F464E086E0A9DD7FC0C03CE8E0DE0795
:100E300021F468E083E0A1DD77C0C03CF9E0DF0782
:100E400021F468E084E099DD6FC0C03C8AE0D807F7
:100E500021F468E085E091DD67C0C03CEBE0DE078F
:100E600021F468E086E089DD5FC0C03AF8E0DF0782
:100E700021F460E183E081DD57C0C03A89E0D80702
:100E800021F460E184E079DD4FC0C03AEAE0DE079A
:100E900021F460E185E071DD47C0C03AFBE0DF0787
:100EA00021F460E186E069DD3FC0C03B88E0D807FF
:100EB00021F460E283E061DD37C0C03BE9E0DE079A
:100EC00021F460E284E059DD2FC0C03BFAE0DF0787
:100ED00021F460E285E051DD27C0C03B8BE0D807FC
:100EE00021F460E286E049DD1FC0C038E4E0DE079F
:100EF00021F460E483E041DD17C0C039F4E0DF078E
:100F000021F460E484E039DD0FC0C03A84E0D80702
:100F100021F460E485E031DD07C0C03BE4E0DE079A
:100F200019F460E486E029DD8D818F738D83F801EB
:100F300095818481892B9681911198E0892B8D83ED
:100F4000F801408151816281738100E814E82EE14B
:100F500030E0CE019BDD9C8198609C839C819061F8
:100F60009C83DF91CF911F910F9108950F931F9351
:100F7000CF93DF93EB016881662339F08C012196D2
:100F8000C8017CDD69916111FBCFDF91CF911F9189
:100F90000F9108950F931F93CF93DF931F92CDB7B7
:100FA000DEB78C0164E080E0E8DCE0E0F4E002879A
:100FB000138710861186809106218F3F09F4FFCF99
:100FC0008FB78983F8949981E3E0F1E283818F5FA1
:100FD00083839FBFE0E0F4E082818160828387E0C9
:100FE00080830F90DF91CF911F910F910895F89416
:100FF000E0E0F8E08485816084870895E0E0F8E02F
:1010000086818160868387E080838181818380E41B
:101010009FE186A397A30895CF92DF92EF92FF926C
:101020000F931F93CF93DF931F92CDB7DEB7282F77
:101030000DB71EB790E0880F991F4DB75EB7481BDC
:10104000590B4DBF5EBFADB7BEB711962223F9F065
:10105000C12CD12C760130E0E0E0F2E081E09FB7D6
:101060009983F89449819081946090834FBF9681D1
:1010700090FFFDCF868344A155A14D935D93C40E8F
:10108000D51EE11CF11C3F5F2313E9CF03C0C12C27
:10109000D12C760130E040E050E0C701B6016DD2BE
:1010A000C9010DBF1EBF0F90DF91CF911F910F910E
:1010B000FF90EF90DF90CF9008950F931F93CF9301
:1010C000DF938B01A9DFEC01DF938F938CE490E237
:1010D0009F938F9382E990E29F938F93A5D262E9C9
:1010E00070E280EA9AE042DFF801808191819E01FE
:1010F000281B390BC901B901992324F466277727E6
:10110000621B730BF8012481358133231CF4319564
:101110002195310941E00F900F900F900F900F90A3
:101120000F90261737070CF040E0442361F021E0D0
:10113000F80146855785452B09F420E0222319F054
:10114000F80184839583F801C083D18380859185DC
:10115000C817D90710F4C087D187F8018285938515
:101160008C179D0710F4C287D387CE01DF91CF91F2
:101170001F910F9108950F931F93CF93DF93EC016D
:101180004AE069EF70E28E819F812BD24AE064EFE2
:1011900070E28885998525D24AE06FEE70E28A85F3
:1011A0009B851FD24AE06AEE70E28C819D8119D244
:1011B000188219821A821B821C821D821E821F8243
:1011C000188619861A861B8681E18093E92040E102
:1011D00061EE70E281E190E004D286E08093E82045
:1011E00040E16EED70E286E090E0FBD187E0809315
:1011F000E72040E16BED70E287E090E0F2D18DE016
:101200008093E62040E168ED70E28DE090E0E9D166
:101210008091E5208F5F8093E52040E165ED70E2ED
:1012200090E0DFD11092E42040E162ED70E280E0D6
:1012300090E0D7D169EF70E282E990E2CBD1C2E9C8
:10124000D0E2FE0101900020E9F731970CE210E0B6
:101250000083118364EF70E2CE01B1D1FE010190F1
:101260000020E9F73197008311836FEE70E2CE0121
:10127000A6D1FE0101900020E9F731970083118388
:101280006AEE70E2CE019BD1FE0101900020E9F7E9
:1012900031970083118369E470E280EA9AE066DEA8
:1012A0006881662341F0C3E9D0E280EA9AE0E6DB98
:1012B00069916111FACF69E470E280EA9AE056DE42
:1012C000DF91CF911F910F910895FC01108211823F
:1012D0001282138214821582168217828FEF9FEF7B
:1012E00080879187128613861686178608951F9227
:1012F0000F920FB60F92112408B60F9218BE09B6BE
:101300000F9219BE0BB60F921BBE2F933F934F93B4
:101310005F936F937F938F939F93AF93BF93EF935D
:10132000FF9365DE81E08093FE20FF91EF91BF91F6
:10133000AF919F918F917F916F915F914F913F916D
:101340002F910F900BBE0F9009BE0F9008BE0F900B
:101350000FBE0F901F9018951F920F920FB60F920D
:10136000112408B60F9218BE09B60F9219BE0AB61C
:101370000F921ABE0BB60F921BBE2F933F934F9343
:101380005F936F937F938F939F93AF93BF93CF930D
:10139000DF93EF93FF93F89480910D208130C1F497
:1013A00063E171E289E089DE4091FF2050910021E4
:1013B0006091012170910221480F591F611D711D1B
:1013C0004093FF20509300216093012170930221EC
:1013D000E3E1F1E2268537852F5F3F4F2687378788
:1013E00025303105E0F0EF0140E050E06091FF2052
:1013F000709100218091012190910221BED02E8315
:101400003F831092FF201092002110920121109230
:1014100002211E861F8684E080930D2004C08091E7
:101420000D20843049F483E191E2A5DE83E191E26D
:101430004CDF81E080930D20109208041092090483
:101440007894FF91EF91DF91CF91BF91AF919F91F0
:101450008F917F916F915F914F913F912F910F905D
:101460000BBE0F900ABE0F9009BE0F9008BE0F90E2
:101470000FBE0F901F901895CF93DF93CDB7DEB7B7
:101480002B97CDBFDEBFF894CADA11E01093A2000B
:1014900061DAE0ECF7E08081886080838481886095
:1014A0008483BE016F5F7F4F80E092E084D9AE01FC
:1014B000485F5F4F61E080E092E001DA9A818B81C2
:1014C0008F7880618B83892F817E8A831C8282E062
:1014D0008D8318871986BE016F5F7F4F80E092E091
:1014E00004D9AE01485F5F4F61E080E092E09CD993
:1014F00080E092E00E94610166E070E280EA9AE09A
:10150000D4DB66E070E280EA98E0CFDB77DD83E150
:1015100091E2DBDEE3E0F1E21082118212821382BB
:101520001482158385E090E035DD789443E051E244
:1015300028E430E0F894DA018C91811109C0A4E02C
:10154000B1E2E0E0EF5F8D918823E1F3E11102C0A9
:101550007894F0CFD9018C91F0E0E150F04E817F8A
:101560009081892B8C938C9181608C937894889551
:10157000F90180818E7F8083DDCFA1E21A2EAA1B24
:10158000BB1BFD010DC0AA1FBB1FEE1FFF1FA21733
:10159000B307E407F50720F0A21BB30BE40BF50B30
:1015A000661F771F881F991F1A9469F760957095B9
:1015B000809590959B01AC01BD01CF010895FB0181
:1015C000DC010D900020E9F7119701900D920020A9
:1015D000E1F70895FB01DC0101900D920020E1F795
:1015E0000895BB274A3031F4992322F4BDE2909547
:1015F00081959F4F01C0BB27FB015527AA27880F64
:10160000991FAA1FA41710F0A41B83955051B9F776
:10161000A05DAA3308F0A95DA193009779F7B111F5
:10162000B1931192CB0135C20F931F93CF93DF93E8
:10163000CDB7DEB72E97CDBFDEBF0E891F8986E0FE
:101640008C8309831A838FEF9FE78D839E83AE017E
:10165000465E5F4F688D798DCE0101960DD0EF818A
:10166000F885E00FF11F10822E96CDBFDEBFDF910F
:10167000CF911F910F9108952F923F924F925F92B9
:101680006F927F928F929F92AF92BF92CF92DF9292
:10169000EF92FF920F931F93CF93DF93CDB7DEB7F7
:1016A0002B97CDBFDEBF6C017B018A01FC01168246
:1016B0001782838181FFBFC1CE0101963C01F601F3
:1016C0009381F70193FD859193FF81917F01882399
:1016D00009F4ADC1853239F493FD859193FF819171
:1016E0007F01853221F4B60190E0E3D1E8CF912C5F
:1016F000212C312CFFE1F315D8F08B3279F038F43E
:10170000803279F08332A1F4232D20611DC08D3207
:1017100061F0803369F4232D216016C0832D82602F
:10172000382EE32DE4603E2E2AC0F32DF8601DC054
:1017300037FC2DC020ED280F2A3040F08E32B9F44E
:1017400036FC75C1232D2064322E19C036FE06C02A
:101750008AE0989E200D1124922E11C0EAE02E9E60
:10176000200D1124222EF32DF0623F2E08C08C365E
:1017700021F4832D8068382E02C0883641F4F701A9
:1017800093FD859193FF81917F018111B3CF982FB4
:101790009F7D9554933028F40C5F1F4F9FE39983EE
:1017A0000DC0833631F0833771F0833509F055C0B1
:1017B00020C0F801808189830E5F1F4F88248394A5
:1017C000912C530112C02801F2E04F0E511CF80178
:1017D000A080B18036FE03C0692D70E002C06FEFBB
:1017E0007FEFC5014BD14C018201F32DFF773F2ED6
:1017F00015C0280122E0420E511CF801A080B180E2
:1018000036FE03C0692D70E002C06FEF7FEFC501A7
:101810002AD14C01F32DF0683F2E820133FC19C010
:10182000822D90E088169906A0F4B60180E290E03F
:1018300040D12A94F5CFF50137FC859137FE81918F
:101840005F01B60190E035D121102A9421E0821A7F
:1018500091088114910479F7E1C0843611F089363A
:1018600039F5F80137FE07C060817181828193816B
:101870000C5F1F4F08C060817181072E000C880B20
:10188000990B0E5F1F4FF32DFF763F2E97FF09C078
:1018900090958095709561957F4F8F4F9F4FF06821
:1018A0003F2E2AE030E0A30140D1882E861844C0A4
:1018B000853731F4232D2F7EB22E2AE030E025C06B
:1018C000932D997FB92E8F36C1F018F4883579F0B1
:1018D000AEC0803719F0883721F0A9C0E92FE06148
:1018E000BE2EB4FE0DC0FB2DF460BF2E09C034FE29
:1018F0000AC0292F2660B22E06C028E030E005C0BD
:1019000020E130E002C020E132E0F801B7FE07C07C
:1019100060817181828193810C5F1F4F06C060815D
:10192000718180E090E00E5F1F4FA301FED0882EF2
:101930008618FB2DFF773F2E36FE0DC0232D2E7F00
:10194000A22E891458F434FE0BC032FC09C0832D3A
:101950008E7EA82E05C0B82CA32C03C0B82C01C0C5
:10196000B92CA4FE0FC0FE01E80DF11D808180336B
:1019700021F49A2D997EA92E09C0A2FE06C0B39427
:10198000B39404C08A2D867809F0B394A3FC10C0E8
:10199000A0FE06C0B21480F4280C922C9B180DC037
:1019A000B21458F4B60180E290E083D0B394F8CF3B
:1019B000B21418F42B1802C0982C212CA4FE0FC0CE
:1019C000B60180E390E075D0A2FE16C0A1FC03C072
:1019D00088E790E002C088E590E0B6010CC08A2D4F
:1019E000867851F0A1FE02C08BE201C080E2A7FC24
:1019F0008DE2B60190E05DD0891430F4B60180E349
:101A000090E057D09A94F8CF8A94F301E80DF11D35
:101A10008081B60190E04DD08110F6CF222009F4EC
:101A20004ECEB60180E290E044D02A94F7CFF60182
:101A30008681978102C08FEF9FEF2B96CDBFDEBFCF
:101A4000DF91CF911F910F91FF90EF90DF90CF909A
:101A5000BF90AF909F908F907F906F905F904F90CE
:101A60003F902F900895FC01059061507040011047
:101A7000D8F7809590958E0F9F1F0895FC016150B7
:101A8000704001900110D8F7809590958E0F9F1FA0
:101A90000895DC01FC01672F71917723E1F73297FC
:101AA00004C07C916D9370836291AE17BF07C8F339
:101AB00008950F931F93CF93DF93FB01238121FDA3
:101AC00003C08FEF9FEF2CC022FF16C046815781C5
:101AD000248135814217530744F4A081B1819D01CF
:101AE0002F5F3F4F208331838C93268137812F5F77
:101AF0003F4F2683378314C08B01EC01FB01008428
:101B0000F185E02D1995892BE1F6D80116968D9176
:101B10009C911797019616968D939C931797CE01DB
:101B2000DF91CF911F910F910895FA01AA272830D4
:101B300051F1203181F1E8946F936E7F6E5F7F4F9A
:101B40008F4F9F4FAF4FB1E03ED0B4E03CD0670F16
:101B5000781F891F9A1FA11D680F791F8A1F911D69
:101B6000A11D6A0F711D811D911DA11D20D009F4B9
:101B700068943F912AE0269F11243019305D3193FB
:101B8000DEF6CF010895462F4770405D4193B3E0E4
:101B90000FD0C9F7F6CF462F4F70405D4A3318F08B
:101BA000495D31FD4052419302D0A9F7EACFB4E03C
:101BB000A6959795879577956795BA95C9F70097F4
:101BC0006105710508959B01AC010A2E0694579595
:101BD000479537952795BA95C9F7620F731F841FEC
:0A1BE000951FA01D0895F894FFCF93
:101BEA00000E060C0400004B0000030001010D006A
:101BFA0053494D39303000686F6D652F67617264E3
:101C0A00656E2F666F756E7461696E000D0A5354A6
:101C1A00415455532041543A20000D0A54494D4528
:101C2A004F5554204552524F520D0A002564004127
:101C3A00542B43495053544152543D00544350008D
:101C4A00222C220031302E31382E302E33390031F9
:101C5A003838330041542B435354543D0061706E5D
:101C6A00312E6C696C6C6562616B6B2E636F6D00F3
:00000001FF
