:100000004AC100006EC100006CC100006AC100005E
:1000100068C1000066C1000064C1000062C1000048
:1000200060C100005EC100000C9476185AC1000047
:1000300058C1000056C1000054C10000E0C40000D7
:1000400016C500004CC5000082C50000B8C5000000
:10005000EEC5000024C600005AC6000090C600008D
:1000600040C100000C9426183CC100003AC10000B9
:1000700038C1000036C1000034C1000032C10000A8
:1000800030C100002EC100002CC100002AC10000B8
:1000900028C1000026C1000024C1000083C2000066
:1000A000BEC20000F9C2000034C300001AC1000043
:1000B00018C1000016C1000014C100000C942709EB
:1000C0000C945F090C9497090C94CF090C94070ABF
:1000D0000C943F0A0C94770A0C94AF0A0C94E70A2C
:1000E0000C941F0BFEC00000FCC00000FAC0000012
:1000F000F8C00000F6C00000F4C00000F2C000002C
:10010000F0C00000EEC00000ECC00000EAC000003B
:10011000E8C00000E6C00000E4C000004FC10000DD
:100120008AC10000C5C1000000C20000DAC00000A2
:10013000D8C000005CC6000092C60000C8C600001F
:10014000FEC6000034C700006AC70000A0C7000058
:10015000D6C700000C94B7080C94EF08C2C000008A
:10016000C0C00000BEC00000BCC00000BAC000009B
:10017000B8C00000B6C00000B4C00000B2C00000AB
:10018000B0C00000AEC00000ACC00000AAC00000BB
:10019000A8C00000A6C00000A4C00000A2C00000CB
:1001A000A0C000009EC000009CC000009AC00000DB
:1001B0000C94570B0C948F0B0C94C70B0C94FF0BE7
:1001C0000C94370C0C946F0C0C94A70C0C94DF0C53
:1001D0000C94170D0C944F0D84C0000082C00000D9
:1001E00080C000007EC000007CC000007AC000001B
:1001F00078C0000076C0000074C00000F218181922
:10020000671985198D199D19AD19E319ED19F019A3
:10021000F419F81907634236B79BD8A71A396856FC
:1002200018AEBAAB558C1D3CB7CC5763BD6DEDFD18
:10023000753EF6177231BF000000803F08000000D5
:10024000BE922449123EABAAAA2ABECDCCCC4C3ECB
:1002500000000080BEABAAAAAA3E00000000BF00BA
:100260000000803F0000000000084178D3BB4387B6
:10027000D1133D190E3CC3BD4282AD2B3E68EC82CA
:1002800076BED98FE1A93E4C80EFFFBE01C4FF7F4F
:100290003F000000000011241FBECFEFCDBFDFE301
:1002A000DEBF00E00CBF18BE19BE1ABE1BBE12E2B4
:1002B000A0E0B0E2E2EFF0E400E00BBF02C0079084
:1002C0000D92AC3BB107D9F71BBE25E2ACEBB2E215
:1002D00001C01D92AA34B207E1F70E943F1A0C94A4
:1002E00077208ECE811522E0920769F48091BD229D
:1002F00091E0980F9093BD22811114C062E081E0DB
:100300000C94411108958034924061F48091BC2294
:1003100091E0980F9093BC22811104C062E082E0CA
:100320000C9441110895811522E0920761F48091A7
:10033000BD2281508093BD22811113C062E081E013
:100340000C94571108958034924059F48091BC2246
:1003500081508093BC22811104C062E082E00C9441
:1003600057110895EF92FF921F93CF93DF931F923F
:100370001F92CDB7DEB77C018FB78983F8941981BE
:10038000C701B0DFF7018081816080831FBF80914A
:100390009F248F3F09F4FFCF8FB78A83F8949A8107
:1003A000EEE9F4E281818F5F81839FBF0F900F9010
:1003B000DF91CF911F91FF90EF9008951F920F92C0
:1003C0000FB60F92112408B60F9218BE09B60F92FD
:1003D00019BE0BB60F921BBE2F933F934F935F93A3
:1003E0006F937F938F939F93AF93BF93EF93FF93FD
:1003F0004091240250912502E091A624F091A72477
:1004000061E080E092E01995FF91EF91BF91AF918B
:100410009F918F917F916F915F914F913F912F911C
:100420000F900BBE0F9009BE0F9008BE0F900FBE2D
:100430000F901F9018951F920F920FB60F921124D4
:1004400008B60F9218BE09B60F9219BE0BB60F92DE
:100450001BBE2F933F934F935F936F937F938F9325
:100460009F93AF93BF93EF93FF9340912C025091D2
:100470002D02E091A624F091A72462E080E092E0B2
:100480001995FF91EF91BF91AF919F918F917F91BE
:100490006F915F914F913F912F910F900BBE0F90F5
:1004A00009BE0F9008BE0F900FBE0F901F901895B9
:1004B0001F920F920FB60F92112408B60F9218BE1A
:1004C00009B60F9219BE0BB60F921BBE2F933F9326
:1004D0004F935F936F937F938F939F93AF93BF934C
:1004E000EF93FF934091340250913502E091A6249E
:1004F000F091A72464E080E092E01995FF91EF91DC
:10050000BF91AF919F918F917F916F915F914F912B
:100510003F912F910F900BBE0F9009BE0F9008BE18
:100520000F900FBE0F901F9018951F920F920FB64D
:100530000F92112408B60F9218BE09B60F9219BE79
:100540000BB60F921BBE2F933F934F935F936F9306
:100550007F938F939F93AF93BF93EF93FF934091BC
:100560003C0250913D02E091A624F091A72468E05E
:1005700080E092E01995FF91EF91BF91AF919F912B
:100580008F917F916F915F914F913F912F910F903C
:100590000BBE0F9009BE0F9008BE0F900FBE0F90BC
:1005A0001F9018951F920F920FB60F92112408B644
:1005B0000F9218BE09B60F9219BE0BB60F921BBE52
:1005C0002F933F934F935F936F937F938F939F935B
:1005D000AF93BF93EF93FF934091640250916502F4
:1005E000E091A424F091A52461E080E492E01995C3
:1005F000FF91EF91BF91AF919F918F917F916F91FB
:100600005F914F913F912F910F900BBE0F9009BEBC
:100610000F9008BE0F900FBE0F901F9018951F925D
:100620000F920FB60F92112408B60F9218BE09B69A
:100630000F9219BE0BB60F921BBE2F933F934F9391
:100640005F936F937F938F939F93AF93BF93EF933A
:10065000FF9340916C0250916D02E091A424F091BF
:10066000A52462E080E492E01995FF91EF91BF919B
:10067000AF919F918F917F916F915F914F913F913A
:100680002F910F900BBE0F9009BE0F9008BE0F90D8
:100690000FBE0F901F9018951F920F920FB60F92DA
:1006A000112408B60F9218BE09B60F9219BE0BB6E8
:1006B0000F921BBE2F933F934F935F936F937F9344
:1006C0008F939F93AF93BF93EF93FF9340917402E7
:1006D00050917502E091A424F091A52464E080E497
:1006E00092E01995FF91EF91BF91AF919F918F91FA
:1006F0007F916F915F914F913F912F910F900BBE22
:100700000F9009BE0F9008BE0F900FBE0F901F9064
:1007100018951F920F920FB60F92112408B60F92E0
:1007200018BE09B60F9219BE0BB60F921BBE2F93BF
:100730003F934F935F936F937F938F939F93AF9369
:10074000BF93EF93FF9340917C0250917D02E09123
:10075000A424F091A52468E080E492E01995FF912B
:10076000EF91BF91AF919F918F917F916F915F9129
:100770004F913F912F910F900BBE0F9009BE0F909C
:1007800008BE0F900FBE0F901F901895BF92CF928A
:10079000DF92EF92FF920F931F93CF93DF931F92FD
:1007A000CDB7DEB78C017B01811522E0920781F481
:1007B00061E270E082E00E94B811C82ED12C60E2A4
:1007C00070E082E00E94B811DC2CCC24C82A12C050
:1007D00080349240D1F565E270E082E00E94B81169
:1007E000C82ED12C64E270E082E00E94B811DC2CAB
:1007F000CC24C82A8FB78983F894B980C80172DDE8
:10080000F801808192E09083C486D586F701258126
:100810003681F801208F318FF7019281F8019283A0
:10082000F7019481F8019483F7019381F801938390
:10083000F7019181F80191838170F7019081892BF3
:10084000F8018083C8016FDDBFBE0F90DF91CF91AB
:100850001F910F91FF90EF90DF90CF90BF90089580
:10086000DF92EF92FF920F931F93CF93DF931F922C
:10087000CDB7DEB78C017B018FB78983F894D9801F
:10088000C80130DDF8018081807CF7018083F801A8
:10089000808D918DF70185839683F8018281F70120
:1008A0008283F8018481F7018483F8018381F70151
:1008B0008383F8018181F7018183C80134DDDFBEC4
:1008C0000F90DF91CF911F910F91FF90EF90DF90EC
:1008D0000895AF92BF92CF92DF92EF92FF920F9363
:1008E0001F93CF93DF931F92CDB7DEB76C01B62E67
:1008F0007A01862F837029F4962F9695969582E03B
:1009000002C0962F80E090FF8F5F8601005E1F4F30
:1009100098E0899F000D111D11248FB78983F894E9
:10092000A980C601DFDCF7018081F8018083F7012F
:100930008281F8018283F7018181F8018183B0FE11
:1009400004C0F7018381F8018683C601ECDCAFBEE9
:100950000F90DF91CF911F910F91FF90EF90DF905B
:10096000CF90BF90AF900895AF92BF92CF92DF9299
:10097000EF92FF920F931F93CF93DF931F92CDB708
:10098000DEB76C01B62E7A01862F837029F4962F7C
:100990009695969582E002C0962F80E090FF8F5F3B
:1009A0008601005E1F4F98E0899F000D111D1124E4
:1009B0008FB78983F894A980C60194DCF8018081FF
:1009C000F7018083F8018281F7018283F801818138
:1009D000F7018183B0FE04C0F8018681F7018383AB
:1009E000C601A1DCAFBE0F90DF91CF911F910F9197
:1009F000FF90EF90DF90CF90BF90AF9008951F923F
:100A00000F920FB60F92112408B60F9218BE09B6B6
:100A10000F9219BE0BB60F921BBE2F933F934F93AD
:100A20005F936F937F938F939F93AF93BF93EF9356
:100A3000FF93E0910A23F0910B23309709F0199569
:100A4000FF91EF91BF91AF919F918F917F916F91A6
:100A50005F914F913F912F910F900BBE0F9009BE68
:100A60000F9008BE0F900FBE0F901F9018951F9209
:100A70000F920FB60F92112408B60F9218BE09B646
:100A80000F9219BE0BB60F921BBE2F933F934F933D
:100A90005F936F937F938F939F93AF93BF93EF93E6
:100AA000FF93E0910823F0910923309709F01995FD
:100AB000FF91EF91BF91AF919F918F917F916F9136
:100AC0005F914F913F912F910F900BBE0F9009BEF8
:100AD0000F9008BE0F900FBE0F901F9018951F9299
:100AE0000F920FB60F92112408B60F9218BE09B6D6
:100AF0000F9219BE0BB60F921BBE2F933F934F93CD
:100B00005F936F937F938F939F93AF93BF93EF9375
:100B1000FF93E0910623F0910723309709F0199590
:100B2000FF91EF91BF91AF919F918F917F916F91C5
:100B30005F914F913F912F910F900BBE0F9009BE87
:100B40000F9008BE0F900FBE0F901F9018951F9228
:100B50000F920FB60F92112408B60F9218BE09B665
:100B60000F9219BE0BB60F921BBE2F933F934F935C
:100B70005F936F937F938F939F93AF93BF93EF9305
:100B8000FF93E0910423F0910523309709F0199524
:100B9000FF91EF91BF91AF919F918F917F916F9155
:100BA0005F914F913F912F910F900BBE0F9009BE17
:100BB0000F9008BE0F900FBE0F901F9018951F92B8
:100BC0000F920FB60F92112408B60F9218BE09B6F5
:100BD0000F9219BE0BB60F921BBE2F933F934F93EC
:100BE0005F936F937F938F939F93AF93BF93EF9395
:100BF000FF93E0910223F0910323309709F01995B8
:100C0000FF91EF91BF91AF919F918F917F916F91E4
:100C10005F914F913F912F910F900BBE0F9009BEA6
:100C20000F9008BE0F900FBE0F901F9018951F9247
:100C30000F920FB60F92112408B60F9218BE09B684
:100C40000F9219BE0BB60F921BBE2F933F934F937B
:100C50005F936F937F938F939F93AF93BF93EF9324
:100C6000FF93E0910023F0910123309709F019954B
:100C7000FF91EF91BF91AF919F918F917F916F9174
:100C80005F914F913F912F910F900BBE0F9009BE36
:100C90000F9008BE0F900FBE0F901F9018951F92D7
:100CA0000F920FB60F92112408B60F9218BE09B614
:100CB0000F9219BE0BB60F921BBE2F933F934F930B
:100CC0005F936F937F938F939F93AF93BF93EF93B4
:100CD000FF93E091FE22F091FF22309709F01995E1
:100CE000FF91EF91BF91AF919F918F917F916F9104
:100CF0005F914F913F912F910F900BBE0F9009BEC6
:100D00000F9008BE0F900FBE0F901F9018951F9266
:100D10000F920FB60F92112408B60F9218BE09B6A3
:100D20000F9219BE0BB60F921BBE2F933F934F939A
:100D30005F936F937F938F939F93AF93BF93EF9343
:100D4000FF93E091FC22F091FD22309709F0199574
:100D5000FF91EF91BF91AF919F918F917F916F9193
:100D60005F914F913F912F910F900BBE0F9009BE55
:100D70000F9008BE0F900FBE0F901F9018951F92F6
:100D80000F920FB60F92112408B60F9218BE09B633
:100D90000F9219BE0BB60F921BBE2F933F934F932A
:100DA0005F936F937F938F939F93AF93BF93EF93D3
:100DB000FF93E091FA22F091FB22309709F0199508
:100DC000FF91EF91BF91AF919F918F917F916F9123
:100DD0005F914F913F912F910F900BBE0F9009BEE5
:100DE0000F9008BE0F900FBE0F901F9018951F9286
:100DF0000F920FB60F92112408B60F9218BE09B6C3
:100E00000F9219BE0BB60F921BBE2F933F934F93B9
:100E10005F936F937F938F939F93AF93BF93EF9362
:100E2000FF93E091F822F091F922309709F019959B
:100E3000FF91EF91BF91AF919F918F917F916F91B2
:100E40005F914F913F912F910F900BBE0F9009BE74
:100E50000F9008BE0F900FBE0F901F9018951F9215
:100E60000F920FB60F92112408B60F9218BE09B652
:100E70000F9219BE0BB60F921BBE2F933F934F9349
:100E80005F936F937F938F939F93AF93BF93EF93F2
:100E9000FF93E091F622F091F722309709F019952F
:100EA000FF91EF91BF91AF919F918F917F916F9142
:100EB0005F914F913F912F910F900BBE0F9009BE04
:100EC0000F9008BE0F900FBE0F901F9018951F92A5
:100ED0000F920FB60F92112408B60F9218BE09B6E2
:100EE0000F9219BE0BB60F921BBE2F933F934F93D9
:100EF0005F936F937F938F939F93AF93BF93EF9382
:100F0000FF93E091F422F091F522309709F01995C2
:100F1000FF91EF91BF91AF919F918F917F916F91D1
:100F20005F914F913F912F910F900BBE0F9009BE93
:100F30000F9008BE0F900FBE0F901F9018951F9234
:100F40000F920FB60F92112408B60F9218BE09B671
:100F50000F9219BE0BB60F921BBE2F933F934F9368
:100F60005F936F937F938F939F93AF93BF93EF9311
:100F7000FF93E091F222F091F322309709F0199556
:100F8000FF91EF91BF91AF919F918F917F916F9161
:100F90005F914F913F912F910F900BBE0F9009BE23
:100FA0000F9008BE0F900FBE0F901F9018951F92C4
:100FB0000F920FB60F92112408B60F9218BE09B601
:100FC0000F9219BE0BB60F921BBE2F933F934F93F8
:100FD0005F936F937F938F939F93AF93BF93EF93A1
:100FE000FF93E091F022F091F122309709F01995EA
:100FF000FF91EF91BF91AF919F918F917F916F91F1
:101000005F914F913F912F910F900BBE0F9009BEB2
:101010000F9008BE0F900FBE0F901F9018951F9253
:101020000F920FB60F92112408B60F9218BE09B690
:101030000F9219BE0BB60F921BBE2F933F934F9387
:101040005F936F937F938F939F93AF93BF93EF9330
:10105000FF93E091EE22F091EF22309709F019957D
:10106000FF91EF91BF91AF919F918F917F916F9180
:101070005F914F913F912F910F900BBE0F9009BE42
:101080000F9008BE0F900FBE0F901F9018951F92E3
:101090000F920FB60F92112408B60F9218BE09B620
:1010A0000F9219BE0BB60F921BBE2F933F934F9317
:1010B0005F936F937F938F939F93AF93BF93EF93C0
:1010C000FF93E091EC22F091ED22309709F0199511
:1010D000FF91EF91BF91AF919F918F917F916F9110
:1010E0005F914F913F912F910F900BBE0F9009BED2
:1010F0000F9008BE0F900FBE0F901F9018951F9273
:101100000F920FB60F92112408B60F9218BE09B6AF
:101110000F9219BE0BB60F921BBE2F933F934F93A6
:101120005F936F937F938F939F93AF93BF93EF934F
:10113000FF93E091EA22F091EB22309709F01995A4
:10114000FF91EF91BF91AF919F918F917F916F919F
:101150005F914F913F912F910F900BBE0F9009BE61
:101160000F9008BE0F900FBE0F901F9018951F9202
:101170000F920FB60F92112408B60F9218BE09B63F
:101180000F9219BE0BB60F921BBE2F933F934F9336
:101190005F936F937F938F939F93AF93BF93EF93DF
:1011A000FF93E091E822F091E922309709F0199538
:1011B000FF91EF91BF91AF919F918F917F916F912F
:1011C0005F914F913F912F910F900BBE0F9009BEF1
:1011D0000F9008BE0F900FBE0F901F9018951F9292
:1011E0000F920FB60F92112408B60F9218BE09B6CF
:1011F0000F9219BE0BB60F921BBE2F933F934F93C6
:101200005F936F937F938F939F93AF93BF93EF936E
:10121000FF93E091E622F091E722309709F01995CB
:10122000FF91EF91BF91AF919F918F917F916F91BE
:101230005F914F913F912F910F900BBE0F9009BE80
:101240000F9008BE0F900FBE0F901F9018951F9221
:101250000F920FB60F92112408B60F9218BE09B65E
:101260000F9219BE0BB60F921BBE2F933F934F9355
:101270005F936F937F938F939F93AF93BF93EF93FE
:10128000FF93E091E422F091E522309709F019955F
:10129000FF91EF91BF91AF919F918F917F916F914E
:1012A0005F914F913F912F910F900BBE0F9009BE10
:1012B0000F9008BE0F900FBE0F901F9018951F92B1
:1012C0000F920FB60F92112408B60F9218BE09B6EE
:1012D0000F9219BE0BB60F921BBE2F933F934F93E5
:1012E0005F936F937F938F939F93AF93BF93EF938E
:1012F000FF93E091E222F091E322309709F01995F3
:10130000FF91EF91BF91AF919F918F917F916F91DD
:101310005F914F913F912F910F900BBE0F9009BE9F
:101320000F9008BE0F900FBE0F901F9018951F9240
:101330000F920FB60F92112408B60F9218BE09B67D
:101340000F9219BE0BB60F921BBE2F933F934F9374
:101350005F936F937F938F939F93AF93BF93EF931D
:10136000FF93E091E022F091E122309709F0199586
:10137000FF91EF91BF91AF919F918F917F916F916D
:101380005F914F913F912F910F900BBE0F9009BE2F
:101390000F9008BE0F900FBE0F901F9018951F92D0
:1013A0000F920FB60F92112408B60F9218BE09B60D
:1013B0000F9219BE0BB60F921BBE2F933F934F9304
:1013C0005F936F937F938F939F93AF93BF93EF93AD
:1013D000FF93E091DE22F091DF22309709F019951A
:1013E000FF91EF91BF91AF919F918F917F916F91FD
:1013F0005F914F913F912F910F900BBE0F9009BEBF
:101400000F9008BE0F900FBE0F901F9018951F925F
:101410000F920FB60F92112408B60F9218BE09B69C
:101420000F9219BE0BB60F921BBE2F933F934F9393
:101430005F936F937F938F939F93AF93BF93EF933C
:10144000FF93E091DC22F091DD22309709F01995AD
:10145000FF91EF91BF91AF919F918F917F916F918C
:101460005F914F913F912F910F900BBE0F9009BE4E
:101470000F9008BE0F900FBE0F901F9018951F92EF
:101480000F920FB60F92112408B60F9218BE09B62C
:101490000F9219BE0BB60F921BBE2F933F934F9323
:1014A0005F936F937F938F939F93AF93BF93EF93CC
:1014B000FF93E091DA22F091DB22309709F0199541
:1014C000FF91EF91BF91AF919F918F917F916F911C
:1014D0005F914F913F912F910F900BBE0F9009BEDE
:1014E0000F9008BE0F900FBE0F901F9018951F927F
:1014F0000F920FB60F92112408B60F9218BE09B6BC
:101500000F9219BE0BB60F921BBE2F933F934F93B2
:101510005F936F937F938F939F93AF93BF93EF935B
:10152000FF93E091D822F091D922309709F01995D4
:10153000FF91EF91BF91AF919F918F917F916F91AB
:101540005F914F913F912F910F900BBE0F9009BE6D
:101550000F9008BE0F900FBE0F901F9018951F920E
:101560000F920FB60F92112408B60F9218BE09B64B
:101570000F9219BE0BB60F921BBE2F933F934F9342
:101580005F936F937F938F939F93AF93BF93EF93EB
:10159000FF93E091D622F091D722309709F0199568
:1015A000FF91EF91BF91AF919F918F917F916F913B
:1015B0005F914F913F912F910F900BBE0F9009BEFD
:1015C0000F9008BE0F900FBE0F901F9018951F929E
:1015D0000F920FB60F92112408B60F9218BE09B6DB
:1015E0000F9219BE0BB60F921BBE2F933F934F93D2
:1015F0005F936F937F938F939F93AF93BF93EF937B
:10160000FF93E091D422F091D522309709F01995FB
:10161000FF91EF91BF91AF919F918F917F916F91CA
:101620005F914F913F912F910F900BBE0F9009BE8C
:101630000F9008BE0F900FBE0F901F9018951F922D
:101640000F920FB60F92112408B60F9218BE09B66A
:101650000F9219BE0BB60F921BBE2F933F934F9361
:101660005F936F937F938F939F93AF93BF93EF930A
:10167000FF93E091D222F091D322309709F019958F
:10168000FF91EF91BF91AF919F918F917F916F915A
:101690005F914F913F912F910F900BBE0F9009BE1C
:1016A0000F9008BE0F900FBE0F901F9018951F92BD
:1016B0000F920FB60F92112408B60F9218BE09B6FA
:1016C0000F9219BE0BB60F921BBE2F933F934F93F1
:1016D0005F936F937F938F939F93AF93BF93EF939A
:1016E000FF93E091D022F091D122309709F0199523
:1016F000FF91EF91BF91AF919F918F917F916F91EA
:101700005F914F913F912F910F900BBE0F9009BEAB
:101710000F9008BE0F900FBE0F901F9018951F924C
:101720000F920FB60F92112408B60F9218BE09B689
:101730000F9219BE0BB60F921BBE2F933F934F9380
:101740005F936F937F938F939F93AF93BF93EF9329
:10175000FF93E091CE22F091CF22309709F01995B6
:10176000FF91EF91BF91AF919F918F917F916F9179
:101770005F914F913F912F910F900BBE0F9009BE3B
:101780000F9008BE0F900FBE0F901F9018951F92DC
:101790000F920FB60F92112408B60F9218BE09B619
:1017A0000F9219BE0BB60F921BBE2F933F934F9310
:1017B0005F936F937F938F939F93AF93BF93EF93B9
:1017C000FF93E091CC22F091CD22309709F019954A
:1017D000FF91EF91BF91AF919F918F917F916F9109
:1017E0005F914F913F912F910F900BBE0F9009BECB
:1017F0000F9008BE0F900FBE0F901F9018951F926C
:101800000F920FB60F92112408B60F9218BE09B6A8
:101810000F9219BE0BB60F921BBE2F933F934F939F
:101820005F936F937F938F939F93AF93BF93EF9348
:10183000FF93E091CA22F091CB22309709F01995DD
:10184000FF91EF91BF91AF919F918F917F916F9198
:101850005F914F913F912F910F900BBE0F9009BE5A
:101860000F9008BE0F900FBE0F901F9018951F92FB
:101870000F920FB60F92112408B60F9218BE09B638
:101880000F9219BE0BB60F921BBE2F933F934F932F
:101890005F936F937F938F939F93AF93BF93EF93D8
:1018A000FF93E091C822F091C922309709F0199571
:1018B000FF91EF91BF91AF919F918F917F916F9128
:1018C0005F914F913F912F910F900BBE0F9009BEEA
:1018D0000F9008BE0F900FBE0F901F9018951F928B
:1018E0000F920FB60F92112408B60F9218BE09B6C8
:1018F0000F9219BE0BB60F921BBE2F933F934F93BF
:101900005F936F937F938F939F93AF93BF93EF9367
:10191000FF93E091C622F091C722309709F0199504
:10192000FF91EF91BF91AF919F918F917F916F91B7
:101930005F914F913F912F910F900BBE0F9009BE79
:101940000F9008BE0F900FBE0F901F9018951F921A
:101950000F920FB60F92112408B60F9218BE09B657
:101960000F9219BE0BB60F921BBE2F933F934F934E
:101970005F936F937F938F939F93AF93BF93EF93F7
:10198000FF93E091C422F091C522309709F0199598
:10199000FF91EF91BF91AF919F918F917F916F9147
:1019A0005F914F913F912F910F900BBE0F9009BE09
:1019B0000F9008BE0F900FBE0F901F9018951F92AA
:1019C0000F920FB60F92112408B60F9218BE09B6E7
:1019D0000F9219BE0BB60F921BBE2F933F934F93DE
:1019E0005F936F937F938F939F93AF93BF93EF9387
:1019F000FF93E091C222F091C322309709F019952C
:101A0000FF91EF91BF91AF919F918F917F916F91D6
:101A10005F914F913F912F910F900BBE0F9009BE98
:101A20000F9008BE0F900FBE0F901F9018951F9239
:101A30000F920FB60F92112408B60F9218BE09B676
:101A40000F9219BE0BB60F921BBE2F933F934F936D
:101A50005F936F937F938F939F93AF93BF93EF9316
:101A6000FF93E091C022F091C122309709F01995BF
:101A7000FF91EF91BF91AF919F918F917F916F9166
:101A80005F914F913F912F910F900BBE0F9009BE28
:101A90000F9008BE0F900FBE0F901F9018951F92C9
:101AA0000F920FB60F92112408B60F9218BE09B606
:101AB0000F9219BE0BB60F921BBE2F933F934F93FD
:101AC0005F936F937F938F939F93AF93BF93EF93A6
:101AD000FF93E091BE22F091BF22309709F0199553
:101AE000FF91EF91BF91AF919F918F917F916F91F6
:101AF0005F914F913F912F910F900BBE0F9009BEB8
:101B00000F9008BE0F900FBE0F901F901895FB010D
:101B100022813381AC01421B530B9A0122F44427EA
:101B20005527421B530B6285738577231CF47195EF
:101B300061957109A1E0641775070CF0A0E0AA2374
:101B4000A1F061E0A289B389AB2B09F460E06623C0
:101B500061F0332344F49A012F3F57E0350710F02A
:101B60002FEF37E03860228733872681378182174D
:101B7000930710F4868397832085318528173907CA
:101B800010F4808791870895EF92FF920F931F932F
:101B9000CF93DF93EC018E81833029F0843031F4D0
:101BA0000AE010E005C00CE010E002C000E010E028
:101BB0004F81588569857A858B859C85FBD10296F6
:101BC000080F191F88898823A1F04F89588D698DC6
:101BD0007A8D8B8D9C8DEED17C014D8D5E8D6F8DC0
:101BE00078A189A19AA1E6D18E0D9F1D0496080FB8
:101BF000191F8DA19EA1892B21F489A59AA5892B56
:101C000051F04DA15EA16FA178A589A59AA5D2D169
:101C10000296080F191F8BA59CA5892B21F48FA56F
:101C200098A9892B51F04BA55CA56DA57EA58FA524
:101C300098A9C0D10296080F191FC801DF91CF9152
:101C40001F910F91FF90EF900895AF92BF92CF92A6
:101C5000DF92EF92FF920F931F93CF93DF931F9228
:101C60001F92CDB7DEB76C015B018A0189839A832D
:101C7000CA018ADF7C0104D1A816B9060CF49FC002
:101C800060E1CE0101960BD1B70189819A81D2D052
:101C900029813A81820F931F89839A83F801868173
:101CA000843051F460E670E2CE01019621D164E007
:101CB000CE010196F4D009C065E670E2CE0101962E
:101CC00017D163E0CE010196EAD0F12CF8018785A7
:101CD00080FBF1F881E09089911101C080E080FBE8
:101CE000F2F8F2FE0DC0F80184A18370880F880F0E
:101CF000880F9F2D977EF92EF82A83A180FBF5F897
:101D0000F80185A196A1892B21F481A592A5892BA3
:101D100011F06894F7F8F80183A594A5892B21F4B4
:101D200087A590A9892B11F06894F6F86F2DCE0144
:101D30000196B5D0F80165857685CE010196B9D0BA
:101D4000F801278130854185528563857485CE01F0
:101D50000196F4D0F8018089882399F02789308D85
:101D6000418D528D638D748DCE010196E7D0F801BF
:101D7000258D368D478D50A161A172A1CE010196AE
:101D8000DDD0EF2CFF2054F4F80125A136A147A1A6
:101D900050A561A572A5CE010196D0D0E6FE0AC07D
:101DA000F80123A534A545A556A567A570A9CE01C0
:101DB0000196C4D089819A818C199D0902C08EEF49
:101DC0009FEF0F900F90DF91CF911F910F91FF9098
:101DD000EF90DF90CF90BF90AF9008950F931F9337
:101DE000CF93DF931F921F92CDB7DEB789839A837B
:101DF000623071059CF08C01642F6295607FCE018A
:101E000001964DD060E070E089819A8113D02981DC
:101E10003A81820F931F801B910B02C08EEF9FEFC0
:101E20000F900F90DF91CF911F910F9108954EE089
:101E3000D5CF0895DC01E0E0F0E09B012F7730780A
:101E4000332334F42150310920683F6F2F5F3F4F17
:101E5000AB01772314F441585F4FBA01660F672F27
:101E6000661F770B1616170624F4319620682D93FB
:101E7000E4CFDC01AE0FBF1F2C93CF010196089574
:101E80009C012F5F3F4F2038310514F402960895CE
:101E90002115304414F40396089504960895FC0126
:101EA000A081B1816C93808191810196808391831F
:101EB0000895FC01A081B181CB01772314F48150F6
:101EC0009F4F9C93A081B181CD0101968083918326
:101ED000707877232CF4615071097F6F6F5F7F4FAB
:101EE00011966C93808191810196808391830895EE
:101EF000EF92FF920F931F93CF93DF938C017B019F
:101F0000EB0109900020E9F72197C61BD70BBE0112
:101F1000D0DFAE01B701F801808191810E94FD1FE1
:101F2000F80180819181C80FD91FC083D183DF91CF
:101F3000CF911F910F91FF90EF900895EF92FF9234
:101F40000F931F93CF93DF9300D000D0CDB7DEB7B0
:101F50007C0129833A834B835C836D837E830B8171
:101F60001C811016110694F4B801A3DF6D817E81E7
:101F7000A801F701808191810E94FD1FF7018081F6
:101F80009181080F191F008311830AC069817A812A
:101F90006115710511F0ACDF03C060E070E089DF0E
:101FA0002696CDBFDEBFDF91CF911F910F91FF909D
:101FB000EF900895CF93DF9300D000D0CDB7DEB778
:101FC00049835A836B837C838D839E83A981BA81E5
:101FD000109749F0FD0101900020E9F73197CF01FA
:101FE0008A1B9B0B02C08B819C812696CDBFDEBFD6
:101FF000DF91CF910895EF92FF920F931F93CF93AC
:10200000DF9300D000D0CDB7DEB77C01F42FE52FF1
:10201000862F972F422F532F6F2F7E2FCBDF0296C5
:10202000800F911F1E141F040CF402962696CDBF3C
:10203000DEBFDF91CF911F910F91FF90EF90089538
:102040002F923F924F925F926F927F928F929F92C8
:10205000AF92BF92CF92DF92EF92FF920F931F93B6
:10206000CF93DF93CDB7DEB72A97CDBFDEBF2C016C
:102070001B01498739010A87282D8B82392D9C82C3
:102080004A2DAD825B2DBE826C2DCF827D2DD886F0
:10209000CAA0DBA089839A838601C301ACDF8C01CF
:1020A000EFDE28163906BCF160E3898580FB63F911
:1020B000862D8370880F697F682B8A8580FB60F985
:1020C000CE010196ECDEB80189819A81B3DE2981C7
:1020D0003A81820F931F89839A832B813C814D81A2
:1020E0005E816F817885CE01019628DF1614170472
:1020F00024F4B701CE010196DCDEA60168A179A126
:1021000089819A810E94FD1F89819A818C0D9D1D74
:102110008419950902C08EEF9FEF2A96CDBFDEBFCE
:10212000DF91CF911F910F91FF90EF90DF90CF90B3
:10213000BF90AF909F908F907F906F905F904F90E7
:102140003F902F9008952F923F924F925F926F92FF
:102150007F928F929F92AF92BF92CF92DF92EF9237
:10216000FF920F931F93CF93DF93CDB7DEB7E7971F
:10217000CDBFDEBFF82EE92E1B012A0181E3EFE27D
:10218000F0E2DE01119601900D928A95E1F71CAA0A
:102190001DAA1EAA1FAAEF2DF92FDF010D90002006
:1021A000E9F711978D010E1B1F0B8CE690E28887D3
:1021B000998784E190E08E879F8781E0888B85EC0A
:1021C00091E28EA39FA38CA79DA784E08F83AE018D
:1021D0004F5F5F4FB201C10138DD3C018FE690E2F5
:1021E0008AAB9BABB201661977091F930F93EF92ED
:1021F000FF928AA89BA8ACA8BDA8CEA8DFA8E12C16
:10220000F12C00E020E030E040E0C101860D971D98
:1022100017DF680E791EB20166197709C101860DB4
:10222000971D05DE0F900F900F900F90860D971D54
:10223000E796CDBFDEBFDF91CF911F910F91FF9049
:10224000EF90DF90CF90BF90AF909F908F907F9056
:102250006F905F904F903F902F9008958FEF8093F5
:10226000700080937100809372008093730080935C
:102270007400809375008093760081E08093430022
:102280000895CF93DF931F92CDB7DEB79FB79983A1
:10229000F8949981E82FF0E0E059FF4F6095808134
:1022A000682360839FBF0F90DF91CF910895CF93F4
:1022B000DF931F92CDB7DEB79FB79983F8949981CA
:1022C000E82FF0E0E059FF4F8081682B60839FBFCB
:1022D0000F90DF91CF910895CF93DF93FC0120E021
:1022E00030E0C62FD0E0DE01022E02C0B595A795E2
:1022F0000A94E2F7A0FD508B2F5F3F4F31962830B4
:10230000310589F740FF0AC041FF03C0FC01658326
:1023100002C0FC016683FC01618302C0FC01628390
:10232000DF91CF91089543E050E068E080EC97E0C2
:10233000D3DF40E058E164E080EC97E0CDDF43E09C
:1023400050E068E080E896E0C7DF40E050E064E0FD
:1023500080E896E0C1DF43E050E068E080E496E08A
:10236000BBDF40E050E064E080E496E0B5CF089544
:102370004091CA01E62FF72F8093CA0184914093C0
:10238000CA010895FC01918195FFFDCF608380E033
:1023900090E00895FC0191819923ECF780810895E4
:1023A0004F925F926F927F928F929F92AF92BF9265
:1023B000EF92FF920F931F93CF937C014A015B0131
:1023C00028013901FC01848182FF16C0D901C801AE
:1023D000689412F8B695A795979587951694D1F7B6
:1023E000B901A801032E36E1769567955795479573
:1023F0003A95D1F7302D15C0D901C801689413F86A
:10240000B695A795979587951694D1F7B901A80128
:10241000032E37E176956795579547953A95D1F70D
:10242000302D88159905AA05BB0508F4A6C08416A9
:102430009506A606B70608F4A2C0F701848182FDBE
:1024400004C0880C991CAA1CBB1CC301B201A501C5
:1024500094010E94F71E2F3F31054105510508F4F4
:1024600090C08FEF90E0A0E0B0E0C9EF05C0281762
:1024700039074A075B0758F0880F991FAA1FBB1F2F
:10248000CD3F0CF48160CF5FC73089F74FC0CC23BC
:102490000CF04CC0D501C401880F991FAA1FBB1FA7
:1024A000880F991FAA1FBB1F880F991FAA1FBB1F48
:1024B000481A590A6A0A7B0ACE3FF4F48DEF9FEF5F
:1024C0008C1B9109C7FD939504C0440C551C661CD8
:1024D000771C8A95D2F7D501C401B695A795979533
:1024E0008795BC01CD01640D751D861D971DA50145
:1024F00094010E94F71E37C083E08C0FA501940160
:1025000004C0220F331F441F551F8A95D2F7DA01EA
:10251000C901B695A79597958795BC01CD01640D26
:10252000751D861D971D0E94F71E1DC083E08C0F30
:10253000A501940104C0220F331F441F551F8A9523
:10254000D2F7DA01C901B695A79597958795BC0191
:10255000CD01640D751D861D971D0E94F71E21502B
:10256000310941095109832F8F70C295C07FC82B53
:10257000F701C783268381E018C080E016C080E0A1
:1025800014C0D501C401880F991FAA1FBB1F880F53
:10259000991FAA1FBB1F880F991FAA1FBB1F481A8C
:1025A000590A6A0A7B0AC9EF89CFCF911F910F910F
:1025B000FF90EF90BF90AF909F908F907F906F9023
:1025C0005F904F9008950F931F93CF93DF93EC018B
:1025D0008B01009709F436C1803C910521F460E13C
:1025E00080E04FDE2FC1C03484E0D80721F468E0DA
:1025F00080E047DE27C1C115E4E0DE0721F464E096
:1026000080E03FDE1FC1C038F1E0DF0721F462E067
:1026100080E037DE17C1C11581E0D80721F461E001
:1026200080E02FDE0FC1C038E3E0DE0721F461E077
:1026300081E027DE07C1C039F3E0DF0721F461E064
:1026400082E01FDEFFC0C11582E0D80721F462E0FE
:1026500081E017DEF7C0C034E2E0DE0721F462E07B
:1026600082E00FDEEFC0C115F3E0DF0721F464E084
:1026700081E007DEE7C0C03283E0D80721F464E0E0
:1026800082E0FFDDDFC0C115E8E0DE0721F461E094
:1026900083E0F7DDD7C0C115F9E0DF0721F461E081
:1026A00084E0EFDDCFC0C1158AE0D80721F461E0F6
:1026B00085E0E7DDC7C0C115EBE0DE0721F461E08E
:1026C00086E0DFDDBFC0C034F8E0DF0721F462E060
:1026D00083E0D7DDB7C0C03489E0D80721F462E0D9
:1026E00084E0CFDDAFC0C034EAE0DE0721F462E071
:1026F00085E0C7DDA7C0C034FBE0DF0721F462E05E
:1027000086E0BFDD9FC0C03988E0D80721F464E0CF
:1027100083E0B7DD97C0C039E9E0DE0721F464E06B
:1027200084E0AFDD8FC0C039FAE0DF0721F464E058
:1027300085E0A7DD87C0C0398BE0D80721F464E0CD
:1027400086E09FDD7FC0C03CE8E0DE0721F468E062
:1027500083E097DD77C0C03CF9E0DF0721F468E053
:1027600084E08FDD6FC0C03C8AE0D80721F468E0C8
:1027700085E087DD67C0C03CEBE0DE0721F468E060
:1027800086E07FDD5FC0C03AF8E0DF0721F460E15A
:1027900083E077DD57C0C03A89E0D80721F460E1D3
:1027A00084E06FDD4FC0C03AEAE0DE0721F460E16B
:1027B00085E067DD47C0C03AFBE0DF0721F460E158
:1027C00086E05FDD3FC0C03B88E0D80721F460E2CF
:1027D00083E057DD37C0C03BE9E0DE0721F460E26B
:1027E00084E04FDD2FC0C03BFAE0DF0721F460E258
:1027F00085E047DD27C0C03B8BE0D80721F460E2CD
:1028000086E03FDD1FC0C038E4E0DE0721F460E46D
:1028100083E037DD17C0C039F4E0DF0721F460E45E
:1028200084E02FDD0FC0C03A84E0D80721F460E4D3
:1028300085E027DD07C0C03BE4E0DE0719F460E473
:1028400086E01FDD8D818F738D83F80195818481F2
:10285000892B9681911198E0892B8D83F801408115
:1028600051816281738100E814E82EE130E0CE01ED
:1028700097DD9C8198609C839C8190619C83DF9113
:10288000CF911F910F91089504C061507109810982
:1028900091096115710581059105B9F708950F93A7
:1028A0001F93CF93DF93EB016881662339F08C018E
:1028B0002196C80167DD69916111FBCFDF91CF914E
:1028C0001F910F910895AF92BF92CF92DF92EF9236
:1028D000FF920F931F93CF93DF93E0ECF7E02481F7
:1028E000277F2483009709F445C06894AA24A7F899
:1028F0000F2EF4E8BF2EF02D0F2EFEE1CF2EF02D7F
:10290000D12CE12CF12C00E010E0282F392F40E0F1
:1029100050E060E070E080E090E00E94221F0F2E07
:10292000F6E0AF2EF02DB12CC12C0E94751F29515D
:102930003C4F4F4F5F4F6F4F7F4F8F4F9F4F63D72E
:1029400020E030E04AE754E47FD6EBD6022F132F85
:10295000D42FC52F622F712F8D2F9C2F95DFE0EC88
:10296000F7E0848188608483602F712F8D2F9C2FE6
:102970008BDF0FC061E070E080E090E085DFE0EC8D
:10298000F7E084818860848361E070E080E090E01B
:102990007BDFDF91CF911F910F91FF90EF90DF9040
:1029A000CF90BF90AF9008950F931F93CF93DF9375
:1029B0001F92CDB7DEB78C0164E080E062DCE0E01E
:1029C000F4E002871387108611868091A1248F3F3F
:1029D00009F4FFCF8FB78983F8949981EEE9F4E287
:1029E00083818F5F83839FBFE0E0F4E08281816019
:1029F000828387E080830F90DF91CF911F910F91A9
:102A000008958F929F92AF92BF92CF92DF92EF92F2
:102A1000FF920F931F93CF93DF931F92CDB7DEB733
:102A2000FC010DB71EB7822F90E0880F991FADB73C
:102A3000BEB7A81BB90BADBFBEBF1196E11572E0C2
:102A4000F70751F4842F90E0880F991F880F991F82
:102A5000880F991F80932102222309F43FC0562F2B
:102A6000550F550F462F4370962F96959695411109
:102A700002C082E001C080E0382F8F5F6D017F01CE
:102A8000A0E2EA0EF11C4111962F90FD832FB8E0D1
:102A90008B9FE00CF11C1124812C912C540140E0FF
:102AA0008FB78983F89499818081852B80839FBF1C
:102AB000968196236913FCCF6683D70114968D9176
:102AC0009C911597D6018D939D936D01880E991E4B
:102AD000A11CB11C4F5F2413E3CF03C0812C912CA8
:102AE000540130E040E050E0C501B4010E94F71EFF
:102AF000C9010DBF1EBF0F90DF91CF911F910F91A4
:102B0000FF90EF90DF90CF90BF90AF909F908F900D
:102B10000895442361F0A62FB72FE82FF92F80E006
:102B20002D913D91219331938F5F4813F9CF80E030
:102B30000895E0E8F6E080818064808380818F776B
:102B400080830895E0EAF6E08081806180830895C3
:102B50000F931F93CF93DF93C0E8D6E08C818F7BD8
:102B60008C836EE471E080E090E08EDE8C81806486
:102B70008C8366E372E880E090E086DE8C818F7B58
:102B80008C836BEA71E184E090E07EDE66ED78E0B4
:102B900082E090E079DE8C8180648C838885882354
:102BA000A4F0C0E000E816E061EA76E881E090E099
:102BB0006BDECF5FF8018085882344F081E0CB3164
:102BC00008F080E08111F0CF01C0C0E081E0CB319E
:102BD00009F080E0DF91CF911F910F910895CF937D
:102BE000DF93C0E8D6E08C818F7B8C8366E176E151
:102BF00085E090E049DE8C8180648C8366E176E13B
:102C000085E090E041DE8C818F7B8C83888580E03D
:102C1000DF91CF910895662359F0FC01615070E077
:102C20006F5F7F4F860F971F1192E817F907E1F743
:102C300008952F923F924F925F926F927F928F9260
:102C40009F92AF92BF92CF92DF92EF92FF920F933B
:102C50001F93CF93DF93CDB7DEB76397CDBFDEBFB2
:102C60008A8B9B8B2E873F8719821A82FE013396AF
:102C700083E0DF011D928A95E9F7AA88BB881501D8
:102C8000B4E12B0E311C8E859F85092E000CAA0BFA
:102C9000BB0B8A879B87AC87BD87288A398A6A01E4
:102CA00068C0E92CF32C6A857B858C859D8570D561
:102CB0002B013C01B801012E000C880B990B68D543
:102CC0009B01AC01C301B20165D66E837F83888707
:102CD0009987D5016D917C9180E090E057D52E8148
:102CE0003F8148855985ACD488234CF4F601019086
:102CF0000020E9F7319780E390E0808391830150D1
:102D0000110979F692E0A90EB11C4E855F85BE01CE
:102D10006F5F7F4FD7018D919C910E943220BE0141
:102D20006F5F7F4FC6010E940620F60101900020D0
:102D3000E9F731978CE290E08083918365E0CE01E2
:102D4000019669DFA889B989AA16BB0691F41D010D
:102D50004601EA88FB88B2E2EB0EF11C0F2EF0E38D
:102D6000AF2EB12CF02D0F2EFCE2CF2ED12CF02D5A
:102D70002DC003E010E09A2C3B2C93CFF40101907E
:102D80000020E9F73197A082B182E2E02E0E311CDB
:102D90004E855F85BE016F5F7F4FD8018D919C91FD
:102DA0000E943220BE016F5F7F4FC4010E94062047
:102DB000F40101900020E9F73197C082D18265E0EB
:102DC000CE01019628DFE214F30479F08101F101CC
:102DD0006081718180E090E0D9D49B01AC01C30196
:102DE000B201D4D518168CF6C9CF80E06396CDBF5A
:102DF000DEBFDF91CF911F910F91FF90EF90DF9099
:102E0000CF90BF90AF909F908F907F906F905F908A
:102E10004F903F902F90089541E166E070E288E284
:102E200095E277DE60E88EE094E2F5DE60E08EE029
:102E300093E2F1CE0895EF92FF920F931F93CF93F9
:102E4000DF9300D0CDB7DEB719821A821B820F2E16
:102E5000FBEBEF2EF4E2FF2EF02D0AE010E0F7017D
:102E6000319780818983F70180818A83CE01019621
:102E70000E94E01FF801EE0FFF1FE85DFA4D80830E
:102E80009183F3E0EF0EF11C0F5F1F4F003111052E
:102E900031F72396CDBFDEBFDF91CF911F910F9108
:102EA000FF90EF9008950F931F93CF93DF93EC0162
:102EB0008885882309F469C010E000E060E888EAAA
:102EC00094E2A9DE109297248C819D81AE81BF810E
:102ED0008093932490939424A0939524B093962464
:102EE00010928F2410929024109291241092922488
:102EF0006881798180EA98E0D2DCE0EAF8E08381B9
:102F00008F7C8062838321C080918F249091902454
:102F1000A0919124B09192240196A11DB11D80939E
:102F20008F2490939024A0939124B093922461E0F5
:102F300070E080E090E0A8DC6A817B8188EA94E21E
:102F40000E94182001E0892B11F540918F245091A7
:102F50009024609191247091922480919324909177
:102F60009424A0919524B0919624481759076A0794
:102F70007B0750F261EA76E881E090E085DC1F5F34
:102F80008885181708F49ACF03C000E001C000E05C
:102F9000E0EAF8E083818F7C838368EA74E280EA68
:102FA0009AE07DDC802FDF91CF911F910F910895E2
:102FB0000F931F93CF93DF93C4E3D2E202EB12E2AD
:102FC000CE0171DF2996C017D107D1F782EB92E2CB
:102FD0006ADF811103C02FDF80E001C080E2DF9152
:102FE000CF911F910F91089587E092E25CDF80E11D
:102FF00092E259DF80E00895EF92FF920F931F93C2
:10300000CF937C018B0189E192E24DDF82E292E273
:103010004ADF1016110674F4C0E0F701EC0FF11D41
:10302000608180EA9AE0AED9CF5F8C2F90E0801764
:1030300091079CF364E770E280EA98E030DC80E07E
:10304000CF911F910F91FF90EF9008951F920F92D3
:103050000FB60F92112408B60F9218BE09B60F9240
:1030600019BE0AB60F921ABE0BB60F921BBE2F9353
:103070003F934F935F936F937F938F939F93AF9300
:10308000BF93CF93DF93EF93FF93C0919724D0E04A
:10309000C855DB4D80EA98E07DD9888380919724DC
:1030A0008F5F8093972410928F2410929024109217
:1030B000912410929224FF91EF91DF91CF91BF91D3
:1030C000AF919F918F917F916F915F914F913F91C0
:1030D0002F910F900BBE0F900ABE0F9009BE0F905C
:1030E00008BE0F900FBE0F901F9018951F920F9261
:1030F0000FB60F92112408B60F9218BE09B60F92A0
:1031000019BE0AB60F921ABE0BB60F921BBE2F92B3
:103110003F924F925F926F927F928F929F92AF9267
:10312000BF92CF92DF92EF92FF920F931F932F9354
:103130003F934F935F936F937F938F939F93AF933F
:10314000BF93EF93FF93CF93DF93CDB7DEB72A976B
:10315000CDBFDEBF64E080E0AAD882E390E0B3DBBD
:1031600081E080938E2480918E24813009F051C1BA
:103170000F2EFBE06F2EF02D0F2EFAE07F2EF02D9C
:103180000F2EF9E0CF2EF02D6894442443F80F2E33
:10319000F3E0DF2EF02D4E0128E0820E911C5E013F
:1031A00083E0A80EB11C0F2EF7E05F2EF02D0F2E3E
:1031B000F6E02F2EF02D0F2EF5E03F2EF02D0F2EE6
:1031C000F0EAEF2EF6E0FF2EF02D80919D2490E0A6
:1031D0008C30910508F012C1FC018827E250FF4FA6
:1031E0008F4F27C660E888EA94E215DDF7018581F4
:1031F0008061858385818F7E858368EA74E280EAB9
:103200009AE04DDBE8EAF4E220818181022E000C95
:10321000330B322F2227082E000C990B822B932B75
:10322000809338259093392581E080939C24E8C0D1
:103230002C2D40E061E080E092E0E3DB08E215E263
:10324000F8018083918321E040E161E080E492E035
:10325000D8DBF8018487958721E041E162E080E4D2
:1032600092E0CFDBF80186879787208131818091BA
:10327000982490919924A0919A24B0919B24820F34
:10328000931FA11DB11D8093982490939924A0931E
:103290009A24B0939B2480819181B8010E94870D6C
:1032A000F801808191818283938382899389019639
:1032B000828B938B82899389029720F082E080939E
:1032C0009C249EC010929C2410928E2499C008E2E7
:1032D00015E2F8012289338940E050E0609198249A
:1032E0007091992480919A2490919B2480D5F80123
:1032F00024833583109298241092992410929A2452
:1033000010929B24D0929C247BC010923A2510925C
:103310003B2584E080939C2473C01ADC813051F4F7
:10332000E8E2F5E280A191A1816080A391A370926F
:103330009C2466C030929C2463C03ADE882351F0FE
:10334000E8E2F5E280A191A1826080A391A3C092FE
:103350009C2456C020929C2453C02AE030E04EE0CA
:1033600054E261E188E295E264DC40E051E06EE025
:1033700073E28EE094E20E94A31080930C2390935A
:103380000D231E821F82F4012D2D11922A95E9F73B
:1033900019821A82F5012D2D11922A95E9F7472DF0
:1033A000BE016A5F7F4F68D6BE016A5F7F4FCE0164
:1033B000019637D6BE016F5F7F4F80EA9AE06FDAE1
:1033C00050929C241DC060910C2370910D238EE0BF
:1033D00093E212DE40929C2413C0C0929C2410C041
:1033E00003DE70929C240CC0FADB60929C2408C01F
:1033F00013DD10929C2410928E2402C060929C24B3
:1034000080919C2480939D2480918E24813009F4A6
:10341000DCCE109208041092090464E080E00E945F
:1034200041112A96CDBFDEBFDF91CF91FF91EF9181
:10343000BF91AF919F918F917F916F915F914F91CC
:103440003F912F911F910F91FF90EF90DF90CF90C0
:10345000BF90AF909F908F907F906F905F904F90B4
:103460003F902F900F900BBE0F900ABE0F9009BE99
:103470000F9008BE0F900FBE0F901F901895CF931E
:10348000DF93CDB7DEB76697CDBFDEBFF8940E945D
:10349000931187E08093A2000E942E11E0ECF7E0E8
:1034A000808188608083848188608483BE01685FB6
:1034B0007F4F80E092E00E94300499858A858F7862
:1034C00080618A87892F817E89871B8612E01C870D
:1034D000BE01685F7F4F80E092E00E94C603AE01AC
:1034E0004D5E5F4F61E080E092E00E94B40481E0B5
:1034F0008B8B1C8AAE014D5E5F4F61E080E092E0F5
:103500000E946904BE016F5F7F4F80E492E00E94D9
:1035100030049A818B818F7880618B83892F817EA3
:103520008A831C821D83BE016F5F7F4F80E492E01F
:103530000E94C603AE01415F5F4F61E080E492E00C
:103540000E94B4041F8688E0888BAE01415F5F4F04
:1035500061E080E492E00E9469041F86188AAE014F
:10356000415F5F4F62E080E492E00E94690480E086
:1035700092E00E94B20180E492E00E94B20168E20F
:1035800070E280EA9AE01FD864E085E00E94411171
:1035900068E270E280EA98E016D864E083E00E9476
:1035A000411168E270E280EA9BE00DD864E086E0B9
:1035B0000E944111C7DABDDA66E176E185E090E06C
:1035C00063D98091880688230CF409DB25DCE0E7C9
:1035D000F0E080818B7F8083EEE9F4E2108211823B
:1035E00012821382148281E0858381E090E0DCD92D
:1035F00078944EE954E228E430E0F894DA018C91B2
:10360000811109C0AFE9B4E2E0E0EF5F8D9188235A
:10361000E1F3E11102C07894F0CFD9018C91F0E090
:10362000E150F04E817F9081892B8C938C91816049
:103630008C9378948895F90180818E7F8083DDCF8B
:1036400020D108F481E008950CD066C15ED140F02D
:1036500055D130F021F45F3F19F037C1511190C1BD
:103660003AC16BD198F39923C9F35523B1F3951B54
:10367000550BBB27AA2762177307840738F09F5F93
:103680005F4F220F331F441FAA1FA9F333D00E2E02
:103690003AF0E0E830D091505040E695001CCAF76F
:1036A00029D0FE2F27D0660F771F881FBB1F261734
:1036B00037074807AB07B0E809F0BB0B802DBF0107
:1036C000FF2793585F4F2AF09E3F510568F0FDC0D9
:1036D00057C15F3FECF3983EDCF38695779567958D
:1036E000B795F7959F5FC9F7880F911D96958795B8
:1036F00097F90895E1E0660F771F881FBB1F6217D7
:1037000073078407BA0720F0621B730B840BBA0B94
:10371000EE1F88F7E0950895BEE304D008F490E822
:103720000895BFE322273327A9010FD158F19F57EE
:1037300040F1B91738F1BFE3B91B9927B8503AF4F3
:10374000660F771F881F991FB395D2F316C0B85024
:103750004AF0232F342F452F562F672F782F882795
:10376000B850BAF7B85F49F0869577956795579541
:10377000479537952795BA95B9F70EF4AFD0889449
:103780000895889460E070E0CB010895E89409C042
:1037900097FB3EF490958095709561957F4F8F4F84
:1037A0009F4F9923A9F0F92F96E9BB279395F6959A
:1037B000879577956795B795F111F8CFFAF4BB0F18
:1037C00011F460FF1BC06F5F7F4F8F4F9F4F16C07C
:1037D000882311F096E911C0772321F09EE8872F06
:1037E000762F05C0662371F096E8862F70E060E0C2
:1037F0002AF09A95660F771F881FDAF7880F96953B
:10380000879597F90895E894F92F96EBFF2381F0B7
:10381000121613061406440B9395F6958795779523
:10382000679557954040FF23B9F71BC09927089526
:10383000882351F49850D2F7872B762F652F542F79
:10384000432F322F20E0B1F3121613061406440B57
:1038500088233AF09A95440F551F661F771F881FDB
:10386000CAF755234AF4440F551F11F460FF04C0F2
:103870006F5F7F4F8F4F9F4F880F9695879597F972
:103880000895990F0008550FAA0BE0E8FEEF1616F1
:103890001706E807F907C0F012161306E407F50744
:1038A00098F0621B730B840B950B39F40A2661F0B8
:1038B000232B242B252B21F408950A2609F4A1405B
:1038C000A6958FEF811D811D089597F99F6780E868
:1038D00070E060E008959FEF80EC089590958095EA
:1038E0007095609550954095309521953F4F4F4F7D
:1038F0005F4F6F4F7F4F8F4F9F4F089500240A9463
:103900001616170618060906089500240A941216BA
:103910001306140605060895092E0394000C11F4ED
:10392000882352F0BB0F40F4BF2B11F460FF04C09A
:103930006F5F7F4F8F4F9F4F089557FD9058440FF3
:10394000551F59F05F3F71F04795880F97FB991FFE
:1039500061F09F3F79F087950895121613061406BB
:10396000551FF2CF4695F1DF08C016161706180648
:10397000991FF1CF86957105610508940895E89423
:10398000BB2766277727CB0197F908957ADF08F4DC
:103990008FEF0895FA01EE0FFF1F309621053105D4
:1039A00099F16115710561F48038BFE39B0749F116
:1039B00068949038810561F08038BFEF9B0741F033
:1039C000992342F5FF3FE1053105210511F1E89406
:1039D0000894E795D901AA2329F4AB2FBE2FF85FED
:1039E000D0F310C0FF5F70F4A695E0F7F73950F000
:1039F00019F0FF3A38F49F779F930CD00F9007FC93
:103A0000905808953EF067CF60E070E080E89FE353
:103A100008954FE79F775F934F933F932F939ED0E7
:103A20002F913F914F915F910CD105C019F40EF089
:103A30004CCFA5CF50CF89DFC8F39638C0F707F831
:103A40000F92E8942BE33AEA48EB5FE708D10F9234
:103A50000F920F924DB75EB70F92C0D0E4E1F2E043
:103A600016D04F915F91EF91FF91E595EE1FFF1FEB
:103A700049F0FE57E0684427EE0F441FFA95E1F73E
:103A80004195550B32D00F9007FE26C00895DF9365
:103A9000CF931F930F93FF92EF92DF927B018C01E4
:103AA000689405C0DA2EEF01D8D0FE01E894A59104
:103AB0002591359145915591AEF3EF0137D1FE0136
:103AC0009701A801DA9479F7DF90EF90FF900F91BA
:103AD0001F91CF91DF9108959B01AC0160E070E0F0
:103AE00080E89FE3B1CDF1CE74C12FDFE8F39923D5
:103AF000D9F3940F511DBBF39150504094F059F0FD
:103B0000882332F0660F771F881F91505040C1F70D
:103B10009E3F510544F7880F911D9695879597F91B
:103B200008955F3FACF0983E9CF0BB278695779553
:103B30006795B79508F4B1609395C1F7BB0F58F737
:103B400011F460FFE8CF6F5F7F4F8F4F9F4FE3CF40
:103B500017CF0EF03EC1BFCE6894B7CEF6DEC8F3E5
:103B60009923D1F3C6F3DF93CF931F930F93FF9263
:103B7000C92FDD2788232AF02197660F771F881F1A
:103B8000DAF720E030E040E85FEB9FE3883920F08F
:103B9000803E30F021968F77B8D0ECE3F2E003C09E
:103BA000B4D0E9E6F2E073DF8B01BE01EC01FB2E3D
:103BB0006F5771097595771F880B990BE9DD28E11F
:103BC00032E741E35FE349D0AF2D9801AE01FF90AA
:103BD0000F911F91CF91DF91A9D09ECEFA01DC0108
:103BE000AA0FBB1F9B01AC01BF5728F42227332724
:103BF000442750781FC0B75188F4AB2F0024469556
:103C000037952795011CA395D2F3002069F0220F68
:103C1000331F441FB395DAF30DD076C061307105C0
:103C2000A0E88A07B94630F49B01AC0166277727E4
:103C300088279078309621F0208331834283538304
:103C400008950BD069CE5ADE28F05FDE18F0952378
:103C500009F03BCE40CE112493CE6FDEA0F3959FAA
:103C6000D1F3950F50E0551F629FF001729FBB2763
:103C7000F00DB11D639FAA27F00DB11DAA1F649F0F
:103C80006627B00DA11D661F829F2227B00DA11DC2
:103C9000621F739FB00DA11D621F839FA00D611D48
:103CA000221F749F3327A00D611D231F849F600D69
:103CB000211D822F762F6A2F11249F5750408AF0A2
:103CC000E1F088234AF0EE0FFF1FBB1F661F771F2E
:103CD000881F91505040A9F79E3F510570F0F5CDD7
:103CE0004FCE5F3FECF3983EDCF386957795679572
:103CF000B795F795E7959F5FC1F7FE2B880F911D4C
:103D00009695879597F908955058BB27AA270ED006
:103D100003CEF4DD30F0F9DD20F031F49F3F11F4F3
:103D20001EF4D9CD0EF4E095E7FBCFCDE92F05DEEB
:103D300080F3BA17620773078407950718F071F4C8
:103D40009EF51DCE0EF4E0950B2EBA2FA02D0B0183
:103D5000B90190010C01CA01A0011124FF27591BD0
:103D600099F0593F50F4503E68F11A16F040A22FD6
:103D7000232F342F4427585FF3CF46953795279547
:103D8000A795F0405395C9F77EF41F16BA0B620B46
:103D9000730B840BBAF09150A1F0FF0FBB1F661F8D
:103DA000771F881FC2F70EC0BA0F621F731F841FD0
:103DB00048F4879577956795B795F7959E3F08F0F6
:103DC000B3CF9395880F08F09927EE0F97958795B5
:103DD00008959F3F31F0915020F48795779567952E
:103DE000B795880F911D9695879597F90895A1E24B
:103DF0001A2EAA1BBB1BFD010DC0AA1FBB1FEE1F65
:103E0000FF1FA217B307E407F50720F0A21BB30BAF
:103E1000E40BF50B661F771F881F991F1A9469F72B
:103E200060957095809590959B01AC01BD01CF0187
:103E30000895EE0FFF1F881F8BBF0790F691E02DAE
:103E40001BBE1994DF93CF931F930F939A9DF02D70
:103E5000219FF00D8B9DF00D8A9DE02DF10D039FAC
:103E6000F00D029FE00DF11D4E9DE00DF11D5E9DD8
:103E7000F00D4F9DF00D7F936F93BF92AF925F93C4
:103E80004F93D5018ED08B01AC01D7018AD0EB01C5
:103E9000E80FF91FD6011FD02F913F91D60181D095
:103EA000C60FD71FE81FF91FAF91BF9114D02F91F4
:103EB0003F9177D0C60FD71FE81FF91FD60171D0E9
:103EC000E60FF71F9801BE01CF0111240F911F913A
:103ED000CF91DF91089565D0460F571FC81FD91F96
:103EE00008F431960895689401C0E8948F929F92E7
:103EF000CF93DF9305D0DF91CF919F908F9008955E
:103F000088249924F401E401B0E49F93AA279A1528
:103F10008B049C04ED05FE05CF05D007A10798F49E
:103F2000AD2FDC2FCF2FFE2FE92D982C892E982F27
:103F3000872F762F652F542F432F322F2227B850EB
:103F400031F7BF9127C01B2EBF91BB27220F331F14
:103F5000441F551F661F771F881F991F881C991CB7
:103F6000EE1FFF1FCC1FDD1FAA1FBB1F8A149B045F
:103F7000EC05FD05CE05DF05A007B10748F08A185E
:103F80009B08EC09FD09CE09DF09A00BB10B2160EC
:103F90001A94E1F62EF49401AF01BE01CD01000C9C
:103FA0000895A29FB001B39FC001A39F700D811D12
:103FB0001124911DB29F700D811D1124911D089532
:103FC000FC0188279927E89421912032E9F32930D0
:103FD00010F02E30C8F32B3239F02D3231F46894C2
:103FE00003C054D0820F911D219120532A30C8F371
:103FF0001EF4909581959F4F0895FB01DC0102C04E
:1040000001900D9241505040D8F70895FB01DC011A
:104010000D900020E9F7119701900D920020E1F733
:104020000895FB01DC0101900D920020E1F7089555
:10403000FB0151915523A9F0BF01DC014D914517BA
:104040004111E1F759F4CD010190002049F04D9163
:1040500040154111C9F3FB014111EFCF81E090E020
:10406000019708954532510518F4423008F004C014
:10407000FB011082CB010895BB274A3031F499230C
:1040800022F4BDE2909581959F4F09C07AE0979FF9
:10409000902D879F802D910D11240895BB27FB0142
:1040A0005527AA27880F991FAA1FA41710F0A41B31
:1040B00083955051B9F7A05DAA3308F0A95DA1938B
:1040C000009779F7B111B1931192CB0100C0DC01D7
:1040D000FC01672F71917723E1F7329704C07C913F
:1040E0006D9370836291AE17BF07C8F30895F8947B
:0240F000FFCF00
:1040F200000E060C0400000000000000FFFF00009C
:1041020000000000000000000000000000000000AD
:104112000000000000000000004B00000300014D01
:104122005154430000040000000000003C00010064
:104132004D51545700000000000000000000000034
:10414200000000000000000000000000000000006D
:104152004D515454004D5149736470004C45004C0C
:10416200452F30001A0041542B5149434C4F5345BF
:104172000D0041542B514944454143540D004154D3
:104182002B5149535441540D00434F4E4E45435415
:10419200204F4B0D0A0041542B514953454E440DBB
:1041A200003E200053454E44204F4B0D0041542BFE
:1041B200514E5354415455530D00514E5354415492
:1041C20055533A20300D0A0041542B51494647437A
:1041D2004E543D300D0041542B5149435347503DFD
:1041E200312C2261706E312E6C696C6C6562616B70
:1041F2006B2E636F6D222C22222C22220D00415441
:104202002B51494D55583D300D0041542B51494DCC
:104212004F44453D300D0041542B5149444E5349C2
:10422200503D300D0041542B5149524547415050A9
:104232000D0049502053544152540D0A0041542B51
:1042420051494143540D0049502047505253414374
:10425200540D0A0041542B51494C4F4349500D0013
:1042620031302E31302E302E31330D0A004950209C
:104272005354415455530D0A0041542B51494F5048
:10428200454E3D22544350222C2231302E31382EBD
:10429200302E3339222C313838330D0041542B5112
:1042A20049535256433D310D0041542B514C545306
:1042B2000D00220D0A0041542B43495053544152E0
:1042C200543D0054435000222C220031302E31380C
:1042D2002E302E333900313838330041542B4353BA
:1042E20054543D0061706E312E6C696C6C65626174
:1042F2006B6B2E636F6D007620A1203C860100015E
:104302008220A120A09F6500018E2099203C860179
:10431200001BA620B1203C860100017420B4203C81
:1043220086010001BD20CA203C8601001BD820A1C5
:10433200203C86010001E620A1203C860100010EFE
:1043420021A1203C860100011A21A1203C86010006
:10435200012721A1203C860100013521A1203C86B4
:104362000100018E2042213C860100014D21A12045
:10437200A09F65001B8E2057213C8601000164210D
:1043820070213C8601001B8E207D213C86010001AC
:104392008921A120A09F650001AC21A1203C8601BA
:0C43A2000001B921C2213C86010001008D
:00000001FF
