:10000000FDC0000020C100001EC100001CC1000096
:100010001AC1000018C1000016C1000014C1000080
:1000200012C1000010C100000EC100000CC1000090
:100030000AC1000008C1000006C1000004C10000A0
:1000400002C1000000C10000FEC00000FCC00000B2
:10005000FAC00000F8C00000F6C00000F4C00000C4
:10006000F2C00000F0C00000EEC00000ECC00000D4
:10007000EAC00000E8C00000E6C00000E4C00000E4
:10008000E2C00000E0C00000DEC00000DCC00000F4
:10009000DAC00000D8C00000D6C00000D4C0000004
:1000A000D2C00000D0C00000CEC00000CCC0000014
:1000B000CAC00000C8C00000C6C00000C4C0000024
:1000C000C2C00000C0C00000BEC00000BCC0000034
:1000D000BAC00000B8C00000B6C00000B4C0000044
:1000E000B2C00000B0C00000AEC00000ACC0000054
:1000F000AAC00000A8C00000A6C00000A4C0000064
:10010000A2C00000A0C000009EC000009CC0000073
:100110009AC0000098C0000096C0000094C0000083
:1001200092C0000090C000008EC000008CC0000093
:100130008AC0000088C0000086C0000084C00000A3
:1001400082C0000080C000007EC000007CC00000B3
:100150007AC0000078C0000076C0000074C00000C3
:1001600072C0000070C000006EC000006CC00000D3
:100170006AC0000068C0000066C0000064C00000E3
:1001800062C0000060C000005EC000005CC00000F3
:100190005AC0000058C0000056C0000054C0000003
:1001A00052C0000050C000004EC000004CC0000013
:1001B0004AC0000048C0000046C0000044C0000023
:1001C00042C0000040C000003EC000003CC0000033
:1001D0003AC0000038C0000036C0000034C0000043
:1001E00032C0000030C000002EC000002CC0000053
:1001F0002AC0000028C0000026C0000011241FBE35
:10020000CFEFCDBFDFE3DEBF00E00CBF18BE19BEED
:100210001ABE1BBE11E2A0E0B0E2E2E8F7E100E0A6
:100220000BBF02C007900D92A238B107D9F71BBED1
:1002300021E2A2E8B1E201C01D92A838B207E1F7BD
:10024000D2D60C94BF0BDCCEEF92FF920F931F938C
:10025000CF93DF93EC018E81833029F0843031F429
:100260000AE010E005C00CE010E002C000E010E081
:100270004F81588569857A858B859C85F9D1029651
:10028000080F191F88898823A1F04F89588D698D1F
:100290007A8D8B8D9C8DECD17C014D8D5E8D6F8D1B
:1002A00078A189A19AA1E4D18E0D9F1D0496080F13
:1002B000191F8DA19EA1892B21F489A59AA5892BAF
:1002C00051F04DA15EA16FA178A589A59AA5D0D1C5
:1002D0000296080F191F8BA59CA5892B21F48FA5C9
:1002E00098A9892B51F04BA55CA56DA57EA58FA57E
:1002F00098A9BED10296080F191FC801DF91CF91AE
:100300001F910F91FF90EF900895AF92BF92CF92FF
:10031000DF92EF92FF920F931F93CF93DF931F9281
:100320001F92CDB7DEB76C015B018A0189839A8386
:10033000CA018ADF7C0104D1A816B9060CF49FC05B
:1003400060E1CE0101960BD1B70189819A81D2D0AB
:1003500029813A81820F931F89839A83F8018681CC
:10036000843051F463E670E2CE01019621D164E05D
:10037000CE010196F4D009C068E670E2CE01019684
:1003800017D163E0CE010196EAD0F12CF801878500
:1003900080FBF1F881E09089911101C080E080FB41
:1003A000F2F8F2FE0DC0F80184A18370880F880F67
:1003B000880F9F2D977EF92EF82A83A180FBF5F8F0
:1003C000F80185A196A1892B21F481A592A5892BFD
:1003D00011F06894F7F8F80183A594A5892B21F40E
:1003E00087A590A9892B11F06894F6F86F2DCE019E
:1003F0000196B5D0F80165857685CE010196B9D014
:10040000F801278130854185528563857485CE0149
:100410000196F3D0F8018089882399F02789308DDF
:10042000418D528D638D748DCE010196E6D0F80119
:10043000258D368D478D50A161A172A1CE01019607
:10044000DCD0EF2CFF2054F4F80125A136A147A100
:1004500050A561A572A5CE010196CFD0E6FE0AC0D7
:10046000F80123A534A545A556A567A570A9CE0119
:100470000196C3D089819A818C199D0902C08EEFA3
:100480009FEF0F900F90DF91CF911F910F91FF90F1
:10049000EF90DF90CF90BF90AF9008950F931F9390
:1004A000CF93DF931F921F92CDB7DEB789839A83D4
:1004B000623071059CF08C01642F6295607FCE01E3
:1004C00001964DD060E070E089819A8113D0298136
:1004D0003A81820F931F801B910B02C08EEF9FEF1A
:1004E0000F900F90DF91CF911F910F9108954EE0E3
:1004F000D5CF0895DC01E0E0F0E09B012F77307864
:10050000332334F42150310920683F6F2F5F3F4F70
:10051000AB01772314F441585F4FBA01660F672F80
:10052000661F770B1616170624F4319620682D9354
:10053000E4CFDC01AE0FBF1F2C93CF0101960895CD
:100540009C012F5F3F4F2038310514F40296089527
:100550002115304414F40396089504960895FC017F
:10056000A081B1816C938081918101968083918378
:100570000895FC01A081B181CB01772314F481504F
:100580009F4F9C93A081B181CD010196808391837F
:10059000707877232CF4615071097F6F6F5F7F4F04
:1005A00011966C9380819181019680839183089547
:1005B000EF92FF920F931F93CF93DF938C017B01F8
:1005C000EB0109900020E9F72197C61BD70BBE016C
:1005D000D0DFAE01B701F80180819181D5D5F80156
:1005E00080819181C80FD91FC083D183DF91CF91C2
:1005F0001F910F91FF90EF900895EF92FF920F934C
:100600001F93CF93DF9300D000D0CDB7DEB77C012E
:1006100029833A834B835C836D837E830B811C81AA
:10062000101611068CF4B801A4DF6D817E81A8013B
:10063000F70180819181A8D5F70180819181080F10
:10064000191F008311830AC069817A8161157105C0
:1006500011F0AEDF03C060E070E08BDF2696CDBF07
:10066000DEBFDF91CF911F910F91FF90EF90089522
:10067000CF93DF9300D000D0CDB7DEB749835A8344
:100680006B837C838D839E83A981BA81109749F007
:10069000FD0101900020E9F73197CF018A1B9B0BE8
:1006A00002C08B819C812696CDBFDEBFDF91CF91AA
:1006B0000895EF92FF920F931F93CF93DF9300D093
:1006C00000D0CDB7DEB77C01F42FE52F862F972F12
:1006D000422F532F6F2F7E2FCBDF0296800F911F5B
:1006E0001E141F040CF402962696CDBFDEBFDF91C8
:1006F000CF911F910F91FF90EF9008952F923F920D
:100700004F925F926F927F928F929F92AF92BF9221
:10071000CF92DF92EF92FF920F931F93CF93DF93CD
:10072000CDB7DEB72A97CDBFDEBF2C011B014987AD
:1007300039010A87282D8B82392D9C824A2DAD8262
:100740005B2DBE826C2DCF827D2DD886CAA0DBA00A
:1007500089839A838601C301ACDF8C01F1DE281600
:100760003906B4F160E3898580FB63F9862D8370D7
:10077000880F697F682B8A8580FB60F9CE0101961E
:10078000EEDEB80189819A81B5DE29813A81820F36
:10079000931F89839A832B813C814D815E816F8178
:1007A0007885CE01019629DF1614170424F4B701C9
:1007B000CE010196DEDEA60168A179A189819A8128
:1007C000E3D489819A818C0D9D1D8419950902C0FD
:1007D0008EEF9FEF2A96CDBFDEBFDF91CF911F91A5
:1007E0000F91FF90EF90DF90CF90BF90AF909F90D0
:1007F0008F907F906F905F904F903F902F900895D3
:100800008FEF8093700080937100809372008093CB
:100810007300809374008093750080937600089530
:10082000CF93DF931F92CDB7DEB79FB79983F8942C
:100830009981E82FF0E0E059FF4F609580816823AF
:1008400060839FBF0F90DF91CF910895CF93DF9387
:10085000FC0120E030E0C62FD0E0DE01022E02C015
:10086000B595A7950A94E2F7A0FD508B2F5F3F4FF7
:1008700031962830310589F740FF0AC041FF03C097
:10088000FC01658302C0FC016683FC01618302C038
:10089000FC016283DF91CF91089543E050E068E06E
:1008A00080EC97E0D3DF40E058E164E080EC97E033
:1008B000CDDF43E050E068E080E896E0C7DF40E04D
:1008C00050E064E080E896E0C1DF43E050E068E09B
:1008D00080E496E0BBDF40E050E064E080E496E036
:1008E000B5CF0895FC01918195FFFDCF608380E035
:1008F00090E008954F925F926F927F928F929F92B5
:10090000AF92BF92EF92FF920F931F93CF937C0110
:100910004A015B0128013901FC01848182FF16C074
:10092000D901C801689412F8B695A795979587954F
:100930001694D1F7B901A801032E36E17695679593
:10094000579547953A95D1F7302D15C0D901C80173
:10095000689413F8B695A795979587951694D1F74F
:10096000B901A801032E37E176956795579547950C
:100970003A95D1F7302D88159905AA05BB0508F4DD
:10098000A2C084169506A606B70608F49EC0F70115
:10099000848182FD04C0880C991CAA1CBB1CC30165
:1009A000B201A5019401B1D32F3F31054105510595
:1009B00008F48DC08FEF90E0A0E0B0E0C9EF05C073
:1009C000281739074A075B0758F0880F991FAA1F95
:1009D000BB1FCD3F0CF48160CF5FC73089F74DC09E
:1009E000CC230CF04AC0D501C401880F991FAA1F5F
:1009F000BB1F880F991FAA1FBB1F880F991FAA1F13
:100A0000BB1F481A590A6A0A7B0ACE3FECF48DEFE5
:100A10009FEF8C1B9109C7FD939504C0440C551C96
:100A2000661C771C8A95D2F7D501C401B695A795A7
:100A300097958795BC01CD01640D751D861D971D89
:100A4000A501940162D335C083E08C0FA501940108
:100A500004C0220F331F441F551F8A95D2F7DA01B5
:100A6000C901B695A79597958795BC01CD01640DF1
:100A7000751D861D971D49D31CC083E08C0FA501F1
:100A8000940104C0220F331F441F551F8A95D2F7CB
:100A9000DA01C901B695A79597958795BC01CD0157
:100AA000640D751D861D971D30D3215031094109F4
:100AB0005109832F8F70C295C07FC82BF701C78360
:100AC000268381E018C080E016C080E014C0D50104
:100AD000C401880F991FAA1FBB1F880F991FAA1F47
:100AE000BB1F880F991FAA1FBB1F481A590A6A0A01
:100AF0007B0AC9EF8CCFCF911F910F91FF90EF90A0
:100B0000BF90AF909F908F907F906F905F904F902D
:100B100008950F931F93CF93DF93EC018B01009700
:100B200009F436C1803C910521F460E180E078DE73
:100B30002FC1C03484E0D80721F468E080E070DE83
:100B400027C1C115E4E0DE0721F464E080E068DE3F
:100B50001FC1C038F1E0DF0721F462E080E060DE11
:100B600017C1C11581E0D80721F461E080E058DEAB
:100B70000FC1C038E3E0DE0721F461E081E050DE20
:100B800007C1C039F3E0DF0721F461E082E048DE0D
:100B9000FFC0C11582E0D80721F462E081E040DEA9
:100BA000F7C0C034E2E0DE0721F462E082E038DE24
:100BB000EFC0C115F3E0DF0721F464E081E030DE2F
:100BC000E7C0C03283E0D80721F464E082E028DE89
:100BD000DFC0C115E8E0DE0721F461E083E020DE3C
:100BE000D7C0C115F9E0DF0721F461E084E018DE29
:100BF000CFC0C1158AE0D80721F461E085E010DE9E
:100C0000C7C0C115EBE0DE0721F461E086E008DE35
:100C1000BFC0C034F8E0DF0721F462E083E000DE0B
:100C2000B7C0C03489E0D80721F462E084E0F8DD81
:100C3000AFC0C034EAE0DE0721F462E085E0F0DD19
:100C4000A7C0C034FBE0DF0721F462E086E0E8DD06
:100C50009FC0C03988E0D80721F464E083E0E0DD7C
:100C600097C0C039E9E0DE0721F464E084E0D8DD14
:100C70008FC0C039FAE0DF0721F464E085E0D0DD01
:100C800087C0C0398BE0D80721F464E086E0C8DD76
:100C90007FC0C03CE8E0DE0721F468E083E0C0DD0F
:100CA00077C0C03CF9E0DF0721F468E084E0B8DDFC
:100CB0006FC0C03C8AE0D80721F468E085E0B0DD71
:100CC00067C0C03CEBE0DE0721F468E086E0A8DD09
:100CD0005FC0C03AF8E0DF0721F460E183E0A0DD07
:100CE00057C0C03A89E0D80721F460E184E098DD7C
:100CF0004FC0C03AEAE0DE0721F460E185E090DD14
:100D000047C0C03AFBE0DF0721F460E186E088DD00
:100D10003FC0C03B88E0D80721F460E283E080DD7B
:100D200037C0C03BE9E0DE0721F460E284E078DD13
:100D30002FC0C03BFAE0DF0721F460E285E070DD00
:100D400027C0C03B8BE0D80721F460E286E068DD75
:100D50001FC0C038E4E0DE0721F460E483E060DD1A
:100D600017C0C039F4E0DF0721F460E484E058DD07
:100D70000FC0C03A84E0D80721F460E485E050DD7C
:100D800007C0C03BE4E0DE0719F460E486E048DD1C
:100D90008D818F738D83F80195818481892B968154
:100DA000911198E0892B8D83F801408151816281F6
:100DB000738100E814E82EE130E0CE019BDD9C81D8
:100DC00098609C839C8190619C83DF91CF911F915F
:100DD0000F91089504C0615071098109910961154D
:100DE000710581059105B9F708950F931F93CF936E
:100DF000DF93EB016881662339F08C012196C801ED
:100E000071DD69916111FBCFDF91CF911F910F913E
:100E100008954F925F926F927F928F929F92AF92BE
:100E2000BF92CF92DF92EF92FF920F931F93CF93D7
:100E3000DF93CDB7DEB7CF5FD109CDBFDEBF21E3F2
:100E4000E2E3F0E2DE01119601900D922A95E1F7BE
:100E5000C450DF4F18821982CC5FD040C250DF4FA0
:100E600018821982CE5FD0408230910524F0FB01B8
:100E70000281138102C00FE610E203972CF0FB0100
:100E80008481958164D102C08BE597E09F938F9315
:100E90001F930F938FE790E29F938F9386D18FE9F3
:100EA00090E28887998784E190E08E879F8781E030
:100EB000888B8EE990E28EA39FA38CA79DA784E0E8
:100EC0008F83AE014F5F5F4F68EC70E0CE01C2963A
:100ED0001CDA3C0186EA90E2C650DF4F8883998392
:100EE000CA5FD0400F2EF8EC4F2E512CF02DB201DE
:100EF000661977091F9289E08F938BEB90E29F939D
:100F00008F93C650DF4F8880CA5FD040C550DF4FF7
:100F10009880CB5FD040C450DF4FA880CC5FD040DA
:100F2000C350DF4FB880CD5FD040C250DF4FC88084
:100F3000CE5FD040C150DF4FD880CF5FD040E12C92
:100F4000F12C00E020E030E040E082E390E08C0F04
:100F50009D1F860D971DD2DB680E791EB2016619A2
:100F6000770982E390E08C0F9D1F860D971DBFDAF5
:100F7000680E791ECDBFDEBF161417047CF48E01F7
:100F80000E5C1F4F7801E60CF71CF80161918F0190
:100F900080EA98E0A7DC0E151F05B9F760E171E261
:100FA00080EA98E09FDC672821F485EC90E210D17C
:100FB00003C08CED90E20CD180E090E0C150DF4F97
:100FC000CDBFDEBFDF91CF911F910F91FF90EF90CA
:100FD000DF90CF90BF90AF909F908F907F906F9059
:100FE0005F904F90089559DC0BDCE0ECF7E08081D6
:100FF0008860808384818860848367E070E280EA0F
:101000009AE087DD60E070E280EA98E082DD6BEED6
:1010100070E280EA98E0E9DE66E176E185E090E062
:10102000D9DE67EF70E280EA98E0DFDE66E176E124
:1010300085E090E0CFDE65E071E280EA98E0D5DE01
:1010400066E176E185E090E0C5DEC0E2D0E202E351
:1010500010E26991799180EA98E0C7DEC017D10764
:10106000C1F766E176E185E090E0B4DE62E171E22D
:1010700080EA98E0BADE61E472E48FE090E0AADEF4
:101080006CE171E280EA98E0B0DE66E176E185E04D
:1010900090E0A0DECEE0D0E200E210E2699179912A
:1010A00080EA98E0A2DEC017D107C1F761E472E4DC
:1010B0008FE090E08FDE66E271E280EA98E095DEF4
:1010C00066E176E185E090E085DE62E371E281E051
:1010D00090E09FDE66E176E185E090E07BDE6EE306
:1010E00071E280EA98E081DE66E176E185E090E0F9
:1010F00071DE6BEE70E280EA98E077DE80E091E0EE
:1011000001C0892F8111FECFFCCFA1E21A2EAA1BAC
:10111000BB1BFD010DC0AA1FBB1FEE1FFF1FA217A7
:10112000B307E407F50720F0A21BB30BE40BF50BA4
:10113000661F771F881F991F1A9469F7609570952D
:10114000809590959B01AC01BD01CF010895FC01F4
:1011500088279927E89421912032E9F3293010F06B
:101160002E30C8F32B3239F02D3231F4689403C09D
:1011700014D0820F911D219120532A30C8F31EF400
:10118000909581959F4F0895FB01DC0102C001906D
:101190000D9241505040D8F708957AE0979F902DD6
:1011A000879F802D910D11240895CF93DF93CDB7A4
:1011B000DEB7AE014A5F5F4FFA0161917191AF01F5
:1011C000809184219091852133D0DF91CF91089532
:1011D0000F931F93CF93DF93E0918421F0918521AA
:1011E000238121FF1BC08C01D0E0C0E0F801819178
:1011F0008F016091842170918521DB011896ED911A
:10120000FC911997882331F01995892B79F3DFEF39
:10121000CFEFECCF8AE01995892B19F08FEF9FEF74
:1012200002C08D2F9C2FDF91CF911F910F910895B8
:101230002F923F924F925F926F927F928F929F92E6
:10124000AF92BF92CF92DF92EF92FF920F931F93D4
:10125000CF93DF93CDB7DEB72B97CDBFDEBF6C0149
:101260007B018A01FC0116821782838181FFBFC145
:10127000CE0101963C01F6019381F70193FD859122
:1012800093FF81917F01882309F4ADC1853239F440
:1012900093FD859193FF81917F01853221F4B60101
:1012A00090E0D3D1E8CF912C212C312CFFE1F31524
:1012B000D8F08B3279F038F4803279F08332A1F4AF
:1012C000232D20611DC08D3261F0803369F4232D00
:1012D000216016C0832D8260382EE32DE4603E2EFF
:1012E0002AC0F32DF8601DC037FC2DC020ED280F5B
:1012F0002A3040F08E32B9F436FC75C1232D2064BB
:10130000322E19C036FE06C08AE0989E200D1124A8
:10131000922E11C0EAE02E9E200D1124222EF32DD4
:10132000F0623F2E08C08C3621F4832D8068382E61
:1013300002C0883641F4F70193FD859193FF8191B6
:101340007F018111B3CF982F9F7D9554933028F45E
:101350000C5F1F4F9FE399830DC0833631F08337B5
:1013600071F0833509F055C020C0F8018081898370
:101370000E5F1F4F88248394912C530112C02801C3
:10138000F2E04F0E511CF801A080B18036FE03C080
:10139000692D70E002C06FEF7FEFC5014BD14C01AA
:1013A0008201F32DFF773F2E15C0280122E0420E67
:1013B000511CF801A080B18036FE03C0692D70E099
:1013C00002C06FEF7FEFC5012AD14C01F32DF06809
:1013D0003F2E820133FC19C0822D90E088169906B9
:1013E000A0F4B60180E290E030D12A94F5CFF50167
:1013F00037FC859137FE81915F01B60190E025D1E0
:1014000021102A9421E0821A91088114910479F71D
:10141000E1C0843611F0893639F5F80137FE07C08E
:1014200060817181828193810C5F1F4F08C0608150
:101430007181072E000C880B990B0E5F1F4FF32D47
:10144000FF763F2E97FF09C0909580957095619526
:101450007F4F8F4F9F4FF0683F2E2AE030E0A3016F
:1014600030D1882E861844C0853731F4232D2F7E45
:10147000B22E2AE030E025C0932D997FB92E8F3609
:10148000C1F018F4883579F0AEC0803719F088378C
:1014900021F0A9C0E92FE061BE2EB4FE0DC0FB2DE6
:1014A000F460BF2E09C034FE0AC0292F2660B22E78
:1014B00006C028E030E005C020E130E002C020E1B5
:1014C00032E0F801B7FE07C06081718182819381AB
:1014D0000C5F1F4F06C06081718180E090E00E5F5D
:1014E0001F4FA301EED0882E8618FB2DFF773F2ECD
:1014F00036FE0DC0232D2E7FA22E891458F434FE03
:101500000BC032FC09C0832D8E7EA82E05C0B82CDE
:10151000A32C03C0B82C01C0B92CA4FE0FC0FE013F
:10152000E80DF11D8081803321F49A2D997EA92E3A
:1015300009C0A2FE06C0B394B39404C08A2D867875
:1015400009F0B394A3FC10C0A0FE06C0B21480F44E
:10155000280C922C9B180DC0B21458F4B60180E2EE
:1015600090E073D0B394F8CFB21418F42B1802C0E3
:10157000982C212CA4FE0FC0B60180E390E065D02A
:10158000A2FE16C0A1FC03C088E790E002C088E577
:1015900090E0B6010CC08A2D867851F0A1FE02C001
:1015A0008BE201C080E2A7FC8DE2B60190E04DD055
:1015B000891430F4B60180E390E047D09A94F8CFD4
:1015C0008A94F301E80DF11D8081B60190E03DD0D1
:1015D0008110F6CF222009F44ECEB60180E290E0D1
:1015E00034D02A94F7CFF6018681978102C08FEF1D
:1015F0009FEF2B96CDBFDEBFDF91CF911F910F9153
:10160000FF90EF90DF90CF90BF90AF909F908F9022
:101610007F906F905F904F903F902F900895FC01C6
:101620000590615070400110D8F7809590958E0F0D
:101630009F1F0895FC016150704001900110D8F780
:10164000809590958E0F9F1F08950F931F93CF93B2
:10165000DF93FB01238121FD03C08FEF9FEF2CC09F
:1016600022FF16C0468157812481358142175307D6
:1016700044F4A081B1819D012F5F3F4F20833183CE
:101680008C93268137812F5F3F4F2683378314C089
:101690008B01EC01FB010084F185E02D1995892B6C
:1016A000E1F6D80116968D919C91179701961696A2
:1016B0008D939C931797CE01DF91CF911F910F913E
:1016C0000895FA01AA27283051F1203181F1E894D8
:1016D0006F936E7F6E5F7F4F8F4F9F4FAF4FB1E025
:1016E0003ED0B4E03CD0670F781F891F9A1FA11D20
:1016F000680F791F8A1F911DA11D6A0F711D811D21
:10170000911DA11D20D009F468943F912AE0269FE5
:1017100011243019305D3193DEF6CF010895462F44
:101720004770405D4193B3E00FD0C9F7F6CF462F25
:101730004F70405D4A3318F0495D31FD405241938E
:1017400002D0A9F7EACFB4E0A6959795879577954B
:101750006795BA95C9F700976105710508959B01D2
:10176000AC010A2E06945795479537952795BA955B
:10177000C9F7620F731F841F951FA01D0895F89469
:02178000FFCF99
:10178200004B0000030001004B0000030001402158
:1017920053214D21512155215121602153211021E5
:1017A200652153216E2151219E2051219E205321DA
:1017B20010214D5154430000040000000000003C81
:1017C2000001004D515457000000000000000000CD
:1017D2000000000000000000000000000000000007
:1017E2000000004D515454004D5149736470006D16
:1017F200326D2E65636C697073652E6F726700536C
:10180200656E64696E6720746F20686F73746E61B1
:101812006D6520257320706F72742025640A005351
:10182200494D39303000686F6D652F6761726465AC
:101832006E2F666F756E7461696E006D7970617975
:101842006C6F6164005375636365737366756C6C6A
:1018520079207075626C6973686564005075626C9A
:10186200697368206661696C65640041542B434961
:1018720050534855540D0041542B43495053544141
:101882005455530D0041542B4349504D55583D304A
:101892000D0041542B43494943520D0041542B43FF
:1018A200494653520D0041542B43495053454E442F
:1018B2000D0031302E382E31302E313336001A00E1
:1018C20041542B43495053544152543D00544350C8
:1018D20000222C220031302E31382E302E333900A6
:1018E200313838330041542B435354543D00617016
:1018F2006E312E6C696C6C6562616B6B2E636F6D01
:021902000000E3
:00000001FF
