S014000055534152545F53494D3930302E73726563A0
S11300004AC100006EC100006CC100006AC100005A
S113001068C1000066C1000064C1000062C1000044
S113002060C100005EC100000C94DE185AC10000DB
S113003058C1000056C1000054C10000E0C40000D3
S113004016C500004CC5000082C50000B8C50000FC
S1130050EEC5000024C600005AC6000090C6000089
S113006040C100003EC100003CC100003AC1000094
S113007038C1000036C1000034C1000032C10000A4
S113008030C100002EC100002CC100002AC10000B4
S113009028C1000026C1000024C1000083C2000062
S11300A0BEC20000F9C2000034C300001AC100003F
S11300B018C1000016C1000014C100000C942709E7
S11300C00C945F090C9497090C94CF090C94070ABB
S11300D00C943F0A0C94770A0C94AF0A0C94E70A28
S11300E00C941F0BFEC00000FCC00000FAC000000E
S11300F0F8C00000F6C00000F4C00000F2C0000028
S1130100F0C00000EEC00000ECC00000EAC0000037
S1130110E8C00000E6C00000E4C000004FC10000D9
S11301208AC10000C5C1000000C20000DAC000009E
S1130130D8C000005CC6000092C60000C8C600001B
S1130140FEC6000034C700006AC70000A0C7000054
S1130150D6C700000C94B7080C94EF08C2C0000086
S1130160C0C00000BEC00000BCC00000BAC0000097
S1130170B8C00000B6C00000B4C00000B2C00000A7
S1130180B0C00000AEC00000ACC00000AAC00000B7
S1130190A8C00000A6C00000A4C00000A2C00000C7
S11301A0A0C000009EC000009CC000009AC00000D7
S11301B00C94570B0C948F0B0C94C70B0C94FF0BE3
S11301C00C94370C0C946F0C0C94A70C0C94DF0C4F
S11301D00C94170D0C944F0D84C0000082C00000D5
S11301E080C000007EC000007CC000007AC0000017
S11301F078C0000076C0000074C000005819861949
S1130200D419F219FA190A1A1A1A501A5A1A5D1A32
S1130210611A651A07634236B79BD8A71A3968561C
S113022018AEBAAB558C1D3CB7CC5763BD6DEDFD14
S1130230753EF6177231BF000000803F08000000D1
S1130240BE922449123EABAAAA2ABECDCCCC4C3EC7
S113025000000080BEABAAAAAA3E00000000BF00B6
S11302600000803F0000000000084178D3BB4387B2
S1130270D1133D190E3CC3BD4282AD2B3E68EC82C6
S113028076BED98FE1A93E4C80EFFFBE01C4FF7F4B
S11302903F000000000011241FBECFEFCDBFDFE3FD
S11302A0DEBF00E00CBF18BE19BE1ABE1BBE11E2B1
S11302B0A0E0B0E2ECECF1E400E00BBF02C0079078
S11302C00D92AE3DB107D9F71BBE24E2AEEDB1E20B
S11302D001C01D92A734B207E1F70E94A91A0C9439
S11302E0E4208ECE811522E0920769F48091DF210B
S11302F091E0980F9093DF21811114C062E081E0B6
S11303000C94041108958034924061F48091DE21AC
S113031091E0980F9093DE21811104C062E082E0A5
S11303200C9404110895811522E0920761F48091E0
S1130330DF2181508093DF21811113C062E081E0CD
S11303400C941A1108958034924059F48091DE215E
S113035081508093DE21811104C062E082E00C941C
S11303601A110895EF92FF921F93CF93DF931F9278
S11303701F92CDB7DEB77C018FB78983F8941981BA
S1130380C701B0DFF7018081816080831FBF809146
S1130390B8238F3F09F4FFCF8FB78A83F8949A81EB
S11303A0E7EBF3E281818F5F81839FBF0F900F9012
S11303B0DF91CF911F91FF90EF9008951F920F92BC
S11303C00FB60F92112408B60F9218BE09B60F92F9
S11303D019BE0BB60F921BBE2F933F934F935F939F
S11303E06F937F938F939F93AF93BF93EF93FF93F9
S11303F04091240250912502E091BF23F091C02343
S113040061E080E092E01995FF91EF91BF91AF9187
S11304109F918F917F916F915F914F913F912F9118
S11304200F900BBE0F9009BE0F9008BE0F900FBE29
S11304300F901F9018951F920F920FB60F921124D0
S113044008B60F9218BE09B60F9219BE0BB60F92DA
S11304501BBE2F933F934F935F936F937F938F9321
S11304609F93AF93BF93EF93FF9340912C025091CE
S11304702D02E091BF23F091C02362E080E092E07E
S11304801995FF91EF91BF91AF919F918F917F91BA
S11304906F915F914F913F912F910F900BBE0F90F1
S11304A009BE0F9008BE0F900FBE0F901F901895B5
S11304B01F920F920FB60F92112408B60F9218BE16
S11304C009B60F9219BE0BB60F921BBE2F933F9322
S11304D04F935F936F937F938F939F93AF93BF9348
S11304E0EF93FF934091340250913502E091BF2382
S11304F0F091C02364E080E092E01995FF91EF91C0
S1130500BF91AF919F918F917F916F915F914F9127
S11305103F912F910F900BBE0F9009BE0F9008BE14
S11305200F900FBE0F901F9018951F920F920FB649
S11305300F92112408B60F9218BE09B60F9219BE75
S11305400BB60F921BBE2F933F934F935F936F9302
S11305507F938F939F93AF93BF93EF93FF934091B8
S11305603C0250913D02E091BF23F091C02368E02A
S113057080E092E01995FF91EF91BF91AF919F9127
S11305808F917F916F915F914F913F912F910F9038
S11305900BBE0F9009BE0F9008BE0F900FBE0F90B8
S11305A01F9018951F920F920FB60F92112408B640
S11305B00F9218BE09B60F9219BE0BB60F921BBE4E
S11305C02F933F934F935F936F937F938F939F9357
S11305D0AF93BF93EF93FF934091640250916502F0
S11305E0E091BD23F091BE2361E080E492E019958F
S11305F0FF91EF91BF91AF919F918F917F916F91F7
S11306005F914F913F912F910F900BBE0F9009BEB8
S11306100F9008BE0F900FBE0F901F9018951F9259
S11306200F920FB60F92112408B60F9218BE09B696
S11306300F9219BE0BB60F921BBE2F933F934F938D
S11306405F936F937F938F939F93AF93BF93EF9336
S1130650FF9340916C0250916D02E091BD23F091A3
S1130660BE2362E080E492E01995FF91EF91BF917F
S1130670AF919F918F917F916F915F914F913F9136
S11306802F910F900BBE0F9009BE0F9008BE0F90D4
S11306900FBE0F901F9018951F920F920FB60F92D6
S11306A0112408B60F9218BE09B60F9219BE0BB6E4
S11306B00F921BBE2F933F934F935F936F937F9340
S11306C08F939F93AF93BF93EF93FF9340917402E3
S11306D050917502E091BD23F091BE2364E080E463
S11306E092E01995FF91EF91BF91AF919F918F91F6
S11306F07F916F915F914F913F912F910F900BBE1E
S11307000F9009BE0F9008BE0F900FBE0F901F9060
S113071018951F920F920FB60F92112408B60F92DC
S113072018BE09B60F9219BE0BB60F921BBE2F93BB
S11307303F934F935F936F937F938F939F93AF9365
S1130740BF93EF93FF9340917C0250917D02E0911F
S1130750BD23F091BE2368E080E492E01995FF91F7
S1130760EF91BF91AF919F918F917F916F915F9125
S11307704F913F912F910F900BBE0F9009BE0F9098
S113078008BE0F900FBE0F901F901895BF92CF9286
S1130790DF92EF92FF920F931F93CF93DF931F92F9
S11307A0CDB7DEB78C017B01811522E0920781F47D
S11307B061E270E082E00E947B11C82ED12C60E2DD
S11307C070E082E00E947B11DC2CCC24C82A12C089
S11307D080349240D1F565E270E082E00E947B11A2
S11307E0C82ED12C64E270E082E00E947B11DC2CE4
S11307F0CC24C82A8FB78983F894B980C80172DDE4
S1130800F801808192E09083C486D586F701258122
S11308103681F801208F318FF7019281F80192839C
S1130820F7019481F8019483F7019381F80193838C
S1130830F7019181F80191838170F7019081892BEF
S1130840F8018083C8016FDDBFBE0F90DF91CF91A7
S11308501F910F91FF90EF90DF90CF90BF9008957C
S1130860DF92EF92FF920F931F93CF93DF931F9228
S1130870CDB7DEB78C017B018FB78983F894D9801B
S1130880C80130DDF8018081807CF7018083F801A4
S1130890808D918DF70185839683F8018281F7011C
S11308A08283F8018481F7018483F8018381F7014D
S11308B08383F8018181F7018183C80134DDDFBEC0
S11308C00F90DF91CF911F910F91FF90EF90DF90E8
S11308D00895AF92BF92CF92DF92EF92FF920F935F
S11308E01F93CF93DF931F92CDB7DEB76C01B62E63
S11308F07A01862F837029F4962F9695969582E037
S113090002C0962F80E090FF8F5F8601005E1F4F2C
S113091098E0899F000D111D11248FB78983F894E5
S1130920A980C601DFDCF7018081F8018083F7012B
S11309308281F8018283F7018181F8018183B0FE0D
S113094004C0F7018381F8018683C601ECDCAFBEE5
S11309500F90DF91CF911F910F91FF90EF90DF9057
S1130960CF90BF90AF900895AF92BF92CF92DF9295
S1130970EF92FF920F931F93CF93DF931F92CDB704
S1130980DEB76C01B62E7A01862F837029F4962F78
S11309909695969582E002C0962F80E090FF8F5F37
S11309A08601005E1F4F98E0899F000D111D1124E0
S11309B08FB78983F894A980C60194DCF8018081FB
S11309C0F7018083F8018281F7018283F801818134
S11309D0F7018183B0FE04C0F8018681F7018383A7
S11309E0C601A1DCAFBE0F90DF91CF911F910F9193
S11309F0FF90EF90DF90CF90BF90AF9008951F923B
S1130A000F920FB60F92112408B60F9218BE09B6B2
S1130A100F9219BE0BB60F921BBE2F933F934F93A9
S1130A205F936F937F938F939F93AF93BF93EF9352
S1130A30FF93E0912C22F0912D22309709F0199523
S1130A40FF91EF91BF91AF919F918F917F916F91A2
S1130A505F914F913F912F910F900BBE0F9009BE64
S1130A600F9008BE0F900FBE0F901F9018951F9205
S1130A700F920FB60F92112408B60F9218BE09B642
S1130A800F9219BE0BB60F921BBE2F933F934F9339
S1130A905F936F937F938F939F93AF93BF93EF93E2
S1130AA0FF93E0912A22F0912B22309709F01995B7
S1130AB0FF91EF91BF91AF919F918F917F916F9132
S1130AC05F914F913F912F910F900BBE0F9009BEF4
S1130AD00F9008BE0F900FBE0F901F9018951F9295
S1130AE00F920FB60F92112408B60F9218BE09B6D2
S1130AF00F9219BE0BB60F921BBE2F933F934F93C9
S1130B005F936F937F938F939F93AF93BF93EF9371
S1130B10FF93E0912822F0912922309709F019954A
S1130B20FF91EF91BF91AF919F918F917F916F91C1
S1130B305F914F913F912F910F900BBE0F9009BE83
S1130B400F9008BE0F900FBE0F901F9018951F9224
S1130B500F920FB60F92112408B60F9218BE09B661
S1130B600F9219BE0BB60F921BBE2F933F934F9358
S1130B705F936F937F938F939F93AF93BF93EF9301
S1130B80FF93E0912622F0912722309709F01995DE
S1130B90FF91EF91BF91AF919F918F917F916F9151
S1130BA05F914F913F912F910F900BBE0F9009BE13
S1130BB00F9008BE0F900FBE0F901F9018951F92B4
S1130BC00F920FB60F92112408B60F9218BE09B6F1
S1130BD00F9219BE0BB60F921BBE2F933F934F93E8
S1130BE05F936F937F938F939F93AF93BF93EF9391
S1130BF0FF93E0912422F0912522309709F0199572
S1130C00FF91EF91BF91AF919F918F917F916F91E0
S1130C105F914F913F912F910F900BBE0F9009BEA2
S1130C200F9008BE0F900FBE0F901F9018951F9243
S1130C300F920FB60F92112408B60F9218BE09B680
S1130C400F9219BE0BB60F921BBE2F933F934F9377
S1130C505F936F937F938F939F93AF93BF93EF9320
S1130C60FF93E0912222F0912322309709F0199505
S1130C70FF91EF91BF91AF919F918F917F916F9170
S1130C805F914F913F912F910F900BBE0F9009BE32
S1130C900F9008BE0F900FBE0F901F9018951F92D3
S1130CA00F920FB60F92112408B60F9218BE09B610
S1130CB00F9219BE0BB60F921BBE2F933F934F9307
S1130CC05F936F937F938F939F93AF93BF93EF93B0
S1130CD0FF93E0912022F0912122309709F0199599
S1130CE0FF91EF91BF91AF919F918F917F916F9100
S1130CF05F914F913F912F910F900BBE0F9009BEC2
S1130D000F9008BE0F900FBE0F901F9018951F9262
S1130D100F920FB60F92112408B60F9218BE09B69F
S1130D200F9219BE0BB60F921BBE2F933F934F9396
S1130D305F936F937F938F939F93AF93BF93EF933F
S1130D40FF93E0911E22F0911F22309709F019952C
S1130D50FF91EF91BF91AF919F918F917F916F918F
S1130D605F914F913F912F910F900BBE0F9009BE51
S1130D700F9008BE0F900FBE0F901F9018951F92F2
S1130D800F920FB60F92112408B60F9218BE09B62F
S1130D900F9219BE0BB60F921BBE2F933F934F9326
S1130DA05F936F937F938F939F93AF93BF93EF93CF
S1130DB0FF93E0911C22F0911D22309709F01995C0
S1130DC0FF91EF91BF91AF919F918F917F916F911F
S1130DD05F914F913F912F910F900BBE0F9009BEE1
S1130DE00F9008BE0F900FBE0F901F9018951F9282
S1130DF00F920FB60F92112408B60F9218BE09B6BF
S1130E000F9219BE0BB60F921BBE2F933F934F93B5
S1130E105F936F937F938F939F93AF93BF93EF935E
S1130E20FF93E0911A22F0911B22309709F0199553
S1130E30FF91EF91BF91AF919F918F917F916F91AE
S1130E405F914F913F912F910F900BBE0F9009BE70
S1130E500F9008BE0F900FBE0F901F9018951F9211
S1130E600F920FB60F92112408B60F9218BE09B64E
S1130E700F9219BE0BB60F921BBE2F933F934F9345
S1130E805F936F937F938F939F93AF93BF93EF93EE
S1130E90FF93E0911822F0911922309709F01995E7
S1130EA0FF91EF91BF91AF919F918F917F916F913E
S1130EB05F914F913F912F910F900BBE0F9009BE00
S1130EC00F9008BE0F900FBE0F901F9018951F92A1
S1130ED00F920FB60F92112408B60F9218BE09B6DE
S1130EE00F9219BE0BB60F921BBE2F933F934F93D5
S1130EF05F936F937F938F939F93AF93BF93EF937E
S1130F00FF93E0911622F0911722309709F019957A
S1130F10FF91EF91BF91AF919F918F917F916F91CD
S1130F205F914F913F912F910F900BBE0F9009BE8F
S1130F300F9008BE0F900FBE0F901F9018951F9230
S1130F400F920FB60F92112408B60F9218BE09B66D
S1130F500F9219BE0BB60F921BBE2F933F934F9364
S1130F605F936F937F938F939F93AF93BF93EF930D
S1130F70FF93E0911422F0911522309709F019950E
S1130F80FF91EF91BF91AF919F918F917F916F915D
S1130F905F914F913F912F910F900BBE0F9009BE1F
S1130FA00F9008BE0F900FBE0F901F9018951F92C0
S1130FB00F920FB60F92112408B60F9218BE09B6FD
S1130FC00F9219BE0BB60F921BBE2F933F934F93F4
S1130FD05F936F937F938F939F93AF93BF93EF939D
S1130FE0FF93E0911222F0911322309709F01995A2
S1130FF0FF91EF91BF91AF919F918F917F916F91ED
S11310005F914F913F912F910F900BBE0F9009BEAE
S11310100F9008BE0F900FBE0F901F9018951F924F
S11310200F920FB60F92112408B60F9218BE09B68C
S11310300F9219BE0BB60F921BBE2F933F934F9383
S11310405F936F937F938F939F93AF93BF93EF932C
S1131050FF93E0911022F0911122309709F0199535
S1131060FF91EF91BF91AF919F918F917F916F917C
S11310705F914F913F912F910F900BBE0F9009BE3E
S11310800F9008BE0F900FBE0F901F9018951F92DF
S11310900F920FB60F92112408B60F9218BE09B61C
S11310A00F9219BE0BB60F921BBE2F933F934F9313
S11310B05F936F937F938F939F93AF93BF93EF93BC
S11310C0FF93E0910E22F0910F22309709F01995C9
S11310D0FF91EF91BF91AF919F918F917F916F910C
S11310E05F914F913F912F910F900BBE0F9009BECE
S11310F00F9008BE0F900FBE0F901F9018951F926F
S11311000F920FB60F92112408B60F9218BE09B6AB
S11311100F9219BE0BB60F921BBE2F933F934F93A2
S11311205F936F937F938F939F93AF93BF93EF934B
S1131130FF93E0910C22F0910D22309709F019955C
S1131140FF91EF91BF91AF919F918F917F916F919B
S11311505F914F913F912F910F900BBE0F9009BE5D
S11311600F9008BE0F900FBE0F901F9018951F92FE
S11311700F920FB60F92112408B60F9218BE09B63B
S11311800F9219BE0BB60F921BBE2F933F934F9332
S11311905F936F937F938F939F93AF93BF93EF93DB
S11311A0FF93E0910A22F0910B22309709F01995F0
S11311B0FF91EF91BF91AF919F918F917F916F912B
S11311C05F914F913F912F910F900BBE0F9009BEED
S11311D00F9008BE0F900FBE0F901F9018951F928E
S11311E00F920FB60F92112408B60F9218BE09B6CB
S11311F00F9219BE0BB60F921BBE2F933F934F93C2
S11312005F936F937F938F939F93AF93BF93EF936A
S1131210FF93E0910822F0910922309709F0199583
S1131220FF91EF91BF91AF919F918F917F916F91BA
S11312305F914F913F912F910F900BBE0F9009BE7C
S11312400F9008BE0F900FBE0F901F9018951F921D
S11312500F920FB60F92112408B60F9218BE09B65A
S11312600F9219BE0BB60F921BBE2F933F934F9351
S11312705F936F937F938F939F93AF93BF93EF93FA
S1131280FF93E0910622F0910722309709F0199517
S1131290FF91EF91BF91AF919F918F917F916F914A
S11312A05F914F913F912F910F900BBE0F9009BE0C
S11312B00F9008BE0F900FBE0F901F9018951F92AD
S11312C00F920FB60F92112408B60F9218BE09B6EA
S11312D00F9219BE0BB60F921BBE2F933F934F93E1
S11312E05F936F937F938F939F93AF93BF93EF938A
S11312F0FF93E0910422F0910522309709F01995AB
S1131300FF91EF91BF91AF919F918F917F916F91D9
S11313105F914F913F912F910F900BBE0F9009BE9B
S11313200F9008BE0F900FBE0F901F9018951F923C
S11313300F920FB60F92112408B60F9218BE09B679
S11313400F9219BE0BB60F921BBE2F933F934F9370
S11313505F936F937F938F939F93AF93BF93EF9319
S1131360FF93E0910222F0910322309709F019953E
S1131370FF91EF91BF91AF919F918F917F916F9169
S11313805F914F913F912F910F900BBE0F9009BE2B
S11313900F9008BE0F900FBE0F901F9018951F92CC
S11313A00F920FB60F92112408B60F9218BE09B609
S11313B00F9219BE0BB60F921BBE2F933F934F9300
S11313C05F936F937F938F939F93AF93BF93EF93A9
S11313D0FF93E0910022F0910122309709F01995D2
S11313E0FF91EF91BF91AF919F918F917F916F91F9
S11313F05F914F913F912F910F900BBE0F9009BEBB
S11314000F9008BE0F900FBE0F901F9018951F925B
S11314100F920FB60F92112408B60F9218BE09B698
S11314200F9219BE0BB60F921BBE2F933F934F938F
S11314305F936F937F938F939F93AF93BF93EF9338
S1131440FF93E091FE21F091FF21309709F0199567
S1131450FF91EF91BF91AF919F918F917F916F9188
S11314605F914F913F912F910F900BBE0F9009BE4A
S11314700F9008BE0F900FBE0F901F9018951F92EB
S11314800F920FB60F92112408B60F9218BE09B628
S11314900F9219BE0BB60F921BBE2F933F934F931F
S11314A05F936F937F938F939F93AF93BF93EF93C8
S11314B0FF93E091FC21F091FD21309709F01995FB
S11314C0FF91EF91BF91AF919F918F917F916F9118
S11314D05F914F913F912F910F900BBE0F9009BEDA
S11314E00F9008BE0F900FBE0F901F9018951F927B
S11314F00F920FB60F92112408B60F9218BE09B6B8
S11315000F9219BE0BB60F921BBE2F933F934F93AE
S11315105F936F937F938F939F93AF93BF93EF9357
S1131520FF93E091FA21F091FB21309709F019958E
S1131530FF91EF91BF91AF919F918F917F916F91A7
S11315405F914F913F912F910F900BBE0F9009BE69
S11315500F9008BE0F900FBE0F901F9018951F920A
S11315600F920FB60F92112408B60F9218BE09B647
S11315700F9219BE0BB60F921BBE2F933F934F933E
S11315805F936F937F938F939F93AF93BF93EF93E7
S1131590FF93E091F821F091F921309709F0199522
S11315A0FF91EF91BF91AF919F918F917F916F9137
S11315B05F914F913F912F910F900BBE0F9009BEF9
S11315C00F9008BE0F900FBE0F901F9018951F929A
S11315D00F920FB60F92112408B60F9218BE09B6D7
S11315E00F9219BE0BB60F921BBE2F933F934F93CE
S11315F05F936F937F938F939F93AF93BF93EF9377
S1131600FF93E091F621F091F721309709F01995B5
S1131610FF91EF91BF91AF919F918F917F916F91C6
S11316205F914F913F912F910F900BBE0F9009BE88
S11316300F9008BE0F900FBE0F901F9018951F9229
S11316400F920FB60F92112408B60F9218BE09B666
S11316500F9219BE0BB60F921BBE2F933F934F935D
S11316605F936F937F938F939F93AF93BF93EF9306
S1131670FF93E091F421F091F521309709F0199549
S1131680FF91EF91BF91AF919F918F917F916F9156
S11316905F914F913F912F910F900BBE0F9009BE18
S11316A00F9008BE0F900FBE0F901F9018951F92B9
S11316B00F920FB60F92112408B60F9218BE09B6F6
S11316C00F9219BE0BB60F921BBE2F933F934F93ED
S11316D05F936F937F938F939F93AF93BF93EF9396
S11316E0FF93E091F221F091F321309709F01995DD
S11316F0FF91EF91BF91AF919F918F917F916F91E6
S11317005F914F913F912F910F900BBE0F9009BEA7
S11317100F9008BE0F900FBE0F901F9018951F9248
S11317200F920FB60F92112408B60F9218BE09B685
S11317300F9219BE0BB60F921BBE2F933F934F937C
S11317405F936F937F938F939F93AF93BF93EF9325
S1131750FF93E091F021F091F121309709F0199570
S1131760FF91EF91BF91AF919F918F917F916F9175
S11317705F914F913F912F910F900BBE0F9009BE37
S11317800F9008BE0F900FBE0F901F9018951F92D8
S11317900F920FB60F92112408B60F9218BE09B615
S11317A00F9219BE0BB60F921BBE2F933F934F930C
S11317B05F936F937F938F939F93AF93BF93EF93B5
S11317C0FF93E091EE21F091EF21309709F0199504
S11317D0FF91EF91BF91AF919F918F917F916F9105
S11317E05F914F913F912F910F900BBE0F9009BEC7
S11317F00F9008BE0F900FBE0F901F9018951F9268
S11318000F920FB60F92112408B60F9218BE09B6A4
S11318100F9219BE0BB60F921BBE2F933F934F939B
S11318205F936F937F938F939F93AF93BF93EF9344
S1131830FF93E091EC21F091ED21309709F0199597
S1131840FF91EF91BF91AF919F918F917F916F9194
S11318505F914F913F912F910F900BBE0F9009BE56
S11318600F9008BE0F900FBE0F901F9018951F92F7
S11318700F920FB60F92112408B60F9218BE09B634
S11318800F9219BE0BB60F921BBE2F933F934F932B
S11318905F936F937F938F939F93AF93BF93EF93D4
S11318A0FF93E091EA21F091EB21309709F019952B
S11318B0FF91EF91BF91AF919F918F917F916F9124
S11318C05F914F913F912F910F900BBE0F9009BEE6
S11318D00F9008BE0F900FBE0F901F9018951F9287
S11318E00F920FB60F92112408B60F9218BE09B6C4
S11318F00F9219BE0BB60F921BBE2F933F934F93BB
S11319005F936F937F938F939F93AF93BF93EF9363
S1131910FF93E091E821F091E921309709F01995BE
S1131920FF91EF91BF91AF919F918F917F916F91B3
S11319305F914F913F912F910F900BBE0F9009BE75
S11319400F9008BE0F900FBE0F901F9018951F9216
S11319500F920FB60F92112408B60F9218BE09B653
S11319600F9219BE0BB60F921BBE2F933F934F934A
S11319705F936F937F938F939F93AF93BF93EF93F3
S1131980FF93E091E621F091E721309709F0199552
S1131990FF91EF91BF91AF919F918F917F916F9143
S11319A05F914F913F912F910F900BBE0F9009BE05
S11319B00F9008BE0F900FBE0F901F9018951F92A6
S11319C00F920FB60F92112408B60F9218BE09B6E3
S11319D00F9219BE0BB60F921BBE2F933F934F93DA
S11319E05F936F937F938F939F93AF93BF93EF9383
S11319F0FF93E091E421F091E521309709F01995E6
S1131A00FF91EF91BF91AF919F918F917F916F91D2
S1131A105F914F913F912F910F900BBE0F9009BE94
S1131A200F9008BE0F900FBE0F901F9018951F9235
S1131A300F920FB60F92112408B60F9218BE09B672
S1131A400F9219BE0BB60F921BBE2F933F934F9369
S1131A505F936F937F938F939F93AF93BF93EF9312
S1131A60FF93E091E221F091E321309709F0199579
S1131A70FF91EF91BF91AF919F918F917F916F9162
S1131A805F914F913F912F910F900BBE0F9009BE24
S1131A900F9008BE0F900FBE0F901F9018951F92C5
S1131AA00F920FB60F92112408B60F9218BE09B602
S1131AB00F9219BE0BB60F921BBE2F933F934F93F9
S1131AC05F936F937F938F939F93AF93BF93EF93A2
S1131AD0FF93E091E021F091E121309709F019950D
S1131AE0FF91EF91BF91AF919F918F917F916F91F2
S1131AF05F914F913F912F910F900BBE0F9009BEB4
S1131B000F9008BE0F900FBE0F901F901895EF9284
S1131B10FF920F931F93CF93DF93EC018E81833059
S1131B2029F0843031F40AE010E005C00CE010E044
S1131B3002C000E010E04F81588569857A858B8565
S1131B409C85FBD10296080F191F88898823A1F070
S1131B504F89588D698D7A8D8B8D9C8DEED17C014A
S1131B604D8D5E8D6F8D78A189A19AA1E6D18E0DE0
S1131B709F1D0496080F191F8DA19EA1892B21F486
S1131B8089A59AA5892B51F04DA15EA16FA178A5D5
S1131B9089A59AA5D2D10296080F191F8BA59CA5D9
S1131BA0892B21F48FA598A9892B51F04BA55CA50D
S1131BB06DA57EA58FA598A9C0D10296080F191FFF
S1131BC0C801DF91CF911F910F91FF90EF9008957D
S1131BD0AF92BF92CF92DF92EF92FF920F931F9337
S1131BE0CF93DF931F921F92CDB7DEB76C015B01D9
S1131BF08A0189839A83CA018ADF7C0104D1A816E9
S1131C00B9060CF49FC060E1CE0101960BD1B70177
S1131C1089819A81D2D029813A81820F931F898345
S1131C209A83F8018681843051F460E670E2CE0133
S1131C30019621D164E0CE010196F4D009C065E695
S1131C4070E2CE01019617D163E0CE010196EAD08D
S1131C50F12CF801878580FBF1F881E090899111DE
S1131C6001C080E080FBF2F8F2FE0DC0F80184A10F
S1131C708370880F880F880F9F2D977EF92EF82A7E
S1131C8083A180FBF5F8F80185A196A1892B21F4A5
S1131C9081A592A5892B11F06894F7F8F80183A522
S1131CA094A5892B21F487A590A9892B11F0689418
S1131CB0F6F86F2DCE010196B5D0F80165857685CD
S1131CC0CE010196B9D0F80127813085418552852E
S1131CD063857485CE010196F4D0F8018089882348
S1131CE099F02789308D418D528D638D748DCE018D
S1131CF00196E7D0F801258D368D478D50A161A15D
S1131D0072A1CE010196DDD0EF2CFF2054F4F8012E
S1131D1025A136A147A150A561A572A5CE010196C2
S1131D20D0D0E6FE0AC0F80123A534A545A556A5E2
S1131D3067A570A9CE010196C4D089819A818C19B6
S1131D409D0902C08EEF9FEF0F900F90DF91CF910E
S1131D501F910F91FF90EF90DF90CF90BF90AF90C5
S1131D6008950F931F93CF93DF931F921F92CDB7C4
S1131D70DEB789839A83623071059CF08C01642FED
S1131D806295607FCE0101964DD060E070E089815C
S1131D909A8113D029813A81820F931F801B910B62
S1131DA002C08EEF9FEF0F900F90DF91CF911F91A4
S1131DB00F9108954EE0D5CF0895DC01E0E0F0E006
S1131DC09B012F773078332334F421503109206874
S1131DD03F6F2F5F3F4FAB01772314F441585F4FA0
S1131DE0BA01660F672F661F770B1616170624F4C1
S1131DF0319620682D93E4CFDC01AE0FBF1F2C93E6
S1131E00CF01019608959C012F5F3F4F2038310583
S1131E1014F4029608952115304414F40396089599
S1131E2004960895FC01A081B1816C938081918115
S1131E300196808391830895FC01A081B181CB0137
S1131E40772314F481509F4F9C93A081B181CD01DD
S1131E50019680839183707877232CF46150710903
S1131E607F6F6F5F7F4F11966C9380819181019694
S1131E70808391830895EF92FF920F931F93CF93E2
S1131E80DF938C017B01EB0109900020E9F7219796
S1131E90C61BD70BBE01D0DFAE01B701F8018081AC
S1131EA091810E946A20F80180819181C80FD91F15
S1131EB0C083D183DF91CF911F910F91FF90EF9059
S1131EC00895EF92FF920F931F93CF93DF9300D067
S1131ED000D0CDB7DEB77C0129833A834B835C8382
S1131EE06D837E830B811C811016110694F4B80156
S1131EF0A3DF6D817E81A801F701808191810E9419
S1131F006A20F70180819181080F191F00831183D2
S1131F100AC069817A816115710511F0ACDF03C0D3
S1131F2060E070E089DF2696CDBFDEBFDF91CF9100
S1131F301F910F91FF90EF900895CF93DF9300D0FE
S1131F4000D0CDB7DEB749835A836B837C838D83FE
S1131F509E83A981BA81109749F0FD010190002068
S1131F60E9F73197CF018A1B9B0B02C08B819C81BF
S1131F702696CDBFDEBFDF91CF910895EF92FF92F9
S1131F800F931F93CF93DF9300D000D0CDB7DEB76C
S1131F907C01F42FE52F862F972F422F532F6F2F7D
S1131FA07E2FCBDF0296800F911F1E141F040CF4AA
S1131FB002962696CDBFDEBFDF91CF911F910F9180
S1131FC0FF90EF9008952F923F924F925F926F92FD
S1131FD07F928F929F92AF92BF92CF92DF92EF92B5
S1131FE0FF920F931F93CF93DF93CDB7DEB72A975A
S1131FF0CDBFDEBF2C011B01498739010A87282D7B
S11320008B82392D9C824A2DAD825B2DBE826C2D34
S1132010CF827D2DD886CAA0DBA089839A838601CE
S1132020C301ACDF8C01EFDE28163906BCF160E396
S1132030898580FB63F9862D8370880F697F682BFF
S11320408A8580FB60F9CE010196ECDEB8018981B6
S11320509A81B3DE29813A81820F931F89839A83FF
S11320602B813C814D815E816F817885CE01019603
S113207028DF1614170424F4B701CE010196DCDE20
S1132080A60168A179A189819A810E946A20898127
S11320909A818C0D9D1D8419950902C08EEF9FEFC6
S11320A02A96CDBFDEBFDF91CF911F910F91FF9094
S11320B0EF90DF90CF90BF90AF909F908F907F90E4
S11320C06F905F904F903F902F9008952F923F9282
S11320D04F925F926F927F928F929F92AF92BF9234
S11320E0CF92DF92EF92FF920F931F93CF93DF93E0
S11320F0CDB7DEB7E797CDBFDEBFF82EE92E1B01C3
S11321002A0181E3EFE2F0E2DE01119601900D92E3
S11321108A95E1F71CAA1DAA1EAA1FAAEF2DF92F62
S1132120DF010D900020E9F711978D010E1B1F0BA5
S11321308CE690E28887998784E190E08E879F8778
S113214081E0888B82EC90E28EA39FA38CA79DA74D
S113215084E08F83AE014F5F5F4FB201C10138DD70
S11321603C018FE690E28AAB9BABB201661977091A
S11321701F930F93EF92FF928AA89BA8ACA8BDA8C7
S1132180CEA8DFA8E12CF12C00E020E030E040E014
S1132190C101860D971D17DF680E791EB2016619FD
S11321A07709C101860D971D05DE0F900F900F90E2
S11321B00F90860D971DE796CDBFDEBFDF91CF91BF
S11321C01F910F91FF90EF90DF90CF90BF90AF9051
S11321D09F908F907F906F905F904F903F902F9043
S11321E008958FEF80937000809371008093720044
S11321F080937300809374008093750080937600BD
S113220081E0809343000895CF93DF931F92CDB76D
S1132210DEB79FB79983F8949981E82FF0E0E059ED
S1132220FF4F60958081682360839FBF0F90DF918B
S1132230CF910895CF93DF931F92CDB7DEB79FB7A9
S11322409983F8949981E82FF0E0E059FF4F808159
S1132250682B60839FBF0F90DF91CF910895CF9338
S1132260DF93FC0120E030E0C62FD0E0DE01022E37
S113227002C0B595A7950A94E2F7A0FD508B2F5F95
S11322803F4F31962830310589F740FF0AC041FF9E
S113229003C0FC01658302C0FC016683FC01618309
S11322A002C0FC016283DF91CF91089543E050E0C6
S11322B068E080EC97E0D3DF40E058E164E080EC34
S11322C097E0CDDF43E050E068E080E896E0C7DFC8
S11322D040E050E064E080E896E0C1DF43E050E095
S11322E068E080E496E0BBDF40E050E064E080E436
S11322F096E0B5CF08954091CA01E62FF72F809359
S1132300CA0184914093CA010895FC01918195FF0B
S1132310FDCF608380E090E008954F925F926F92CA
S11323207F928F929F92AF92BF92EF92FF920F9300
S11323301F93CF937C014A015B0128013901FC0101
S1132340848182FF16C0D901C801689412F8B69539
S1132350A795979587951694D1F7B901A801032EEF
S113236036E176956795579547953A95D1F7302D8F
S113237015C0D901C801689413F8B695A795979527
S113238087951694D1F7B901A801032E37E1769504
S11323906795579547953A95D1F7302D8815990546
S11323A0AA05BB0508F4A6C084169506A606B706BA
S11323B008F4A2C0F701848182FD04C0880C991C32
S11323C0AA1CBB1CC301B201A50194010E94641F95
S11323D02F3F31054105510508F490C08FEF90E07F
S11323E0A0E0B0E0C9EF05C0281739074A075B072A
S11323F058F0880F991FAA1FBB1FCD3F0CF48160B2
S1132400CF5FC73089F74FC0CC230CF04CC0D50147
S1132410C401880F991FAA1FBB1F880F991FAA1FE9
S1132420BB1F880F991FAA1FBB1F481A590A6A0AA3
S11324307B0ACE3FF4F48DEF9FEF8C1B9109C7FD0F
S1132440939504C0440C551C661C771C8A95D2F7DE
S1132450D501C401B695A79597958795BC01CD0183
S1132460640D751D861D971DA50194010E94641FAE
S113247037C083E08C0FA501940104C0220F331FE1
S1132480441F551F8A95D2F7DA01C901B695A7955D
S113249097958795BC01CD01640D751D861D971D0B
S11324A00E94641F1DC083E08C0FA501940104C029
S11324B0220F331F441F551F8A95D2F7DA01C90131
S11324C0B695A79597958795BC01CD01640D751DAB
S11324D0861D971D0E94641F21503109410951092D
S11324E0832F8F70C295C07FC82BF701C7832683C3
S11324F081E018C080E016C080E014C0D501C4019A
S1132500880F991FAA1FBB1F880F991FAA1FBB1FE3
S1132510880F991FAA1FBB1F481A590A6A0A7B0A07
S1132520C9EF89CFCF911F910F91FF90EF90BF908A
S1132530AF909F908F907F906F905F904F90089591
S11325400F931F93CF93DF93EC018B01009709F452
S113255036C1803C910521F460E180E055DE2FC155
S1132560C03484E0D80721F468E080E04DDE27C160
S1132570C115E4E0DE0721F464E080E045DE1FC11C
S1132580C038F1E0DF0721F462E080E03DDE17C1EE
S1132590C11581E0D80721F461E080E035DE0FC188
S11325A0C038E3E0DE0721F461E081E02DDE07C1FD
S11325B0C039F3E0DF0721F461E082E025DEFFC0EB
S11325C0C11582E0D80721F462E081E01DDEF7C086
S11325D0C034E2E0DE0721F462E082E015DEEFC001
S11325E0C115F3E0DF0721F464E081E00DDEE7C00C
S11325F0C03283E0D80721F464E082E005DEDFC066
S1132600C115E8E0DE0721F461E083E0FDDDD7C019
S1132610C115F9E0DF0721F461E084E0F5DDCFC006
S1132620C1158AE0D80721F461E085E0EDDDC7C07B
S1132630C115EBE0DE0721F461E086E0E5DDBFC013
S1132640C034F8E0DF0721F462E083E0DDDDB7C0E9
S1132650C03489E0D80721F462E084E0D5DDAFC05E
S1132660C034EAE0DE0721F462E085E0CDDDA7C0F6
S1132670C034FBE0DF0721F462E086E0C5DD9FC0E3
S1132680C03988E0D80721F464E083E0BDDD97C059
S1132690C039E9E0DE0721F464E084E0B5DD8FC0F1
S11326A0C039FAE0DF0721F464E085E0ADDD87C0DE
S11326B0C0398BE0D80721F464E086E0A5DD7FC053
S11326C0C03CE8E0DE0721F468E083E09DDD77C0EC
S11326D0C03CF9E0DF0721F468E084E095DD6FC0D9
S11326E0C03C8AE0D80721F468E085E08DDD67C04E
S11326F0C03CEBE0DE0721F468E086E085DD5FC0E6
S1132700C03AF8E0DF0721F460E183E07DDD57C0E3
S1132710C03A89E0D80721F460E184E075DD4FC058
S1132720C03AEAE0DE0721F460E185E06DDD47C0F0
S1132730C03AFBE0DF0721F460E186E065DD3FC0DD
S1132740C03B88E0D80721F460E283E05DDD37C058
S1132750C03BE9E0DE0721F460E284E055DD2FC0F0
S1132760C03BFAE0DF0721F460E285E04DDD27C0DD
S1132770C03B8BE0D80721F460E286E045DD1FC052
S1132780C038E4E0DE0721F460E483E03DDD17C0F7
S1132790C039F4E0DF0721F460E484E035DD0FC0E4
S11327A0C03A84E0D80721F460E485E02DDD07C059
S11327B0C03BE4E0DE0719F460E486E025DD8D81AA
S11327C08F738D83F80195818481892B9681911172
S11327D098E0892B8D83F801408151816281738156
S11327E000E814E82EE130E0CE0197DD9C8198608A
S11327F09C839C8190619C83DF91CF911F910F9169
S1132800089504C061507109810991096115710528
S113281081059105B9F708950F931F93CF93DF9323
S1132820EB016881662339F08C012196C8016DDDC6
S113283069916111FBCFDF91CF911F910F910895A1
S1132840FC019B01A4E6B0E00E948F1F218122239A
S1132850CCF021E0611571058105910509F420E0B2
S1132860222381F061507109810991092181222378
S11328704CF021E0611571058105910509F420E012
S11328802111F0CF672B682B692B19F481E0DA0151
S11328908C93808108958F929F92AF92BF92CF9232
S11328A0DF92EF92FF921F93CF93DF931F92CDB7E6
S11328B0DEB75C016B017A01198210E04701810ED9
S11328C0911CAE014F5F5F4FB601C501B9DFF40142
S11328D080831F5F898191E0811190E0992331F019
S11328E091E0143608F090E09111E8CF0F90DF9159
S11328F0CF911F91FF90EF90DF90CF90BF90AF905A
S11329009F908F900895AF92BF92CF92DF92EF92F3
S1132910FF920F931F93CF93DF93E0ECF7E02481B2
S1132920277F2483009709F445C06894AA24A7F854
S11329300F2EF4E8BF2EF02D0F2EFEE1CF2EF02D3A
S1132940D12CE12CF12C00E010E0282F392F40E0AD
S113295050E060E070E080E090E00E949E1F0F2E47
S1132960F6E0AF2EF02DB12CC12C0E94F11F29519D
S11329703C4F4F4F5F4F6F4F7F4F8F4F9F4FB0D79D
S113298020E030E04AE754E4CCD638D7022F132FA6
S1132990D42FC52F622F712F8D2F9C2F32DFE0ECA7
S11329A0F7E0848188608483602F712F8D2F9C2FA2
S11329B028DF0FC061E070E080E090E022DFE0EC0F
S11329C0F7E084818860848361E070E080E090E0D7
S11329D018DFDF91CF911F910F91FF90EF90DF905F
S11329E0CF90BF90AF9008950F931F93CF93DF9331
S11329F01F92CDB7DEB78C0164E080E005DCE0E037
S1132A00F4E002871387108611868091BA238F3FE2
S1132A1009F4FFCF8FB78983F8949981E7EBF3E248
S1132A2083818F5F83839FBFE0E0F4E082818160D4
S1132A30828387E080830F90DF91CF911F910F9164
S1132A4008958F929F92AF92BF92CF92DF92EF92AE
S1132A50FF920F931F93CF93DF931F92CDB7DEB7EF
S1132A60FC010DB71EB7822F90E0880F991FADB7F8
S1132A70BEB7A81BB90BADBFBEBF1196E11572E07E
S1132A80F70751F4842F90E0880F991F880F991F3E
S1132A90880F991F80932102222309F43FC0562FE7
S1132AA0550F550F462F4370962F969596954111C5
S1132AB002C082E001C080E0382F8F5F6D017F018A
S1132AC0A0E2EA0EF11C4111962F90FD832FB8E08D
S1132AD08B9FE00CF11C1124812C912C540140E0BB
S1132AE08FB78983F89499818081852B80839FBFD8
S1132AF0968196236913FCCF6683D70114968D9132
S1132B009C911597D6018D939D936D01880E991E06
S1132B10A11CB11C4F5F2413E3CF03C0812C912C63
S1132B20540130E040E050E0C501B4010E94641F4C
S1132B30C9010DBF1EBF0F90DF91CF911F910F915F
S1132B40FF90EF90DF90CF90BF90AF909F908F90C9
S1132B500895FB0122813381AC01421B530B9A017E
S1132B6022F444275527421B530B62857385772330
S1132B701CF4719561957109A1E0641775070CF057
S1132B80A0E0AA23A1F061E0A289B389AB2B09F4E8
S1132B9060E0662361F0332344F49A012F3F57E049
S1132BA0350710F02FEF37E038602287338726810E
S1132BB037818217930710F48683978320853185A4
S1132BC02817390710F4808791870895442361F00A
S1132BD0A62FB72FE82FF92F80E02D913D91219357
S1132BE031938F5F4813F9CF80E00895E0E8F6E071
S1132BF080818064808380818F7780830895E0EA78
S1132C00F6E080818061808308950F931F93CF93B2
S1132C10DF93C0E8D6E08C818F7B8C836EE471E017
S1132C2080E090E0EEDD8C8180648C8366E372E862
S1132C3080E090E0E6DD8C818F7B8C836BEA71E130
S1132C4084E090E0DEDD66ED78E082E090E0D9DDBE
S1132C508C8180648C8388858823A4F0C0E000E89C
S1132C6016E061EA76E881E090E0CBDDCF5FF80121
S1132C708085882344F081E0CB3108F080E0811125
S1132C80F0CF01C0C0E081E0CB3109F080E0DF91FA
S1132C90CF911F910F910895CF93DF93C0E8D6E0B1
S1132CA08C818F7B8C8366E176E185E090E0A9DD01
S1132CB08C8180648C8366E176E185E090E0A1DD1F
S1132CC08C818F7B8C83888580E0DF91CF91089500
S1132CD0662359F0FC01615070E06F5F7F4F860FEF
S1132CE0971F1192E817F907E1F708952F923F9281
S1132CF04F925F926F927F928F929F92AF92BF9208
S1132D00CF92DF92EF92FF920F931F93CF93DF93B3
S1132D10CDB7DEB76397CDBFDEBF8A8B9B8B2E8783
S1132D203F8719821A82FE01339683E0DF011D92E8
S1132D308A95E9F7AA88BB881501B4E12B0E311CEA
S1132D408E859F85092E000CAA0BBB0B8A879B8757
S1132D50AC87BD87288A398A6A0168C0E92CF32CBC
S1132D606A857B858C859D8580D52B013C01B801C6
S1132D70012E000C880B990B78D59B01AC01C30183
S1132D80B20175D66E837F8388879987D5016D914B
S1132D907C9180E090E067D52E813F8148855985FC
S1132DA0BCD488234CF4F60101900020E9F7319754
S1132DB080E390E0808391830150110979F692E0D9
S1132DC0A90EB11C4E855F85BE016F5F7F4FD70191
S1132DD08D919C910E949F20BE016F5F7F4FC60121
S1132DE00E947320F60101900020E9F731978CE2EC
S1132DF090E08083918365E0CE01019669DFA88924
S1132E00B989AA16BB0691F41D014601EA88FB881C
S1132E10B2E2EB0EF11C0F2EF0E3AF2EB12CF02D2D
S1132E200F2EFCE2CF2ED12CF02D2DC003E010E0AC
S1132E309A2C3B2C93CFF40101900020E9F73197B1
S1132E40A082B182E2E02E0E311C4E855F85BE0168
S1132E506F5F7F4FD8018D919C910E949F20BE018E
S1132E606F5F7F4FC4010E947320F4010190002022
S1132E70E9F73197C082D18265E0CE01019628DF5F
S1132E80E214F30479F08101F1016081718180E041
S1132E9090E0E9D49B01AC01C301B201E4D518165A
S1132EA08CF6C9CF80E06396CDBFDEBFDF91CF91B2
S1132EB01F910F91FF90EF90DF90CF90BF90AF9054
S1132EC09F908F907F906F905F904F903F902F9046
S1132ED0089541E166E070E285E294E277DE60E81D
S1132EE080E393E2F5DE60E080E392E2F1CE0895C0
S1132EF0EF92FF920F931F93CF93DF9300D0CDB740
S1132F00DEB719821A821B820F2EF4EDEF2EF3E244
S1132F10FF2EF02D0AE010E0F701319780818983BC
S1132F20F70180818A83CE0101960E944D20F80129
S1132F30EE0FFF1FEB5DFB4D80839183F3E0EF0EFB
S1132F40F11C0F5F1F4F0031110531F72396CDBFE0
S1132F50DEBFDF91CF911F910F91FF90EF90089505
S1132F60CF92DF92EF92FF920F931F93CF93DF9351
S1132F707C016B01D22F222311F1C0E0042F10E059
S1132F8064E681EC93E2A4DEB70180EA98E044DCD5
S1132F9041EC53E2B80180EA98E07DDCB60181ECB3
S1132FA093E20E948520892B61F461EA76E881E04E
S1132FB090E027DCCF5FDC13E3CFC1E003C0C0E0C7
S1132FC001C0C0E061EC73E280EA9AE025DC8C2F5A
S1132FD0DF91CF911F910F91FF90EF90DF90CF90F1
S1132FE008952BE14CE264E770E280E890E2B8DFF8
S1132FF0811181C029E04CE262E671E28DE890E241
S1133000AFDF81117AC029E04CE262E671E28BE91C
S113301090E2A6DF811173C029E04CE262E671E21E
S113302083EC90E29DDF81116CC029E04CE262E602
S113303071E28FEC90E294DF811165C029E04CE2EB
S113304062E671E28CED90E28BDF81115EC029E0D3
S11330504CE262E671E28AEE90E282DF811157C0AF
S113306029E04CE267EF70E280E091E279DF8111C0
S113307050C029E040E26BE071E281E191E270DF4F
S1133080811149C029E04CE26BE171E28EE191E2E9
S113309067DF811142C029E04CE261E070E080E02A
S11330A091E25EDF81113BC029E040E262E671E219
S11330B08AE291E255DF811134C029E04CE262E6F4
S11330C071E28DE491E24CDF81112DC029E04CE2E4
S11330D06AE571E280E091E243DF811126C029E0D4
S11330E04CE265E671E28CE691E23ADF81111FC0A1
S11330F0FFDE80E0089580E0089580E0089580E098
S1133100089580E0089580E0089580E0089580E0C7
S1133110089580E0089580E0089580E0089580E0B7
S1133120089581E0089580E0089580E0089580E2A4
S1133130089529E04CE262E671E285E791E210DF4E
S1133140811107C029E040E262E671E281E891E280
S113315007DF80E00895EF92FF920F931F93CF93C0
S1133160DF937C018B0129E04CE26DE871E28FE88A
S113317091E2F6DE811118C01016110654F4E7012D
S11331800E0D1F1D699180EA9AE0BFD8C017D107C0
S1133190C9F729E04CE260E070E08AE991E2E0DE00
S11331A0882321F082E003C081E001C080E0DF9148
S11331B0CF911F910F91FF90EF9008951F920F925E
S11331C00FB60F92112408B60F9218BE09B60F92CB
S11331D019BE0AB60F921ABE0BB60F921BBE2F92DF
S11331E03F924F925F926F927F928F929F92AF9293
S11331F0BF92CF92DF92EF92FF920F931F932F9380
S11332003F934F935F936F937F938F939F93AF936A
S1133210BF93EF93FF93CF93DF93CDB7DEB72A9796
S1133220CDBFDEBFF89482E390E06DDB81E0809354
S1133230B0238091B023813009F058C10F2EFBE0F8
S11332406F2EF02D0F2EFAE07F2EF02D0F2EF9E0C9
S1133250CF2EF02D6894442443F80F2EF3E0DF2E94
S1133260F02D4E0128E0820E911C5E0183E0A80E31
S1133270B11C0F2EF7E05F2EF02D0F2EF6E02F2E4F
S1133280F02D0F2EF5E03F2EF02D0F2EF0EAEF2E4D
S1133290F6E0FF2EF02D8091B62390E08C3091055E
S11332A008F019C1FC018827E250FF4F8F4F2EC64A
S11332B064E681EC93E20CDDF7018581806185830E
S11332C041EC53E26CE271E080EA9BE0E4DAF7015E
S11332D085818F7E858361EC73E280EA9AE09CDAD3
S11332E0E1ECF3E220818181022E000C330B322FBA
S11332F02227082E000C990B822B932B80933524C4
S11333009093362481E08093B523E7C02C2D40E0D0
S113331061E080E092E095DB05E214E2F80180834D
S1133320918321E040E161E080E492E08ADBF801EE
S11333308487958721E041E162E080E492E081DBCB
S1133340F80186879787208131818091B1239091FC
S1133350B223A091B323B091B423820F931FA11D74
S1133360B11D8093B1239093B223A093B323B09360
S1133370B42380819181B801ECDBF80180819181D3
S113338082839383828993890196828B938B82892A
S113339093890A9720F082E08093B5239EC010920F
S11333A0B5231092B02399C005E214E2F8012289F2
S11333B0338940E050E06091B1237091B223809151
S11333C0B3239091B42380D5F801248335831092DC
S11333D0B1231092B2231092B3231092B423D0924B
S11333E0B5237BC0109237241092382484E0809354
S11333F0B52373C00ADC813051F4E5E2F4E280A124
S113340091A1816080A391A37092B52366C030928C
S1133410B52363C0E6DD882351F0E5E2F4E280A140
S113342091A1826080A391A3C092B52356C020923B
S1133430B52353C02AE030E040E353E261E185E282
S113344094E254DC40E051E060E372E280E393E212
S11334500E94661080932E2290932F221E821F8238
S1133460F4012D2D11922A95E9F719821A82F5019A
S11334702D2D11922A95E9F7472DBE016A5F7F4FE2
S113348068D6BE016A5F7F4FCE01019637D6BE0172
S11334906F5F7F4F80EA9AE0BFD95092B5231DC079
S11334A060912E2270912F2280E392E254DE4092AA
S11334B0B52313C0C092B52310C03BDE7092B52370
S11334C00CC0EADB6092B52308C003DD1092B5237B
S11334D01092B02302C06092B5238091B5238093EB
S11334E0B6238091B023813009F4D5CE109208041C
S11334F01092090478942A96CDBFDEBFDF91CF9154
S1133500FF91EF91BF91AF919F918F917F916F91B7
S11335105F914F913F912F911F910F91FF90EF90E9
S1133520DF90CF90BF90AF909F908F907F906F90DF
S11335305F904F903F902F900F900BBE0F900ABE5C
S11335400F9009BE0F9008BE0F900FBE0F901F90F2
S11335501895CF93DF93CDB7DEB76697CDBFDEBFA7
S1133560F8940E94561187E08093A2000E94F11003
S1133570E0ECF7E0808188608083848188608483C4
S1133580BE01685F7F4F80E092E00E94300499851D
S11335908A858F7880618A87892F817E89871B86B7
S11335A012E01C87BE01685F7F4F80E092E00E94BA
S11335B0C603AE014D5E5F4F61E080E092E00E9481
S11335C0B40481E08B8B1C8AAE014D5E5F4F61E0D9
S11335D080E092E00E946904BE016F5F7F4F80E447
S11335E092E00E9430049A818B818F7880618B8372
S11335F0892F817E8A831C821D83BE016F5F7F4F6A
S113360080E492E00E94C603AE01415F5F4F61E037
S113361080E492E00E94B4041F8688E0888BAE01A7
S1133620415F5F4F61E080E492E00E9469041F867D
S1133630188AAE01415F5F4F62E080E492E00E942D
S1133640690480E092E00E94B20180E492E00E946A
S1133650B20168E270E280EA9AE00E94A01264E09B
S113366085E00E94041168E270E280EA98E00E941A
S1133670A01264E083E00E94041168E270E280EA30
S11336809BE00E94A01264E086E00E940411B7DA75
S1133690ADDA66E176E185E090E0B3D88091880602
S11336A088230CF4F9DA15DCE0E7F0E080818B7F05
S11336B08083E7EBF3E21082118212821382148278
S11336C081E0858381E090E08FD9789447EB53E2E1
S11336D028E430E0F894DA018C91811109C0A8EB58
S11336E0B3E2E0E0EF5F8D918823E1F3E11102C0E2
S11336F07894F0CFD9018C91F0E0E150F04E817FC5
S11337009081892B8C938C9181608C93789488958B
S1133710F90180818E7F8083DDCF20D108F481E0A0
S113372008950CD066C15ED140F055D130F021F43B
S11337305F3F19F037C1511190C13AC16BD198F371
S11337409923C9F35523B1F3951B550BBB27AA271E
S113375062177307840738F09F5F5F4F220F331F90
S1133760441FAA1FA9F333D00E2E3AF0E0E830D05C
S113377091505040E695001CCAF729D0FE2F27D05F
S1133780660F771F881FBB1F261737074807AB072D
S1133790B0E809F0BB0B802DBF01FF2793585F4FA2
S11337A02AF09E3F510568F0FDC057C15F3FECF31E
S11337B0983EDCF3869577956795B795F7959F5F67
S11337C0C9F7880F911D9695879597F90895E1E0BB
S11337D0660F771F881FBB1F621773078407BA071A
S11337E020F0621B730B840BBA0BEE1F88F7E09575
S11337F00895BEE304D008F490E80895BFE32227B7
S11338003327A9010FD158F19F5740F1B91738F167
S1133810BFE3B91B9927B8503AF4660F771F881F86
S1133820991FB395D2F316C0B8504AF0232F342F02
S1133830452F562F672F782F8827B850BAF7B85FCF
S113384049F08695779567955795479537952795C8
S1133850BA95B9F70EF4AFD088940895889460E0CF
S113386070E0CB010895E89409C097FB3EF490956D
S11338708095709561957F4F8F4F9F4F9923A9F045
S1133880F92F96E9BB279395F695879577956795D4
S1133890B795F111F8CFFAF4BB0F11F460FF1BC018
S11338A06F5F7F4F8F4F9F4F16C0882311F096E9AB
S11338B011C0772321F09EE8872F762F05C0662359
S11338C071F096E8862F70E060E02AF09A95660F12
S11338D0771F881FDAF7880F9695879597F90895CB
S11338E0E894F92F96EBFF2381F0121613061406C1
S11338F0440B9395F6958795779567955795404032
S1133900FF23B9F71BC099270895882351F49850D1
S1133910D2F7872B762F652F542F432F322F20E099
S1133920B1F3121613061406440B88233AF09A9541
S1133930440F551F661F771F881FCAF755234AF483
S1133940440F551F11F460FF04C06F5F7F4F8F4F0A
S11339509F4F880F9695879597F90895990F0008BA
S1133960550FAA0BE0E8FEEF16161706E807F9074D
S1133970C0F012161306E407F50798F0621B730BE8
S1133980840B950B39F40A2661F0232B242B252B69
S113399021F408950A2609F4A140A6958FEF811D0C
S11339A0811D089597F99F6780E870E060E00895AD
S11339B09FEF80EC08959095809570956095509553
S11339C04095309521953F4F4F4F5F4F6F4F7F4F3D
S11339D08F4F9F4F089500240A9416161706180651
S11339E00906089500240A941216130614060506FF
S11339F00895092E0394000C11F4882352F0BB0F90
S1133A0040F4BF2B11F460FF04C06F5F7F4F8F4FF2
S1133A109F4F089557FD9058440F551F59F05F3F2D
S1133A2071F04795880F97FB991F61F09F3F79F0DC
S1133A3087950895121613061406551FF2CF46955E
S1133A40F1DF08C0161617061806991FF1CF8695E0
S1133A507105610508940895E894BB2766277727C4
S1133A60CB0197F908957ADF08F48FEF0895FA01EE
S1133A70EE0FFF1F30962105310599F1611571058F
S1133A8061F48038BFE39B0749F16894903881055D
S1133A9061F08038BFEF9B0741F0992342F5FF3F67
S1133AA0E1053105210511F1E8940894E795D90160
S1133AB0AA2329F4AB2FBE2FF85FD0F310C0FF5F09
S1133AC070F4A695E0F7F73950F019F0FF3A38F49E
S1133AD09F779F930CD00F9007FC905808953EF069
S1133AE067CF60E070E080E89FE308954FE79F7739
S1133AF05F934F933F932F939ED02F913F914F917C
S1133B005F910CD105C019F40EF04CCFA5CF50CF66
S1133B1089DFC8F39638C0F707F80F92E8942BE3CF
S1133B203AEA48EB5FE708D10F920F920F924DB734
S1133B305EB70F92C0D0E4E1F2E016D04F915F91EE
S1133B40EF91FF91E595EE1FFF1F49F0FE57E068E6
S1133B504427EE0F441FFA95E1F74195550B32D0F7
S1133B600F9007FE26C00895DF93CF931F930F9302
S1133B70FF92EF92DF927B018C01689405C0DA2EEC
S1133B80EF01D8D0FE01E894A59125913591459196
S1133B905591AEF3EF0137D1FE019701A801DA94F4
S1133BA079F7DF90EF90FF900F911F91CF91DF9104
S1133BB008959B01AC0160E070E080E89FE3B1CD23
S1133BC0F1CE74C12FDFE8F39923D9F3940F511D7B
S1133BD0BBF39150504094F059F0882332F0660FB3
S1133BE0771F881F91505040C1F79E3F510544F7FD
S1133BF0880F911D9695879597F908955F3FACF0CE
S1133C00983E9CF0BB27869577956795B79508F401
S1133C10B1609395C1F7BB0F58F711F460FFE8CF7B
S1133C206F5F7F4F8F4F9F4FE3CF17CF0EF03EC193
S1133C30BFCE6894B7CEF6DEC8F39923D1F3C6F3AA
S1133C40DF93CF931F930F93FF92C92FDD27882310
S1133C502AF02197660F771F881FDAF720E030E0FB
S1133C6040E85FEB9FE3883920F0803E30F02196F6
S1133C708F77B8D0ECE3F2E003C0B4D0E9E6F2E029
S1133C8073DF8B01BE01EC01FB2E6F577109759533
S1133C90771F880B990BE9DD28E132E741E35FE305
S1133CA049D0AF2D9801AE01FF900F911F91CF9194
S1133CB0DF91A9D09ECEFA01DC01AA0FBB1F9B01A4
S1133CC0AC01BF5728F422273327442750781FC05C
S1133CD0B75188F4AB2F0024469537952795011CDE
S1133CE0A395D2F3002069F0220F331F441FB3952C
S1133CF0DAF30DD076C061307105A0E88A07B946C1
S1133D0030F49B01AC01662777278827907830969A
S1133D1021F0208331834283538308950BD069CEED
S1133D205ADE28F05FDE18F0952309F03BCE40CE32
S1133D30112493CE6FDEA0F3959FD1F3950F50E03D
S1133D40551F629FF001729FBB27F00DB11D639F49
S1133D50AA27F00DB11DAA1F649F6627B00DA11DEF
S1133D60661F829F2227B00DA11D621F739FB00D95
S1133D70A11D621F839FA00D611D221F749F332705
S1133D80A00D611D231F849F600D211D822F762F9E
S1133D906A2F11249F5750408AF0E1F088234AF09B
S1133DA0EE0FFF1FBB1F661F771F881F91505040E7
S1133DB0A9F79E3F510570F0F5CD4FCE5F3FECF370
S1133DC0983EDCF3869577956795B795F795E795D3
S1133DD09F5FC1F7FE2B880F911D9695879597F9E4
S1133DE008955058BB27AA270ED003CEF4DD30F037
S1133DF0F9DD20F031F49F3F11F41EF4D9CD0EF417
S1133E00E095E7FBCFCDE92F05DE80F3BA17620713
S1133E1073078407950718F071F49EF51DCE0EF410
S1133E20E0950B2EBA2FA02D0B01B90190010C01C6
S1133E30CA01A0011124FF27591B99F0593F50F4DE
S1133E40503E68F11A16F040A22F232F342F442736
S1133E50585FF3CF469537952795A795F04053952E
S1133E60C9F77EF41F16BA0B620B730B840BBAF0FE
S1133E709150A1F0FF0FBB1F661F771F881FC2F769
S1133E800EC0BA0F621F731F841F48F4879577957D
S1133E906795B795F7959E3F08F0B3CF9395880F34
S1133EA008F09927EE0F9795879508959F3F31F075
S1133EB0915020F4879577956795B795880F911D54
S1133EC09695879597F90895A1E21A2EAA1BBB1B14
S1133ED0FD010DC0AA1FBB1FEE1FFF1FA217B307D2
S1133EE0E407F50720F0A21BB30BE40BF50B661FE8
S1133EF0771F881F991F1A9469F7609570958095AC
S1133F0090959B01AC01BD01CF010895EE0FFF1FF9
S1133F10881F8BBF0790F691E02D1BBE1994A29FBA
S1133F20B001B39FC001A39F700D811D1124911D89
S1133F30B29F700D811D1124911D0895DF93CF93BD
S1133F401F930F939A9DF02D219FF00D8B9DF00DE3
S1133F508A9DE02DF10D039FF00D029FE00DF11DF0
S1133F604E9DE00DF11D5E9DF00D4F9DF00D7F9374
S1133F706F93BF92AF925F934F93D501D0DF8B01C4
S1133F80AC01D701CCDFEB01E80FF91FD6011FD03C
S1133F902F913F91D601C3DFC60FD71FE81FF91F2A
S1133FA0AF91BF9114D02F913F91B9DFC60FD71FA6
S1133FB0E81FF91FD601B3DFE60FF71F9801BE0112
S1133FC0CF0111240F911F91CF91DF910895A7DFA5
S1133FD0460F571FC81FD91F08F4319608956894D7
S1133FE001C0E8948F929F92CF93DF9305D0DF9125
S1133FF0CF919F908F90089588249924F401E4012F
S1134000B0E49F93AA279A158B049C04ED05FE0542
S1134010CF05D007A10798F4AD2FDC2FCF2FFE2FAB
S1134020E92D982C892E982F872F762F652F542FC2
S1134030432F322F2227B85031F7BF9127C01B2EB0
S1134040BF91BB27220F331F441F551F661F771FC5
S1134050881F991F881C991CEE1FFF1FCC1FDD1F92
S1134060AA1FBB1F8A149B04EC05FD05CE05DF05C2
S1134070A007B10748F08A189B08EC09FD09CE098E
S1134080DF09A00BB10B21601A94E1F62EF4940120
S1134090AF01BE01CD01000C0895FC0188279927CA
S11340A0E89421912032E9F3293010F02E30C8F33E
S11340B02B3239F02D3231F4689403C054D0820F7E
S11340C0911D219120532A30C8F31EF490958195B7
S11340D09F4F0895FB01DC0102C001900D924150F5
S11340E05040D8F70895FB01DC010D900020E9F75A
S11340F0119701900D920020E1F70895FB01DC0176
S113410001900D920020E1F70895FB015191552390
S1134110A9F0BF01DC014D9145174111E1F759F4B4
S1134120CD010190002049F04D9140154111C9F392
S1134130FB014111EFCF81E090E0019708954532F2
S1134140510518F4423008F004C0FB011082CB0181
S11341500895BB274A3031F4992322F4BDE29095A7
S113416081959F4F09C07AE0979F902D879F802D5E
S1134170910D11240895BB27FB015527AA27880F09
S1134180991FAA1FA41710F0A41B83955051B9F7C7
S1134190A05DAA3308F0A95DA193009779F7B11146
S11341A0B1931192CB0100C0DC01FC01672F719126
S11341B07723E1F7329704C07C916D937083629109
S10F41C0AE17BF07C8F30895F894FFCFB2
S11341CC000E060C0400000000000000FFFF0000BD
S11341DC00000000000000000000000000000000CF
S11341EC0000000000000000004B00000300014D23
S11341FC5154430000040000000000003C00010086
S113420C4D51545700000000000000000000000055
S113421C000000000000000000000000000000008E
S113422C4D515454004D5149736470004C45004C2D
S113423C452F3000514E5354415455533A203000BD
S113424C41542B514E5354415455530D0041542B4E
S113425C51494647434E543D300D0041542B51496E
S113426C435347503D312C2261706E312E6C696C76
S113427C6C6562616B6B2E636F6D222C22222C2277
S113428C220D0041542B51494D55583D300D0041E0
S113429C542B51494D4F44453D300D0041542B5145
S11342AC49444E5349503D300D0041542B51495211
S11342BC45474150500D004950205354415254002D
S11342CC41542B5149535441540D005149414354C9
S11342DC0041542B51494143540D00313000415499
S11342EC2B51494C4F4349500D0041542B51494FCC
S11342FC50454E3D22544350222C2231302E31381D
S113430C2E302E3339222C313838330D0041542BB6
S113431C5149535256433D310D00434F4E4E454384
S113432C54204F4B00514C54533A200041542B51C0
S113433C4C54530D0041542B5149434C4F53450D90
S113434C0041542B514944454143540D003E004116
S113435C542B514953454E440D001A0041542B43E0
S113436C495053544152543D0054435000222C2282
S113437C0031302E31382E302E3339003138383369
S113438C0041542B435354543D0061706E312E6CD8
S111439C696C6C6562616B6B2E636F6D000063
S9030000FC
