:10000000FDC000001FC100001DC100001BC1000099
:1000100019C1000017C1000015C1000013C1000084
:1000200011C100000FC100000DC100000BC1000094
:1000300009C1000007C1000005C1000003C10000A4
:1000400001C10000FFC00000FDC00000FBC00000B7
:10005000F9C00000F7C00000F5C00000F3C00000C8
:10006000F1C00000EFC00000EDC00000EBC00000D8
:10007000E9C00000E7C00000E5C00000E3C00000E8
:10008000E1C00000DFC00000DDC00000DBC00000F8
:10009000D9C00000D7C00000D5C00000D3C0000008
:1000A000D1C00000CFC00000CDC00000CBC0000018
:1000B000C9C00000C7C00000C5C00000C3C0000028
:1000C000C1C00000BFC00000BDC00000BBC0000038
:1000D000B9C00000B7C00000B5C00000B3C0000048
:1000E000B1C00000AFC00000ADC00000ABC0000058
:1000F000A9C00000A7C00000A5C00000A3C0000068
:10010000A1C000009FC000009DC000009BC0000077
:1001100099C0000097C0000095C0000093C0000087
:1001200091C000008FC000008DC000008BC0000097
:1001300089C0000087C0000085C0000083C00000A7
:1001400081C000007FC000007DC000007BC00000B7
:1001500079C0000077C0000075C0000073C00000C7
:1001600071C000006FC000006DC000006BC00000D7
:1001700069C0000067C0000065C0000063C00000E7
:1001800061C000005FC000005DC000005BC00000F7
:1001900059C0000057C0000055C0000053C0000007
:1001A00051C000004FC000004DC000004BC0000017
:1001B00049C0000047C0000045C0000043C0000027
:1001C00041C000003FC000003DC000003BC0000037
:1001D00039C0000037C0000035C0000033C0000047
:1001E00031C000002FC000002DC000002BC0000057
:1001F00029C0000027C0000025C0000011241FBE38
:10020000CFEFCDBFDFE3DEBF00E00CBF18BE19BEED
:100210001ABE1BBE10E2A0E0B0E2EEEDF9E000E095
:100220000BBF02C007900D92A03DB107D9F71BBECE
:1002300020E2A0EDB0E201C01D92A03DB207E1F7BF
:100240000BD3CBC3DDCE8FEF809370008093710012
:100250008093720080937300809374008093750084
:10026000809376000895CF93DF931F92CDB7DEB7CA
:100270009FB79983F8949981E82FF0E0E059FF4FF8
:1002800060958081682360839FBF0F90DF91CF913D
:100290000895CF93DF93FC0120E030E0C62FD0E03B
:1002A000DE01022E02C0B595A7950A94E2F7A0FDE3
:1002B000508B2F5F3F4F31962830310589F740FF33
:1002C0000AC041FF03C0FC01658302C0FC016683D4
:1002D000FC01618302C0FC016283DF91CF9108952C
:1002E00043E050E068E080EC97E0D3DF40E058E185
:1002F00064E080EC97E0CDDF43E050E068E080E828
:1003000096E0C7DF40E050E064E080E896E0C1DFBF
:1003100043E050E068E080E496E0BBDF40E050E07E
:1003200064E080E496E0B5CF0895FC01918195FFEB
:10033000FDCF608380E090E008954F925F926F92CE
:100340007F928F929F92AF92BF92EF92FF920F9304
:100350001F93CF937C014A015B0128013901FC0105
:10036000848182FF16C0D901C801689412F8B6953D
:10037000A795979587951694D1F7B901A801032EF3
:1003800036E176956795579547953A95D1F7302D93
:1003900015C0D901C801689413F8B695A79597952B
:1003A00087951694D1F7B901A801032E37E1769508
:1003B0006795579547953A95D1F7302D881599054A
:1003C000AA05BB0508F4A2C084169506A606B706C2
:1003D00008F49EC0F701848182FD04C0880C991C3A
:1003E000AA1CBB1CC301B201A5019401D4D22F3FAA
:1003F00031054105510508F48DC08FEF90E0A0E074
:10040000B0E0C9EF05C0281739074A075B0758F065
:10041000880F991FAA1FBB1FCD3F0CF48160CF5FCF
:10042000C73089F74DC0CC230CF04AC0D501C401B8
:10043000880F991FAA1FBB1F880F991FAA1FBB1FD8
:10044000880F991FAA1FBB1F481A590A6A0A7B0AFC
:10045000CE3FECF48DEF9FEF8C1B9109C7FD939578
:1004600004C0440C551C661C771C8A95D2F7D50134
:10047000C401B695A79597958795BC01CD01640DEC
:10048000751D861D971DA501940185D235C083E099
:100490008C0FA501940104C0220F331F441F551F68
:1004A0008A95D2F7DA01C901B695A79597958795F0
:1004B000BC01CD01640D751D861D971D6CD21CC03D
:1004C00083E08C0FA501940104C0220F331F441F49
:1004D000551F8A95D2F7DA01C901B695A795979568
:1004E0008795BC01CD01640D751D861D971D53D2E6
:1004F0002150310941095109832F8F70C295C07F66
:10050000C82BF701C783268381E018C080E016C09E
:1005100080E014C0D501C401880F991FAA1FBB1F1A
:10052000880F991FAA1FBB1F880F991FAA1FBB1FE7
:10053000481A590A6A0A7B0AC9EF8CCFCF911F91DA
:100540000F91FF90EF90BF90AF909F908F907F9012
:100550006F905F904F9008950F931F93CF93DF9309
:10056000EC018B01009709F436C1803C910521F420
:1005700060E180E078DE2FC1C03484E0D80721F448
:1005800068E080E070DE27C1C115E4E0DE0721F4F9
:1005900064E080E068DE1FC1C038F1E0DF0721F4CD
:1005A00062E080E060DE17C1C11581E0D80721F468
:1005B00061E080E058DE0FC1C038E3E0DE0721F4DF
:1005C00061E081E050DE07C1C039F3E0DF0721F4CC
:1005D00061E082E048DEFFC0C11582E0D80721F467
:1005E00062E081E040DEF7C0C034E2E0DE0721F4E3
:1005F00062E082E038DEEFC0C115F3E0DF0721F4EE
:1006000064E081E030DEE7C0C03283E0D80721F447
:1006100064E082E028DEDFC0C115E8E0DE0721F4F7
:1006200061E083E020DED7C0C115F9E0DF0721F4E7
:1006300061E084E018DECFC0C1158AE0D80721F45C
:1006400061E085E010DEC7C0C115EBE0DE0721F4F4
:1006500061E086E008DEBFC0C034F8E0DF0721F4C7
:1006600062E083E000DEB7C0C03489E0D80721F43F
:1006700062E084E0F8DDAFC0C034EAE0DE0721F4D8
:1006800062E085E0F0DDA7C0C034FBE0DF0721F4C5
:1006900062E086E0E8DD9FC0C03988E0D80721F439
:1006A00064E083E0E0DD97C0C039E9E0DE0721F4D3
:1006B00064E084E0D8DD8FC0C039FAE0DF0721F4C0
:1006C00064E085E0D0DD87C0C0398BE0D80721F435
:1006D00064E086E0C8DD7FC0C03CE8E0DE0721F4CE
:1006E00068E083E0C0DD77C0C03CF9E0DF0721F4BB
:1006F00068E084E0B8DD6FC0C03C8AE0D80721F430
:1007000068E085E0B0DD67C0C03CEBE0DE0721F4C7
:1007100068E086E0A8DD5FC0C03AF8E0DF0721F4BA
:1007200060E183E0A0DD57C0C03A89E0D80721F43A
:1007300060E184E098DD4FC0C03AEAE0DE0721F4D2
:1007400060E185E090DD47C0C03AFBE0DF0721F4BF
:1007500060E186E088DD3FC0C03B88E0D80721F437
:1007600060E283E080DD37C0C03BE9E0DE0721F4D2
:1007700060E284E078DD2FC0C03BFAE0DF0721F4BF
:1007800060E285E070DD27C0C03B8BE0D80721F434
:1007900060E286E068DD1FC0C038E4E0DE0721F4D7
:1007A00060E483E060DD17C0C039F4E0DF0721F4C6
:1007B00060E484E058DD0FC0C03A84E0D80721F43B
:1007C00060E485E050DD07C0C03BE4E0DE0719F4DB
:1007D00060E486E048DD8D818F738D83F80195811B
:1007E0008481892B9681911198E0892B8D83F80162
:1007F000408151816281738100E814E82EE130E08C
:10080000CE019BDD9C8198609C839C8190619C8340
:10081000DF91CF911F910F91089504C0615071092C
:10082000810991096115710581059105B9F708954F
:100830000F931F93CF93DF93EB016881662339F009
:100840008C012196C80171DD69916111FBCFDF91A7
:10085000CF911F910F910895CF93DF931F92CDB742
:10086000DEB784E089833CDDEEDCE0ECF7E08081FC
:100870008860808384818860848367E070E280EA96
:100880009AE06ADE60E070E280EA98E065DE62E3AA
:1008900070E280EA98E0CCDF66E176E185E090E006
:1008A000BCDF6EE370E280EA98E0C2DF66E176E1E9
:1008B00085E090E0B2DF6CE470E280EA98E0B8DFB7
:1008C00066E176E185E090E0A8DF00E210E20F2E1D
:1008D000F2E3EF2EF0E2FF2EF02DF801619171911D
:1008E0008F0180EA98E0A4DF0E151F05B1F766E1DD
:1008F00076E185E090E091DF69E570E280EA98E0DA
:1009000097DF61E472E48FE090E087DF63E670E2F6
:1009100080EA98E08DDF66E176E185E090E07DDFBA
:100920000EE010E20F2EF0E2EF2EF0E2FF2EF02D9F
:10093000F801619171918F0180EA98E079DF0E15DD
:100940001F05B1F761E472E48FE090E066DF6DE6C9
:1009500070E280EA98E06CDF66E176E185E090E0A5
:100960005CDF69E770E280EA98E062DF66E176E1E9
:1009700085E090E052DF6FE870E280EA98E058DFAF
:1009800066E176E185E090E048DF62E370E280EACC
:1009900098E04EDFFFCFA1E21A2EAA1BBB1BFD0180
:1009A0000DC0AA1FBB1FEE1FFF1FA217B307E4074E
:1009B000F50720F0A21BB30BE40BF50B661F771FA6
:1009C000881F991F1A9469F7609570958095909586
:0E09D0009B01AC01BD01CF010895F894FFCF4B
:1009DE00004B0000030001004B00000300019120BA
:1009EE00A4209E20A220A620A220B120A420572021
:1009FE00B420A420BD20A2205820A2205820A4203C
:100A0E00572041542B434950534855540D004154DF
:100A1E002B4349505354415455530D0041542B43CD
:100A2E0049504D55583D300D0041542B43494943D3
:100A3E00520D0041542B43494653520D0041542B45
:100A4E0043495053454E440D0053494D39303020E3
:100A5E004C696C6C6562616B6B20534D530D001AC3
:100A6E000041542B43495053544152543D0054437A
:100A7E005000222C220031302E31382E302E3336BB
:100A8E000032330041542B435354543D0061706E79
:100A9E00312E6C696C6C6562616B6B2E636F6D00D1
:00000001FF
