:1000000080C000009AC0000098C0000096C00000A8
:1000100094C0000092C0000034C500008EC00000F3
:100020008CC000008AC0000088C0000086C00000AC
:1000300084C0000082C0000080C000007EC00000BC
:100040007CC000007AC0000078C0000076C00000CC
:1000500074C0000072C0000070C000006EC00000DC
:100060006CC000006AC00000BF05E7054A066C06C8
:10007000730683069306CA06D406D706DB06DF0698
:1000800007634236B79BD8A71A39685618AEBAAB81
:10009000558C1D3CB7CC5763BD6DEDFD753EF61715
:1000A0007231BF000000803F08000000BE9224496A
:1000B000123EABAAAA2ABECDCCCC4C3E000000809A
:1000C000BEABAAAAAA3E00000000BF000000803F0D
:1000D0000000000000084178D3BB4387D1133D19CD
:1000E0000E3CC3BD4282AD2B3E68EC8276BED98FFA
:1000F000E1A93E4C80EFFFBE01C4FF7F3F0000003E
:10010000000011241FBECFEFD8E0DEBFCDBF12E04C
:10011000A0E0B1E0ECEDF1E202C005900D92AA3D45
:10012000B107D9F724E0AAEDB2E001C01D92A93EC3
:10013000B207E1F77ED60C94EC1062CF04C0615098
:100140007109810991096115710581059105B9F759
:1001500008950F931F93CF93DF93EB01688166237C
:1001600039F08C012196C801B1D669916111FBCF9C
:10017000DF91CF911F910F9108950F931F93FC0171
:10018000DA0188EE93E0689F8001699F100D789FE7
:10019000100D112420E030E080818823DCF081E024
:1001A000011511052105310509F480E0882391F03E
:1001B00081E050E001501109210931099081992312
:1001C0004CF0982F011511052105310509F4952FE3
:1001D0009111F0CF012B022B032B11F481E08C93B2
:1001E00086811F910F9108957F928F929F92AF9277
:1001F000BF92CF92DF92EF92FF920F931F93CF9314
:10020000DF931F92CDB7DEB75C016B017A011982D3
:1002100010E001E0712C4701810E911CAE014F5F8F
:100220005F4FB601C501A9DFF40180831F5F89819B
:10023000902F8111972D992331F0902F143608F0CB
:10024000972D9111E8CF0F90DF91CF911F910F91D2
:10025000FF90EF90DF90CF90BF90AF909F908F90E6
:100260007F900895529A549808955A986BE07BE8CD
:1002700082E090E063DF5A9A6BE07BE882E090E0F6
:100280005DDF5A9889B180E00895442361F0A62F7C
:10029000B72FE82FF92F80E02D913D9121933193D5
:1002A0008F5F4813F9CF80E00895662359F0FC0171
:1002B000615070E06F5F7F4F860F971F1192E817B4
:1002C000F907E1F7089541E167E071E087EC94E018
:1002D000DCDF60E88CED93E0E8DF60E08CED92E03D
:1002E000E4CF089514BEE0E6F0E088E1808386E480
:1002F00080830895AF92BF92CF92DF92EF92FF92E8
:100300000F931F93CF93DF932D9A0097E1F1689499
:10031000AA24A6F80F2EF2E4BF2EF02D0F2EFFE038
:10032000CF2EF02DD12CE12CF12C00E010E0282F65
:10033000392F40E050E060E070E080E090E00E9403
:10034000970F0F2EF6E0AF2EF02DB12CC12C0E948E
:10035000EA0F29513C4F4F4F5F4F6F4F7F4F8F4FE9
:100360009F4F0E948B0C20E030E04AE754E40E944B
:10037000BA0B0E94220C6B017C01E0DE2D98C701B4
:10038000B601DCDE0BC061E070E080E090E0D6DE1C
:100390002D9861E070E080E090E0D0DEDF91CF91B9
:1003A0001F910F91FF90EF90DF90CF90BF90AF9093
:1003B00008953F924F925F926F927F928F929F9299
:1003C000AF92BF92CF92DF92EF92FF920F931F9363
:1003D000CF93DF9300D0CDB7DEB7E62E2DB73EB773
:1003E0003A832983262F30E0220F331F4DB75EB7A3
:1003F000421B530B0FB6F8945EBF0FBE4DBF2DB717
:100400003EB72F5F3F4FE4E6F0E090819E7F908300
:1004100097E890937A00662391F16901412C512C61
:100420003201F12C0F2EFCE78F2E912CF02D8064E1
:10043000382E0AE710E00F2EF8E7AF2EB12CF02D82
:10044000F4013082F801808180648083F80180812A
:1004500086FDFCCFF50180819181F6018193919316
:100460006F01480E591E611C711C8D32914018F0AD
:1004700088EE93E03FDFF394EF10E2CF03C0412C0E
:10048000512C32012E2D30E040E050E0C301B2018A
:100490000E946F0FC90129813A810FB6F8943EBFBF
:1004A0000FBE2DBF0F900F90DF91CF911F910F9135
:1004B000FF90EF90DF90CF90BF90AF909F908F9084
:1004C0007F906F905F904F903F9008951F93CF93D0
:1004D000DF935A9867EA70E080E090E02FDE5A9A46
:1004E0006BE171E480E090E029DE5A9866ED78E0F7
:1004F00082E090E023DE6BE674E081E090E01EDEB7
:100500005A9A4C9915C0C0E0D1E010E061E573EC57
:1005100080E090E013DECF5F89B1829581708D1706
:1005200041F08D2FCB3108F0812F8111EFCF01C029
:10053000C0E081E0CB3109F080E0DF91CF911F91E5
:100540000895EF92FF920F931F93CF93DF9300D004
:100550001F92CDB7DEB71A8219821B820F2EF6E7E3
:10056000EF2EF4E0FF2EF02D0AE010E0F7013197B6
:1005700080818983F70180818A83CE0101960E9460
:100580005510F801EE0FFF1FE953FB4F9183808355
:10059000F3E0EF0EF11C0F5F1F4F0031110531F733
:1005A0000F900F900F90DF91CF911F910F91FF90BF
:1005B000EF900895CF92DF92EF92FF920F931F93E7
:1005C000CF93DF937C016B01D22F222311F1C0E086
:1005D000042F10E064E683E694E067DEB70180EC68
:1005E00090E0B7DD43E654E0B80180EC90E0FCDD3C
:1005F000B60183E694E00E948D10892B61F461E5D9
:1006000073EC80E090E09ADDCF5FDC13E3CFC1E0D4
:1006100003C0C0E001C0C0E063E674E080EC90E09D
:1006200098DD8C2FDF91CF911F910F91FF90EF906C
:10063000DF90CF9008952BE14CE26CE571E088E605
:1006400091E0B8DF811181C029E04CE26AE472E0F8
:1006500085E791E0AFDF81117AC029E04CE26AE4DE
:1006600072E083E891E0A6DF811173C029E04CE2DB
:100670006AE472E08BEA91E09DDF81116CC029E0B1
:100680004CE26AE472E087EB91E094DF811165C08F
:1006900029E04CE26AE472E084EC91E08BDF8111A6
:1006A0005EC029E04CE26AE472E082ED91E082DF14
:1006B000811157C029E04CE26FED71E088EE91E0C6
:1006C00079DF811150C029E040E263EF71E089EFEA
:1006D00091E070DF811149C029E04CE263E072E0F3
:1006E00086E092E067DF811142C029E04CE261E0E0
:1006F00070E088EE91E05EDF81113BC029E040E2CE
:100700006AE472E082E192E055DF811134C029E0B1
:100710004CE26AE472E085E392E04CDF81112DC087
:1007200029E04CE262E472E088EE91E043DF81115F
:1007300026C029E04CE26DE472E084E592E03ADF05
:1007400081111FC0FEDE80E0089580E0089580E002
:10075000089580E0089580E0089580E0089580E0A5
:10076000089580E0089580E0089580E0089580E095
:10077000089580E0089581E0089580E0089580E084
:10078000089580E2089529E04CE26AE472E08DE584
:1007900092E010DF811107C029E040E26AE472E0D4
:1007A00089E692E007DF80E00895EF92FF920F93D1
:1007B0001F93CF93DF937C018B0129E04CE265E727
:1007C00072E087E792E0F6DE811118C0101611067C
:1007D00054F4E7010E0D1F1D699180EC90E076D373
:1007E000C017D107C9F729E04CE260E070E082E869
:1007F00092E0E0DE882321F082E003C081E001C0C6
:1008000080E0DF91CF911F910F91FF90EF900895BD
:100810002F923F924F925F926F927F928F929F9210
:10082000AF92BF92CF92DF92EF92FF920F931F93FE
:10083000CF93DF93CDB7DEB763970FB6F894DEBFE3
:100840000FBECDBF9B8B8A8B3F872E871A82198262
:10085000FE01339683E0DF011D928A95E9F7AA88AD
:10086000BB881501B4E12B0E311C8E859F85092EA6
:10087000000CAA0BBB0B8A879B87AC87BD87398A84
:10088000288A6A016AC0E92CF32C6A857B858C85ED
:100890009D850E94500C2B013C01B801012E000CDB
:1008A000880B990BFDD79B01AC01C301B2010E94DB
:1008B000420D6E837F8388879987D5016D917C91E6
:1008C00080E090E0EBD72E813F81488559854ED757
:1008D00088234CF4F60101900020E9F7319780E37A
:1008E00090E0918380830150110969F692E0A90E8E
:1008F000B11C4E855F85BE016F5F7F4FD7018D9123
:100900009C910E94A710BE016F5F7F4FC6010E949D
:100910007B10F60101900020E9F731978CE290E01E
:100920009183808365E0CE010196BFDCA889B989F7
:10093000AA16BB0691F41D014601EA88FB88B2E2C3
:10094000EB0EF11C0F2EF0E3AF2EB12CF02D0F2E7D
:10095000FCE2CF2ED12CF02D2DC003E010E09A2C1C
:100960003B2C91CFF40101900020E9F73197B1823F
:10097000A082E2E02E0E311C4E855F85BE016F5FC6
:100980007F4FD8018D919C910E94A710BE016F5F8F
:100990007F4FC4010E947B10F40101900020E9F711
:1009A0003197D182C08265E0CE0101967EDCE214EF
:1009B000F30481F08101F1016081718180E090E0B8
:1009C0006DD79B01AC01C301B2010E943E0D181608
:1009D00084F6C8CF80E063960FB6F894DEBF0FBEF2
:1009E000CDBFDF91CF911F910F91FF90EF90DF90DE
:1009F000CF90BF90AF909F908F907F906F905F90BF
:100A00004F903F902F900895FB0122813381AC01DC
:100A1000421B530B9A0122F444275527421B530BC8
:100A20006285738577231CF4719561957109A1E046
:100A3000641775070CF0A0E0AA23A1F061E0A28979
:100A4000B389AB2B09F460E0662361F0332344F4EF
:100A50009A012F3F57E0350710F02FEF37E038604D
:100A600033872287268137818217930710F4978373
:100A70008683208531852817390710F49187808770
:100A800008951F920F920FB60F9211243F924F922A
:100A90005F926F927F928F929F92AF92BF92CF920E
:100AA000DF92EF92FF920F931F932F933F934F93F9
:100AB0005F936F937F938F939F93AF93BF93EF93C6
:100AC000FF93CF93DF93CDB7DEB72A97DEBFCDBFBD
:100AD000F89482E390E00EDC8091290190912A0144
:100AE000019690932A018093290180912901909188
:100AF0002A01892B09F474C110922A01109229014C
:100B000081E080935C0480915C04813009F068C1CD
:100B10000F2EFBE06F2EF02D0F2EFAE0DF2EF02DC2
:100B20000F2EF9E0FF2EF02D6894772473F80F2E26
:100B3000F3E0EF2EF02D4E0128E0820E911C5E01B5
:100B400083E0A80EB11C0F2EF7E04F2EF02D0F2ED4
:100B5000F6E03F2EF02D0F2EF5E05F2EF02D68947D
:100B6000CC24C2F8E09162048E2F90E08C30910585
:100B700008F02BC1FC01EC5CFF4F0C94910F64E674
:100B800083E694E092DB5F9A43E654E06CE271E026
:100B900080EC90E029DB5F9863E674E080EC90E005
:100BA000D8DAE3E6F4E020818181022E000C330BD9
:100BB000322F2227082E000C990B822B932B909317
:100BC000D8048093D70481E08093610400C16F2D25
:100BD00080E0EFDB07EC14E0F801918380836F2D58
:100BE00081E0E7DBF801938382836F2D82E0E1DB14
:100BF000F801958384836F2D8E2DDBDBF8019783BD
:100C000086836F2D8C2DD5DBF801918780876F2D22
:100C1000852DCFDBF8019387828761E0872DC9DBC3
:100C2000F8019587848761E08EE0C3DBF801978740
:100C300086872081318180915D0490915E04A0912E
:100C40005F04B0916004820F931FA11DB11D8093BA
:100C50005D0490935E04A0935F04B0936004808170
:100C60009181B801D1DEF8018081918193838283E3
:100C7000828993890196938B828B828993890A97C3
:100C800020F082E080936104A2C01092610410926F
:100C90005C049DC088EB9BE02DDB07EC14E0F801C1
:100CA0002289338940E050E060915D0470915E04D8
:100CB00080915F04909160040E946F0FF80135836A
:100CC000248310925D0410925E0410925F041092CF
:100CD0006004E09261047BC01092DA041092D9049F
:100CE000C092610474C0F2DB813051F4E7ECF4E0AF
:100CF00080A191A1816091A380A3D092610467C07B
:100D00005092610464C097DC882351F0E7ECF4E072
:100D100080A191A1826091A380A3F092610457C049
:100D20003092610454C02AE030E04CED53E061E1C0
:100D300087EC94E06DDD40E051E06CED72E08CED0D
:100D400093E082D49093DB028093DA021F821E82AA
:100D5000F4012E2D11922A95E9F71A821982F501D4
:100D60002E2D11922A95E9F74D2DBE016A5F7F4F16
:100D70000E94B110BE016A5F7F4FCE0101960E94B2
:100D80008610BE016F5F7F4F80EC90E0E2D9409209
:100D900061041DC06091DA027091DB028CED92E07B
:100DA00004DD7092610413C0F092610410C0EBDCAA
:100DB000D09261040CC059DA6092610408C083DAF1
:100DC0001092610410925C0402C0609261048091F0
:100DD00061048093620480915C04813009F4C2CE86
:100DE00078942A960FB6F894DEBF0FBECDBFDF9180
:100DF000CF91FF91EF91BF91AF919F918F917F9193
:100E00006F915F914F913F912F911F910F91FF90A3
:100E1000EF90DF90CF90BF90AF909F908F907F909A
:100E20006F905F904F903F900F900FBE0F901F906C
:100E30001895F8949AD417D060E071E080EC90E0B7
:100E4000D5D062E080E02CD00DDA6BE07BE882E068
:100E500090E074D94C9909DA36DA81E090E042DA10
:100E60007894259AFFCFCF93DF931F92CDB7DEB74B
:100E70008FEF8093640080916100833069F08FB7B9
:100E80008983F89489815F9350E85093610053E01F
:100E9000509361005F918FBF0F90DF91CF910895C4
:100EA000CF93DF931F92CDB7DEB79FB79983F894A6
:100EB0009981811106C0E4E6F0E0609580816823A5
:100EC00060839FBF0F90DF91CF910895FC019081C7
:100ED00095FFFDCF668380E008954F925F926F92F9
:100EE0007F928F929F92AF92BF92CF92DF92EF92BA
:100EF000FF920F931F93CF93DF93EC016A017B0165
:100F000028013901689412F87694679457944794AD
:100F10001694D1F7888181FD0EC048015901072E32
:100F200073E1B694A794979487947A95D1F7702D2E
:100F3000D301C20115C0D901C801689413F8B69550
:100F4000A795979587951694D1F748015901072ED3
:100F500074E1B694A794979487947A95D1F7702DFD
:100F60008C159D05AE05BF0568F1C814D904EA04C7
:100F7000FB0450F1888181FF0FC0A7019601220F69
:100F8000331F441F551FC301B201A9D7DA01C9019C
:100F90000197A109B10912C0C901B801689413F8F9
:100FA00096958795779567951694D1F7A701960141
:100FB00096D7DA01C9010197A109B1099D838C83F4
:100FC00081E003C080E001C080E0DF91CF911F91FC
:100FD0000F91FF90EF90DF90CF90BF90AF909F90D8
:100FE0008F907F906F905F904F9008950F931F9315
:100FF000CF93DF93EC018B01803C910519F462E003
:1010000080E04EDF8A818F738A83F80126813581E3
:1010100084819A81482F4370440F997F942B9A833F
:1010200099818470880F880F9B7F892B89838A819F
:101030008F7C832B8A839A81977F822F880F880FDA
:10104000880F892B8A83408151816281738100E4FA
:1010500012E42FE030E0CE0140DF9981986099835F
:10106000998190619983DF91CF911F910F9108959C
:10107000EF92FF920F931F93CF93DF93EC018E813A
:10108000833029F0843031F40AE010E005C00CE030
:1010900010E002C000E010E04F81588569857A8534
:1010A0008B859C85FBD10296080F191F88898823A0
:1010B000A1F04F89588D698D7A8D8B8D9C8DEED1E5
:1010C0007C014D8D5E8D6F8D78A189A19AA1E6D1AD
:1010D0008E0D9F1D0496080F191F8DA19EA1892BAF
:1010E00021F489A59AA5892B51F04DA15EA16FA18C
:1010F00078A589A59AA5D2D10296080F191F8BA5AC
:101100009CA5892B21F48FA598A9892B51F04BA57B
:101110005CA56DA57EA58FA598A9C0D10296080FE4
:10112000191FC801DF91CF911F910F91FF90EF9090
:101130000895AF92BF92CF92DF92EF92FF920F93FA
:101140001F93CF93DF9300D0CDB7DEB76C015B0167
:101150008A019A838983CA018BDF7C0103D1A81697
:10116000B9060CF49FC060E1CE0101960AD1B70127
:1011700089819A81D1D029813A81820F931F9A83E4
:101180008983F8018681843051F465EC72E0CE01E8
:10119000019620D164E0CE010196F3D009C06AEC3B
:1011A00072E0CE01019616D163E0CE010196E9D03E
:1011B000F12CF801878580FBF1F881E0908991118D
:1011C00001C080E080FBF2F8F2FE0DC0F80184A1BE
:1011D0008370880F880F880F9F2D977EF92EF82A2D
:1011E00083A180FBF5F8F80185A196A1892B21F454
:1011F00081A592A5892B11F06894F7F8F80183A5D1
:1012000094A5892B21F487A590A9892B11F06894C6
:10121000F6F86F2DCE010196B4D0F801658576857C
:10122000CE010196B8D0F8012781308541855285DD
:1012300063857485CE010196F2D0F80180898823F8
:1012400099F02789308D418D528D638D748DCE013B
:101250000196E5D0F801258D368D478D50A161A10D
:1012600072A1CE010196DBD0EF2CFF2054F4F801DF
:1012700025A136A147A150A561A572A5CE01019671
:10128000CED0E6FE0AC0F80123A534A545A556A593
:1012900067A570A9CE010196C2D089819A818C1967
:1012A0009D0902C08EEF9FEF0F900F90DF91CF91BD
:1012B0001F910F91FF90EF90DF90CF90BF90AF9074
:1012C00008950F931F93CF93DF9300D0CDB7DEB770
:1012D0009A838983623071059CF08C01642F62953A
:1012E000607FCE0101964DD060E070E089819A81E7
:1012F00013D029813A81820F931F801B910B02C06A
:101300008EEF9FEF0F900F90DF91CF911F910F9174
:1013100008954EE0D6CF0895DC01E0E0F0E09B01B7
:101320002F773078332334F42150310920683F6F10
:101330002F5F3F4FAB01772314F441585F4FBA0141
:10134000660F672F661F770B1616170624F4319663
:1013500020682D93E4CFDC01AE0FBF1F2C93CF018B
:10136000019608959C012F5F3F4F2038310514F4FA
:10137000029608952115304414F4039608950496B6
:101380000895FC01A081B1816C93808191810196C7
:10139000918380830895FC01A081B181CB017723E3
:1013A00014F481509F4F9C93A081B181CD0101968F
:1013B00091838083707877232CF4615071097F6F5B
:1013C0006F5F7F4F11966C9380819181019691831D
:1013D00080830895EF92FF920F931F93CF93DF9333
:1013E0008C017B01EB0109900020E9F72197C61BD6
:1013F000D70BBE01D0DFAE01B701F801808191812A
:1014000071D6F80180819181C80FD91FD183C08323
:10141000DF91CF911F910F91FF90EF900895EF9280
:10142000FF920F931F93CF93DF9300D000D000D093
:10143000CDB7DEB77C0129833A834B835C836D8310
:101440007E830B811C81101611068CF4B801A3DF7A
:101450006D817E81A801F7018081918143D6F701DA
:1014600080819181080F191F118300830AC069814F
:101470007A816115710511F0ADDF03C060E070E0A5
:101480008ADF26960FB6F894DEBF0FBECDBFDF9180
:10149000CF911F910F91FF90EF900895CF93DF931D
:1014A00000D000D000D0CDB7DEB749835A836B831C
:1014B0007C838D839E83A981BA81109749F0FD01B9
:1014C00001900020E9F73197CF018A1B9B0B02C0E6
:1014D0008B819C8126960FB6F894DEBF0FBECDBFE0
:1014E000DF91CF910895EF92FF920F931F93CF93C7
:1014F000DF9300D000D000D0CDB7DEB77C01F42F51
:10150000E52F862F972F422F532F6F2F7E2FC6DF69
:101510000296800F911F1E141F040CF4029626964B
:101520000FB6F894DEBF0FBECDBFDF91CF911F91F4
:101530000F91FF90EF9008952F923F924F925F92FC
:101540006F927F928F929F92AF92BF92CF92DF92D3
:10155000EF92FF920F931F93CF93DF93CDB7DEB738
:101560002A970FB6F894DEBF0FBECDBF2C011B012A
:10157000498739010A87282D8B82392D9C824A2D73
:10158000AD825B2DBE826C2DCF827D2DD886C9A009
:10159000DAA09A8389838601C301A5DF8C01E2DE8C
:1015A00028163906B4F160E3898580FB63F9862D3E
:1015B0008370880F697F682B8A8580FB60F9CE0174
:1015C0000196DFDEB80189819A81A6DE29813A8100
:1015D000820F931F9A8389832B813C814D815E8189
:1015E0006F817885CE0101961ADF1614170424F452
:1015F000B701CE010196CFDEA6016F8D78A189815A
:101600009A8170D589819A818C0D9D1D84199509C7
:1016100002C08EEF9FEF2A960FB6F894DEBF0FBE82
:10162000CDBFDF91CF911F910F91FF90EF90DF9091
:10163000CF90BF90AF909F908F907F906F905F9072
:101640004F903F902F9008952F923F924F925F922C
:101650006F927F928F929F92AF92BF92CF92DF92C2
:10166000EF92FF920F931F93CF93DF93CDB7DEB727
:10167000E7970FB6F894DEBF0FBECDBFF82EE92E68
:101680001B012A0181E3EBE2F1E0DE0111960190FA
:101690000D928A95E1F71DAA1CAA1FAA1EAAEF2D7A
:1016A000F92FDF010D900020E9F711978D010E1B36
:1016B0001F0B81ED92E09987888784E190E09F87F6
:1016C0008E8781E0888B8AEA91E09FA38EA39DA7F5
:1016D0008CA784E08F83AE014F5F5F4FB201C101E1
:1016E00028DD3C0184ED92E09BAB8AABB201661928
:1016F00077091F930F93EF92FF928AA89BA8ACA83B
:10170000BDA8CEA8DFA8E12CF12C00E020E030E05D
:1017100040E0C101860D971D0FDF680E791EB201F2
:1017200066197709C101860D971DF3DD0F900F90A3
:101730000F900F90860D971DE7960FB6F894DEBFB9
:101740000FBECDBFDF91CF911F910F91FF90EF9012
:10175000DF90CF90BF90AF909F908F907F906F90D1
:101760005F904F903F902F900895089512D108F404
:1017700081E008950CD048C140D140F037D130F01D
:1017800021F45F3F19F029C1511172C12CC14DD113
:1017900098F39923C9F35523B1F3951B550BBB2738
:1017A000AA2762177307840738F09F5F5F4F220FE5
:1017B000331F441FAA1FA9F333D00E2E3AF0E0E8DE
:1017C00030D091505040E695001CCAF729D0FE2F2A
:1017D00027D0660F771F881FBB1F261737074807BC
:1017E000AB07B0E809F0BB0B802DBF01FF27935872
:1017F0005F4F2AF09E3F510568F0EFC039C15F3F4F
:10180000ECF3983EDCF3869577956795B795F79559
:101810009F5FC9F7880F911D9695879597F9089551
:10182000E1E0660F771F881FBB1F621773078407ED
:10183000BA0720F0621B730B840BBA0BEE1F88F7FC
:10184000E0950895FAD088F09F5790F0B92F992726
:10185000B751A0F0D1F0660F771F881F991F1AF0BB
:10186000BA95C9F712C0B13081F001D1B1E0089545
:10187000FEC0672F782F8827B85F39F0B93FCCF3C7
:10188000869577956795B395D9F73EF490958095B1
:10189000709561957F4F8F4F9F4F0895E89409C0D1
:1018A00097FB3EF490958095709561957F4F8F4F93
:1018B0009F4F9923A9F0F92F96E9BB279395F695A9
:1018C000879577956795B795F111F8CFFAF4BB0F27
:1018D00011F460FF1BC06F5F7F4F8F4F9F4F16C08B
:1018E000882311F096E911C0772321F09EE8872F15
:1018F000762F05C0662371F096E8862F70E060E0D1
:101900002AF09A95660F771F881FDAF7880F969549
:10191000879597F90895E894F92F96EBFF2381F0C6
:10192000121613061406440B9395F6958795779532
:10193000679557954040FF23B9F71BC09927089535
:10194000882351F49850D2F7872B762F652F542F88
:10195000432F322F20E0B1F3121613061406440B66
:1019600088233AF09A95440F551F661F771F881FEA
:10197000CAF755234AF4440F551F11F460FF04C001
:101980006F5F7F4F8F4F9F4F880F9695879597F981
:101990000895990F0008550FAA0BE0E8FEEF161600
:1019A0001706E807F907C0F012161306E407F50753
:1019B00098F0621B730B840B950B39F40A2661F0C7
:1019C000232B242B252B21F408950A2609F4A1406A
:1019D000A6958FEF811D811D089597F99F6780E877
:1019E00070E060E008959FEF80EC089500240A9471
:1019F0001616170618060906089500240A941216EA
:101A00001306140605060895092E0394000C11F41C
:101A1000882352F0BB0F40F4BF2B11F460FF04C0C9
:101A20006F5F7F4F8F4F9F4F089557FD9058440F22
:101A3000551F59F05F3F71F04795880F97FB991F2D
:101A400061F09F3F79F087950895121613061406EA
:101A5000551FF2CF4695F1DF08C016161706180677
:101A6000991FF1CF86957105610508940895E89452
:101A7000BB2766277727CB0197F908958ADF08F4FB
:101A80008FEF0895FA01EE0FFF1F30962105310503
:101A900099F16115710561F48038BFE39B0749F145
:101AA00068949038810561F08038BFEF9B0741F062
:101AB000992342F5FF3FE1053105210511F1E89435
:101AC0000894E795D901AA2329F4AB2FBE2FF85F1C
:101AD000D0F310C0FF5F70F4A695E0F7F73950F02F
:101AE00019F0FF3A38F49F779F930CD00F9007FCC2
:101AF000905808953EF077CF60E070E080E89FE373
:101B000008954FE79F775F934F933F932F939ED016
:101B10002F913F914F915F910CD105C019F40EF0B8
:101B20005CCFA5CF60CF89DFC8F39638C0F707F840
:101B30000F92E8942BE33AEA48EB5FE708D10F9263
:101B40000F920F924DB75EB70F92C0D0E0E8F0E071
:101B500016D04F915F91EF91FF91E595EE1FFF1F1A
:101B600049F0FE57E0684427EE0F441FFA95E1F76D
:101B70004195550B32D00F9007FE26C00895DF9394
:101B8000CF931F930F93FF92EF92DF927B018C0113
:101B9000689405C0DA2EEF01D8D0FE01E894A59133
:101BA0002591359145915591AEF3EF0137D1FE0165
:101BB0009701A801DA9479F7DF90EF90FF900F91E9
:101BC0001F91CF91DF9108959B01AC0160E070E01F
:101BD00080E89FE3CFCD01CF74C12FDFE8F39923D5
:101BE000D9F3940F511DBBF39150504094F059F02C
:101BF000882332F0660F771F881F91505040C1F73D
:101C00009E3F510544F7880F911D9695879597F94A
:101C100008955F3FACF0983E9CF0BB278695779582
:101C20006795B79508F4B1609395C1F7BB0F58F766
:101C300011F460FFE8CF6F5F7F4F8F4F9F4FE3CF6F
:101C400017CF0EF03EC1CFCE6894C7CEF6DEC8F3F4
:101C50009923D1F3C6F3DF93CF931F930F93FF9292
:101C6000C92FDD2788232AF02197660F771F881F49
:101C7000DAF720E030E040E85FEB9FE3883920F0BE
:101C8000803E30F021968F77B8D0E8EAF0E003C0CC
:101C9000B4D0E5EDF0E073DF8B01BE01EC01FB2E6B
:101CA0006F5771097595771F880B990BF9DD28E13E
:101CB00032E741E35FE349D0AF2D9801AE01FF90D9
:101CC0000F911F91CF91DF91A9D09ECEFA01DC0137
:101CD000AA0FBB1F9B01AC01BF5728F42227332753
:101CE000442750781FC0B75188F4AB2F0024469585
:101CF00037952795011CA395D2F3002069F0220F98
:101D0000331F441FB395DAF30DD076C061307105EF
:101D1000A0E88A07B94630F49B01AC016627772713
:101D200088279078309621F0208331834283538333
:101D300008950BD069CE5ADE28F05FDE18F09523A7
:101D400009F04BCE50CE112493CE6FDEA0F3959FB9
:101D5000D1F3950F50E0551F629FF001729FBB2792
:101D6000F00DB11D639FAA27F00DB11DAA1F649F3E
:101D70006627B00DA11D661F829F2227B00DA11DF1
:101D8000621F739FB00DA11D621F839FA00D611D77
:101D9000221F749F3327A00D611D231F849F600D98
:101DA000211D822F762F6A2F11249F5750408AF0D1
:101DB000E1F088234AF0EE0FFF1FBB1F661F771F5D
:101DC000881F91505040A9F79E3F510570F005CEF5
:101DD0004FCE5F3FECF3983EDCF3869577956795A1
:101DE000B795F795E7959F5FC1F7FE2B880F911D7B
:101DF0009695879597F908955058BB27AA270ED036
:101E000003CEF4DD30F0F9DD20F031F49F3F11F422
:101E10001EF4E9CD0EF4E095E7FBDFCDE92F05DEFA
:101E200080F3BA17620773078407950718F071F4F7
:101E30009EF51DCE0EF4E0950B2EBA2FA02D0B01B2
:101E4000B90190010C01CA01A0011124FF27591BFF
:101E500099F0593F50F4503E68F11A16F040A22F05
:101E6000232F342F4427585FF3CF46953795279576
:101E7000A795F0405395C9F77EF41F16BA0B620B75
:101E8000730B840BBAF09150A1F0FF0FBB1F661FBC
:101E9000771F881FC2F70EC0BA0F621F731F841FFF
:101EA00048F4879577956795B795F7959E3F08F025
:101EB000B3CF9395880F08F09927EE0F97958795E4
:101EC00008959F3F31F0915020F48795779567955D
:101ED000B795880F911D9695879597F90895A1E27A
:101EE0001A2EAA1BBB1BFD010DC0AA1FBB1FEE1F94
:101EF000FF1FA217B307E407F50720F0A21BB30BDF
:101F0000E40BF50B661F771F881F991F1A9469F75A
:101F100060957095809590959B01AC01BD01CF01B6
:101F20000895EE0FFF1F0590F491E02D0994DF93C3
:101F3000CF931F930F939A9DF02D219FF00D8B9DB2
:101F4000F00D8A9DE02DF10D039FF00D029FE00D35
:101F5000F11D4E9DE00DF11D5E9DF00D4F9DF00DAC
:101F60007F936F93BF92AF925F934F93D5018ED0C3
:101F70008B01AC01D7018AD0EB01E80FF91FD60124
:101F80001FD02F913F91D60181D0C60FD71FE81FD8
:101F9000F91FAF91BF9114D02F913F9177D0C60F09
:101FA000D71FE81FF91FD60171D0E60FF71F980160
:101FB000BE01CF0111240F911F91CF91DF910895A0
:101FC00065D0460F571FC81FD91F08F431960895D2
:101FD000689401C0E8948F929F92CF93DF9305D0CD
:101FE000DF91CF919F908F90089588249924F401D8
:101FF000E401B0E49F93AA279A158B049C04ED0595
:10200000FE05CF05D007A10798F4AD2FDC2FCF2F09
:10201000FE2FE92D982C892E982F872F762F652F4C
:10202000542F432F322F2227B85031F7BF9127C0AA
:102030001B2EBF91BB27220F331F441F551F661F46
:10204000771F881F991F881C991CEE1FFF1FCC1F2C
:10205000DD1FAA1FBB1F8A149B04EC05FD05CE05DE
:10206000DF05A007B10748F08A189B08EC09FD09B5
:10207000CE09DF09A00BB10B21601A94E1F62EF412
:102080009401AF01BE01CD01000C0895A29FB001E3
:10209000B39FC001A39F700D811D1124911DB29F9C
:1020A000700D811D1124911D0895FC018827992729
:1020B000E89421912032E9F3293010F02E30C8F352
:1020C0002B3239F02D3231F4689403C054D0820F92
:1020D000911D219120532A30C8F31EF490958195CB
:1020E0009F4F0895FB01DC0102C001900D92415009
:1020F0005040D8F70895FB01DC010D900020E9F76E
:10210000119701900D920020E1F70895FB01DC0189
:1021100001900D920020E1F70895FB0151915523A4
:10212000A9F0BF01DC014D9145174111E1F759F4C8
:10213000CD010190002049F04D9140154111C9F3A6
:10214000FB014111EFCF81E090E001970895453206
:10215000510518F4423008F004C0FB011082CB0195
:102160000895BB274A3031F4992322F4BDE29095BB
:1021700081959F4F09C07AE0979F902D879F802D72
:10218000910D11240895BB27FB015527AA27880F1D
:10219000991FAA1FA41710F0A41B83955051B9F7DB
:1021A000A05DAA3308F0A95DA193009779F7B1115A
:1021B000B1931192CB0100C0DC01FC01672F71913A
:1021C0007723E1F7329704C07C916D93708362911D
:0C21D000AE17BF07C8F30895F894FFCFC6
:1021DC00004B0000030001000000000000FFFF00A6
:1021EC0000000000000000000000000000000000E3
:1021FC0000000000000000000001004D515443009D
:10220C0000040000000000003C0001004D51545738
:10221C0000000000000000000000000000000000B2
:10222C00000000000000000000000000514E53545C
:10223C00415455533A20300041542B514E53544184
:10224C005455530D0041542B51494647434E543D70
:10225C00300D0041542B5149435347503D312C22F2
:10226C0061706E312E6C696C6C6562616B6B2E6388
:10227C006F6D222C22222C22220D0041542B51490D
:10228C004D55583D300D0041542B51494D4F44454F
:10229C003D300D0041542B5149444E5349503D3073
:1022AC000D0041542B51495245474150500D0049A6
:1022BC00502053544152540041542B5149535441D2
:1022CC00540D0051494143540041542B5149414351
:1022DC00540D0031300041542B51494C4F4349505F
:1022EC000D0041542B51494F50454E3D2254435003
:1022FC00222C2231302E31382E302E3339222C31F3
:10230C003838330D0041542B5149535256433D310B
:10231C000D00434F4E4E454354204F4B00514C54EF
:10232C00533A200041542B514C54530D0041542B23
:10233C005149434C4F53450D0041542B5149444591
:10234C004143540D003E0041542B514953454E44DA
:10235C000D001A0041542B43495053544152543DE3
:10236C000054435000222C220031302E31382E30B4
:10237C002E333900313838330041542B43535454E5
:10238C003D0061706E312E6C696C6C6562616B6BBB
:10239C002E636F6D004D515454004D514973647050
:0A23AC00004C45004C452F300000A6
:00000001FF
