:1000000049C0000063C0000061C000005FC0000084
:100010005DC000005BC0000059C0000057C0000078
:1000200062C4000053C0000051C000004FC0000077
:100030004DC000004BC0000049C0000047C0000098
:1000400045C0000043C0000041C000003FC00000A8
:100050000EC400003BC0000039C0000037C00000E3
:1000600035C0000033C0000031C000002FC00000C8
:100070002DC000002BC0000029C00000ED04F104D9
:100080005E057D05840588059F05EA05ED05F005FB
:10009000F605FA0511241FBECFEFD8E0DEBFCDBFB5
:1000A00014E0A0E0B1E0E6EBF8E102C005900D92AB
:1000B000A236B107D9F725E0A2E6B4E001C01D924F
:1000C000A638B207E1F7A3D50C94590C99CFCF937A
:1000D000DF931F92CDB7DEB79FB79983F8949981CC
:1000E000823040F4E82FF0E0EC59FF4F60958081BA
:1000F000682360839FBF0F90DF91CF910895FC012B
:10010000208125FFFCCF668380E00895FC012081DB
:1001100027FFFCCF868108954F925F926F927F9266
:100120008F929F92AF92BF92CF92DF92EF92FF9207
:100130000F931F93CF93DF93EC016A017B01C901F9
:10014000B80143E096958795779567954A95D1F7DD
:10015000488141FD0CC048015901B3E1B694A79410
:1001600097948794BA95D1F72B013C0112C02801CE
:100170003901F4E07694679457944794FA95D1F74F
:1001800048015901A4E1B694A79497948794AA953D
:10019000D1F74C145D046E047F0428F1C814D9040F
:1001A000EA04FB0400F1488141FF07C0A701960162
:1001B000220F331F441F551F0BC0C901B80124E093
:1001C00096958795779567952A95D1F7A70196011A
:1001D0000E94770BDA01C9010197A109B1099D833A
:1001E0008C8381E001C080E0DF91CF911F910F915E
:1001F000FF90EF90DF90CF90BF90AF909F908F9047
:100200007F906F905F904F9008950F931F93CF93BF
:10021000DF93EC018B01803C910519F462E080E0F2
:1002200056DF8A818F738A83F801968135818481B4
:100230002A81482F4370440F297F242B2A83298148
:100240008470880F880F2B7F822B89838A818F7C13
:10025000832B8A838A81282F277FF8E09F9FC00104
:100260001124822B8A83F80140815181628173813C
:1002700000E412E42FE030E0CE014EDF9981986077
:100280009983998190619983DF91CF911F910F910B
:100290000895FB0122813381AC01421B530B9A016B
:1002A000BA0157FF04C066277727641B750B428588
:1002B000538557FF03C0519541955109461757077C
:1002C00034F442895389452B11F0338722872681E4
:1002D00037818217930710F49783868320853185B1
:1002E0002817390710F491878087089504C061505A
:1002F0007109810991096115710581059105B9F7A8
:1003000008950F931F93CF93DF938C01EB016991B5
:10031000662319F0C801F3DEFACFDF91CF911F9168
:100320000F910895FB01DC0190E0941731F02191C9
:1003300031912D933D939F5FF8CF80E00895282F52
:10034000FC018E2F821B861710F41192FACF0895AC
:1003500064E68FE595E0F3DF64E686E694E0EFDFA0
:1003600041E16DE373E084E695E0DCCF14BEE0E6A6
:10037000F0E088E1808386E480830895099A1198EB
:100380000895549A55980895CF93C82FCC2339F0E7
:1003900063E876E080E090E0A9DFC150F7CFCF912D
:1003A0000895119A66E375E080E090E09FCF119880
:1003B0000895CF93DF935C986BE171E480E090E067
:1003C00095DF5C9A6BE07BE882E090E08FDF5C98E1
:1003D0006BE07BE882E090E089DFC0E0D1E089B1AA
:1003E00085FB882780F98D1749F0CB3138F466E317
:1003F00072E880E090E07ADFCF5FF1CF81E0CB312F
:1004000009F080E0DF91CF910895CF935C985C9ADA
:1004100080E5BADF5C98C0E04D9B09C0CC3038F471
:100420006BE07BE882E090E061DFCF5FF5CF80E0BA
:10043000CF910895CF93C0E04D9B1AC0CB31C0F44B
:1004400060E471E080EC90E05CDF6BE27CE28AE0EB
:1004500090E04CDF4D9B0AC06CE471E080EC90E0D2
:1004600050DF61E472E48FE090E040DFCF5FE4CFE3
:1004700081E0CB3109F080E0CF910895CF93DF93F5
:1004800000D0CDB7DEB71A821982909164009E7FAA
:100490009093640093E890937A0040E1806C94E03C
:1004A00020E030E080937C0050917A0050645093BB
:1004B0007A0050917A0056FDFCCF609178007091DF
:1004C0007900260F371F915069F769817A81369537
:1004D000279536952795260F371F3A832983415054
:1004E000F1F689819A8196958795969587959A8355
:1004F000898329813A81A8EBBEE30E949F0BDC012E
:10050000CB01905EAF4FBF4F32E0880F991FAA1FFB
:10051000BB1F3A95D1F7CD01BB2797FDB095AB2F07
:100520009A83898389819A810F900F90DF91CF916F
:100530000895EF92FF920F931F93CF93DF9300D014
:100540001F92CDB7DEB71A8219821B8232EFE32EDB
:1005500034E0F32E0AE010E0F701319780818983BF
:10056000F70180818A83CE0101960E94C20BF801B7
:10057000EE0FFF1FEC59FA4F91838083F3E0EF0EEB
:10058000F11C0F5F1F4F0031110531F70F900F90D5
:100590000F90DF91CF911F910F91FF90EF900895F1
:1005A0000F931F93CF93DF93EC0100E010E0888559
:1005B000081708F05EC060E88FED94E0C0DE10928E
:1005C000D7048C819D81AE81BF818093D3049093A9
:1005D000D404A093D504B093D6041092CF04109203
:1005E000D0041092D1041092D2046881798180ECF9
:1005F00090E087DE78948091C10080688093C1008C
:100600004091CF045091D0046091D1047091D204F4
:100610008091D3049091D404A091D504B091D604D4
:10062000481759076A077B07F8F481E0ADDE6A8155
:100630007B818FED94E00E94FA0B892BC9F48091A5
:10064000CF049091D004A091D104B091D20401962E
:10065000A11DB11D8093CF049093D004A093D10429
:10066000B093D20411E0CCCF8EE18EDE0F5F9FCF2E
:1006700010E081E089DE8091C1008F778093C10016
:10068000812FDF91CF911F910F910895EF92FF92EB
:100690000F931F93CF937C018B0160E88FED94E063
:1006A0004EDE1092D704C0E08C2F90E080179107A7
:1006B0004CF4F701E80FF91F608180EC90E01FDD3A
:1006C000CF5FF2CF60E080EC90E019DD789480910C
:1006D000C10080688093C1008EE156DE8091C10028
:1006E0008F778093C10080E0CF911F910F91FF9091
:1006F000EF9008959F92AF92BF92CF92DF92EF92C8
:10070000FF920F931F93CF93DF9300D000D01F92DF
:10071000CDB7DEB77C016A0159011A821982FE0148
:10072000339683E0DF011D928A95E9F7912C062F1D
:1007300010E0892D90E080179107F4F4880F991F3D
:10074000F701E80FF91FA501BE016F5F7F4F8081A0
:1007500091810E94140CBE016F5F7F4FC601B5E00E
:100760009B9E800D911D11240E94F30B65E0CE012C
:100770000196E5DD9394DDCF80E00F900F900F9010
:100780000F900F90DF91CF911F910F91FF90EF90FD
:10079000DF90CF90BF90AF909F90089580E494E059
:1007A000FFDE80E0089587E394E0FADE80E00895BC
:1007B0000F931F93CF93DF930FEE13E0823041F13D
:1007C00028F4882341F08130A1F0F8CF833031F153
:1007D000843051F1F3CFC5E9D3E0CE01E1DE2996B3
:1007E0000C171D07D1F78EE294E0DADE811101C00B
:1007F000A0DE81E094E0D4DE882381F08FEE93E0E8
:10080000CFDE882359F088EF93E0CADE882331F0E9
:1008100083E194E0C5DE882339F0EBCF8CE194E0EE
:10082000BFDE85E294E0BCDE80E0DF91CF911F91D6
:100830000F9108950F931F93CF93DF93EC018B01DA
:100840008AE793E0ADDE813061F0B801CE011EDFB2
:1008500083E893E0A5DE8CE893E0A2DE8FE593E0E9
:100860009FDE80E0DF91CF911F910F9108951F923D
:100870000F920FB60F9211242F933F934F935F93D4
:100880006F937F938F939F93AF93BF93CF93DF9398
:10089000EF93FF93C091D704D0E0C152DB4F80ECBF
:1008A00090E034DC88838091D7048F5F8093D704F5
:1008B0001092CF041092D0041092D1041092D2045E
:1008C000FF91EF91DF91CF91BF91AF919F918F9168
:1008D0007F916F915F914F913F912F910F900FBE3C
:1008E0000F901F9018951F920F920FB60F92112420
:1008F0008F929F92AF92BF92CF92DF92EF92FF9230
:100900000F931F932F933F934F935F936F937F9317
:100910008F939F93AF93BF93CF93DF93EF93FF9307
:100920000FB6F894A895809160008861809360006C
:10093000109260000FBE8091000190910101109211
:10094000010110920001019609F5A89581E090E05F
:100950000DDDFF91EF91DF91CF91BF91AF919F910D
:100960008F917F916F915F914F913F912F911F9147
:100970000F91FF90EF90DF90CF90BF90AF909F903E
:100980008F900F900FBE0F901F90189581E080936D
:10099000CA04DBE0CAE039E0F32E48E0E42E02E0CE
:1009A00010E057E0D52E66E0C62E75E0B72EE4E0E5
:1009B000AE2EFEE59F2EA2E08A2E8091CA048130E1
:1009C00021F6E091DB048E2F90E08C30910508F049
:1009D00017C1FC01E25CFF4FACC681E08093DA04F2
:1009E00011C1DFDC80E04ADD9093650580936405EA
:1009F00090927C0080917A00806480937A0080914C
:100A00007A0086FDFCCF609178007091790080E0DB
:100A100090E069D59B01AC0166E676E686E894E451
:100A2000CED420E030E04AE754E4EBD530D57093E3
:100A3000730560937205BBDC2091640530916505F8
:100A40008091CB049091CC04A091CD04B091CE04C0
:100A5000820F931FA11DB11D8093CB049093CC04F2
:100A6000A093CD04B093CE04809164059091650568
:100A700064E675E00EDC80916405909165059093C5
:100A80006705809366058091D8049091D9040196FA
:100A90009093D9048093D80490937705809376053A
:100AA0008091760590917705059708F4A4C010927F
:100AB000D9041092D8048092DA04A4C0209176055B
:100AC0003091770540E050E06091CB047091CC0408
:100AD0008091CD049091CE040AD63093690520937D
:100AE00068051092CB041092CC041092CD041092A1
:100AF000CE0483E08093DA0485C0109277051092CB
:100B00007605A092DA047EC054DCB092DA047AC092
:100B100045DE81110EC047DE80E04ADE882361F0A9
:100B200080918405909185058260909385058093DE
:100B30008405C093DA0466C0C092DA0463C01093DF
:100B4000630400936204809162049091630488308E
:100B500091050CF03CC0880F991F2AE030E04FE56A
:100B600055E061E08C599A4FC5DD4AE06CED74E0C8
:100B7000809162049091630461D62CED34E044E6E8
:100B800050E066E674E08FE595E077D390936504D6
:100B9000809364048091620490916304039714F03D
:100BA00081E006DE609164047091650486E694E05D
:100BB00041DE63E08CED94E0C2DB809162049091B1
:100BC000630401969093630480936204BCCFD09237
:100BD000DA0418C0E092DA0415C0F092DA0412C008
:100BE00088E693E0DDDCC093DA040CC023DCD0930C
:100BF000DA0408C0ADDB1092DA041092CA0402C015
:100C0000D093DA048091DA048093DB04D6CEF89492
:100C100062E071E080EC90E0F8DA62E080E057DAC0
:100C2000ADDB809164008E7F8093640083E88093C5
:100C30007A006BE171E480E090E058DBA2DB6BE1CD
:100C400071E480E090E052DB4D990AC081DB82E0E4
:100C500090E08CDB83B7817F846083BF789405C08C
:100C6000E9DB813089F7D1DBEFCF83B7816083BFC8
:100C700085B7806685BF8F7D85BF889583B78E7F5A
:100C800083BFF3CFEF92FF920F931F93CF93DF9326
:100C9000EC018E81833029F0843031F40AE010E0D9
:100CA00005C00CE010E002C000E010E04F81588564
:100CB00069857A858B859C850CD20296080F191F51
:100CC00088898823A1F04F89588D698D7A8D8B8D05
:100CD0009C8DFFD17C014D8D5E8D6F8D78A189A19A
:100CE0009AA1F7D18E0D9F1D0496080F191F8DA193
:100CF0009EA1892B21F489A59AA5892B51F04DA19C
:100D00005EA16FA178A589A59AA5E3D10296080FE7
:100D1000191F8BA59CA5892B21F48FA598A9892B38
:100D200051F04BA55CA56DA57EA58FA598A9D1D145
:100D30000296080F191FC801DF91CF911F910F91E3
:100D4000FF90EF900895AF92BF92CF92DF92EF9213
:100D5000FF920F931F93CF93DF9300D0CDB7DEB7F1
:100D60006C015B018A019A838983CA018BDF7C0154
:100D7000FED0A816B9060CF49BC060E1CE01019626
:100D800005D1B70189819A81CCD029813A81820F1E
:100D9000931F9A838983F8018681843039F462E550
:100DA00074E0CE0101961BD164E006C067E574E0F3
:100DB000CE01019614D163E0CE010196E7D0F12C6B
:100DC000F801878580FBF1F881E09089911101C0DD
:100DD00080E080FBF2F8F2FE0DC0F80184A1837080
:100DE000880F880F880F9F2D977EF92EF82A83A1F0
:100DF00080FBF5F8F80185A196A1892B21F481A546
:100E000092A5892B11F06894F7F8F80183A594A5B1
:100E1000892B21F487A590A9892B11F06894F6F805
:100E20006F2DCE010196B2D0F80165857685CE0191
:100E30000196B6D0F80127813085418552856385BA
:100E40007485CE010196F0D0F8018089882399F04D
:100E50002789308D418D528D638D748DCE01019621
:100E6000E3D0F801258D368D478D50A161A172A187
:100E7000CE010196D9D0F7FE0AC0F80125A136A10E
:100E800047A150A561A572A5CE010196CDD0F6FE71
:100E90000AC0F80123A534A545A556A567A570A9E4
:100EA000CE010196C1D089819A818C199D0902C019
:100EB0008EEF9FEF0F900F90DF91CF911F910F91C9
:100EC000FF90EF90DF90CF90BF90AF9008950F9379
:100ED0001F93CF93DF9300D0CDB7DEB79A8389837A
:100EE000623071059CF0642F8C016295607FCE01A9
:100EF00001964CD060E070E089819A8112D02981FE
:100F00003A81820F931F801B910B02C08EEF9FEFDF
:100F10000F900F90DF91CF911F910F9108954EE0A8
:100F2000D6CF0F931F93CF93DF939B01EC01E0E0AB
:100F3000F0E000E810E0C901B801C6D3982F37FFF0
:100F400002C021583F4F220F232F221F330B1216AE
:100F5000130614F4982F906831969993121613067D
:100F600054F3CF01DF91CF911F910F9108959C0110
:100F70002F5F3F4F2038310514F402960895211554
:100F8000304414F40396089504960895FC01A0815A
:100F9000B1816C93808191810196918380830895C2
:100FA000CF93DF93FC01CB01A081B1819B0177FF3F
:100FB00002C021503F4F3C93C081D1819E012F5FE1
:100FC0003F4F3183208360E071E07ED3898380814D
:100FD0009181019691838083DF91CF910895EF9263
:100FE000FF920F931F93CF93DF938C017B01EB0153
:100FF00009900020E9F72197C61BD70BBE01D0DF6F
:10100000AE01B701F80180819181D9D3F8018081C7
:101010009181C80FD91FD183C083DF91CF911F91D8
:101020000F91FF90EF900895EF92FF920F931F930F
:10103000CF93DF9300D000D000D0CDB7DEB72983A7
:101040003A834B835C836D837E83EB80FC801E142C
:101050001F04F4F48C01B701A3DF6D817E81A70129
:10106000F80180819181ABD3F80180819181E80EF4
:10107000F91EF182E08226960FB6F894DEBF0FBE0D
:10108000CDBFDF91CF911F910F91FF90EF90089509
:1010900069817A816115710569F026960FB6F89419
:1010A000DEBF0FBECDBFDF91CF911F910F91FF909B
:1010B000EF9095CF60E070E026960FB6F894DEBF13
:1010C0000FBECDBFDF91CF911F910F91FF90EF9099
:1010D00067CFCF93DF9300D000D000D0CDB7DEB77D
:1010E00049835A836B837C838D839E83A981BA81D4
:1010F000109749F0FD0101900020E9F73197CF01E9
:101100008A1B9B0B02C08B819C8126960FB6F8949C
:10111000DEBF0FBECDBFDF91CF910895EF92FF925A
:101120000F931F93CF93DF9300D000D000D0CDB7A3
:10113000DEB77C01F42FE52FCB01A9016F2F7E2FA5
:10114000C8DF0296800F911F1E141F040CF4029634
:1011500026960FB6F894DEBF0FBECDBFDF91CF91BC
:101160001F910F91FF90EF9008952F923F924F9211
:101170005F926F927F928F929F92AF92BF92CF9227
:10118000DF92EF92FF920F931F93CF93DF93CDB730
:10119000DEB72A970FB6F894DEBF0FBECDBF2C0185
:1011A0001B01498739010A87282D8B82392D9C82A2
:1011B0004A2DAD825B2DBE826C2DCF827D2DD886CF
:1011C000C9A0DAA09A8389838601C301A7DF8C01B5
:1011D000CEDE28163906B4F160E3898580FB63F919
:1011E000862D8370880F697F682B8A8580FB60F964
:1011F000CE010196CBDEB80189819A8192DE2981E8
:101200003A81820F931F9A8389832B813C814D8180
:101210005E816F817885CE01019606DF1614170472
:1012200024F4B701CE010196BBDEA6016F8D78A133
:1012300089819A81C4D289819A818C0D9D1D8419DE
:10124000950902C08EEF9FEF2A960FB6F894DEBF85
:101250000FBECDBFDF91CF911F910F91FF90EF9007
:10126000DF90CF90BF90AF909F908F907F906F90C6
:101270005F904F903F902F9008952F923F924F9202
:101280005F926F927F928F929F92AF92BF92CF9216
:10129000DF92EF92FF920F931F93CF93DF93CDB71F
:1012A000DEB7ED970FB6F894DEBF0FBECDBFB82EF8
:1012B000A92E1B012A01790181E3E9E0F1E0DE01B9
:1012C000119601900D928A95E1F71BAE1AAE1DAEF4
:1012D0001CAEEB2DF92FDF010D900020E9F71197DF
:1012E0008D010E1B1F0B8EE594E09987888784E1A2
:1012F00090E09F878E8781E0888B85ED92E09FA3A9
:101300008EA39DA78CA784E08F83AE014F5F5F4FB4
:10131000B201C10118DD3C0184E0EAE3F1E0DE0145
:10132000D29601900D928A95E1F71FAA1EAA6E012E
:1013300082E3C80ED11CB701C6014AD2D9AEC8AEED
:10134000B201661977091F930F93AF92BF9288ACD1
:1013500099ACAAACBBACCCACDDACE12CF12C00E080
:1013600020E030E040E0C101860D971DFEDE680EF2
:10137000791EB20166197709C101860D971DCFDD6F
:101380000F900F900F900F90860D971DED960FB652
:10139000F894DEBF0FBECDBFDF91CF911F910F91AB
:1013A000FF90EF90DF90CF90BF90AF909F908F9085
:1013B0007F906F905F904F903F902F9008950CD04A
:1013C000E6C0DED040F0D5D030F021F45F3F19F018
:1013D000C7C0511110C1CAC0EBD098F39923C9F30B
:1013E0005523B1F3951B550BBB27AA27621773072B
:1013F000840738F09F5F5F4F220F331F441FAA1FDF
:10140000A9F333D00E2E3AF0E0E830D0915050409E
:10141000E695001CCAF729D0FE2F27D0660F771F4C
:10142000881FBB1F261737074807AB07B0E809F02E
:10143000BB0B802DBF01FF2793585F4F2AF09E3FC3
:10144000510568F08DC0D7C05F3FECF3983EDCF3E8
:10145000869577956795B795F7959F5FC9F7880F3C
:10146000911D9695879597F90895E1E0660F771F8E
:10147000881FBB1F621773078407BA0720F0621B1F
:10148000730B840BBA0BEE1F88F7E095089598D084
:1014900088F09F5790F0B92F9927B751A0F0D1F05D
:1014A000660F771F881F991F1AF0BA95C9F712C0E7
:1014B000B13081F09FD0B1E008959CC0672F782FA4
:1014C0008827B85F39F0B93FCCF386957795679553
:1014D000B395D9F73EF490958095709561957F4FBF
:1014E0008F4F9F4F0895E89409C097FB3EF4909565
:1014F0008095709561957F4F8F4F9F4F9923A9F0ED
:10150000F92F96E9BB279395F6958795779567957B
:10151000B795F111F8CFFAF4BB0F11F460FF1BC0BF
:101520006F5F7F4F8F4F9F4F16C0882311F096E952
:1015300011C0772321F09EE8872F762F05C0662300
:1015400071F096E8862F70E060E02AF09A95660FB9
:10155000771F881FDAF7880F9695879597F9089572
:1015600097F99F6780E870E060E008959FEF80EC56
:10157000089500240A9416161706180609060895F9
:1015800000240A9412161306140605060895092E5F
:101590000394000C11F4882352F0BB0F40F4BF2BCE
:1015A00011F460FF04C06F5F7F4F8F4F9F4F08950E
:1015B00057FD9058440F551F59F05F3F71F0479504
:1015C000880F97FB991F61F09F3F79F087950895E9
:1015D000121613061406551FF2CF4695F1DF08C008
:1015E000161617061806991FF1CF86957105610525
:1015F00008940895E894BB2766277727CB0197F9CD
:1016000008950BD0C4CFB5DF28F0BADF18F09523CA
:1016100009F0A6CFABCF1124EECFCADFA0F3959F80
:10162000D1F3950F50E0551F629FF001729FBB27C9
:10163000F00DB11D639FAA27F00DB11DAA1F649F75
:101640006627B00DA11D661F829F2227B00DA11D28
:10165000621F739FB00DA11D621F839FA00D611DAE
:10166000221F749F3327A00D611D231F849F600DCF
:10167000211D822F762F6A2F11249F5750408AF008
:10168000E1F088234AF0EE0FFF1FBB1F661F771F94
:10169000881F91505040A9F79E3F510570F060CFD0
:1016A000AACF5F3FECF3983EDCF38695779567957C
:1016B000B795F795E7959F5FC1F7FE2B880F911DB2
:1016C0009695879597F9089597FB072E16F4009441
:1016D00006D077FD08D042D007FC05D03EF49095A7
:1016E00081959F4F0895709561957F4F0895A1E270
:1016F0001A2EAA1BBB1BFD010DC0AA1FBB1FEE1F8C
:10170000FF1FA217B307E407F50720F0A21BB30BD6
:10171000E40BF50B661F771F881F991F1A9469F752
:1017200060957095809590959B01AC01BD01CF01AE
:101730000895EE0FFF1F0590F491E02D0994A29FEC
:10174000B001B39FC001A39F700D811D1124911D95
:10175000B29F700D811D1124911D0895AA1BBB1B02
:1017600051E107C0AA1FBB1FA617B70710F0A61BA1
:10177000B70B881F991F5A95A9F780959095BC01C2
:10178000CD010895FC0188279927E8942191203202
:10179000E9F3293010F02E30C8F32B3239F02D3216
:1017A00031F4689403C054D0820F911D21912053CD
:1017B0002A30C8F31EF4909581959F4F0895FB0140
:1017C000DC0102C001900D9241505040D8F70895BD
:1017D000FB01DC010D900020E9F7119701900D92BB
:1017E0000020E1F70895FB01DC0101900D9200203B
:1017F000E1F70895FB0151915523A9F0BF01DC01E8
:101800004D9145174111E1F759F4CD0101900020A8
:1018100049F04D9140154111C9F3FB014111EFCF42
:1018200081E090E0019708954532510518F4423067
:1018300008F004C0FB011082CB010895BB274A3099
:1018400031F4992322F4BDE2909581959F4F09C010
:101850007AE0979F902D879F802D910D11240895F8
:10186000BB27FB015527AA27880F991FAA1FA4177A
:1018700010F0A41B83955051B9F7A05DAA3308F06E
:10188000A95DA193009779F7B111B1931192CB01A2
:1018900000C0DC01FC01672F71917723E1F73297DB
:1018A00004C07C916D9370836291AE17BF07C8F33B
:0618B0000895F894FFCF3B
:1018B6000100C01200000300004D51544300000413
:1018C6000000000000003C0001004D51545700008C
:1018D6000000000000000000000000000000000002
:1018E600000000000000000000004C452F00000032
:1018F60041542B51504F57443D310D0041542B510B
:10190600504F57443D300D0041542B5149434C4FE5
:1019160053450D0041542B514944454143540D0054
:1019260041542B5149535441540D0053544154458D
:101936003A20434F4E4E454354204F4B0D0A00412B
:10194600542B514953454E440D003E20001A005376
:10195600454E44204F4B0D0041542B5149534143B2
:101966004B0D0041542B51494647434E543D300DD3
:101976000041542B5149435347503D312C22707539
:10198600626C6963222C22222C22220D0041542BE8
:1019960051494D55583D300D0041542B51494D4F3D
:1019A60044453D300D0041542B5149444E53495056
:1019B6003D300D0041542B51495245474150500D81
:1019C6000053544154453A204950205354415254EF
:1019D6000D0A0041542B51494143540D00535441C3
:1019E60054453A20495020475052534143540D0A1A
:1019F6000041542B51494C4F4349500D005354411B
:101A060054453A20495020494E495449414C0D0A03
:101A16000053544154453A2049502053544154559B
:101A2600530D0A0053544154453A20495020434C23
:101A36004F53450D0A00414C524541445920434FEE
:101A46004E4E4543540041542B51494F50454E3D4F
:101A560022544350222C2238352E3131392E383338
:101A66002E313934222C313838330D0041542B5164
:101A760049535256433D310D0041542B514C54535A
:101A86000D00220D0A0041542B43474154543F0D8B
:101A96000041542B514E5354415455530D00514E51
:101AA6005354415455533A20300D0A0041542B43A8
:101AB600474D520D0041542B434950535441525403
:101AC6003D0054435000222C220038352E31313946
:101AD6002E38332E31393400313838330041542B07
:101AE600435354543D007075626C696300000000F6
:101AF600000000FFFF0000000000000000000000E2
:101B06000000000000000000000000000000005877
:101B1600018A011E0000000164018A011E00000006
:101B26000170017B011E000000018F019A011E0059
:101B36000000019D019F011E00000001A8018A010D
:101B46001E00000001B3018A011E00000001C10150
:101B56008A011E00000001DD018A011E000000014D
:101B6600E9018A011E00000001F6018A011E00003B
:101B7600000104028A011E00000001700111021E0C
:101B86000000000123028A01D00700000170012D28
:101B9600021E00000001410200001E0000001B7032
:101BA600014D021E00000001700161021E000000CE
:101BB60001700174021E00000001700186021E0001
:101BC60000000170017B011E0000000196028201E7
:101BD600D007000001BC028A011E00000001C902F4
:101BE600D2021E00000001D6028A01D007000001C1
:101BF600E102EE021E0000001BFC028A011E00002C
:101C060000014D515454004D5149736470004C45C8
:021C16000000CC
:00000001FF
